{
  "contractName": "Counter",
  "abi": [
    {
      "inputs": [],
      "stateMutability": "nonpayable",
      "type": "constructor"
    },
    {
      "anonymous": false,
      "inputs": [
        {
          "indexed": false,
          "internalType": "int256",
          "name": "count",
          "type": "int256"
        },
        {
          "indexed": false,
          "internalType": "string",
          "name": "text",
          "type": "string"
        }
      ],
      "name": "Count",
      "type": "event"
    },
    {
      "inputs": [],
      "name": "getCount",
      "outputs": [
        {
          "internalType": "int256",
          "name": "",
          "type": "int256"
        }
      ],
      "stateMutability": "view",
      "type": "function",
      "constant": true
    },
    {
      "inputs": [],
      "name": "increment",
      "outputs": [],
      "stateMutability": "nonpayable",
      "type": "function"
    },
    {
      "inputs": [],
      "name": "decrement",
      "outputs": [],
      "stateMutability": "nonpayable",
      "type": "function"
    }
  ],
  "bytecode": "0x608060405234801561001057600080fd5b506000808190555061034e806100276000396000f3fe608060405234801561001057600080fd5b50600436106100415760003560e01c80632baeceb714610046578063a87d942c14610050578063d09de08a1461006e575b600080fd5b61004e610078565b005b6100586100cc565b6040516100659190610142565b60405180910390f35b6100766100d5565b005b600160008082825461008a919061018c565b925050819055507fe22e39d53ebe8acfe14778e3caf03cf9647a08526a7e548136a8281261bb60c76000546040516100c2919061022c565b60405180910390a1565b60008054905090565b60016000808282546100e7919061025a565b925050819055507fe22e39d53ebe8acfe14778e3caf03cf9647a08526a7e548136a8281261bb60c760005460405161011f91906102ea565b60405180910390a1565b6000819050919050565b61013c81610129565b82525050565b60006020820190506101576000830184610133565b92915050565b7f4e487b7100000000000000000000000000000000000000000000000000000000600052601160045260246000fd5b600061019782610129565b91506101a283610129565b92508282039050818112600084121682821360008512151617156101c9576101c861015d565b5b92915050565b600082825260208201905092915050565b7f64656372656d656e740000000000000000000000000000000000000000000000600082015250565b60006102166009836101cf565b9150610221826101e0565b602082019050919050565b60006040820190506102416000830184610133565b818103602083015261025281610209565b905092915050565b600061026582610129565b915061027083610129565b9250828201905082811215600083121683821260008412151617156102985761029761015d565b5b92915050565b7f696e6372656d656e740000000000000000000000000000000000000000000000600082015250565b60006102d46009836101cf565b91506102df8261029e565b602082019050919050565b60006040820190506102ff6000830184610133565b8181036020830152610310816102c7565b90509291505056fea26469706673582212204b78170ee8481b626f3858f55581191a479055b2af688452b4c4151f76de320d64736f6c63430008130033",
  "immutableReferences": {},
  "source": "// SPDX-License-Identifier: MIT\r\npragma solidity ^0.8.18;\r\n\r\ncontract Counter {\r\n  int256 private count;\r\n\r\n  event Count(int256 count, string text);\r\n\r\n  constructor() {\r\n    count = 0;\r\n  }\r\n\r\n  function getCount() public view returns (int256) {\r\n    return count;\r\n  }\r\n\r\n  function increment() public {\r\n    count += 1;\r\n    emit Count(count, \"increment\");\r\n  }\r\n\r\n  function decrement() public {\r\n    count -= 1;\r\n    emit Count(count, \"decrement\");\r\n  }\r\n}\r\n//  sol\r\n//1.npx truffle compile \r\n//2. migrations 2_deploy_Counter.js   \r\n//3.  npx truffle migration  \r\n",
  "sourcePath": "C:\\Users\\KGA_18\\Documents\\GitHub\\blockchain2208\\blockchain2208\\230303test\\230303\\back\\contracts\\Counter.sol",
  "compiler": {
    "name": "solc",
    "version": "0.8.19+commit.7dd6d404.Emscripten.clang"
  },
  "schemaVersion": "3.4.13",
  "updatedAt": "2023-03-03T06:29:00.697Z",
  "networkType": "ethereum",
  "devdoc": {
    "kind": "dev",
    "methods": {},
    "version": 1
  },
  "userdoc": {
    "kind": "user",
    "methods": {},
    "version": 1
  }
}