{
  "contractName": "GyulToken",
  "abi": [
    {
      "inputs": [
        {
          "internalType": "string",
          "name": "_name",
          "type": "string"
        },
        {
          "internalType": "string",
          "name": "_symbol",
          "type": "string"
        },
        {
          "internalType": "string",
          "name": "_metadataURI",
          "type": "string"
        }
      ],
      "stateMutability": "nonpayable",
      "type": "constructor"
    },
    {
      "anonymous": false,
      "inputs": [
        {
          "indexed": true,
          "internalType": "address",
          "name": "owner",
          "type": "address"
        },
        {
          "indexed": true,
          "internalType": "address",
          "name": "approved",
          "type": "address"
        },
        {
          "indexed": true,
          "internalType": "uint256",
          "name": "tokenId",
          "type": "uint256"
        }
      ],
      "name": "Approval",
      "type": "event"
    },
    {
      "anonymous": false,
      "inputs": [
        {
          "indexed": true,
          "internalType": "address",
          "name": "owner",
          "type": "address"
        },
        {
          "indexed": true,
          "internalType": "address",
          "name": "operator",
          "type": "address"
        },
        {
          "indexed": false,
          "internalType": "bool",
          "name": "approved",
          "type": "bool"
        }
      ],
      "name": "ApprovalForAll",
      "type": "event"
    },
    {
      "anonymous": false,
      "inputs": [
        {
          "indexed": true,
          "internalType": "address",
          "name": "previousOwner",
          "type": "address"
        },
        {
          "indexed": true,
          "internalType": "address",
          "name": "newOwner",
          "type": "address"
        }
      ],
      "name": "OwnershipTransferred",
      "type": "event"
    },
    {
      "anonymous": false,
      "inputs": [
        {
          "indexed": true,
          "internalType": "address",
          "name": "from",
          "type": "address"
        },
        {
          "indexed": true,
          "internalType": "address",
          "name": "to",
          "type": "address"
        },
        {
          "indexed": true,
          "internalType": "uint256",
          "name": "tokenId",
          "type": "uint256"
        }
      ],
      "name": "Transfer",
      "type": "event"
    },
    {
      "inputs": [],
      "name": "MAX_TOKEN_COUNT",
      "outputs": [
        {
          "internalType": "uint256",
          "name": "",
          "type": "uint256"
        }
      ],
      "stateMutability": "view",
      "type": "function",
      "constant": true
    },
    {
      "inputs": [
        {
          "internalType": "uint256",
          "name": "",
          "type": "uint256"
        }
      ],
      "name": "TokenDatas",
      "outputs": [
        {
          "internalType": "uint256",
          "name": "Rank",
          "type": "uint256"
        },
        {
          "internalType": "uint256",
          "name": "Type",
          "type": "uint256"
        }
      ],
      "stateMutability": "view",
      "type": "function",
      "constant": true
    },
    {
      "inputs": [
        {
          "internalType": "address",
          "name": "to",
          "type": "address"
        },
        {
          "internalType": "uint256",
          "name": "tokenId",
          "type": "uint256"
        }
      ],
      "name": "approve",
      "outputs": [],
      "stateMutability": "nonpayable",
      "type": "function"
    },
    {
      "inputs": [
        {
          "internalType": "address",
          "name": "owner",
          "type": "address"
        }
      ],
      "name": "balanceOf",
      "outputs": [
        {
          "internalType": "uint256",
          "name": "",
          "type": "uint256"
        }
      ],
      "stateMutability": "view",
      "type": "function",
      "constant": true
    },
    {
      "inputs": [
        {
          "internalType": "uint256",
          "name": "tokenId",
          "type": "uint256"
        }
      ],
      "name": "getApproved",
      "outputs": [
        {
          "internalType": "address",
          "name": "",
          "type": "address"
        }
      ],
      "stateMutability": "view",
      "type": "function",
      "constant": true
    },
    {
      "inputs": [
        {
          "internalType": "address",
          "name": "owner",
          "type": "address"
        },
        {
          "internalType": "address",
          "name": "operator",
          "type": "address"
        }
      ],
      "name": "isApprovedForAll",
      "outputs": [
        {
          "internalType": "bool",
          "name": "",
          "type": "bool"
        }
      ],
      "stateMutability": "view",
      "type": "function",
      "constant": true
    },
    {
      "inputs": [],
      "name": "metadataURI",
      "outputs": [
        {
          "internalType": "string",
          "name": "",
          "type": "string"
        }
      ],
      "stateMutability": "view",
      "type": "function",
      "constant": true
    },
    {
      "inputs": [],
      "name": "mint_price",
      "outputs": [
        {
          "internalType": "uint256",
          "name": "",
          "type": "uint256"
        }
      ],
      "stateMutability": "view",
      "type": "function",
      "constant": true
    },
    {
      "inputs": [],
      "name": "name",
      "outputs": [
        {
          "internalType": "string",
          "name": "",
          "type": "string"
        }
      ],
      "stateMutability": "view",
      "type": "function",
      "constant": true
    },
    {
      "inputs": [],
      "name": "owner",
      "outputs": [
        {
          "internalType": "address",
          "name": "",
          "type": "address"
        }
      ],
      "stateMutability": "view",
      "type": "function",
      "constant": true
    },
    {
      "inputs": [
        {
          "internalType": "uint256",
          "name": "tokenId",
          "type": "uint256"
        }
      ],
      "name": "ownerOf",
      "outputs": [
        {
          "internalType": "address",
          "name": "",
          "type": "address"
        }
      ],
      "stateMutability": "view",
      "type": "function",
      "constant": true
    },
    {
      "inputs": [],
      "name": "renounceOwnership",
      "outputs": [],
      "stateMutability": "nonpayable",
      "type": "function"
    },
    {
      "inputs": [
        {
          "internalType": "address",
          "name": "from",
          "type": "address"
        },
        {
          "internalType": "address",
          "name": "to",
          "type": "address"
        },
        {
          "internalType": "uint256",
          "name": "tokenId",
          "type": "uint256"
        }
      ],
      "name": "safeTransferFrom",
      "outputs": [],
      "stateMutability": "nonpayable",
      "type": "function"
    },
    {
      "inputs": [
        {
          "internalType": "address",
          "name": "from",
          "type": "address"
        },
        {
          "internalType": "address",
          "name": "to",
          "type": "address"
        },
        {
          "internalType": "uint256",
          "name": "tokenId",
          "type": "uint256"
        },
        {
          "internalType": "bytes",
          "name": "_data",
          "type": "bytes"
        }
      ],
      "name": "safeTransferFrom",
      "outputs": [],
      "stateMutability": "nonpayable",
      "type": "function"
    },
    {
      "inputs": [
        {
          "internalType": "address",
          "name": "operator",
          "type": "address"
        },
        {
          "internalType": "bool",
          "name": "approved",
          "type": "bool"
        }
      ],
      "name": "setApprovalForAll",
      "outputs": [],
      "stateMutability": "nonpayable",
      "type": "function"
    },
    {
      "inputs": [
        {
          "internalType": "bytes4",
          "name": "interfaceId",
          "type": "bytes4"
        }
      ],
      "name": "supportsInterface",
      "outputs": [
        {
          "internalType": "bool",
          "name": "",
          "type": "bool"
        }
      ],
      "stateMutability": "view",
      "type": "function",
      "constant": true
    },
    {
      "inputs": [],
      "name": "symbol",
      "outputs": [
        {
          "internalType": "string",
          "name": "",
          "type": "string"
        }
      ],
      "stateMutability": "view",
      "type": "function",
      "constant": true
    },
    {
      "inputs": [
        {
          "internalType": "uint256",
          "name": "index",
          "type": "uint256"
        }
      ],
      "name": "tokenByIndex",
      "outputs": [
        {
          "internalType": "uint256",
          "name": "",
          "type": "uint256"
        }
      ],
      "stateMutability": "view",
      "type": "function",
      "constant": true
    },
    {
      "inputs": [
        {
          "internalType": "uint256",
          "name": "",
          "type": "uint256"
        },
        {
          "internalType": "uint256",
          "name": "",
          "type": "uint256"
        }
      ],
      "name": "tokenCount",
      "outputs": [
        {
          "internalType": "uint256",
          "name": "",
          "type": "uint256"
        }
      ],
      "stateMutability": "view",
      "type": "function",
      "constant": true
    },
    {
      "inputs": [
        {
          "internalType": "address",
          "name": "owner",
          "type": "address"
        },
        {
          "internalType": "uint256",
          "name": "index",
          "type": "uint256"
        }
      ],
      "name": "tokenOfOwnerByIndex",
      "outputs": [
        {
          "internalType": "uint256",
          "name": "",
          "type": "uint256"
        }
      ],
      "stateMutability": "view",
      "type": "function",
      "constant": true
    },
    {
      "inputs": [],
      "name": "totalSupply",
      "outputs": [
        {
          "internalType": "uint256",
          "name": "",
          "type": "uint256"
        }
      ],
      "stateMutability": "view",
      "type": "function",
      "constant": true
    },
    {
      "inputs": [
        {
          "internalType": "address",
          "name": "from",
          "type": "address"
        },
        {
          "internalType": "address",
          "name": "to",
          "type": "address"
        },
        {
          "internalType": "uint256",
          "name": "tokenId",
          "type": "uint256"
        }
      ],
      "name": "transferFrom",
      "outputs": [],
      "stateMutability": "nonpayable",
      "type": "function"
    },
    {
      "inputs": [
        {
          "internalType": "address",
          "name": "newOwner",
          "type": "address"
        }
      ],
      "name": "transferOwnership",
      "outputs": [],
      "stateMutability": "nonpayable",
      "type": "function"
    },
    {
      "inputs": [],
      "name": "mintToken",
      "outputs": [],
      "stateMutability": "payable",
      "type": "function",
      "payable": true
    },
    {
      "inputs": [
        {
          "internalType": "uint256",
          "name": "_tokenId",
          "type": "uint256"
        }
      ],
      "name": "tokenURI",
      "outputs": [
        {
          "internalType": "string",
          "name": "",
          "type": "string"
        }
      ],
      "stateMutability": "view",
      "type": "function",
      "constant": true
    },
    {
      "inputs": [
        {
          "internalType": "string",
          "name": "_uri",
          "type": "string"
        }
      ],
      "name": "setMetadataURI",
      "outputs": [],
      "stateMutability": "nonpayable",
      "type": "function"
    },
    {
      "inputs": [
        {
          "internalType": "uint256",
          "name": "_tokenId",
          "type": "uint256"
        }
      ],
      "name": "getTokenRank",
      "outputs": [
        {
          "internalType": "uint256",
          "name": "",
          "type": "uint256"
        }
      ],
      "stateMutability": "view",
      "type": "function",
      "constant": true
    },
    {
      "inputs": [
        {
          "internalType": "uint256",
          "name": "_tokenId",
          "type": "uint256"
        }
      ],
      "name": "getTokenType",
      "outputs": [
        {
          "internalType": "uint256",
          "name": "",
          "type": "uint256"
        }
      ],
      "stateMutability": "view",
      "type": "function",
      "constant": true
    },
    {
      "inputs": [],
      "name": "getTokenCount",
      "outputs": [
        {
          "internalType": "uint256[4][4]",
          "name": "",
          "type": "uint256[4][4]"
        }
      ],
      "stateMutability": "view",
      "type": "function",
      "constant": true
    }
  ],
  "bytecode": "0x6080604052670de0b6b3a7640000600b553480156200001d57600080fd5b506040516200494d3803806200494d833981810160405281019062000043919062000311565b8282816000908162000056919062000615565b50806001908162000068919062000615565b5050506200008b6200007f620000a660201b60201c565b620000ae60201b60201c565b80600c90816200009c919062000615565b50505050620006fc565b600033905090565b6000600a60009054906101000a900473ffffffffffffffffffffffffffffffffffffffff16905081600a60006101000a81548173ffffffffffffffffffffffffffffffffffffffff021916908373ffffffffffffffffffffffffffffffffffffffff1602179055508173ffffffffffffffffffffffffffffffffffffffff168173ffffffffffffffffffffffffffffffffffffffff167f8be0079c531659141344cd1fd0a4f28419497f9722a3daafe3b4186f6b6457e060405160405180910390a35050565b6000604051905090565b600080fd5b600080fd5b600080fd5b600080fd5b6000601f19601f8301169050919050565b7f4e487b7100000000000000000000000000000000000000000000000000000000600052604160045260246000fd5b620001dd8262000192565b810181811067ffffffffffffffff82111715620001ff57620001fe620001a3565b5b80604052505050565b60006200021462000174565b9050620002228282620001d2565b919050565b600067ffffffffffffffff821115620002455762000244620001a3565b5b620002508262000192565b9050602081019050919050565b60005b838110156200027d57808201518184015260208101905062000260565b838111156200028d576000848401525b50505050565b6000620002aa620002a48462000227565b62000208565b905082815260208101848484011115620002c957620002c86200018d565b5b620002d68482856200025d565b509392505050565b600082601f830112620002f657620002f562000188565b5b81516200030884826020860162000293565b91505092915050565b6000806000606084860312156200032d576200032c6200017e565b5b600084015167ffffffffffffffff8111156200034e576200034d62000183565b5b6200035c86828701620002de565b935050602084015167ffffffffffffffff81111562000380576200037f62000183565b5b6200038e86828701620002de565b925050604084015167ffffffffffffffff811115620003b257620003b162000183565b5b620003c086828701620002de565b9150509250925092565b600081519050919050565b7f4e487b7100000000000000000000000000000000000000000000000000000000600052602260045260246000fd5b600060028204905060018216806200041d57607f821691505b602082108103620004335762000432620003d5565b5b50919050565b60008190508160005260206000209050919050565b60006020601f8301049050919050565b600082821b905092915050565b6000600883026200049d7fffffffffffffffffffffffffffffffffffffffffffffffffffffffffffffffff826200045e565b620004a986836200045e565b95508019841693508086168417925050509392505050565b6000819050919050565b6000819050919050565b6000620004f6620004f0620004ea84620004c1565b620004cb565b620004c1565b9050919050565b6000819050919050565b6200051283620004d5565b6200052a6200052182620004fd565b8484546200046b565b825550505050565b600090565b6200054162000532565b6200054e81848462000507565b505050565b5b8181101562000576576200056a60008262000537565b60018101905062000554565b5050565b601f821115620005c5576200058f8162000439565b6200059a846200044e565b81016020851015620005aa578190505b620005c2620005b9856200044e565b83018262000553565b50505b505050565b600082821c905092915050565b6000620005ea60001984600802620005ca565b1980831691505092915050565b6000620006058383620005d7565b9150826002028217905092915050565b6200062082620003ca565b67ffffffffffffffff8111156200063c576200063b620001a3565b5b62000648825462000404565b620006558282856200057a565b600060209050601f8311600181146200068d576000841562000678578287015190505b620006848582620005f7565b865550620006f4565b601f1984166200069d8662000439565b60005b82811015620006c757848901518255600182019150602085019450602081019050620006a0565b86831015620006e75784890151620006e3601f891682620005d7565b8355505b6001600288020188555050505b505050505050565b614241806200070c6000396000f3fe6080604052600436106101c25760003560e01c806370a08231116100f7578063a22cb46511610095578063d9f33c1411610064578063d9f33c141461065c578063e985e9c514610699578063ea3b04ba146106d6578063f2fde38b14610713576101c2565b8063a22cb465146105a2578063b88d4fde146105cb578063c87b56dd146105f4578063d0bbb0d714610631576101c2565b806376aed2e1116100d157806376aed2e1146104e457806378a89567146105215780638da5cb5b1461054c57806395d89b4114610577576101c2565b806370a0823114610467578063715018a6146104a4578063750521f5146104bb576101c2565b80631b8151ae116101645780632f745c591161013e5780632f745c591461038757806342842e0e146103c45780634f6ccce7146103ed5780636352211e1461042a576101c2565b80631b8151ae146103165780632004ffd91461035457806323b872dd1461035e576101c2565b8063081812fc116101a0578063081812fc1461025a578063095ea7b31461029757806318160ddd146102c05780631a4231a4146102eb576101c2565b806301ffc9a7146101c757806303ee438c1461020457806306fdde031461022f575b600080fd5b3480156101d357600080fd5b506101ee60048036038101906101e991906128f5565b61073c565b6040516101fb919061293d565b60405180910390f35b34801561021057600080fd5b506102196107b6565b60405161022691906129f1565b60405180910390f35b34801561023b57600080fd5b50610244610844565b60405161025191906129f1565b60405180910390f35b34801561026657600080fd5b50610281600480360381019061027c9190612a49565b6108d6565b60405161028e9190612ab7565b60405180910390f35b3480156102a357600080fd5b506102be60048036038101906102b99190612afe565b61095b565b005b3480156102cc57600080fd5b506102d5610a72565b6040516102e29190612b4d565b60405180910390f35b3480156102f757600080fd5b50610300610a7f565b60405161030d9190612b4d565b60405180910390f35b34801561032257600080fd5b5061033d60048036038101906103389190612a49565b610a85565b60405161034b929190612b68565b60405180910390f35b61035c610aa9565b005b34801561036a57600080fd5b5061038560048036038101906103809190612b91565b610bfa565b005b34801561039357600080fd5b506103ae60048036038101906103a99190612afe565b610c5a565b6040516103bb9190612b4d565b60405180910390f35b3480156103d057600080fd5b506103eb60048036038101906103e69190612b91565b610cff565b005b3480156103f957600080fd5b50610414600480360381019061040f9190612a49565b610d1f565b6040516104219190612b4d565b60405180910390f35b34801561043657600080fd5b50610451600480360381019061044c9190612a49565b610d90565b60405161045e9190612ab7565b60405180910390f35b34801561047357600080fd5b5061048e60048036038101906104899190612be4565b610e41565b60405161049b9190612b4d565b60405180910390f35b3480156104b057600080fd5b506104b9610ef8565b005b3480156104c757600080fd5b506104e260048036038101906104dd9190612d46565b610f80565b005b3480156104f057600080fd5b5061050b60048036038101906105069190612a49565b61100f565b6040516105189190612b4d565b60405180910390f35b34801561052d57600080fd5b5061053661102f565b6040516105439190612ed6565b60405180910390f35b34801561055857600080fd5b506105616110b2565b60405161056e9190612ab7565b60405180910390f35b34801561058357600080fd5b5061058c6110dc565b60405161059991906129f1565b60405180910390f35b3480156105ae57600080fd5b506105c960048036038101906105c49190612f1e565b61116e565b005b3480156105d757600080fd5b506105f260048036038101906105ed9190612fff565b611184565b005b34801561060057600080fd5b5061061b60048036038101906106169190612a49565b6111e6565b60405161062891906129f1565b60405180910390f35b34801561063d57600080fd5b5061064661125c565b6040516106539190612b4d565b60405180910390f35b34801561066857600080fd5b50610683600480360381019061067e9190612a49565b611262565b6040516106909190612b4d565b60405180910390f35b3480156106a557600080fd5b506106c060048036038101906106bb9190613082565b611282565b6040516106cd919061293d565b60405180910390f35b3480156106e257600080fd5b506106fd60048036038101906106f891906130c2565b611316565b60405161070a9190612b4d565b60405180910390f35b34801561071f57600080fd5b5061073a60048036038101906107359190612be4565b611344565b005b60007f780e9d63000000000000000000000000000000000000000000000000000000007bffffffffffffffffffffffffffffffffffffffffffffffffffffffff1916827bffffffffffffffffffffffffffffffffffffffffffffffffffffffff191614806107af57506107ae8261143b565b5b9050919050565b600c80546107c390613131565b80601f01602080910402602001604051908101604052809291908181526020018280546107ef90613131565b801561083c5780601f106108115761010080835404028352916020019161083c565b820191906000526020600020905b81548152906001019060200180831161081f57829003601f168201915b505050505081565b60606000805461085390613131565b80601f016020809104026020016040519081016040528092919081815260200182805461087f90613131565b80156108cc5780601f106108a1576101008083540402835291602001916108cc565b820191906000526020600020905b8154815290600101906020018083116108af57829003601f168201915b5050505050905090565b60006108e18261151d565b610920576040517f08c379a0000000000000000000000000000000000000000000000000000000008152600401610917906131d4565b60405180910390fd5b6004600083815260200190815260200160002060009054906101000a900473ffffffffffffffffffffffffffffffffffffffff169050919050565b600061096682610d90565b90508073ffffffffffffffffffffffffffffffffffffffff168373ffffffffffffffffffffffffffffffffffffffff16036109d6576040517f08c379a00000000000000000000000000000000000000000000000000000000081526004016109cd90613266565b60405180910390fd5b8073ffffffffffffffffffffffffffffffffffffffff166109f5611589565b73ffffffffffffffffffffffffffffffffffffffff161480610a245750610a2381610a1e611589565b611282565b5b610a63576040517f08c379a0000000000000000000000000000000000000000000000000000000008152600401610a5a906132f8565b60405180910390fd5b610a6d8383611591565b505050565b6000600880549050905090565b600b5481565b600d6020528060005260406000206000915090508060000154908060010154905082565b600b543414610ab757600080fd5b610abf610a72565b6103e811610acc57600080fd5b60006001610ad8610a72565b610ae29190613347565b9050610aee338261164a565b600d600083815260200190815260200160002060008201518160000155602082015181600101559050506001600e6001600d600085815260200190815260200160002060000154610b3f919061339d565b60048110610b5057610b4f6133d1565b5b600402016001600d600085815260200190815260200160002060010154610b77919061339d565b60048110610b8857610b876133d1565b5b016000828254610b989190613347565b92505081905550610ba76110b2565b73ffffffffffffffffffffffffffffffffffffffff166108fc349081150290604051600060405180830381858888f19350505050158015610bec573d6000803e3d6000fd5b50610bf733826118df565b50565b610c0b610c05611589565b82611ab8565b610c4a576040517f08c379a0000000000000000000000000000000000000000000000000000000008152600401610c4190613472565b60405180910390fd5b610c55838383611b96565b505050565b6000610c6583610e41565b8210610ca6576040517f08c379a0000000000000000000000000000000000000000000000000000000008152600401610c9d90613504565b60405180910390fd5b600660008473ffffffffffffffffffffffffffffffffffffffff1673ffffffffffffffffffffffffffffffffffffffff168152602001908152602001600020600083815260200190815260200160002054905092915050565b610d1a83838360405180602001604052806000815250611184565b505050565b6000610d29610a72565b8210610d6a576040517f08c379a0000000000000000000000000000000000000000000000000000000008152600401610d6190613596565b60405180910390fd5b60088281548110610d7e57610d7d6133d1565b5b90600052602060002001549050919050565b6000806002600084815260200190815260200160002060009054906101000a900473ffffffffffffffffffffffffffffffffffffffff169050600073ffffffffffffffffffffffffffffffffffffffff168173ffffffffffffffffffffffffffffffffffffffff1603610e38576040517f08c379a0000000000000000000000000000000000000000000000000000000008152600401610e2f90613628565b60405180910390fd5b80915050919050565b60008073ffffffffffffffffffffffffffffffffffffffff168273ffffffffffffffffffffffffffffffffffffffff1603610eb1576040517f08c379a0000000000000000000000000000000000000000000000000000000008152600401610ea8906136ba565b60405180910390fd5b600360008373ffffffffffffffffffffffffffffffffffffffff1673ffffffffffffffffffffffffffffffffffffffff168152602001908152602001600020549050919050565b610f00611589565b73ffffffffffffffffffffffffffffffffffffffff16610f1e6110b2565b73ffffffffffffffffffffffffffffffffffffffff1614610f74576040517f08c379a0000000000000000000000000000000000000000000000000000000008152600401610f6b90613726565b60405180910390fd5b610f7e6000611dfc565b565b610f88611589565b73ffffffffffffffffffffffffffffffffffffffff16610fa66110b2565b73ffffffffffffffffffffffffffffffffffffffff1614610ffc576040517f08c379a0000000000000000000000000000000000000000000000000000000008152600401610ff390613726565b60405180910390fd5b80600c908161100b91906138f2565b5050565b6000600d6000838152602001908152602001600020600101549050919050565b611037612820565b600e600480602002604051908101604052809291906000905b828210156110a957838260040201600480602002604051908101604052809291908260048015611095576020028201915b815481526020019060010190808311611081575b505050505081526020019060010190611050565b50505050905090565b6000600a60009054906101000a900473ffffffffffffffffffffffffffffffffffffffff16905090565b6060600180546110eb90613131565b80601f016020809104026020016040519081016040528092919081815260200182805461111790613131565b80156111645780601f1061113957610100808354040283529160200191611164565b820191906000526020600020905b81548152906001019060200180831161114757829003601f168201915b5050505050905090565b611180611179611589565b8383611ec2565b5050565b61119561118f611589565b83611ab8565b6111d4576040517f08c379a00000000000000000000000000000000000000000000000000000000081526004016111cb90613472565b60405180910390fd5b6111e08484848461202e565b50505050565b60606000611209600d60008581526020019081526020016000206000015461208a565b9050600061122c600d60008681526020019081526020016000206001015461208a565b9050600c828260405160200161124493929190613b1b565b60405160208183030381529060405292505050919050565b6103e881565b6000600d6000838152602001908152602001600020600001549050919050565b6000600560008473ffffffffffffffffffffffffffffffffffffffff1673ffffffffffffffffffffffffffffffffffffffff16815260200190815260200160002060008373ffffffffffffffffffffffffffffffffffffffff1673ffffffffffffffffffffffffffffffffffffffff16815260200190815260200160002060009054906101000a900460ff16905092915050565b600e826004811061132657600080fd5b60040201816004811061133857600080fd5b01600091509150505481565b61134c611589565b73ffffffffffffffffffffffffffffffffffffffff1661136a6110b2565b73ffffffffffffffffffffffffffffffffffffffff16146113c0576040517f08c379a00000000000000000000000000000000000000000000000000000000081526004016113b790613726565b60405180910390fd5b600073ffffffffffffffffffffffffffffffffffffffff168173ffffffffffffffffffffffffffffffffffffffff160361142f576040517f08c379a000000000000000000000000000000000000000000000000000000000815260040161142690613bdf565b60405180910390fd5b61143881611dfc565b50565b60007f80ac58cd000000000000000000000000000000000000000000000000000000007bffffffffffffffffffffffffffffffffffffffffffffffffffffffff1916827bffffffffffffffffffffffffffffffffffffffffffffffffffffffff1916148061150657507f5b5e139f000000000000000000000000000000000000000000000000000000007bffffffffffffffffffffffffffffffffffffffffffffffffffffffff1916827bffffffffffffffffffffffffffffffffffffffffffffffffffffffff1916145b806115165750611515826121ea565b5b9050919050565b60008073ffffffffffffffffffffffffffffffffffffffff166002600084815260200190815260200160002060009054906101000a900473ffffffffffffffffffffffffffffffffffffffff1673ffffffffffffffffffffffffffffffffffffffff1614159050919050565b600033905090565b816004600083815260200190815260200160002060006101000a81548173ffffffffffffffffffffffffffffffffffffffff021916908373ffffffffffffffffffffffffffffffffffffffff160217905550808273ffffffffffffffffffffffffffffffffffffffff1661160483610d90565b73ffffffffffffffffffffffffffffffffffffffff167f8c5be1e5ebec7d5bd14f71427d1e84f3dd0314c0f7b2291e5b200ac8c7c3b92560405160405180910390a45050565b61165261284d565b600060648484604051602001611669929190613c68565b6040516020818303038152906040528051906020012060001c61168c9190613cc3565b905061169661284d565b600582101561172657600182036116c25760048160000181815250506001816020018181525050611721565b600282036116e55760048160000181815250506002816020018181525050611720565b60038203611708576004816000018181525050600381602001818152505061171f565b600481600001818152505060048160200181815250505b5b5b6118d4565b600d8210156117b957600782101561175357600381600001818152505060018160200181815250506117b4565b600982101561177757600381600001818152505060028160200181815250506117b3565b600b82101561179b57600381600001818152505060038160200181815250506117b2565b600381600001818152505060048160200181815250505b5b5b6118d3565b602582101561184c5760138210156117e65760028160000181815250506001816020018181525050611847565b601982101561180a5760028160000181815250506002816020018181525050611846565b601f82101561182e5760028160000181815250506003816020018181525050611845565b600281600001818152505060048160200181815250505b5b5b6118d2565b603482101561187057600181600001818152505060018160200181815250506118d1565b604482101561189457600181600001818152505060028160200181815250506118d0565b60548210156118b857600181600001818152505060038160200181815250506118cf565b600181600001818152505060048160200181815250505b5b5b5b5b5b809250505092915050565b600073ffffffffffffffffffffffffffffffffffffffff168273ffffffffffffffffffffffffffffffffffffffff160361194e576040517f08c379a000000000000000000000000000000000000000000000000000000000815260040161194590613d40565b60405180910390fd5b6119578161151d565b15611997576040517f08c379a000000000000000000000000000000000000000000000000000000000815260040161198e90613dac565b60405180910390fd5b6119a360008383612254565b6001600360008473ffffffffffffffffffffffffffffffffffffffff1673ffffffffffffffffffffffffffffffffffffffff16815260200190815260200160002060008282546119f39190613347565b92505081905550816002600083815260200190815260200160002060006101000a81548173ffffffffffffffffffffffffffffffffffffffff021916908373ffffffffffffffffffffffffffffffffffffffff160217905550808273ffffffffffffffffffffffffffffffffffffffff16600073ffffffffffffffffffffffffffffffffffffffff167fddf252ad1be2c89b69c2b068fc378daa952ba7f163c4a11628f55a4df523b3ef60405160405180910390a4611ab460008383612366565b5050565b6000611ac38261151d565b611b02576040517f08c379a0000000000000000000000000000000000000000000000000000000008152600401611af990613e3e565b60405180910390fd5b6000611b0d83610d90565b90508073ffffffffffffffffffffffffffffffffffffffff168473ffffffffffffffffffffffffffffffffffffffff161480611b4f5750611b4e8185611282565b5b80611b8d57508373ffffffffffffffffffffffffffffffffffffffff16611b75846108d6565b73ffffffffffffffffffffffffffffffffffffffff16145b91505092915050565b8273ffffffffffffffffffffffffffffffffffffffff16611bb682610d90565b73ffffffffffffffffffffffffffffffffffffffff1614611c0c576040517f08c379a0000000000000000000000000000000000000000000000000000000008152600401611c0390613ed0565b60405180910390fd5b600073ffffffffffffffffffffffffffffffffffffffff168273ffffffffffffffffffffffffffffffffffffffff1603611c7b576040517f08c379a0000000000000000000000000000000000000000000000000000000008152600401611c7290613f62565b60405180910390fd5b611c86838383612254565b611c91600082611591565b6001600360008573ffffffffffffffffffffffffffffffffffffffff1673ffffffffffffffffffffffffffffffffffffffff1681526020019081526020016000206000828254611ce1919061339d565b925050819055506001600360008473ffffffffffffffffffffffffffffffffffffffff1673ffffffffffffffffffffffffffffffffffffffff1681526020019081526020016000206000828254611d389190613347565b92505081905550816002600083815260200190815260200160002060006101000a81548173ffffffffffffffffffffffffffffffffffffffff021916908373ffffffffffffffffffffffffffffffffffffffff160217905550808273ffffffffffffffffffffffffffffffffffffffff168473ffffffffffffffffffffffffffffffffffffffff167fddf252ad1be2c89b69c2b068fc378daa952ba7f163c4a11628f55a4df523b3ef60405160405180910390a4611df7838383612366565b505050565b6000600a60009054906101000a900473ffffffffffffffffffffffffffffffffffffffff16905081600a60006101000a81548173ffffffffffffffffffffffffffffffffffffffff021916908373ffffffffffffffffffffffffffffffffffffffff1602179055508173ffffffffffffffffffffffffffffffffffffffff168173ffffffffffffffffffffffffffffffffffffffff167f8be0079c531659141344cd1fd0a4f28419497f9722a3daafe3b4186f6b6457e060405160405180910390a35050565b8173ffffffffffffffffffffffffffffffffffffffff168373ffffffffffffffffffffffffffffffffffffffff1603611f30576040517f08c379a0000000000000000000000000000000000000000000000000000000008152600401611f2790613fce565b60405180910390fd5b80600560008573ffffffffffffffffffffffffffffffffffffffff1673ffffffffffffffffffffffffffffffffffffffff16815260200190815260200160002060008473ffffffffffffffffffffffffffffffffffffffff1673ffffffffffffffffffffffffffffffffffffffff16815260200190815260200160002060006101000a81548160ff0219169083151502179055508173ffffffffffffffffffffffffffffffffffffffff168373ffffffffffffffffffffffffffffffffffffffff167f17307eab39ab6107e8899845ad3d59bd9653f200f220920489ca2b5937696c3183604051612021919061293d565b60405180910390a3505050565b612039848484611b96565b6120458484848461236b565b612084576040517f08c379a000000000000000000000000000000000000000000000000000000000815260040161207b90614060565b60405180910390fd5b50505050565b6060600082036120d1576040518060400160405280600181526020017f300000000000000000000000000000000000000000000000000000000000000081525090506121e5565b600082905060005b600082146121035780806120ec90614080565b915050600a826120fc91906140c8565b91506120d9565b60008167ffffffffffffffff81111561211f5761211e612c1b565b5b6040519080825280601f01601f1916602001820160405280156121515781602001600182028036833780820191505090505b5090505b600085146121de5760018261216a919061339d565b9150600a856121799190613cc3565b60306121859190613347565b60f81b81838151811061219b5761219a6133d1565b5b60200101907effffffffffffffffffffffffffffffffffffffffffffffffffffffffffffff1916908160001a905350600a856121d791906140c8565b9450612155565b8093505050505b919050565b60007f01ffc9a7000000000000000000000000000000000000000000000000000000007bffffffffffffffffffffffffffffffffffffffffffffffffffffffff1916827bffffffffffffffffffffffffffffffffffffffffffffffffffffffff1916149050919050565b61225f8383836124f2565b600073ffffffffffffffffffffffffffffffffffffffff168373ffffffffffffffffffffffffffffffffffffffff16036122a15761229c816124f7565b6122e0565b8173ffffffffffffffffffffffffffffffffffffffff168373ffffffffffffffffffffffffffffffffffffffff16146122df576122de8382612540565b5b5b600073ffffffffffffffffffffffffffffffffffffffff168273ffffffffffffffffffffffffffffffffffffffff16036123225761231d816126ad565b612361565b8273ffffffffffffffffffffffffffffffffffffffff168273ffffffffffffffffffffffffffffffffffffffff16146123605761235f828261277e565b5b5b505050565b505050565b600061238c8473ffffffffffffffffffffffffffffffffffffffff166127fd565b156124e5578373ffffffffffffffffffffffffffffffffffffffff1663150b7a026123b5611589565b8786866040518563ffffffff1660e01b81526004016123d7949392919061414e565b6020604051808303816000875af192505050801561241357506040513d601f19601f8201168201806040525081019061241091906141af565b60015b612495573d8060008114612443576040519150601f19603f3d011682016040523d82523d6000602084013e612448565b606091505b50600081510361248d576040517f08c379a000000000000000000000000000000000000000000000000000000000815260040161248490614060565b60405180910390fd5b805181602001fd5b63150b7a0260e01b7bffffffffffffffffffffffffffffffffffffffffffffffffffffffff1916817bffffffffffffffffffffffffffffffffffffffffffffffffffffffff1916149150506124ea565b600190505b949350505050565b505050565b6008805490506009600083815260200190815260200160002081905550600881908060018154018082558091505060019003906000526020600020016000909190919091505550565b6000600161254d84610e41565b612557919061339d565b905060006007600084815260200190815260200160002054905081811461263c576000600660008673ffffffffffffffffffffffffffffffffffffffff1673ffffffffffffffffffffffffffffffffffffffff168152602001908152602001600020600084815260200190815260200160002054905080600660008773ffffffffffffffffffffffffffffffffffffffff1673ffffffffffffffffffffffffffffffffffffffff168152602001908152602001600020600084815260200190815260200160002081905550816007600083815260200190815260200160002081905550505b6007600084815260200190815260200160002060009055600660008573ffffffffffffffffffffffffffffffffffffffff1673ffffffffffffffffffffffffffffffffffffffff16815260200190815260200160002060008381526020019081526020016000206000905550505050565b600060016008805490506126c1919061339d565b90506000600960008481526020019081526020016000205490506000600883815481106126f1576126f06133d1565b5b906000526020600020015490508060088381548110612713576127126133d1565b5b906000526020600020018190555081600960008381526020019081526020016000208190555060096000858152602001908152602001600020600090556008805480612762576127616141dc565b5b6001900381819060005260206000200160009055905550505050565b600061278983610e41565b905081600660008573ffffffffffffffffffffffffffffffffffffffff1673ffffffffffffffffffffffffffffffffffffffff168152602001908152602001600020600083815260200190815260200160002081905550806007600084815260200190815260200160002081905550505050565b6000808273ffffffffffffffffffffffffffffffffffffffff163b119050919050565b60405180608001604052806004905b612837612867565b81526020019060019003908161282f5790505090565b604051806040016040528060008152602001600081525090565b6040518060800160405280600490602082028036833780820191505090505090565b6000604051905090565b600080fd5b600080fd5b60007fffffffff0000000000000000000000000000000000000000000000000000000082169050919050565b6128d28161289d565b81146128dd57600080fd5b50565b6000813590506128ef816128c9565b92915050565b60006020828403121561290b5761290a612893565b5b6000612919848285016128e0565b91505092915050565b60008115159050919050565b61293781612922565b82525050565b6000602082019050612952600083018461292e565b92915050565b600081519050919050565b600082825260208201905092915050565b60005b83811015612992578082015181840152602081019050612977565b838111156129a1576000848401525b50505050565b6000601f19601f8301169050919050565b60006129c382612958565b6129cd8185612963565b93506129dd818560208601612974565b6129e6816129a7565b840191505092915050565b60006020820190508181036000830152612a0b81846129b8565b905092915050565b6000819050919050565b612a2681612a13565b8114612a3157600080fd5b50565b600081359050612a4381612a1d565b92915050565b600060208284031215612a5f57612a5e612893565b5b6000612a6d84828501612a34565b91505092915050565b600073ffffffffffffffffffffffffffffffffffffffff82169050919050565b6000612aa182612a76565b9050919050565b612ab181612a96565b82525050565b6000602082019050612acc6000830184612aa8565b92915050565b612adb81612a96565b8114612ae657600080fd5b50565b600081359050612af881612ad2565b92915050565b60008060408385031215612b1557612b14612893565b5b6000612b2385828601612ae9565b9250506020612b3485828601612a34565b9150509250929050565b612b4781612a13565b82525050565b6000602082019050612b626000830184612b3e565b92915050565b6000604082019050612b7d6000830185612b3e565b612b8a6020830184612b3e565b9392505050565b600080600060608486031215612baa57612ba9612893565b5b6000612bb886828701612ae9565b9350506020612bc986828701612ae9565b9250506040612bda86828701612a34565b9150509250925092565b600060208284031215612bfa57612bf9612893565b5b6000612c0884828501612ae9565b91505092915050565b600080fd5b600080fd5b7f4e487b7100000000000000000000000000000000000000000000000000000000600052604160045260246000fd5b612c53826129a7565b810181811067ffffffffffffffff82111715612c7257612c71612c1b565b5b80604052505050565b6000612c85612889565b9050612c918282612c4a565b919050565b600067ffffffffffffffff821115612cb157612cb0612c1b565b5b612cba826129a7565b9050602081019050919050565b82818337600083830152505050565b6000612ce9612ce484612c96565b612c7b565b905082815260208101848484011115612d0557612d04612c16565b5b612d10848285612cc7565b509392505050565b600082601f830112612d2d57612d2c612c11565b5b8135612d3d848260208601612cd6565b91505092915050565b600060208284031215612d5c57612d5b612893565b5b600082013567ffffffffffffffff811115612d7a57612d79612898565b5b612d8684828501612d18565b91505092915050565b600060049050919050565b600081905092915050565b6000819050919050565b600060049050919050565b600081905092915050565b6000819050919050565b612dd881612a13565b82525050565b6000612dea8383612dcf565b60208301905092915050565b6000602082019050919050565b612e0c81612daf565b612e168184612dba565b9250612e2182612dc5565b8060005b83811015612e52578151612e398782612dde565b9650612e4483612df6565b925050600181019050612e25565b505050505050565b6000612e668383612e03565b60808301905092915050565b6000602082019050919050565b612e8881612d8f565b612e928184612d9a565b9250612e9d82612da5565b8060005b83811015612ece578151612eb58782612e5a565b9650612ec083612e72565b925050600181019050612ea1565b505050505050565b600061020082019050612eec6000830184612e7f565b92915050565b612efb81612922565b8114612f0657600080fd5b50565b600081359050612f1881612ef2565b92915050565b60008060408385031215612f3557612f34612893565b5b6000612f4385828601612ae9565b9250506020612f5485828601612f09565b9150509250929050565b600067ffffffffffffffff821115612f7957612f78612c1b565b5b612f82826129a7565b9050602081019050919050565b6000612fa2612f9d84612f5e565b612c7b565b905082815260208101848484011115612fbe57612fbd612c16565b5b612fc9848285612cc7565b509392505050565b600082601f830112612fe657612fe5612c11565b5b8135612ff6848260208601612f8f565b91505092915050565b6000806000806080858703121561301957613018612893565b5b600061302787828801612ae9565b945050602061303887828801612ae9565b935050604061304987828801612a34565b925050606085013567ffffffffffffffff81111561306a57613069612898565b5b61307687828801612fd1565b91505092959194509250565b6000806040838503121561309957613098612893565b5b60006130a785828601612ae9565b92505060206130b885828601612ae9565b9150509250929050565b600080604083850312156130d9576130d8612893565b5b60006130e785828601612a34565b92505060206130f885828601612a34565b9150509250929050565b7f4e487b7100000000000000000000000000000000000000000000000000000000600052602260045260246000fd5b6000600282049050600182168061314957607f821691505b60208210810361315c5761315b613102565b5b50919050565b7f4552433732313a20617070726f76656420717565727920666f72206e6f6e657860008201527f697374656e7420746f6b656e0000000000000000000000000000000000000000602082015250565b60006131be602c83612963565b91506131c982613162565b604082019050919050565b600060208201905081810360008301526131ed816131b1565b9050919050565b7f4552433732313a20617070726f76616c20746f2063757272656e74206f776e6560008201527f7200000000000000000000000000000000000000000000000000000000000000602082015250565b6000613250602183612963565b915061325b826131f4565b604082019050919050565b6000602082019050818103600083015261327f81613243565b9050919050565b7f4552433732313a20617070726f76652063616c6c6572206973206e6f74206f7760008201527f6e6572206e6f7220617070726f76656420666f7220616c6c0000000000000000602082015250565b60006132e2603883612963565b91506132ed82613286565b604082019050919050565b60006020820190508181036000830152613311816132d5565b9050919050565b7f4e487b7100000000000000000000000000000000000000000000000000000000600052601160045260246000fd5b600061335282612a13565b915061335d83612a13565b9250827fffffffffffffffffffffffffffffffffffffffffffffffffffffffffffffffff0382111561339257613391613318565b5b828201905092915050565b60006133a882612a13565b91506133b383612a13565b9250828210156133c6576133c5613318565b5b828203905092915050565b7f4e487b7100000000000000000000000000000000000000000000000000000000600052603260045260246000fd5b7f4552433732313a207472616e736665722063616c6c6572206973206e6f74206f60008201527f776e6572206e6f7220617070726f766564000000000000000000000000000000602082015250565b600061345c603183612963565b915061346782613400565b604082019050919050565b6000602082019050818103600083015261348b8161344f565b9050919050565b7f455243373231456e756d657261626c653a206f776e657220696e646578206f7560008201527f74206f6620626f756e6473000000000000000000000000000000000000000000602082015250565b60006134ee602b83612963565b91506134f982613492565b604082019050919050565b6000602082019050818103600083015261351d816134e1565b9050919050565b7f455243373231456e756d657261626c653a20676c6f62616c20696e646578206f60008201527f7574206f6620626f756e64730000000000000000000000000000000000000000602082015250565b6000613580602c83612963565b915061358b82613524565b604082019050919050565b600060208201905081810360008301526135af81613573565b9050919050565b7f4552433732313a206f776e657220717565727920666f72206e6f6e657869737460008201527f656e7420746f6b656e0000000000000000000000000000000000000000000000602082015250565b6000613612602983612963565b915061361d826135b6565b604082019050919050565b6000602082019050818103600083015261364181613605565b9050919050565b7f4552433732313a2062616c616e636520717565727920666f7220746865207a6560008201527f726f206164647265737300000000000000000000000000000000000000000000602082015250565b60006136a4602a83612963565b91506136af82613648565b604082019050919050565b600060208201905081810360008301526136d381613697565b9050919050565b7f4f776e61626c653a2063616c6c6572206973206e6f7420746865206f776e6572600082015250565b6000613710602083612963565b915061371b826136da565b602082019050919050565b6000602082019050818103600083015261373f81613703565b9050919050565b60008190508160005260206000209050919050565b60006020601f8301049050919050565b600082821b905092915050565b6000600883026137a87fffffffffffffffffffffffffffffffffffffffffffffffffffffffffffffffff8261376b565b6137b2868361376b565b95508019841693508086168417925050509392505050565b6000819050919050565b60006137ef6137ea6137e584612a13565b6137ca565b612a13565b9050919050565b6000819050919050565b613809836137d4565b61381d613815826137f6565b848454613778565b825550505050565b600090565b613832613825565b61383d818484613800565b505050565b5b818110156138615761385660008261382a565b600181019050613843565b5050565b601f8211156138a65761387781613746565b6138808461375b565b8101602085101561388f578190505b6138a361389b8561375b565b830182613842565b50505b505050565b600082821c905092915050565b60006138c9600019846008026138ab565b1980831691505092915050565b60006138e283836138b8565b9150826002028217905092915050565b6138fb82612958565b67ffffffffffffffff81111561391457613913612c1b565b5b61391e8254613131565b613929828285613865565b600060209050601f83116001811461395c576000841561394a578287015190505b61395485826138d6565b8655506139bc565b601f19841661396a86613746565b60005b828110156139925784890151825560018201915060208501945060208101905061396d565b868310156139af57848901516139ab601f8916826138b8565b8355505b6001600288020188555050505b505050505050565b600081905092915050565b600081546139dc81613131565b6139e681866139c4565b94506001821660008114613a015760018114613a1657613a49565b60ff1983168652811515820286019350613a49565b613a1f85613746565b60005b83811015613a4157815481890152600182019150602081019050613a22565b838801955050505b50505092915050565b7f2f00000000000000000000000000000000000000000000000000000000000000600082015250565b6000613a886001836139c4565b9150613a9382613a52565b600182019050919050565b6000613aa982612958565b613ab381856139c4565b9350613ac3818560208601612974565b80840191505092915050565b7f2e6a736f6e000000000000000000000000000000000000000000000000000000600082015250565b6000613b056005836139c4565b9150613b1082613acf565b600582019050919050565b6000613b2782866139cf565b9150613b3282613a7b565b9150613b3e8285613a9e565b9150613b4982613a7b565b9150613b558284613a9e565b9150613b6082613af8565b9150819050949350505050565b7f4f776e61626c653a206e6577206f776e657220697320746865207a65726f206160008201527f6464726573730000000000000000000000000000000000000000000000000000602082015250565b6000613bc9602683612963565b9150613bd482613b6d565b604082019050919050565b60006020820190508181036000830152613bf881613bbc565b9050919050565b60008160601b9050919050565b6000613c1782613bff565b9050919050565b6000613c2982613c0c565b9050919050565b613c41613c3c82612a96565b613c1e565b82525050565b6000819050919050565b613c62613c5d82612a13565b613c47565b82525050565b6000613c748285613c30565b601482019150613c848284613c51565b6020820191508190509392505050565b7f4e487b7100000000000000000000000000000000000000000000000000000000600052601260045260246000fd5b6000613cce82612a13565b9150613cd983612a13565b925082613ce957613ce8613c94565b5b828206905092915050565b7f4552433732313a206d696e7420746f20746865207a65726f2061646472657373600082015250565b6000613d2a602083612963565b9150613d3582613cf4565b602082019050919050565b60006020820190508181036000830152613d5981613d1d565b9050919050565b7f4552433732313a20746f6b656e20616c7265616479206d696e74656400000000600082015250565b6000613d96601c83612963565b9150613da182613d60565b602082019050919050565b60006020820190508181036000830152613dc581613d89565b9050919050565b7f4552433732313a206f70657261746f7220717565727920666f72206e6f6e657860008201527f697374656e7420746f6b656e0000000000000000000000000000000000000000602082015250565b6000613e28602c83612963565b9150613e3382613dcc565b604082019050919050565b60006020820190508181036000830152613e5781613e1b565b9050919050565b7f4552433732313a207472616e736665722066726f6d20696e636f72726563742060008201527f6f776e6572000000000000000000000000000000000000000000000000000000602082015250565b6000613eba602583612963565b9150613ec582613e5e565b604082019050919050565b60006020820190508181036000830152613ee981613ead565b9050919050565b7f4552433732313a207472616e7366657220746f20746865207a65726f2061646460008201527f7265737300000000000000000000000000000000000000000000000000000000602082015250565b6000613f4c602483612963565b9150613f5782613ef0565b604082019050919050565b60006020820190508181036000830152613f7b81613f3f565b9050919050565b7f4552433732313a20617070726f766520746f2063616c6c657200000000000000600082015250565b6000613fb8601983612963565b9150613fc382613f82565b602082019050919050565b60006020820190508181036000830152613fe781613fab565b9050919050565b7f4552433732313a207472616e7366657220746f206e6f6e20455243373231526560008201527f63656976657220696d706c656d656e7465720000000000000000000000000000602082015250565b600061404a603283612963565b915061405582613fee565b604082019050919050565b600060208201905081810360008301526140798161403d565b9050919050565b600061408b82612a13565b91507fffffffffffffffffffffffffffffffffffffffffffffffffffffffffffffffff82036140bd576140bc613318565b5b600182019050919050565b60006140d382612a13565b91506140de83612a13565b9250826140ee576140ed613c94565b5b828204905092915050565b600081519050919050565b600082825260208201905092915050565b6000614120826140f9565b61412a8185614104565b935061413a818560208601612974565b614143816129a7565b840191505092915050565b60006080820190506141636000830187612aa8565b6141706020830186612aa8565b61417d6040830185612b3e565b818103606083015261418f8184614115565b905095945050505050565b6000815190506141a9816128c9565b92915050565b6000602082840312156141c5576141c4612893565b5b60006141d38482850161419a565b91505092915050565b7f4e487b7100000000000000000000000000000000000000000000000000000000600052603160045260246000fdfea26469706673582212201557ae8d339eb423f482523b4960cb479351433a37c99b433646ccebb48d372a64736f6c634300080f0033",
  "immutableReferences": {},
  "source": "// SPDX-License-Identifier: MIT\n\npragma solidity ^0.8.15;\nimport \"./node_modules/openzeppelin-solidity/contracts/token/ERC721/extensions/ERC721Enumerable.sol\";\nimport \"./node_modules/openzeppelin-solidity/contracts/access/Ownable.sol\";\nimport \"./node_modules/openzeppelin-solidity/contracts/utils/Strings.sol\";\ncontract GyulToken is ERC721Enumerable, Ownable{\n    uint constant public MAX_TOKEN_COUNT = 1000; // \n    uint public mint_price = 1 ether;\n    string public metadataURI;\n    constructor(string memory _name, string memory _symbol, string memory _metadataURI) ERC721(_name, _symbol){\n        metadataURI = _metadataURI;\n    }\n\n    struct TokenData {\n        uint Rank;\n        uint Type;\n    }\n    mapping(uint => TokenData) public TokenDatas;\n    uint[4][4] public tokenCount;\n\n    function mintToken() public payable{\n\n        require(msg.value == mint_price);\n        //          1000              0~999\n        require(MAX_TOKEN_COUNT > totalSupply());\n        uint tokenId = totalSupply() + 1;\n\n        TokenDatas[tokenId] = getRandomNum(msg.sender, tokenId);\n        tokenCount[TokenDatas[tokenId].Rank-1][TokenDatas[tokenId].Type-1] += 1;\n        \n        payable(Ownable.owner()).transfer(msg.value);\n        //owner contract \n        _mint(msg.sender, tokenId);\n    }\n\n    function tokenURI(uint _tokenId) public override view returns(string memory){\n        string memory Rank = Strings.toString(TokenDatas[_tokenId].Rank);\n        string memory Type = Strings.toString(TokenDatas[_tokenId].Type);\n\n        return string(abi.encodePacked(metadataURI,\"/\",Rank,\"/\",Type,\".json\"));\n\n        //tokenId -> rank, type 1 -> (1,4) 2 -> (2,1)\n        // url return... baseurl http://localhost:3000\n        // return http://localhost:3000/metadata/1/4.json\n\n    }\n\n    function getRandomNum(address _owner, uint _tokenId) private pure returns(TokenData memory){\n        uint randomNum = uint(keccak256(abi.encodePacked(_owner, _tokenId)))%100; //32byte\n\n        TokenData memory data;\n\n        if (randomNum < 5) {\n            if (randomNum == 1) {\n                data.Rank = 4;\n                data.Type = 1;\n            } else if (randomNum == 2) {\n                data.Rank = 4;\n                data.Type = 2;\n            } else if (randomNum == 3) {\n                data.Rank = 4;\n                data.Type = 3;\n            } else {\n                data.Rank = 4;\n                data.Type = 4;\n            }\n        } else if (randomNum < 13) {\n            if (randomNum < 7) {\n                data.Rank = 3;\n                data.Type = 1;\n            } else if (randomNum < 9) {\n                data.Rank = 3;\n                data.Type = 2;\n            } else if (randomNum < 11) {\n                data.Rank = 3;\n                data.Type = 3;\n            } else {\n                data.Rank = 3;\n                data.Type = 4;\n            }\n        } else if (randomNum < 37) {\n            if (randomNum < 19) {\n                data.Rank = 2;\n                data.Type = 1;\n            } else if (randomNum < 25) {\n                data.Rank = 2;\n                data.Type = 2;\n            } else if (randomNum < 31) {\n                data.Rank = 2;\n                data.Type = 3;\n            } else {\n                data.Rank = 2;\n                data.Type = 4;\n            }\n        } else {\n            if (randomNum < 52) {\n                data.Rank = 1;\n                data.Type = 1;\n            } else if (randomNum < 68) {\n                data.Rank = 1;\n                data.Type = 2;\n            } else if (randomNum < 84) {\n                data.Rank = 1;\n                data.Type = 3;\n            } else {\n                data.Rank = 1;\n                data.Type = 4;\n            }\n        }\n        return data;\n    }\n\n    function setMetadataURI(string memory _uri) public onlyOwner{\n        metadataURI = _uri;\n    }\n\n    function getTokenRank(uint _tokenId) public view returns(uint){\n        return TokenDatas[_tokenId].Rank;\n    }\n\n    function getTokenType(uint _tokenId) public view returns(uint){\n        return TokenDatas[_tokenId].Type;\n    }\n\n    function getTokenCount() public view returns(uint[4][4] memory){\n        return tokenCount;\n    }\n}",
  "sourcePath": "/home/gyuri/workspace/blockchain/220728/truffle/contracts/gyulToken.sol",
  "compiler": {
    "name": "solc",
    "version": "0.8.15+commit.e14f2714.Emscripten.clang"
  },
  "schemaVersion": "3.4.8",
  "updatedAt": "2022-08-04T06:55:00.422Z",
  "networkType": "ethereum",
  "devdoc": {
    "kind": "dev",
    "methods": {
      "approve(address,uint256)": {
        "details": "See {IERC721-approve}."
      },
      "balanceOf(address)": {
        "details": "See {IERC721-balanceOf}."
      },
      "getApproved(uint256)": {
        "details": "See {IERC721-getApproved}."
      },
      "isApprovedForAll(address,address)": {
        "details": "See {IERC721-isApprovedForAll}."
      },
      "name()": {
        "details": "See {IERC721Metadata-name}."
      },
      "owner()": {
        "details": "Returns the address of the current owner."
      },
      "ownerOf(uint256)": {
        "details": "See {IERC721-ownerOf}."
      },
      "renounceOwnership()": {
        "details": "Leaves the contract without owner. It will not be possible to call `onlyOwner` functions anymore. Can only be called by the current owner. NOTE: Renouncing ownership will leave the contract without an owner, thereby removing any functionality that is only available to the owner."
      },
      "safeTransferFrom(address,address,uint256)": {
        "details": "See {IERC721-safeTransferFrom}."
      },
      "safeTransferFrom(address,address,uint256,bytes)": {
        "details": "See {IERC721-safeTransferFrom}."
      },
      "setApprovalForAll(address,bool)": {
        "details": "See {IERC721-setApprovalForAll}."
      },
      "supportsInterface(bytes4)": {
        "details": "See {IERC165-supportsInterface}."
      },
      "symbol()": {
        "details": "See {IERC721Metadata-symbol}."
      },
      "tokenByIndex(uint256)": {
        "details": "See {IERC721Enumerable-tokenByIndex}."
      },
      "tokenOfOwnerByIndex(address,uint256)": {
        "details": "See {IERC721Enumerable-tokenOfOwnerByIndex}."
      },
      "totalSupply()": {
        "details": "See {IERC721Enumerable-totalSupply}."
      },
      "transferFrom(address,address,uint256)": {
        "details": "See {IERC721-transferFrom}."
      },
      "transferOwnership(address)": {
        "details": "Transfers ownership of the contract to a new account (`newOwner`). Can only be called by the current owner."
      }
    },
    "version": 1
  },
  "userdoc": {
    "kind": "user",
    "methods": {},
    "version": 1
  }
}