{
  "contractName": "Test",
  "abi": [
    {
      "inputs": [
        {
          "internalType": "string",
          "name": "_text",
          "type": "string"
        },
        {
          "internalType": "int256",
          "name": "_num",
          "type": "int256"
        }
      ],
      "stateMutability": "nonpayable",
      "type": "constructor"
    },
    {
      "inputs": [
        {
          "internalType": "string",
          "name": "",
          "type": "string"
        }
      ],
      "name": "balance",
      "outputs": [
        {
          "internalType": "uint256",
          "name": "",
          "type": "uint256"
        }
      ],
      "stateMutability": "view",
      "type": "function"
    },
    {
      "inputs": [],
      "name": "num",
      "outputs": [
        {
          "internalType": "int256",
          "name": "",
          "type": "int256"
        }
      ],
      "stateMutability": "view",
      "type": "function"
    },
    {
      "inputs": [
        {
          "internalType": "uint256",
          "name": "",
          "type": "uint256"
        }
      ],
      "name": "numArr",
      "outputs": [
        {
          "internalType": "int256",
          "name": "",
          "type": "int256"
        }
      ],
      "stateMutability": "view",
      "type": "function"
    },
    {
      "inputs": [],
      "name": "owner",
      "outputs": [
        {
          "internalType": "address",
          "name": "",
          "type": "address"
        }
      ],
      "stateMutability": "view",
      "type": "function"
    },
    {
      "inputs": [],
      "name": "text",
      "outputs": [
        {
          "internalType": "string",
          "name": "",
          "type": "string"
        }
      ],
      "stateMutability": "view",
      "type": "function"
    },
    {
      "inputs": [
        {
          "internalType": "uint256",
          "name": "",
          "type": "uint256"
        }
      ],
      "name": "textArr",
      "outputs": [
        {
          "internalType": "string",
          "name": "",
          "type": "string"
        }
      ],
      "stateMutability": "view",
      "type": "function"
    }
  ],
  "bytecode": "0x60806040523480156200001157600080fd5b5060405162000d1738038062000d1783398181016040528101906200003791906200026f565b806000819055506001600081905550816001908162000057919062000520565b5033600460006101000a81548173ffffffffffffffffffffffffffffffffffffffff021916908373ffffffffffffffffffffffffffffffffffffffff160217905550505062000607565b6000604051905090565b600080fd5b600080fd5b600080fd5b600080fd5b6000601f19601f8301169050919050565b7f4e487b7100000000000000000000000000000000000000000000000000000000600052604160045260246000fd5b6200010a82620000bf565b810181811067ffffffffffffffff821117156200012c576200012b620000d0565b5b80604052505050565b600062000141620000a1565b90506200014f8282620000ff565b919050565b600067ffffffffffffffff821115620001725762000171620000d0565b5b6200017d82620000bf565b9050602081019050919050565b60005b83811015620001aa5780820151818401526020810190506200018d565b60008484015250505050565b6000620001cd620001c78462000154565b62000135565b905082815260208101848484011115620001ec57620001eb620000ba565b5b620001f98482856200018a565b509392505050565b600082601f830112620002195762000218620000b5565b5b81516200022b848260208601620001b6565b91505092915050565b6000819050919050565b620002498162000234565b81146200025557600080fd5b50565b60008151905062000269816200023e565b92915050565b60008060408385031215620002895762000288620000ab565b5b600083015167ffffffffffffffff811115620002aa57620002a9620000b0565b5b620002b88582860162000201565b9250506020620002cb8582860162000258565b9150509250929050565b600081519050919050565b7f4e487b7100000000000000000000000000000000000000000000000000000000600052602260045260246000fd5b600060028204905060018216806200032857607f821691505b6020821081036200033e576200033d620002e0565b5b50919050565b60008190508160005260206000209050919050565b60006020601f8301049050919050565b600082821b905092915050565b600060088302620003a87fffffffffffffffffffffffffffffffffffffffffffffffffffffffffffffffff8262000369565b620003b4868362000369565b95508019841693508086168417925050509392505050565b6000819050919050565b6000819050919050565b600062000401620003fb620003f584620003cc565b620003d6565b620003cc565b9050919050565b6000819050919050565b6200041d83620003e0565b620004356200042c8262000408565b84845462000376565b825550505050565b600090565b6200044c6200043d565b6200045981848462000412565b505050565b5b8181101562000481576200047560008262000442565b6001810190506200045f565b5050565b601f821115620004d0576200049a8162000344565b620004a58462000359565b81016020851015620004b5578190505b620004cd620004c48562000359565b8301826200045e565b50505b505050565b600082821c905092915050565b6000620004f560001984600802620004d5565b1980831691505092915050565b6000620005108383620004e2565b9150826002028217905092915050565b6200052b82620002d5565b67ffffffffffffffff811115620005475762000546620000d0565b5b6200055382546200030f565b6200056082828562000485565b600060209050601f83116001811462000598576000841562000583578287015190505b6200058f858262000502565b865550620005ff565b601f198416620005a88662000344565b60005b82811015620005d257848901518255600182019150602085019450602081019050620005ab565b86831015620005f25784890151620005ee601f891682620004e2565b8355505b6001600288020188555050505b505050505050565b61070080620006176000396000f3fe608060405234801561001057600080fd5b50600436106100625760003560e01c80631f1bd692146100675780633d80b532146100855780634e70b1dc146100b55780638da5cb5b146100d3578063ab3ee911146100f1578063ea1545c614610121575b600080fd5b61006f610151565b60405161007c9190610399565b60405180910390f35b61009f600480360381019061009a9190610504565b6101df565b6040516100ac9190610566565b60405180910390f35b6100bd61020d565b6040516100ca919061059a565b60405180910390f35b6100db610213565b6040516100e891906105f6565b60405180910390f35b61010b6004803603810190610106919061063d565b610239565b604051610118919061059a565b60405180910390f35b61013b6004803603810190610136919061063d565b61025d565b6040516101489190610399565b60405180910390f35b6001805461015e90610699565b80601f016020809104026020016040519081016040528092919081815260200182805461018a90610699565b80156101d75780601f106101ac576101008083540402835291602001916101d7565b820191906000526020600020905b8154815290600101906020018083116101ba57829003601f168201915b505050505081565b6005818051602081018201805184825260208301602085012081835280955050505050506000915090505481565b60005481565b600460009054906101000a900473ffffffffffffffffffffffffffffffffffffffff1681565b6002818154811061024957600080fd5b906000526020600020016000915090505481565b6003818154811061026d57600080fd5b90600052602060002001600091509050805461028890610699565b80601f01602080910402602001604051908101604052809291908181526020018280546102b490610699565b80156103015780601f106102d657610100808354040283529160200191610301565b820191906000526020600020905b8154815290600101906020018083116102e457829003601f168201915b505050505081565b600081519050919050565b600082825260208201905092915050565b60005b83811015610343578082015181840152602081019050610328565b60008484015250505050565b6000601f19601f8301169050919050565b600061036b82610309565b6103758185610314565b9350610385818560208601610325565b61038e8161034f565b840191505092915050565b600060208201905081810360008301526103b38184610360565b905092915050565b6000604051905090565b600080fd5b600080fd5b600080fd5b600080fd5b7f4e487b7100000000000000000000000000000000000000000000000000000000600052604160045260246000fd5b6104118261034f565b810181811067ffffffffffffffff821117156104305761042f6103d9565b5b80604052505050565b60006104436103bb565b905061044f8282610408565b919050565b600067ffffffffffffffff82111561046f5761046e6103d9565b5b6104788261034f565b9050602081019050919050565b82818337600083830152505050565b60006104a76104a284610454565b610439565b9050828152602081018484840111156104c3576104c26103d4565b5b6104ce848285610485565b509392505050565b600082601f8301126104eb576104ea6103cf565b5b81356104fb848260208601610494565b91505092915050565b60006020828403121561051a576105196103c5565b5b600082013567ffffffffffffffff811115610538576105376103ca565b5b610544848285016104d6565b91505092915050565b6000819050919050565b6105608161054d565b82525050565b600060208201905061057b6000830184610557565b92915050565b6000819050919050565b61059481610581565b82525050565b60006020820190506105af600083018461058b565b92915050565b600073ffffffffffffffffffffffffffffffffffffffff82169050919050565b60006105e0826105b5565b9050919050565b6105f0816105d5565b82525050565b600060208201905061060b60008301846105e7565b92915050565b61061a8161054d565b811461062557600080fd5b50565b60008135905061063781610611565b92915050565b600060208284031215610653576106526103c5565b5b600061066184828501610628565b91505092915050565b7f4e487b7100000000000000000000000000000000000000000000000000000000600052602260045260246000fd5b600060028204905060018216806106b157607f821691505b6020821081036106c4576106c361066a565b5b5091905056fea26469706673582212202c7f8480d64ae0e9aa273afdade82080e1414a6ea1c70b7fcc28a73399e6755c64736f6c63430008130033",
  "immutableReferences": {},
  "source": "// SPDX-License-Identifier: MIT\r\npragma solidity ^0.8.18;\r\n\r\ncontract Test {\r\n  int public num;\r\n  string public text;\r\n  int[] public numArr;\r\n  string[] public textArr;\r\n  address public owner;\r\n\r\n  mapping(string => uint) public balance;\r\n\r\n  constructor(string memory _text, int _num) {\r\n    // meomory storage\r\n    num = _num;\r\n    num = 1;\r\n    // text = \"testing\";   \r\n    text = _text;\r\n    owner = msg.sender;\r\n  }\r\n}\r\n",
  "sourcePath": "C:\\Users\\KGA_18\\Documents\\GitHub\\blockchain2208\\blockchain2208\\230306\\contracts\\Test.sol",
  "compiler": {
    "name": "solc",
    "version": "0.8.19+commit.7dd6d404.Emscripten.clang"
  },
  "schemaVersion": "3.4.13",
  "updatedAt": "2023-03-06T02:24:33.084Z",
  "devdoc": {
    "kind": "dev",
    "methods": {},
    "version": 1
  },
  "userdoc": {
    "kind": "user",
    "methods": {},
    "version": 1
  }
}