{
  "contractName": "Vote",
  "abi": [
    {
      "inputs": [
        {
          "internalType": "string[]",
          "name": "candidateNames",
          "type": "string[]"
        }
      ],
      "stateMutability": "nonpayable",
      "type": "constructor"
    },
    {
      "anonymous": false,
      "inputs": [
        {
          "indexed": false,
          "internalType": "string",
          "name": "candidate",
          "type": "string"
        },
        {
          "indexed": false,
          "internalType": "uint256",
          "name": "votes",
          "type": "uint256"
        }
      ],
      "name": "Voted",
      "type": "event"
    },
    {
      "inputs": [
        {
          "internalType": "uint256",
          "name": "",
          "type": "uint256"
        }
      ],
      "name": "candidateList",
      "outputs": [
        {
          "internalType": "string",
          "name": "",
          "type": "string"
        }
      ],
      "stateMutability": "view",
      "type": "function",
      "constant": true
    },
    {
      "inputs": [
        {
          "internalType": "string",
          "name": "",
          "type": "string"
        }
      ],
      "name": "votesReceived",
      "outputs": [
        {
          "internalType": "uint256",
          "name": "",
          "type": "uint256"
        }
      ],
      "stateMutability": "view",
      "type": "function",
      "constant": true
    },
    {
      "inputs": [
        {
          "internalType": "string",
          "name": "candidate",
          "type": "string"
        }
      ],
      "name": "totalVotesFor",
      "outputs": [
        {
          "internalType": "uint256",
          "name": "",
          "type": "uint256"
        }
      ],
      "stateMutability": "view",
      "type": "function",
      "constant": true
    },
    {
      "inputs": [
        {
          "internalType": "string",
          "name": "candidate",
          "type": "string"
        }
      ],
      "name": "voteForCandidate",
      "outputs": [],
      "stateMutability": "nonpayable",
      "type": "function"
    },
    {
      "inputs": [],
      "name": "candidates",
      "outputs": [
        {
          "internalType": "string[]",
          "name": "",
          "type": "string[]"
        }
      ],
      "stateMutability": "view",
      "type": "function",
      "constant": true
    }
  ],
  "bytecode": "0x60806040523480156200001157600080fd5b50604051620013763803806200137683398181016040528101906200003791906200040d565b7f82ea01a4479f27996bbe8de24f4c8d962035fe2f32a2b130c8c9ca593ab91aa8600160405162000069919062000516565b60405180910390a180600090805190602001906200008992919062000091565b505062000866565b828054828255906000526020600020908101928215620000de579160200282015b82811115620000dd578251829081620000cc91906200077f565b5091602001919060010190620000b2565b5b509050620000ed9190620000f1565b5090565b5b808211156200011557600081816200010b919062000119565b50600101620000f2565b5090565b508054620001279062000582565b6000825580601f106200013b57506200015c565b601f0160209004906000526020600020908101906200015b91906200015f565b5b50565b5b808211156200017a57600081600090555060010162000160565b5090565b6000604051905090565b600080fd5b600080fd5b600080fd5b6000601f19601f8301169050919050565b7f4e487b7100000000000000000000000000000000000000000000000000000000600052604160045260246000fd5b620001e28262000197565b810181811067ffffffffffffffff82111715620002045762000203620001a8565b5b80604052505050565b6000620002196200017e565b9050620002278282620001d7565b919050565b600067ffffffffffffffff8211156200024a5762000249620001a8565b5b602082029050602081019050919050565b600080fd5b600080fd5b600067ffffffffffffffff821115620002835762000282620001a8565b5b6200028e8262000197565b9050602081019050919050565b60005b83811015620002bb5780820151818401526020810190506200029e565b60008484015250505050565b6000620002de620002d88462000265565b6200020d565b905082815260208101848484011115620002fd57620002fc62000260565b5b6200030a8482856200029b565b509392505050565b600082601f8301126200032a576200032962000192565b5b81516200033c848260208601620002c7565b91505092915050565b60006200035c62000356846200022c565b6200020d565b905080838252602082019050602084028301858111156200038257620003816200025b565b5b835b81811015620003d057805167ffffffffffffffff811115620003ab57620003aa62000192565b5b808601620003ba898262000312565b8552602085019450505060208101905062000384565b5050509392505050565b600082601f830112620003f257620003f162000192565b5b81516200040484826020860162000345565b91505092915050565b60006020828403121562000426576200042562000188565b5b600082015167ffffffffffffffff8111156200044757620004466200018d565b5b6200045584828501620003da565b91505092915050565b600082825260208201905092915050565b7f636f6e7374727563746f72207374617274000000000000000000000000000000600082015250565b6000620004a76011836200045e565b9150620004b4826200046f565b602082019050919050565b6000819050919050565b6000819050919050565b6000819050919050565b6000620004fe620004f8620004f284620004bf565b620004d3565b620004c9565b9050919050565b6200051081620004dd565b82525050565b60006040820190508181036000830152620005318162000498565b905062000542602083018462000505565b92915050565b600081519050919050565b7f4e487b7100000000000000000000000000000000000000000000000000000000600052602260045260246000fd5b600060028204905060018216806200059b57607f821691505b602082108103620005b157620005b062000553565b5b50919050565b60008190508160005260206000209050919050565b60006020601f8301049050919050565b600082821b905092915050565b6000600883026200061b7fffffffffffffffffffffffffffffffffffffffffffffffffffffffffffffffff82620005dc565b620006278683620005dc565b95508019841693508086168417925050509392505050565b6000620006606200065a6200065484620004c9565b620004d3565b620004c9565b9050919050565b6000819050919050565b6200067c836200063f565b620006946200068b8262000667565b848454620005e9565b825550505050565b600090565b620006ab6200069c565b620006b881848462000671565b505050565b5b81811015620006e057620006d4600082620006a1565b600181019050620006be565b5050565b601f8211156200072f57620006f981620005b7565b6200070484620005cc565b8101602085101562000714578190505b6200072c6200072385620005cc565b830182620006bd565b50505b505050565b600082821c905092915050565b6000620007546000198460080262000734565b1980831691505092915050565b60006200076f838362000741565b9150826002028217905092915050565b6200078a8262000548565b67ffffffffffffffff811115620007a657620007a5620001a8565b5b620007b2825462000582565b620007bf828285620006e4565b600060209050601f831160018114620007f75760008415620007e2578287015190505b620007ee858262000761565b8655506200085e565b601f1984166200080786620005b7565b60005b8281101562000831578489015182556001820191506020850194506020810190506200080a565b868310156200085157848901516200084d601f89168262000741565b8355505b6001600288020188555050505b505050505050565b610b0080620008766000396000f3fe608060405234801561001057600080fd5b50600436106100575760003560e01c80634a3bf3771461005c5780636f0470aa1461008c5780638d4b44d9146100aa578063b13c744b146100da578063e89927ef1461010a575b600080fd5b610076600480360381019061007191906105b9565b610126565b604051610083919061061b565b60405180910390f35b610094610160565b6040516100a19190610777565b60405180910390f35b6100c460048036038101906100bf91906105b9565b610239565b6040516100d1919061061b565b60405180910390f35b6100f460048036038101906100ef91906107c5565b610267565b604051610101919061083c565b60405180910390f35b610124600480360381019061011f91906105b9565b610313565b005b6000610131826103b4565b61013a57600080fd5b60018260405161014a919061089a565b9081526020016040518091039020549050919050565b60606000805480602002602001604051908101604052809291908181526020016000905b828210156102305783829060005260206000200180546101a3906108e0565b80601f01602080910402602001604051908101604052809291908181526020018280546101cf906108e0565b801561021c5780601f106101f15761010080835404028352916020019161021c565b820191906000526020600020905b8154815290600101906020018083116101ff57829003601f168201915b505050505081526020019060010190610184565b50505050905090565b6001818051602081018201805184825260208301602085012081835280955050505050506000915090505481565b6000818154811061027757600080fd5b906000526020600020016000915090508054610292906108e0565b80601f01602080910402602001604051908101604052809291908181526020018280546102be906108e0565b801561030b5780601f106102e05761010080835404028352916020019161030b565b820191906000526020600020905b8154815290600101906020018083116102ee57829003601f168201915b505050505081565b61031c816103b4565b61032557600080fd5b60018082604051610336919061089a565b908152602001604051809103902060008282546103539190610940565b925050819055507f82ea01a4479f27996bbe8de24f4c8d962035fe2f32a2b130c8c9ca593ab91aa88160018360405161038c919061089a565b9081526020016040518091039020546040516103a9929190610974565b60405180910390a150565b600080600090505b60008054905081101561045457826040516020016103da919061089a565b6040516020818303038152906040528051906020012060008281548110610404576104036109a4565b5b9060005260206000200160405160200161041e9190610a6b565b604051602081830303815290604052805190602001200361044357600191505061045a565b8061044d90610a82565b90506103bc565b50600090505b919050565b6000604051905090565b600080fd5b600080fd5b600080fd5b600080fd5b6000601f19601f8301169050919050565b7f4e487b7100000000000000000000000000000000000000000000000000000000600052604160045260246000fd5b6104c68261047d565b810181811067ffffffffffffffff821117156104e5576104e461048e565b5b80604052505050565b60006104f861045f565b905061050482826104bd565b919050565b600067ffffffffffffffff8211156105245761052361048e565b5b61052d8261047d565b9050602081019050919050565b82818337600083830152505050565b600061055c61055784610509565b6104ee565b90508281526020810184848401111561057857610577610478565b5b61058384828561053a565b509392505050565b600082601f8301126105a05761059f610473565b5b81356105b0848260208601610549565b91505092915050565b6000602082840312156105cf576105ce610469565b5b600082013567ffffffffffffffff8111156105ed576105ec61046e565b5b6105f98482850161058b565b91505092915050565b6000819050919050565b61061581610602565b82525050565b6000602082019050610630600083018461060c565b92915050565b600081519050919050565b600082825260208201905092915050565b6000819050602082019050919050565b600081519050919050565b600082825260208201905092915050565b60005b8381101561069c578082015181840152602081019050610681565b60008484015250505050565b60006106b382610662565b6106bd818561066d565b93506106cd81856020860161067e565b6106d68161047d565b840191505092915050565b60006106ed83836106a8565b905092915050565b6000602082019050919050565b600061070d82610636565b6107178185610641565b93508360208202850161072985610652565b8060005b85811015610765578484038952815161074685826106e1565b9450610751836106f5565b925060208a0199505060018101905061072d565b50829750879550505050505092915050565b600060208201905081810360008301526107918184610702565b905092915050565b6107a281610602565b81146107ad57600080fd5b50565b6000813590506107bf81610799565b92915050565b6000602082840312156107db576107da610469565b5b60006107e9848285016107b0565b91505092915050565b600082825260208201905092915050565b600061080e82610662565b61081881856107f2565b935061082881856020860161067e565b6108318161047d565b840191505092915050565b600060208201905081810360008301526108568184610803565b905092915050565b600081905092915050565b600061087482610662565b61087e818561085e565b935061088e81856020860161067e565b80840191505092915050565b60006108a68284610869565b915081905092915050565b7f4e487b7100000000000000000000000000000000000000000000000000000000600052602260045260246000fd5b600060028204905060018216806108f857607f821691505b60208210810361090b5761090a6108b1565b5b50919050565b7f4e487b7100000000000000000000000000000000000000000000000000000000600052601160045260246000fd5b600061094b82610602565b915061095683610602565b925082820190508082111561096e5761096d610911565b5b92915050565b6000604082019050818103600083015261098e8185610803565b905061099d602083018461060c565b9392505050565b7f4e487b7100000000000000000000000000000000000000000000000000000000600052603260045260246000fd5b60008190508160005260206000209050919050565b600081546109f5816108e0565b6109ff818661085e565b94506001821660008114610a1a5760018114610a2f57610a62565b60ff1983168652811515820286019350610a62565b610a38856109d3565b60005b83811015610a5a57815481890152600182019150602081019050610a3b565b838801955050505b50505092915050565b6000610a7782846109e8565b915081905092915050565b6000610a8d82610602565b91507fffffffffffffffffffffffffffffffffffffffffffffffffffffffffffffffff8203610abf57610abe610911565b5b60018201905091905056fea2646970667358221220e353d1a681919278e4ea5e94490500c3c2063fcf3ef00460573f56b6b460812564736f6c63430008130033",
  "immutableReferences": {},
  "source": "// SPDX-License-Identifier: MIT\r\npragma solidity ^0.8.18;\r\n\r\ncontract Vote {\r\n  string[] public candidateList;\r\n  //  string  \r\n\r\n  mapping(string => uint) public votesReceived;\r\n  // votesReceived key string  uint :  \r\n  event Voted(string candidate, uint votes);\r\n\r\n  // candidate  ,votes \r\n  // Voted  \r\n\r\n  //candidate  ,,,\r\n\r\n  //    event\r\n\r\n  constructor(string[] memory candidateNames) {\r\n    emit Voted(\"constructor start\", 1);\r\n    //  candidateNames   \r\n    //[\"\", \"\", \"\", \"\"] \r\n    candidateList = candidateNames;\r\n  }\r\n\r\n  function validCandidate(string memory candidate) private view returns (bool) {\r\n    //private   \r\n    //    \r\n    //candidate  ,,,\r\n    for (uint i = 0; i < candidateList.length; ++i) {\r\n      if (\r\n        keccak256(abi.encodePacked(candidateList[i])) ==\r\n        keccak256(abi.encodePacked(candidate))\r\n      ) return true;\r\n      //   \r\n      //    address  () \r\n    }\r\n    return false;\r\n  }\r\n\r\n  //  pure \r\n  //   function validCandidatePure(\r\n  //     string memory candidate,\r\n  //     string[] memory _candidateList\r\n  //   ) private pure returns (bool) {\r\n  //     for (uint i = 0; i < _candidateList.length; ++i) {\r\n  //       if (\r\n  //         keccak256(abi.encodePacked(_candidateList[i])) ==\r\n  //         keccak256(abi.encodePacked(candidate))\r\n  //       ) return true;\r\n\r\n  //     }\r\n  //     return false;\r\n  //   }\r\n\r\n  function totalVotesFor(string memory candidate) public view returns (uint) {\r\n    //  \r\n    //  view  ?\r\n    require(validCandidate(candidate));\r\n    // true  false \r\n    return votesReceived[candidate];\r\n    // uint()\r\n  }\r\n\r\n  function voteForCandidate(string memory candidate) public {\r\n    // \r\n    require(validCandidate(candidate));\r\n    // true  false \r\n    votesReceived[candidate] += 1;\r\n    //  +1\r\n    emit Voted(candidate, votesReceived[candidate]);\r\n    // string,uint \r\n  }\r\n\r\n  function candidates() public view returns (string[] memory) {\r\n    // view?\r\n    //   \r\n    return candidateList;\r\n  }\r\n}\r\n",
  "sourcePath": "C:\\Users\\KGA_18\\Documents\\GitHub\\blockchain2208\\blockchain2208\\230307\\back\\contracts\\Vote.sol",
  "compiler": {
    "name": "solc",
    "version": "0.8.19+commit.7dd6d404.Emscripten.clang"
  },
  "schemaVersion": "3.4.13",
  "updatedAt": "2023-03-07T08:30:05.225Z",
  "networkType": "ethereum",
  "devdoc": {
    "kind": "dev",
    "methods": {},
    "version": 1
  },
  "userdoc": {
    "kind": "user",
    "methods": {},
    "version": 1
  }
}