{
  "contractName": "Market",
  "abi": [
    {
      "inputs": [
        {
          "internalType": "address",
          "name": "_tokenAddress",
          "type": "address"
        }
      ],
      "stateMutability": "nonpayable",
      "type": "constructor"
    },
    {
      "inputs": [
        {
          "internalType": "uint256",
          "name": "",
          "type": "uint256"
        }
      ],
      "name": "SaleTokenList",
      "outputs": [
        {
          "internalType": "uint256",
          "name": "",
          "type": "uint256"
        }
      ],
      "stateMutability": "view",
      "type": "function",
      "constant": true
    },
    {
      "inputs": [],
      "name": "Token",
      "outputs": [
        {
          "internalType": "contract SdToken",
          "name": "",
          "type": "address"
        }
      ],
      "stateMutability": "view",
      "type": "function",
      "constant": true
    },
    {
      "inputs": [
        {
          "internalType": "uint256",
          "name": "",
          "type": "uint256"
        }
      ],
      "name": "tokenPrices",
      "outputs": [
        {
          "internalType": "uint256",
          "name": "",
          "type": "uint256"
        }
      ],
      "stateMutability": "view",
      "type": "function",
      "constant": true
    },
    {
      "inputs": [
        {
          "internalType": "uint256",
          "name": "_tokenId",
          "type": "uint256"
        },
        {
          "internalType": "uint256",
          "name": "_price",
          "type": "uint256"
        }
      ],
      "name": "SalesToken",
      "outputs": [],
      "stateMutability": "nonpayable",
      "type": "function"
    },
    {
      "inputs": [
        {
          "internalType": "uint256",
          "name": "_tokenId",
          "type": "uint256"
        }
      ],
      "name": "PurchaseToken",
      "outputs": [],
      "stateMutability": "payable",
      "type": "function",
      "payable": true
    },
    {
      "inputs": [
        {
          "internalType": "uint256",
          "name": "_tokenId",
          "type": "uint256"
        }
      ],
      "name": "cancelSaleToken",
      "outputs": [],
      "stateMutability": "nonpayable",
      "type": "function"
    },
    {
      "inputs": [],
      "name": "getSaleTokenList",
      "outputs": [
        {
          "components": [
            {
              "internalType": "uint256",
              "name": "tokenId",
              "type": "uint256"
            },
            {
              "internalType": "uint256",
              "name": "Rank",
              "type": "uint256"
            },
            {
              "internalType": "uint256",
              "name": "Type",
              "type": "uint256"
            },
            {
              "internalType": "uint256",
              "name": "price",
              "type": "uint256"
            }
          ],
          "internalType": "struct Market.TokenInfo[]",
          "name": "",
          "type": "tuple[]"
        }
      ],
      "stateMutability": "view",
      "type": "function",
      "constant": true
    },
    {
      "inputs": [
        {
          "internalType": "address",
          "name": "_tokenOwner",
          "type": "address"
        }
      ],
      "name": "getOwnerTokens",
      "outputs": [
        {
          "components": [
            {
              "internalType": "uint256",
              "name": "tokenId",
              "type": "uint256"
            },
            {
              "internalType": "uint256",
              "name": "Rank",
              "type": "uint256"
            },
            {
              "internalType": "uint256",
              "name": "Type",
              "type": "uint256"
            },
            {
              "internalType": "uint256",
              "name": "price",
              "type": "uint256"
            }
          ],
          "internalType": "struct Market.TokenInfo[]",
          "name": "",
          "type": "tuple[]"
        }
      ],
      "stateMutability": "view",
      "type": "function",
      "constant": true
    },
    {
      "inputs": [
        {
          "internalType": "address",
          "name": "_tokenOwner",
          "type": "address"
        }
      ],
      "name": "latestToken",
      "outputs": [
        {
          "components": [
            {
              "internalType": "uint256",
              "name": "tokenId",
              "type": "uint256"
            },
            {
              "internalType": "uint256",
              "name": "Rank",
              "type": "uint256"
            },
            {
              "internalType": "uint256",
              "name": "Type",
              "type": "uint256"
            },
            {
              "internalType": "uint256",
              "name": "price",
              "type": "uint256"
            }
          ],
          "internalType": "struct Market.TokenInfo",
          "name": "",
          "type": "tuple"
        }
      ],
      "stateMutability": "view",
      "type": "function",
      "constant": true
    }
  ],
  "bytecode": "0x60806040523480156200001157600080fd5b5060405162001e5038038062001e508339818101604052810190620000379190620000e8565b806000806101000a81548173ffffffffffffffffffffffffffffffffffffffff021916908373ffffffffffffffffffffffffffffffffffffffff160217905550506200011a565b600080fd5b600073ffffffffffffffffffffffffffffffffffffffff82169050919050565b6000620000b08262000083565b9050919050565b620000c281620000a3565b8114620000ce57600080fd5b50565b600081519050620000e281620000b7565b92915050565b6000602082840312156200010157620001006200007e565b5b60006200011184828501620000d1565b91505092915050565b611d26806200012a6000396000f3fe6080604052600436106100865760003560e01c80634e4dc988116100595780634e4dc9881461014a578063921e033b14610175578063c24126761461019e578063d63d4af0146101c9578063e5afe3e61461020657610086565b80630c8cc5691461008b57806317c8c0be146100c85780631899ca99146101055780633048f5121461012e575b600080fd5b34801561009757600080fd5b506100b260048036038101906100ad919061136a565b610243565b6040516100bf91906113a6565b60405180910390f35b3480156100d457600080fd5b506100ef60048036038101906100ea919061141f565b610267565b6040516100fc91906114b0565b60405180910390f35b34801561011157600080fd5b5061012c6004803603810190610127919061136a565b610581565b005b6101486004803603810190610143919061136a565b6106d5565b005b34801561015657600080fd5b5061015f61098b565b60405161016c91906115cf565b60405180910390f35b34801561018157600080fd5b5061019c600480360381019061019791906115f1565b610be3565b005b3480156101aa57600080fd5b506101b3610e54565b6040516101c09190611690565b60405180910390f35b3480156101d557600080fd5b506101f060048036038101906101eb919061141f565b610e78565b6040516101fd91906115cf565b60405180910390f35b34801561021257600080fd5b5061022d6004803603810190610228919061136a565b611217565b60405161023a91906113a6565b60405180910390f35b6002818154811061025357600080fd5b906000526020600020016000915090505481565b61026f611307565b60008060009054906101000a900473ffffffffffffffffffffffffffffffffffffffff1673ffffffffffffffffffffffffffffffffffffffff166370a08231846040518263ffffffff1660e01b81526004016102cb91906116ba565b602060405180830381865afa1580156102e8573d6000803e3d6000fd5b505050506040513d601f19601f8201168201806040525081019061030c91906116ea565b905060008103610351576040517f08c379a000000000000000000000000000000000000000000000000000000000815260040161034890611774565b60405180910390fd5b60008060009054906101000a900473ffffffffffffffffffffffffffffffffffffffff1673ffffffffffffffffffffffffffffffffffffffff16632f745c598560018561039e91906117c3565b6040518363ffffffff1660e01b81526004016103bb9291906117f7565b602060405180830381865afa1580156103d8573d6000803e3d6000fd5b505050506040513d601f19601f820116820180604052508101906103fc91906116ea565b905060008060009054906101000a900473ffffffffffffffffffffffffffffffffffffffff1673ffffffffffffffffffffffffffffffffffffffff1663d9f33c14836040518263ffffffff1660e01b815260040161045a91906113a6565b602060405180830381865afa158015610477573d6000803e3d6000fd5b505050506040513d601f19601f8201168201806040525081019061049b91906116ea565b905060008060009054906101000a900473ffffffffffffffffffffffffffffffffffffffff1673ffffffffffffffffffffffffffffffffffffffff166376aed2e1846040518263ffffffff1660e01b81526004016104f991906113a6565b602060405180830381865afa158015610516573d6000803e3d6000fd5b505050506040513d601f19601f8201168201806040525081019061053a91906116ea565b905060006001600085815260200190815260200160002054905060405180608001604052808581526020018481526020018381526020018281525095505050505050919050565b60008060009054906101000a900473ffffffffffffffffffffffffffffffffffffffff1673ffffffffffffffffffffffffffffffffffffffff16636352211e836040518263ffffffff1660e01b81526004016105dd91906113a6565b602060405180830381865afa1580156105fa573d6000803e3d6000fd5b505050506040513d601f19601f8201168201806040525081019061061e9190611835565b90503373ffffffffffffffffffffffffffffffffffffffff168173ffffffffffffffffffffffffffffffffffffffff161461068e576040517f08c379a0000000000000000000000000000000000000000000000000000000008152600401610685906118ae565b60405180910390fd5b60006001600084815260200190815260200160002054116106ae57600080fd5b600060016000848152602001908152602001600020819055506106d08261122f565b505050565b60008060009054906101000a900473ffffffffffffffffffffffffffffffffffffffff1673ffffffffffffffffffffffffffffffffffffffff16636352211e836040518263ffffffff1660e01b815260040161073191906113a6565b602060405180830381865afa15801561074e573d6000803e3d6000fd5b505050506040513d601f19601f820116820180604052508101906107729190611835565b90503373ffffffffffffffffffffffffffffffffffffffff168173ffffffffffffffffffffffffffffffffffffffff16036107e2576040517f08c379a00000000000000000000000000000000000000000000000000000000081526004016107d99061191a565b60405180910390fd5b6000600160008481526020019081526020016000205411610838576040517f08c379a000000000000000000000000000000000000000000000000000000000815260040161082f90611986565b60405180910390fd5b346001600084815260200190815260200160002054111561088e576040517f08c379a0000000000000000000000000000000000000000000000000000000008152600401610885906119f2565b60405180910390fd5b8073ffffffffffffffffffffffffffffffffffffffff166108fc349081150290604051600060405180830381858888f193505050501580156108d4573d6000803e3d6000fd5b5060008054906101000a900473ffffffffffffffffffffffffffffffffffffffff1673ffffffffffffffffffffffffffffffffffffffff166323b872dd8233856040518463ffffffff1660e01b815260040161093293929190611a12565b600060405180830381600087803b15801561094c57600080fd5b505af1158015610960573d6000803e3d6000fd5b50505050600060016000848152602001908152602001600020819055506109868261122f565b505050565b606060006002805490501161099f57600080fd5b600060028054905067ffffffffffffffff8111156109c0576109bf611a49565b5b6040519080825280602002602001820160405280156109f957816020015b6109e6611307565b8152602001906001900390816109de5790505b50905060005b600280549050811015610bdb57600060028281548110610a2257610a21611a78565b5b9060005260206000200154905060008060009054906101000a900473ffffffffffffffffffffffffffffffffffffffff1673ffffffffffffffffffffffffffffffffffffffff1663d9f33c14836040518263ffffffff1660e01b8152600401610a8b91906113a6565b602060405180830381865afa158015610aa8573d6000803e3d6000fd5b505050506040513d601f19601f82011682018060405250810190610acc91906116ea565b905060008060009054906101000a900473ffffffffffffffffffffffffffffffffffffffff1673ffffffffffffffffffffffffffffffffffffffff166376aed2e1846040518263ffffffff1660e01b8152600401610b2a91906113a6565b602060405180830381865afa158015610b47573d6000803e3d6000fd5b505050506040513d601f19601f82011682018060405250810190610b6b91906116ea565b9050600060016000858152602001908152602001600020549050604051806080016040528085815260200184815260200183815260200182815250868681518110610bb957610bb8611a78565b5b6020026020010181905250505050508080610bd390611aa7565b9150506109ff565b508091505090565b60008060009054906101000a900473ffffffffffffffffffffffffffffffffffffffff1673ffffffffffffffffffffffffffffffffffffffff16636352211e846040518263ffffffff1660e01b8152600401610c3f91906113a6565b602060405180830381865afa158015610c5c573d6000803e3d6000fd5b505050506040513d601f19601f82011682018060405250810190610c809190611835565b90503373ffffffffffffffffffffffffffffffffffffffff168173ffffffffffffffffffffffffffffffffffffffff1614610cf0576040517f08c379a0000000000000000000000000000000000000000000000000000000008152600401610ce790611b3b565b60405180910390fd5b60008211610d33576040517f08c379a0000000000000000000000000000000000000000000000000000000008152600401610d2a90611ba7565b60405180910390fd5b60008054906101000a900473ffffffffffffffffffffffffffffffffffffffff1673ffffffffffffffffffffffffffffffffffffffff1663e985e9c533306040518363ffffffff1660e01b8152600401610d8e929190611bc7565b602060405180830381865afa158015610dab573d6000803e3d6000fd5b505050506040513d601f19601f82011682018060405250810190610dcf9190611c28565b610e0e576040517f08c379a0000000000000000000000000000000000000000000000000000000008152600401610e0590611ca1565b60405180910390fd5b8160016000858152602001908152602001600020819055506002839080600181540180825580915050600190039060005260206000200160009091909190915055505050565b60008054906101000a900473ffffffffffffffffffffffffffffffffffffffff1681565b606060008060009054906101000a900473ffffffffffffffffffffffffffffffffffffffff1673ffffffffffffffffffffffffffffffffffffffff166370a08231846040518263ffffffff1660e01b8152600401610ed691906116ba565b602060405180830381865afa158015610ef3573d6000803e3d6000fd5b505050506040513d601f19601f82011682018060405250810190610f1791906116ea565b905060008103610f5c576040517f08c379a0000000000000000000000000000000000000000000000000000000008152600401610f5390611774565b60405180910390fd5b60008167ffffffffffffffff811115610f7857610f77611a49565b5b604051908082528060200260200182016040528015610fb157816020015b610f9e611307565b815260200190600190039081610f965790505b50905060005b8281101561120c5760008060009054906101000a900473ffffffffffffffffffffffffffffffffffffffff1673ffffffffffffffffffffffffffffffffffffffff16632f745c5987846040518363ffffffff1660e01b815260040161101d9291906117f7565b602060405180830381865afa15801561103a573d6000803e3d6000fd5b505050506040513d601f19601f8201168201806040525081019061105e91906116ea565b905060008060009054906101000a900473ffffffffffffffffffffffffffffffffffffffff1673ffffffffffffffffffffffffffffffffffffffff1663d9f33c14836040518263ffffffff1660e01b81526004016110bc91906113a6565b602060405180830381865afa1580156110d9573d6000803e3d6000fd5b505050506040513d601f19601f820116820180604052508101906110fd91906116ea565b905060008060009054906101000a900473ffffffffffffffffffffffffffffffffffffffff1673ffffffffffffffffffffffffffffffffffffffff166376aed2e1846040518263ffffffff1660e01b815260040161115b91906113a6565b602060405180830381865afa158015611178573d6000803e3d6000fd5b505050506040513d601f19601f8201168201806040525081019061119c91906116ea565b90506000600160008581526020019081526020016000205490506040518060800160405280858152602001848152602001838152602001828152508686815181106111ea576111e9611a78565b5b602002602001018190525050505050808061120490611aa7565b915050610fb7565b508092505050919050565b60016020528060005260406000206000915090505481565b600080600090505b60028054905081101561130057826002828154811061125957611258611a78565b5b9060005260206000200154036112ed576002600160028054905061127d91906117c3565b8154811061128e5761128d611a78565b5b9060005260206000200154600282815481106112ad576112ac611a78565b5b906000526020600020018190555060028054806112cd576112cc611cc1565b5b600190038181906000526020600020016000905590556001915050611302565b80806112f890611aa7565b915050611237565b505b919050565b6040518060800160405280600081526020016000815260200160008152602001600081525090565b600080fd5b6000819050919050565b61134781611334565b811461135257600080fd5b50565b6000813590506113648161133e565b92915050565b6000602082840312156113805761137f61132f565b5b600061138e84828501611355565b91505092915050565b6113a081611334565b82525050565b60006020820190506113bb6000830184611397565b92915050565b600073ffffffffffffffffffffffffffffffffffffffff82169050919050565b60006113ec826113c1565b9050919050565b6113fc816113e1565b811461140757600080fd5b50565b600081359050611419816113f3565b92915050565b6000602082840312156114355761143461132f565b5b60006114438482850161140a565b91505092915050565b61145581611334565b82525050565b608082016000820151611471600085018261144c565b506020820151611484602085018261144c565b506040820151611497604085018261144c565b5060608201516114aa606085018261144c565b50505050565b60006080820190506114c5600083018461145b565b92915050565b600081519050919050565b600082825260208201905092915050565b6000819050602082019050919050565b60808201600082015161150d600085018261144c565b506020820151611520602085018261144c565b506040820151611533604085018261144c565b506060820151611546606085018261144c565b50505050565b600061155883836114f7565b60808301905092915050565b6000602082019050919050565b600061157c826114cb565b61158681856114d6565b9350611591836114e7565b8060005b838110156115c25781516115a9888261154c565b97506115b483611564565b925050600181019050611595565b5085935050505092915050565b600060208201905081810360008301526115e98184611571565b905092915050565b600080604083850312156116085761160761132f565b5b600061161685828601611355565b925050602061162785828601611355565b9150509250929050565b6000819050919050565b600061165661165161164c846113c1565b611631565b6113c1565b9050919050565b60006116688261163b565b9050919050565b600061167a8261165d565b9050919050565b61168a8161166f565b82525050565b60006020820190506116a56000830184611681565b92915050565b6116b4816113e1565b82525050565b60006020820190506116cf60008301846116ab565b92915050565b6000815190506116e48161133e565b92915050565b600060208284031215611700576116ff61132f565b5b600061170e848285016116d5565b91505092915050565b600082825260208201905092915050565b7f62616c616e6365203d2030000000000000000000000000000000000000000000600082015250565b600061175e600b83611717565b915061176982611728565b602082019050919050565b6000602082019050818103600083015261178d81611751565b9050919050565b7f4e487b7100000000000000000000000000000000000000000000000000000000600052601160045260246000fd5b60006117ce82611334565b91506117d983611334565b9250828210156117ec576117eb611794565b5b828203905092915050565b600060408201905061180c60008301856116ab565b6118196020830184611397565b9392505050565b60008151905061182f816113f3565b92915050565b60006020828403121561184b5761184a61132f565b5b600061185984828501611820565b91505092915050565b7f6f6e6c79206f776e65722063616e2063616e63656c20746f6b656e2073616c65600082015250565b6000611898602083611717565b91506118a382611862565b602082019050919050565b600060208201905081810360008301526118c78161188b565b9050919050565b7f3100000000000000000000000000000000000000000000000000000000000000600082015250565b6000611904600183611717565b915061190f826118ce565b602082019050919050565b60006020820190508181036000830152611933816118f7565b9050919050565b7f3200000000000000000000000000000000000000000000000000000000000000600082015250565b6000611970600183611717565b915061197b8261193a565b602082019050919050565b6000602082019050818103600083015261199f81611963565b9050919050565b7f3300000000000000000000000000000000000000000000000000000000000000600082015250565b60006119dc600183611717565b91506119e7826119a6565b602082019050919050565b60006020820190508181036000830152611a0b816119cf565b9050919050565b6000606082019050611a2760008301866116ab565b611a3460208301856116ab565b611a416040830184611397565b949350505050565b7f4e487b7100000000000000000000000000000000000000000000000000000000600052604160045260246000fd5b7f4e487b7100000000000000000000000000000000000000000000000000000000600052603260045260246000fd5b6000611ab282611334565b91507fffffffffffffffffffffffffffffffffffffffffffffffffffffffffffffffff8203611ae457611ae3611794565b5b600182019050919050565b7f6f6e6c79206f776e65722063616e2073656c6c20746f6b656e00000000000000600082015250565b6000611b25601983611717565b9150611b3082611aef565b602082019050919050565b60006020820190508181036000830152611b5481611b18565b9050919050565b7f7072696365206572726f72000000000000000000000000000000000000000000600082015250565b6000611b91600b83611717565b9150611b9c82611b5b565b602082019050919050565b60006020820190508181036000830152611bc081611b84565b9050919050565b6000604082019050611bdc60008301856116ab565b611be960208301846116ab565b9392505050565b60008115159050919050565b611c0581611bf0565b8114611c1057600080fd5b50565b600081519050611c2281611bfc565b92915050565b600060208284031215611c3e57611c3d61132f565b5b6000611c4c84828501611c13565b91505092915050565b7f746f6b656e20617070726f7665206572726f7200000000000000000000000000600082015250565b6000611c8b601383611717565b9150611c9682611c55565b602082019050919050565b60006020820190508181036000830152611cba81611c7e565b9050919050565b7f4e487b7100000000000000000000000000000000000000000000000000000000600052603160045260246000fdfea264697066735822122079e52133ee268ae8de99842c98bd1945d5b651f75aadc7de1de58f416043d50964736f6c634300080f0033",
  "immutableReferences": {},
  "source": "// SPDX-License-Identifier: MIT\npragma solidity ^0.8.15;\n\nimport \"./SdToken.sol\";\n\ncontract Market {\n  SdToken public Token;\n\n\n  //         \n  constructor(address _tokenAddress){\n    Token = SdToken(_tokenAddress);\n  }\n\n  struct TokenInfo {\n    uint tokenId;\n    uint Rank;\n    uint Type;\n    uint price;\n  }\n\n\n  // 1.  \n  // 2.  \n  mapping(uint => uint) public tokenPrices; // tokenId : price;\n  uint[] public SaleTokenList; //  tokenId  . \n\n  //   \n  function SalesToken(uint _tokenId, uint _price) public {\n    //     1. ? 2.  0 ? 3.   ?\n    address tokenOwner = Token.ownerOf(_tokenId);\n    require(tokenOwner == msg.sender, \"only owner can sell token\");\n    require(_price > 0, \"price error\");\n    require(Token.isApprovedForAll(msg.sender, address(this)), \"token approve error\");\n    //         approvedForAll    .(    ).   ..\n    // ,    approvedForAll   . =>   setApprovalForAll    .\n\n    //   \n    tokenPrices[_tokenId] = _price;\n    SaleTokenList.push(_tokenId);\n  }\n\n  //   :  -> ca -> \n  function PurchaseToken(uint _tokenId) public payable {\n    address tokenOwner = Token.ownerOf(_tokenId);\n    require(tokenOwner != msg.sender, \"1\"); //    \n    require(tokenPrices[_tokenId] > 0, \"2\"); //    \n    require(tokenPrices[_tokenId] <= msg.value, \"3\");\n\n    payable(tokenOwner).transfer(msg.value); //  \n    Token.transferFrom(tokenOwner, msg.sender, _tokenId);\n\n    tokenPrices[_tokenId] = 0;\n    popSaleToken(_tokenId);\n  }\n\n  function cancelSaleToken(uint _tokenId) public {\n    address tokenOwner = Token.ownerOf(_tokenId);\n    require(tokenOwner == msg.sender, \"only owner can cancel token sale\");\n    require(tokenPrices[_tokenId] > 0); //  \n    \n    tokenPrices[_tokenId] = 0;\n    popSaleToken(_tokenId);\n  }\n\n  function popSaleToken (uint _tokenId) private returns(bool result) {\n    for (uint i=0; i < SaleTokenList.length; i++) {\n      if (SaleTokenList[i] == _tokenId) {\n        SaleTokenList[i] = SaleTokenList[SaleTokenList.length - 1];\n        SaleTokenList.pop();\n        return true;\n      }\n    }\n  }\n\n  function getSaleTokenList() public view returns (TokenInfo[] memory) {\n    require(SaleTokenList.length > 0); //     .\n    TokenInfo[] memory list = new TokenInfo[](SaleTokenList.length); //   Length  .\n    for (uint i=0; i < SaleTokenList.length; i++) {\n      uint tokenId = SaleTokenList[i];\n      uint Rank = Token.getTokenRank(tokenId);\n      uint Type = Token.getTokenType(tokenId);\n      uint price = tokenPrices[tokenId];\n      list[i] = TokenInfo(tokenId, Rank, Type, price);\n    }\n    return list;\n  }\n\n  function getOwnerTokens(address _tokenOwner) public view returns (TokenInfo[] memory) {\n    // tokenOfOwnerByIndex\n    // balanceOf\n\n    uint balance = Token.balanceOf(_tokenOwner);\n    require(balance != 0, \"balance = 0\");\n    TokenInfo[] memory list = new TokenInfo[](balance);\n    for (uint i=0; i<balance; i++) {\n      uint tokenId = Token.tokenOfOwnerByIndex(_tokenOwner, i);\n      uint Rank = Token.getTokenRank(tokenId);\n      uint Type = Token.getTokenType(tokenId);\n      uint price = tokenPrices[tokenId];\n      list[i] = TokenInfo(tokenId, Rank, Type, price);\n    }\n    return list;\n  }\n\n  function latestToken(address _tokenOwner) public view returns(TokenInfo memory) {\n    uint balance = Token.balanceOf(_tokenOwner);\n    require(balance != 0, \"balance = 0\");\n    uint tokenId = Token.tokenOfOwnerByIndex(_tokenOwner, balance - 1);\n    uint Rank = Token.getTokenRank(tokenId);\n    uint Type = Token.getTokenType(tokenId);\n    uint price = tokenPrices[tokenId];\n    return TokenInfo(tokenId, Rank, Type, price);\n  }\n}",
  "sourcePath": "/Users/hanbin/blockChain/NFTmarketproject/truffle/contracts/Market.sol",
  "compiler": {
    "name": "solc",
    "version": "0.8.15+commit.e14f2714.Emscripten.clang"
  },
  "schemaVersion": "3.4.8",
  "updatedAt": "2022-08-01T08:34:47.001Z",
  "networkType": "ethereum",
  "devdoc": {
    "kind": "dev",
    "methods": {},
    "version": 1
  },
  "userdoc": {
    "kind": "user",
    "methods": {},
    "version": 1
  }
}