{
  "contractName": "SaleToken",
  "abi": [
    {
      "inputs": [
        {
          "internalType": "address",
          "name": "_tokenAddress",
          "type": "address"
        }
      ],
      "stateMutability": "nonpayable",
      "type": "constructor"
    },
    {
      "inputs": [
        {
          "internalType": "uint256",
          "name": "",
          "type": "uint256"
        }
      ],
      "name": "SaleTokenList",
      "outputs": [
        {
          "internalType": "uint256",
          "name": "",
          "type": "uint256"
        }
      ],
      "stateMutability": "view",
      "type": "function"
    },
    {
      "inputs": [],
      "name": "Token",
      "outputs": [
        {
          "internalType": "contract HbToken",
          "name": "",
          "type": "address"
        }
      ],
      "stateMutability": "view",
      "type": "function"
    },
    {
      "inputs": [
        {
          "internalType": "uint256",
          "name": "",
          "type": "uint256"
        }
      ],
      "name": "tokenPrices",
      "outputs": [
        {
          "internalType": "uint256",
          "name": "",
          "type": "uint256"
        }
      ],
      "stateMutability": "view",
      "type": "function"
    },
    {
      "inputs": [
        {
          "internalType": "uint256",
          "name": "_tokenId",
          "type": "uint256"
        },
        {
          "internalType": "uint256",
          "name": "_price",
          "type": "uint256"
        }
      ],
      "name": "SalesToken",
      "outputs": [],
      "stateMutability": "nonpayable",
      "type": "function"
    },
    {
      "inputs": [
        {
          "internalType": "uint256",
          "name": "_tokenId",
          "type": "uint256"
        }
      ],
      "name": "PurchaseToken",
      "outputs": [],
      "stateMutability": "payable",
      "type": "function"
    },
    {
      "inputs": [
        {
          "internalType": "uint256",
          "name": "_tokenId",
          "type": "uint256"
        }
      ],
      "name": "cancelSaleToken",
      "outputs": [],
      "stateMutability": "nonpayable",
      "type": "function"
    },
    {
      "inputs": [],
      "name": "getSaleTokenList",
      "outputs": [
        {
          "components": [
            {
              "internalType": "uint256",
              "name": "tokenId",
              "type": "uint256"
            },
            {
              "internalType": "uint256",
              "name": "Rank",
              "type": "uint256"
            },
            {
              "internalType": "uint256",
              "name": "Type",
              "type": "uint256"
            },
            {
              "internalType": "uint256",
              "name": "price",
              "type": "uint256"
            }
          ],
          "internalType": "struct SaleToken.TokenInfo[]",
          "name": "",
          "type": "tuple[]"
        }
      ],
      "stateMutability": "view",
      "type": "function"
    },
    {
      "inputs": [
        {
          "internalType": "address",
          "name": "_tokenOwner",
          "type": "address"
        }
      ],
      "name": "getOwnerTokens",
      "outputs": [
        {
          "components": [
            {
              "internalType": "uint256",
              "name": "tokenId",
              "type": "uint256"
            },
            {
              "internalType": "uint256",
              "name": "Rank",
              "type": "uint256"
            },
            {
              "internalType": "uint256",
              "name": "Type",
              "type": "uint256"
            },
            {
              "internalType": "uint256",
              "name": "price",
              "type": "uint256"
            }
          ],
          "internalType": "struct SaleToken.TokenInfo[]",
          "name": "",
          "type": "tuple[]"
        }
      ],
      "stateMutability": "view",
      "type": "function"
    },
    {
      "inputs": [
        {
          "internalType": "address",
          "name": "_tokenOwner",
          "type": "address"
        }
      ],
      "name": "latestToken",
      "outputs": [
        {
          "components": [
            {
              "internalType": "uint256",
              "name": "tokenId",
              "type": "uint256"
            },
            {
              "internalType": "uint256",
              "name": "Rank",
              "type": "uint256"
            },
            {
              "internalType": "uint256",
              "name": "Type",
              "type": "uint256"
            },
            {
              "internalType": "uint256",
              "name": "price",
              "type": "uint256"
            }
          ],
          "internalType": "struct SaleToken.TokenInfo",
          "name": "",
          "type": "tuple"
        }
      ],
      "stateMutability": "view",
      "type": "function"
    }
  ],
  "bytecode": "0x60806040523480156200001157600080fd5b5060405162001c5e38038062001c5e8339818101604052810190620000379190620000e8565b806000806101000a81548173ffffffffffffffffffffffffffffffffffffffff021916908373ffffffffffffffffffffffffffffffffffffffff160217905550506200011a565b600080fd5b600073ffffffffffffffffffffffffffffffffffffffff82169050919050565b6000620000b08262000083565b9050919050565b620000c281620000a3565b8114620000ce57600080fd5b50565b600081519050620000e281620000b7565b92915050565b6000602082840312156200010157620001006200007e565b5b60006200011184828501620000d1565b91505092915050565b611b34806200012a6000396000f3fe6080604052600436106100865760003560e01c80634e4dc988116100595780634e4dc9881461014a578063921e033b14610175578063c24126761461019e578063d63d4af0146101c9578063e5afe3e61461020657610086565b80630c8cc5691461008b57806317c8c0be146100c85780631899ca99146101055780633048f5121461012e575b600080fd5b34801561009757600080fd5b506100b260048036038101906100ad91906112bc565b610243565b6040516100bf91906112f8565b60405180910390f35b3480156100d457600080fd5b506100ef60048036038101906100ea9190611371565b610267565b6040516100fc9190611402565b60405180910390f35b34801561011157600080fd5b5061012c600480360381019061012791906112bc565b610575565b005b610148600480360381019061014391906112bc565b6106c9565b005b34801561015657600080fd5b5061015f6108dd565b60405161016c9190611521565b60405180910390f35b34801561018157600080fd5b5061019c60048036038101906101979190611543565b610b35565b005b3480156101aa57600080fd5b506101b3610da6565b6040516101c091906115e2565b60405180910390f35b3480156101d557600080fd5b506101f060048036038101906101eb9190611371565b610dca565b6040516101fd9190611521565b60405180910390f35b34801561021257600080fd5b5061022d600480360381019061022891906112bc565b611169565b60405161023a91906112f8565b60405180910390f35b6002818154811061025357600080fd5b906000526020600020016000915090505481565b61026f611259565b60008060009054906101000a900473ffffffffffffffffffffffffffffffffffffffff1673ffffffffffffffffffffffffffffffffffffffff166370a08231846040518263ffffffff1660e01b81526004016102cb919061160c565b602060405180830381865afa1580156102e8573d6000803e3d6000fd5b505050506040513d601f19601f8201168201806040525081019061030c919061163c565b905060008103610351576040517f08c379a0000000000000000000000000000000000000000000000000000000008152600401610348906116c6565b60405180910390fd5b60008060009054906101000a900473ffffffffffffffffffffffffffffffffffffffff1673ffffffffffffffffffffffffffffffffffffffff16632f745c5985846040518363ffffffff1660e01b81526004016103af9291906116e6565b602060405180830381865afa1580156103cc573d6000803e3d6000fd5b505050506040513d601f19601f820116820180604052508101906103f0919061163c565b905060008060009054906101000a900473ffffffffffffffffffffffffffffffffffffffff1673ffffffffffffffffffffffffffffffffffffffff1663d9f33c14836040518263ffffffff1660e01b815260040161044e91906112f8565b602060405180830381865afa15801561046b573d6000803e3d6000fd5b505050506040513d601f19601f8201168201806040525081019061048f919061163c565b905060008060009054906101000a900473ffffffffffffffffffffffffffffffffffffffff1673ffffffffffffffffffffffffffffffffffffffff166376aed2e1846040518263ffffffff1660e01b81526004016104ed91906112f8565b602060405180830381865afa15801561050a573d6000803e3d6000fd5b505050506040513d601f19601f8201168201806040525081019061052e919061163c565b905060006001600085815260200190815260200160002054905060405180608001604052808581526020018481526020018381526020018281525095505050505050919050565b60008060009054906101000a900473ffffffffffffffffffffffffffffffffffffffff1673ffffffffffffffffffffffffffffffffffffffff16636352211e836040518263ffffffff1660e01b81526004016105d191906112f8565b602060405180830381865afa1580156105ee573d6000803e3d6000fd5b505050506040513d601f19601f820116820180604052508101906106129190611724565b90503373ffffffffffffffffffffffffffffffffffffffff168173ffffffffffffffffffffffffffffffffffffffff1614610682576040517f08c379a00000000000000000000000000000000000000000000000000000000081526004016106799061179d565b60405180910390fd5b60006001600084815260200190815260200160002054116106a257600080fd5b600060016000848152602001908152602001600020819055506106c482611181565b505050565b60008060009054906101000a900473ffffffffffffffffffffffffffffffffffffffff1673ffffffffffffffffffffffffffffffffffffffff16636352211e836040518263ffffffff1660e01b815260040161072591906112f8565b602060405180830381865afa158015610742573d6000803e3d6000fd5b505050506040513d601f19601f820116820180604052508101906107669190611724565b90503373ffffffffffffffffffffffffffffffffffffffff168173ffffffffffffffffffffffffffffffffffffffff16036107a057600080fd5b60006001600084815260200190815260200160002054116107c057600080fd5b34600160008481526020019081526020016000205411156107e057600080fd5b8073ffffffffffffffffffffffffffffffffffffffff166108fc349081150290604051600060405180830381858888f19350505050158015610826573d6000803e3d6000fd5b5060008054906101000a900473ffffffffffffffffffffffffffffffffffffffff1673ffffffffffffffffffffffffffffffffffffffff166323b872dd8233856040518463ffffffff1660e01b8152600401610884939291906117bd565b600060405180830381600087803b15801561089e57600080fd5b505af11580156108b2573d6000803e3d6000fd5b50505050600060016000848152602001908152602001600020819055506108d882611181565b505050565b60606000600280549050116108f157600080fd5b600060028054905067ffffffffffffffff811115610912576109116117f4565b5b60405190808252806020026020018201604052801561094b57816020015b610938611259565b8152602001906001900390816109305790505b50905060005b600280549050811015610b2d5760006002828154811061097457610973611823565b5b9060005260206000200154905060008060009054906101000a900473ffffffffffffffffffffffffffffffffffffffff1673ffffffffffffffffffffffffffffffffffffffff1663d9f33c14836040518263ffffffff1660e01b81526004016109dd91906112f8565b602060405180830381865afa1580156109fa573d6000803e3d6000fd5b505050506040513d601f19601f82011682018060405250810190610a1e919061163c565b905060008060009054906101000a900473ffffffffffffffffffffffffffffffffffffffff1673ffffffffffffffffffffffffffffffffffffffff166376aed2e1846040518263ffffffff1660e01b8152600401610a7c91906112f8565b602060405180830381865afa158015610a99573d6000803e3d6000fd5b505050506040513d601f19601f82011682018060405250810190610abd919061163c565b9050600060016000858152602001908152602001600020549050604051806080016040528085815260200184815260200183815260200182815250868681518110610b0b57610b0a611823565b5b6020026020010181905250505050508080610b2590611881565b915050610951565b508091505090565b60008060009054906101000a900473ffffffffffffffffffffffffffffffffffffffff1673ffffffffffffffffffffffffffffffffffffffff16636352211e846040518263ffffffff1660e01b8152600401610b9191906112f8565b602060405180830381865afa158015610bae573d6000803e3d6000fd5b505050506040513d601f19601f82011682018060405250810190610bd29190611724565b90503373ffffffffffffffffffffffffffffffffffffffff168173ffffffffffffffffffffffffffffffffffffffff1614610c42576040517f08c379a0000000000000000000000000000000000000000000000000000000008152600401610c3990611915565b60405180910390fd5b60008211610c85576040517f08c379a0000000000000000000000000000000000000000000000000000000008152600401610c7c90611981565b60405180910390fd5b60008054906101000a900473ffffffffffffffffffffffffffffffffffffffff1673ffffffffffffffffffffffffffffffffffffffff1663e985e9c533306040518363ffffffff1660e01b8152600401610ce09291906119a1565b602060405180830381865afa158015610cfd573d6000803e3d6000fd5b505050506040513d601f19601f82011682018060405250810190610d219190611a02565b610d60576040517f08c379a0000000000000000000000000000000000000000000000000000000008152600401610d5790611a7b565b60405180910390fd5b8160016000858152602001908152602001600020819055506002839080600181540180825580915050600190039060005260206000200160009091909190915055505050565b60008054906101000a900473ffffffffffffffffffffffffffffffffffffffff1681565b606060008060009054906101000a900473ffffffffffffffffffffffffffffffffffffffff1673ffffffffffffffffffffffffffffffffffffffff166370a08231846040518263ffffffff1660e01b8152600401610e28919061160c565b602060405180830381865afa158015610e45573d6000803e3d6000fd5b505050506040513d601f19601f82011682018060405250810190610e69919061163c565b905060008103610eae576040517f08c379a0000000000000000000000000000000000000000000000000000000008152600401610ea5906116c6565b60405180910390fd5b60008167ffffffffffffffff811115610eca57610ec96117f4565b5b604051908082528060200260200182016040528015610f0357816020015b610ef0611259565b815260200190600190039081610ee85790505b50905060005b8281101561115e5760008060009054906101000a900473ffffffffffffffffffffffffffffffffffffffff1673ffffffffffffffffffffffffffffffffffffffff16632f745c5987846040518363ffffffff1660e01b8152600401610f6f9291906116e6565b602060405180830381865afa158015610f8c573d6000803e3d6000fd5b505050506040513d601f19601f82011682018060405250810190610fb0919061163c565b905060008060009054906101000a900473ffffffffffffffffffffffffffffffffffffffff1673ffffffffffffffffffffffffffffffffffffffff1663d9f33c14836040518263ffffffff1660e01b815260040161100e91906112f8565b602060405180830381865afa15801561102b573d6000803e3d6000fd5b505050506040513d601f19601f8201168201806040525081019061104f919061163c565b905060008060009054906101000a900473ffffffffffffffffffffffffffffffffffffffff1673ffffffffffffffffffffffffffffffffffffffff166376aed2e1846040518263ffffffff1660e01b81526004016110ad91906112f8565b602060405180830381865afa1580156110ca573d6000803e3d6000fd5b505050506040513d601f19601f820116820180604052508101906110ee919061163c565b905060006001600085815260200190815260200160002054905060405180608001604052808581526020018481526020018381526020018281525086868151811061113c5761113b611823565b5b602002602001018190525050505050808061115690611881565b915050610f09565b508092505050919050565b60016020528060005260406000206000915090505481565b600080600090505b6002805490508110156112525782600282815481106111ab576111aa611823565b5b90600052602060002001540361123f57600260016002805490506111cf9190611a9b565b815481106111e0576111df611823565b5b9060005260206000200154600282815481106111ff576111fe611823565b5b9060005260206000200181905550600280548061121f5761121e611acf565b5b600190038181906000526020600020016000905590556001915050611254565b808061124a90611881565b915050611189565b505b919050565b6040518060800160405280600081526020016000815260200160008152602001600081525090565b600080fd5b6000819050919050565b61129981611286565b81146112a457600080fd5b50565b6000813590506112b681611290565b92915050565b6000602082840312156112d2576112d1611281565b5b60006112e0848285016112a7565b91505092915050565b6112f281611286565b82525050565b600060208201905061130d60008301846112e9565b92915050565b600073ffffffffffffffffffffffffffffffffffffffff82169050919050565b600061133e82611313565b9050919050565b61134e81611333565b811461135957600080fd5b50565b60008135905061136b81611345565b92915050565b60006020828403121561138757611386611281565b5b60006113958482850161135c565b91505092915050565b6113a781611286565b82525050565b6080820160008201516113c3600085018261139e565b5060208201516113d6602085018261139e565b5060408201516113e9604085018261139e565b5060608201516113fc606085018261139e565b50505050565b600060808201905061141760008301846113ad565b92915050565b600081519050919050565b600082825260208201905092915050565b6000819050602082019050919050565b60808201600082015161145f600085018261139e565b506020820151611472602085018261139e565b506040820151611485604085018261139e565b506060820151611498606085018261139e565b50505050565b60006114aa8383611449565b60808301905092915050565b6000602082019050919050565b60006114ce8261141d565b6114d88185611428565b93506114e383611439565b8060005b838110156115145781516114fb888261149e565b9750611506836114b6565b9250506001810190506114e7565b5085935050505092915050565b6000602082019050818103600083015261153b81846114c3565b905092915050565b6000806040838503121561155a57611559611281565b5b6000611568858286016112a7565b9250506020611579858286016112a7565b9150509250929050565b6000819050919050565b60006115a86115a361159e84611313565b611583565b611313565b9050919050565b60006115ba8261158d565b9050919050565b60006115cc826115af565b9050919050565b6115dc816115c1565b82525050565b60006020820190506115f760008301846115d3565b92915050565b61160681611333565b82525050565b600060208201905061162160008301846115fd565b92915050565b60008151905061163681611290565b92915050565b60006020828403121561165257611651611281565b5b600061166084828501611627565b91505092915050565b600082825260208201905092915050565b7f62616c616e6365203d2030000000000000000000000000000000000000000000600082015250565b60006116b0600b83611669565b91506116bb8261167a565b602082019050919050565b600060208201905081810360008301526116df816116a3565b9050919050565b60006040820190506116fb60008301856115fd565b61170860208301846112e9565b9392505050565b60008151905061171e81611345565b92915050565b60006020828403121561173a57611739611281565b5b60006117488482850161170f565b91505092915050565b7f6f6e6c79206f776e65722063616e2063616e63656c20746f6b656e2073616c65600082015250565b6000611787602083611669565b915061179282611751565b602082019050919050565b600060208201905081810360008301526117b68161177a565b9050919050565b60006060820190506117d260008301866115fd565b6117df60208301856115fd565b6117ec60408301846112e9565b949350505050565b7f4e487b7100000000000000000000000000000000000000000000000000000000600052604160045260246000fd5b7f4e487b7100000000000000000000000000000000000000000000000000000000600052603260045260246000fd5b7f4e487b7100000000000000000000000000000000000000000000000000000000600052601160045260246000fd5b600061188c82611286565b91507fffffffffffffffffffffffffffffffffffffffffffffffffffffffffffffffff82036118be576118bd611852565b5b600182019050919050565b7f6f6e6c79206f776e65722063616e2073656c6c20746f6b656e00000000000000600082015250565b60006118ff601983611669565b915061190a826118c9565b602082019050919050565b6000602082019050818103600083015261192e816118f2565b9050919050565b7f7072696365206572726f72000000000000000000000000000000000000000000600082015250565b600061196b600b83611669565b915061197682611935565b602082019050919050565b6000602082019050818103600083015261199a8161195e565b9050919050565b60006040820190506119b660008301856115fd565b6119c360208301846115fd565b9392505050565b60008115159050919050565b6119df816119ca565b81146119ea57600080fd5b50565b6000815190506119fc816119d6565b92915050565b600060208284031215611a1857611a17611281565b5b6000611a26848285016119ed565b91505092915050565b7f746f6b656e20617070726f7665206572726f7200000000000000000000000000600082015250565b6000611a65601383611669565b9150611a7082611a2f565b602082019050919050565b60006020820190508181036000830152611a9481611a58565b9050919050565b6000611aa682611286565b9150611ab183611286565b925082821015611ac457611ac3611852565b5b828203905092915050565b7f4e487b7100000000000000000000000000000000000000000000000000000000600052603160045260246000fdfea2646970667358221220e5011095e78f2c257bf40c247d79bca601d40ab36c060f384d20261f115fb6a664736f6c634300080f0033",
  "immutableReferences": {},
  "source": "// SPDX-License-Identifier: MIT\npragma solidity ^0.8.15;\n\nimport \"./SdToken.sol\";\n\ncontract SaleToken {\n  HbToken public Token;\n\n\n  //         \n  constructor(address _tokenAddress){\n    Token = HbToken(_tokenAddress);\n  }\n\n  struct TokenInfo {\n    uint tokenId;\n    uint Rank;\n    uint Type;\n    uint price;\n  }\n\n\n  // 1.  \n  // 2.  \n  mapping(uint => uint) public tokenPrices; // tokenId : price;\n  uint[] public SaleTokenList; //  tokenId  . \n\n  //   \n  function SalesToken(uint _tokenId, uint _price) public {\n    //     1. ? 2.  0 ? 3.   ?\n    address tokenOwner = Token.ownerOf(_tokenId);\n    require(tokenOwner == msg.sender, \"only owner can sell token\");\n    require(_price > 0, \"price error\");\n    require(Token.isApprovedForAll(msg.sender, address(this)), \"token approve error\");\n    //         approvedForAll    .(    ).   ..\n    // ,    approvedForAll   . =>   setApprovalForAll    .\n\n    //   \n    tokenPrices[_tokenId] = _price;\n    SaleTokenList.push(_tokenId);\n  }\n\n  //   :  -> ca -> \n  function PurchaseToken(uint _tokenId) public payable {\n    address tokenOwner = Token.ownerOf(_tokenId);\n    require(tokenOwner != msg.sender); //    \n    require(tokenPrices[_tokenId] > 0); //    \n    require(tokenPrices[_tokenId] <= msg.value);\n\n    payable(tokenOwner).transfer(msg.value); //  \n    Token.transferFrom(tokenOwner, msg.sender, _tokenId);\n\n    tokenPrices[_tokenId] = 0;\n    popSaleToken(_tokenId);\n  }\n\n  function cancelSaleToken(uint _tokenId) public {\n    address tokenOwner = Token.ownerOf(_tokenId);\n    require(tokenOwner == msg.sender, \"only owner can cancel token sale\");\n    require(tokenPrices[_tokenId] > 0); //  \n    \n    tokenPrices[_tokenId] = 0;\n    popSaleToken(_tokenId);\n  }\n\n  function popSaleToken (uint _tokenId) private returns(bool) {\n    for (uint i=0; i < SaleTokenList.length; i++) {\n      if (SaleTokenList[i] == _tokenId) {\n        SaleTokenList[i] = SaleTokenList[SaleTokenList.length - 1];\n        SaleTokenList.pop();\n        return true;\n      }\n    }\n  }\n\n  function getSaleTokenList() public view returns (TokenInfo[] memory) {\n    require(SaleTokenList.length > 0); //     .\n    TokenInfo[] memory list = new TokenInfo[](SaleTokenList.length); //   Length  .\n    for (uint i=0; i < SaleTokenList.length; i++) {\n      uint tokenId = SaleTokenList[i];\n      uint Rank = Token.getTokenRank(tokenId);\n      uint Type = Token.getTokenType(tokenId);\n      uint price = tokenPrices[tokenId];\n      list[i] = TokenInfo(tokenId, Rank, Type, price);\n    }\n    return list;\n  }\n\n  function getOwnerTokens(address _tokenOwner) public view returns (TokenInfo[] memory) {\n    // tokenOfOwnerByIndex\n    // balanceOf\n\n    uint balance = Token.balanceOf(_tokenOwner);\n    require(balance != 0, \"balance = 0\");\n    TokenInfo[] memory list = new TokenInfo[](balance);\n    for (uint i=0; i<balance; i++) {\n      uint tokenId = Token.tokenOfOwnerByIndex(_tokenOwner, i);\n      uint Rank = Token.getTokenRank(tokenId);\n      uint Type = Token.getTokenType(tokenId);\n      uint price = tokenPrices[tokenId];\n      list[i] = TokenInfo(tokenId, Rank, Type, price);\n    }\n    return list;\n  }\n\n  function latestToken(address _tokenOwner) public view returns(TokenInfo memory) {\n    uint balance = Token.balanceOf(_tokenOwner);\n    require(balance != 0, \"balance = 0\");\n    uint tokenId = Token.tokenOfOwnerByIndex(_tokenOwner, balance);\n    uint Rank = Token.getTokenRank(tokenId);\n    uint Type = Token.getTokenType(tokenId);\n    uint price = tokenPrices[tokenId];\n    return TokenInfo(tokenId, Rank, Type, price);\n  }\n}",
  "sourcePath": "/Users/hanbin/blockChain/NFTmarketproject/truffle/contracts/Market.sol",
  "compiler": {
    "name": "solc",
    "version": "0.8.15+commit.e14f2714.Emscripten.clang"
  },
  "schemaVersion": "3.4.8",
  "updatedAt": "2022-07-31T15:03:54.647Z",
  "devdoc": {
    "kind": "dev",
    "methods": {},
    "version": 1
  },
  "userdoc": {
    "kind": "user",
    "methods": {},
    "version": 1
  }
}