{
  "contractName": "Counter",
  "abi": [
    {
      "anonymous": false,
      "inputs": [
        {
          "indexed": false,
          "internalType": "uint256",
          "name": "count",
          "type": "uint256"
        }
      ],
      "name": "Count",
      "type": "event"
    },
    {
      "inputs": [],
      "name": "current",
      "outputs": [
        {
          "internalType": "uint256",
          "name": "",
          "type": "uint256"
        }
      ],
      "stateMutability": "view",
      "type": "function",
      "constant": true
    },
    {
      "inputs": [],
      "name": "increment",
      "outputs": [],
      "stateMutability": "nonpayable",
      "type": "function"
    },
    {
      "inputs": [],
      "name": "decrement",
      "outputs": [],
      "stateMutability": "nonpayable",
      "type": "function"
    }
  ],
  "bytecode": "0x608060405234801561001057600080fd5b5061024c806100206000396000f3fe608060405234801561001057600080fd5b50600436106100415760003560e01c80632baeceb7146100465780639fa6a6e314610050578063d09de08a1461006e575b600080fd5b61004e610078565b005b6100586100cc565b6040516100659190610142565b60405180910390f35b6100766100d5565b005b600160008082825461008a919061018c565b925050819055507face32e4392fafee7f8245a5ae6a32722dc74442d018c52e460835648cbeeeba16000546040516100c29190610142565b60405180910390a1565b60008054905090565b60016000808282546100e791906101c0565b925050819055507face32e4392fafee7f8245a5ae6a32722dc74442d018c52e460835648cbeeeba160005460405161011f9190610142565b60405180910390a1565b6000819050919050565b61013c81610129565b82525050565b60006020820190506101576000830184610133565b92915050565b7f4e487b7100000000000000000000000000000000000000000000000000000000600052601160045260246000fd5b600061019782610129565b91506101a283610129565b9250828210156101b5576101b461015d565b5b828203905092915050565b60006101cb82610129565b91506101d683610129565b9250827fffffffffffffffffffffffffffffffffffffffffffffffffffffffffffffffff0382111561020b5761020a61015d565b5b82820190509291505056fea2646970667358221220b4a8be1a35e23cc88d85237b2d5397b7a7021728b88de213a0a26274305631a664736f6c634300080f0033",
  "immutableReferences": {},
  "source": "// SPDX-License-Identifier: MIT\npragma solidity ^0.8.15;\n\ncontract Counter {\n    \n    uint256 private _count;\n    // 로그 만들기\n    event Count(uint256 count);\n    // 이벤트를 등록하겠다. (로그를 찍겠다.)\n    // 서버 노드에 이벤트가 찍히고 그걸 전송하는 개념\n    // 로그의 이름이 Count\n    // 로그의 내용이 uint256 count\n    // 이벤트를 등록했다면 어느 시점에 로그를 찍을 것인지 작성하면 된다.\n\n    // 상태변수가 private 이기 때문에 getter 함수를 직접 만들어줘야 한다.\n    function current() public view returns(uint256) {\n        return _count;\n    }\n\n    // 상태변수 변경 함수\n    function increment() public {\n        _count += 1;\n        emit Count(_count); // 현재 상태변수 값이 로그에 찍히게 된다.\n    }\n\n    function decrement() public {\n        _count -= 1;\n        emit Count(_count);\n    }\n}",
  "sourcePath": "/home/bitkunst/Ethereum/220714/truffle/contracts/Counter.sol",
  "compiler": {
    "name": "solc",
    "version": "0.8.15+commit.e14f2714.Emscripten.clang"
  },
  "schemaVersion": "3.4.8",
  "updatedAt": "2022-07-15T12:11:23.999Z",
  "networkType": "ethereum",
  "devdoc": {
    "kind": "dev",
    "methods": {},
    "version": 1
  },
  "userdoc": {
    "kind": "user",
    "methods": {},
    "version": 1
  }
}