{
	"ERC721/ERC721Enumerable.sol": {
		"ERC721Enumerable": {
			"abi": [
				{
					"inputs": [
						{
							"internalType": "string",
							"name": "_name",
							"type": "string"
						},
						{
							"internalType": "string",
							"name": "_symbol",
							"type": "string"
						}
					],
					"stateMutability": "nonpayable",
					"type": "constructor"
				},
				{
					"anonymous": false,
					"inputs": [
						{
							"indexed": true,
							"internalType": "address",
							"name": "_from",
							"type": "address"
						},
						{
							"indexed": true,
							"internalType": "address",
							"name": "_approved",
							"type": "address"
						},
						{
							"indexed": true,
							"internalType": "uint256",
							"name": "_tokenId",
							"type": "uint256"
						}
					],
					"name": "Approval",
					"type": "event"
				},
				{
					"anonymous": false,
					"inputs": [
						{
							"indexed": true,
							"internalType": "address",
							"name": "_owner",
							"type": "address"
						},
						{
							"indexed": true,
							"internalType": "address",
							"name": "_operator",
							"type": "address"
						},
						{
							"indexed": false,
							"internalType": "bool",
							"name": "_approved",
							"type": "bool"
						}
					],
					"name": "ApprovalForAll",
					"type": "event"
				},
				{
					"anonymous": false,
					"inputs": [
						{
							"indexed": true,
							"internalType": "address",
							"name": "_from",
							"type": "address"
						},
						{
							"indexed": true,
							"internalType": "address",
							"name": "_to",
							"type": "address"
						},
						{
							"indexed": true,
							"internalType": "uint256",
							"name": "_tokenId",
							"type": "uint256"
						}
					],
					"name": "Transfer",
					"type": "event"
				},
				{
					"inputs": [
						{
							"internalType": "address",
							"name": "_to",
							"type": "address"
						},
						{
							"internalType": "uint256",
							"name": "_tokenId",
							"type": "uint256"
						}
					],
					"name": "_mint",
					"outputs": [],
					"stateMutability": "nonpayable",
					"type": "function"
				},
				{
					"inputs": [
						{
							"internalType": "address",
							"name": "_to",
							"type": "address"
						},
						{
							"internalType": "uint256",
							"name": "_tokenId",
							"type": "uint256"
						}
					],
					"name": "approve",
					"outputs": [],
					"stateMutability": "nonpayable",
					"type": "function"
				},
				{
					"inputs": [
						{
							"internalType": "address",
							"name": "_owner",
							"type": "address"
						}
					],
					"name": "balanceOf",
					"outputs": [
						{
							"internalType": "uint256",
							"name": "",
							"type": "uint256"
						}
					],
					"stateMutability": "view",
					"type": "function"
				},
				{
					"inputs": [
						{
							"internalType": "uint256",
							"name": "_tokenId",
							"type": "uint256"
						}
					],
					"name": "getApproved",
					"outputs": [
						{
							"internalType": "address",
							"name": "",
							"type": "address"
						}
					],
					"stateMutability": "view",
					"type": "function"
				},
				{
					"inputs": [
						{
							"internalType": "address",
							"name": "_owner",
							"type": "address"
						},
						{
							"internalType": "address",
							"name": "_operator",
							"type": "address"
						}
					],
					"name": "isApprovedForAll",
					"outputs": [
						{
							"internalType": "bool",
							"name": "",
							"type": "bool"
						}
					],
					"stateMutability": "view",
					"type": "function"
				},
				{
					"inputs": [
						{
							"internalType": "address",
							"name": "_to",
							"type": "address"
						}
					],
					"name": "mint",
					"outputs": [],
					"stateMutability": "nonpayable",
					"type": "function"
				},
				{
					"inputs": [],
					"name": "name",
					"outputs": [
						{
							"internalType": "string",
							"name": "",
							"type": "string"
						}
					],
					"stateMutability": "view",
					"type": "function"
				},
				{
					"inputs": [
						{
							"internalType": "uint256",
							"name": "_tokenId",
							"type": "uint256"
						}
					],
					"name": "ownerOf",
					"outputs": [
						{
							"internalType": "address",
							"name": "",
							"type": "address"
						}
					],
					"stateMutability": "view",
					"type": "function"
				},
				{
					"inputs": [
						{
							"internalType": "address",
							"name": "_operator",
							"type": "address"
						},
						{
							"internalType": "bool",
							"name": "_approved",
							"type": "bool"
						}
					],
					"name": "setApprovalForAll",
					"outputs": [],
					"stateMutability": "nonpayable",
					"type": "function"
				},
				{
					"inputs": [],
					"name": "symbol",
					"outputs": [
						{
							"internalType": "string",
							"name": "",
							"type": "string"
						}
					],
					"stateMutability": "view",
					"type": "function"
				},
				{
					"inputs": [
						{
							"internalType": "uint256",
							"name": "_index",
							"type": "uint256"
						}
					],
					"name": "tokenByIndex",
					"outputs": [
						{
							"internalType": "uint256",
							"name": "",
							"type": "uint256"
						}
					],
					"stateMutability": "view",
					"type": "function"
				},
				{
					"inputs": [
						{
							"internalType": "address",
							"name": "_owner",
							"type": "address"
						},
						{
							"internalType": "uint256",
							"name": "_index",
							"type": "uint256"
						}
					],
					"name": "tokenOfOwnerByIndex",
					"outputs": [
						{
							"internalType": "uint256",
							"name": "",
							"type": "uint256"
						}
					],
					"stateMutability": "view",
					"type": "function"
				},
				{
					"inputs": [
						{
							"internalType": "uint256",
							"name": "_tokenId",
							"type": "uint256"
						}
					],
					"name": "tokenURI",
					"outputs": [
						{
							"internalType": "string",
							"name": "",
							"type": "string"
						}
					],
					"stateMutability": "view",
					"type": "function"
				},
				{
					"inputs": [],
					"name": "totalSupply",
					"outputs": [
						{
							"internalType": "uint256",
							"name": "",
							"type": "uint256"
						}
					],
					"stateMutability": "view",
					"type": "function"
				},
				{
					"inputs": [
						{
							"internalType": "address",
							"name": "_from",
							"type": "address"
						},
						{
							"internalType": "address",
							"name": "_to",
							"type": "address"
						},
						{
							"internalType": "uint256",
							"name": "_tokenId",
							"type": "uint256"
						}
					],
					"name": "transferFrom",
					"outputs": [],
					"stateMutability": "nonpayable",
					"type": "function"
				}
			],
			"devdoc": {
				"kind": "dev",
				"methods": {},
				"version": 1
			},
			"evm": {
				"assembly": "    /* \"ERC721/ERC721Enumerable.sol\":516:3785  contract ERC721Enumerable is ERC721 {... */\n  mstore(0x40, 0x80)\n    /* \"ERC721/ERC721Enumerable.sol\":1070:1151  constructor(string memory _name, string memory _symbol) ERC721(_name, _symbol) {} */\n  callvalue\n  dup1\n  iszero\n  tag_1\n  jumpi\n  0x00\n  dup1\n  revert\ntag_1:\n  pop\n  mload(0x40)\n  sub(codesize, bytecodeSize)\n  dup1\n  bytecodeSize\n  dup4\n  codecopy\n  dup2\n  dup2\n  add\n  0x40\n  mstore\n  dup2\n  add\n  swap1\n  tag_2\n  swap2\n  swap1\n  tag_3\n  jump\t// in\ntag_2:\n    /* \"ERC721/ERC721Enumerable.sol\":1133:1138  _name */\n  dup2\n    /* \"ERC721/ERC721Enumerable.sol\":1140:1147  _symbol */\n  dup2\n    /* \"ERC721/ERC721.sol\":1431:1436  _name */\n  dup2\n    /* \"ERC721/ERC721.sol\":1424:1428  name */\n  0x00\n    /* \"ERC721/ERC721.sol\":1424:1436  name = _name */\n  swap1\n  dup2\n  tag_7\n  swap2\n  swap1\n  tag_8\n  jump\t// in\ntag_7:\n  pop\n    /* \"ERC721/ERC721.sol\":1455:1462  _symbol */\n  dup1\n    /* \"ERC721/ERC721.sol\":1446:1452  symbol */\n  0x01\n    /* \"ERC721/ERC721.sol\":1446:1462  symbol = _symbol */\n  swap1\n  dup2\n  tag_9\n  swap2\n  swap1\n  tag_8\n  jump\t// in\ntag_9:\n  pop\n    /* \"ERC721/ERC721.sol\":1358:1469  constructor(string memory _name, string memory _symbol) {... */\n  pop\n  pop\n    /* \"ERC721/ERC721Enumerable.sol\":1070:1151  constructor(string memory _name, string memory _symbol) ERC721(_name, _symbol) {} */\n  pop\n  pop\n    /* \"ERC721/ERC721Enumerable.sol\":516:3785  contract ERC721Enumerable is ERC721 {... */\n  jump(tag_11)\n    /* \"#utility.yul\":7:82   */\ntag_12:\n    /* \"#utility.yul\":40:46   */\n  0x00\n    /* \"#utility.yul\":73:75   */\n  0x40\n    /* \"#utility.yul\":67:76   */\n  mload\n    /* \"#utility.yul\":57:76   */\n  swap1\n  pop\n    /* \"#utility.yul\":7:82   */\n  swap1\n  jump\t// out\n    /* \"#utility.yul\":88:205   */\ntag_13:\n    /* \"#utility.yul\":197:198   */\n  0x00\n    /* \"#utility.yul\":194:195   */\n  dup1\n    /* \"#utility.yul\":187:199   */\n  revert\n    /* \"#utility.yul\":211:328   */\ntag_14:\n    /* \"#utility.yul\":320:321   */\n  0x00\n    /* \"#utility.yul\":317:318   */\n  dup1\n    /* \"#utility.yul\":310:322   */\n  revert\n    /* \"#utility.yul\":334:451   */\ntag_15:\n    /* \"#utility.yul\":443:444   */\n  0x00\n    /* \"#utility.yul\":440:441   */\n  dup1\n    /* \"#utility.yul\":433:445   */\n  revert\n    /* \"#utility.yul\":457:574   */\ntag_16:\n    /* \"#utility.yul\":566:567   */\n  0x00\n    /* \"#utility.yul\":563:564   */\n  dup1\n    /* \"#utility.yul\":556:568   */\n  revert\n    /* \"#utility.yul\":580:682   */\ntag_17:\n    /* \"#utility.yul\":621:627   */\n  0x00\n    /* \"#utility.yul\":672:674   */\n  0x1f\n    /* \"#utility.yul\":668:675   */\n  not\n    /* \"#utility.yul\":663:665   */\n  0x1f\n    /* \"#utility.yul\":656:661   */\n  dup4\n    /* \"#utility.yul\":652:666   */\n  add\n    /* \"#utility.yul\":648:676   */\n  and\n    /* \"#utility.yul\":638:676   */\n  swap1\n  pop\n    /* \"#utility.yul\":580:682   */\n  swap2\n  swap1\n  pop\n  jump\t// out\n    /* \"#utility.yul\":688:868   */\ntag_18:\n    /* \"#utility.yul\":736:813   */\n  0x4e487b7100000000000000000000000000000000000000000000000000000000\n    /* \"#utility.yul\":733:734   */\n  0x00\n    /* \"#utility.yul\":726:814   */\n  mstore\n    /* \"#utility.yul\":833:837   */\n  0x41\n    /* \"#utility.yul\":830:831   */\n  0x04\n    /* \"#utility.yul\":823:838   */\n  mstore\n    /* \"#utility.yul\":857:861   */\n  0x24\n    /* \"#utility.yul\":854:855   */\n  0x00\n    /* \"#utility.yul\":847:862   */\n  revert\n    /* \"#utility.yul\":874:1155   */\ntag_19:\n    /* \"#utility.yul\":957:984   */\n  tag_53\n    /* \"#utility.yul\":979:983   */\n  dup3\n    /* \"#utility.yul\":957:984   */\n  tag_17\n  jump\t// in\ntag_53:\n    /* \"#utility.yul\":949:955   */\n  dup2\n    /* \"#utility.yul\":945:985   */\n  add\n    /* \"#utility.yul\":1087:1093   */\n  dup2\n    /* \"#utility.yul\":1075:1085   */\n  dup2\n    /* \"#utility.yul\":1072:1094   */\n  lt\n    /* \"#utility.yul\":1051:1069   */\n  0xffffffffffffffff\n    /* \"#utility.yul\":1039:1049   */\n  dup3\n    /* \"#utility.yul\":1036:1070   */\n  gt\n    /* \"#utility.yul\":1033:1095   */\n  or\n    /* \"#utility.yul\":1030:1118   */\n  iszero\n  tag_54\n  jumpi\n    /* \"#utility.yul\":1098:1116   */\n  tag_55\n  tag_18\n  jump\t// in\ntag_55:\n    /* \"#utility.yul\":1030:1118   */\ntag_54:\n    /* \"#utility.yul\":1138:1148   */\n  dup1\n    /* \"#utility.yul\":1134:1136   */\n  0x40\n    /* \"#utility.yul\":1127:1149   */\n  mstore\n    /* \"#utility.yul\":917:1155   */\n  pop\n    /* \"#utility.yul\":874:1155   */\n  pop\n  pop\n  jump\t// out\n    /* \"#utility.yul\":1161:1290   */\ntag_20:\n    /* \"#utility.yul\":1195:1201   */\n  0x00\n    /* \"#utility.yul\":1222:1242   */\n  tag_57\n  tag_12\n  jump\t// in\ntag_57:\n    /* \"#utility.yul\":1212:1242   */\n  swap1\n  pop\n    /* \"#utility.yul\":1251:1284   */\n  tag_58\n    /* \"#utility.yul\":1279:1283   */\n  dup3\n    /* \"#utility.yul\":1271:1277   */\n  dup3\n    /* \"#utility.yul\":1251:1284   */\n  tag_19\n  jump\t// in\ntag_58:\n    /* \"#utility.yul\":1161:1290   */\n  swap2\n  swap1\n  pop\n  jump\t// out\n    /* \"#utility.yul\":1296:1604   */\ntag_21:\n    /* \"#utility.yul\":1358:1362   */\n  0x00\n    /* \"#utility.yul\":1448:1466   */\n  0xffffffffffffffff\n    /* \"#utility.yul\":1440:1446   */\n  dup3\n    /* \"#utility.yul\":1437:1467   */\n  gt\n    /* \"#utility.yul\":1434:1490   */\n  iszero\n  tag_60\n  jumpi\n    /* \"#utility.yul\":1470:1488   */\n  tag_61\n  tag_18\n  jump\t// in\ntag_61:\n    /* \"#utility.yul\":1434:1490   */\ntag_60:\n    /* \"#utility.yul\":1508:1537   */\n  tag_62\n    /* \"#utility.yul\":1530:1536   */\n  dup3\n    /* \"#utility.yul\":1508:1537   */\n  tag_17\n  jump\t// in\ntag_62:\n    /* \"#utility.yul\":1500:1537   */\n  swap1\n  pop\n    /* \"#utility.yul\":1592:1596   */\n  0x20\n    /* \"#utility.yul\":1586:1590   */\n  dup2\n    /* \"#utility.yul\":1582:1597   */\n  add\n    /* \"#utility.yul\":1574:1597   */\n  swap1\n  pop\n    /* \"#utility.yul\":1296:1604   */\n  swap2\n  swap1\n  pop\n  jump\t// out\n    /* \"#utility.yul\":1610:1917   */\ntag_22:\n    /* \"#utility.yul\":1678:1679   */\n  0x00\n    /* \"#utility.yul\":1688:1801   */\ntag_64:\n    /* \"#utility.yul\":1702:1708   */\n  dup4\n    /* \"#utility.yul\":1699:1700   */\n  dup2\n    /* \"#utility.yul\":1696:1709   */\n  lt\n    /* \"#utility.yul\":1688:1801   */\n  iszero\n  tag_66\n  jumpi\n    /* \"#utility.yul\":1787:1788   */\n  dup1\n    /* \"#utility.yul\":1782:1785   */\n  dup3\n    /* \"#utility.yul\":1778:1789   */\n  add\n    /* \"#utility.yul\":1772:1790   */\n  mload\n    /* \"#utility.yul\":1768:1769   */\n  dup2\n    /* \"#utility.yul\":1763:1766   */\n  dup5\n    /* \"#utility.yul\":1759:1770   */\n  add\n    /* \"#utility.yul\":1752:1791   */\n  mstore\n    /* \"#utility.yul\":1724:1726   */\n  0x20\n    /* \"#utility.yul\":1721:1722   */\n  dup2\n    /* \"#utility.yul\":1717:1727   */\n  add\n    /* \"#utility.yul\":1712:1727   */\n  swap1\n  pop\n    /* \"#utility.yul\":1688:1801   */\n  jump(tag_64)\ntag_66:\n    /* \"#utility.yul\":1819:1825   */\n  dup4\n    /* \"#utility.yul\":1816:1817   */\n  dup2\n    /* \"#utility.yul\":1813:1826   */\n  gt\n    /* \"#utility.yul\":1810:1911   */\n  iszero\n  tag_67\n  jumpi\n    /* \"#utility.yul\":1899:1900   */\n  0x00\n    /* \"#utility.yul\":1890:1896   */\n  dup5\n    /* \"#utility.yul\":1885:1888   */\n  dup5\n    /* \"#utility.yul\":1881:1897   */\n  add\n    /* \"#utility.yul\":1874:1901   */\n  mstore\n    /* \"#utility.yul\":1810:1911   */\ntag_67:\n    /* \"#utility.yul\":1659:1917   */\n  pop\n    /* \"#utility.yul\":1610:1917   */\n  pop\n  pop\n  pop\n  jump\t// out\n    /* \"#utility.yul\":1923:2344   */\ntag_23:\n    /* \"#utility.yul\":2012:2017   */\n  0x00\n    /* \"#utility.yul\":2037:2103   */\n  tag_69\n    /* \"#utility.yul\":2053:2102   */\n  tag_70\n    /* \"#utility.yul\":2095:2101   */\n  dup5\n    /* \"#utility.yul\":2053:2102   */\n  tag_21\n  jump\t// in\ntag_70:\n    /* \"#utility.yul\":2037:2103   */\n  tag_20\n  jump\t// in\ntag_69:\n    /* \"#utility.yul\":2028:2103   */\n  swap1\n  pop\n    /* \"#utility.yul\":2126:2132   */\n  dup3\n    /* \"#utility.yul\":2119:2124   */\n  dup2\n    /* \"#utility.yul\":2112:2133   */\n  mstore\n    /* \"#utility.yul\":2164:2168   */\n  0x20\n    /* \"#utility.yul\":2157:2162   */\n  dup2\n    /* \"#utility.yul\":2153:2169   */\n  add\n    /* \"#utility.yul\":2202:2205   */\n  dup5\n    /* \"#utility.yul\":2193:2199   */\n  dup5\n    /* \"#utility.yul\":2188:2191   */\n  dup5\n    /* \"#utility.yul\":2184:2200   */\n  add\n    /* \"#utility.yul\":2181:2206   */\n  gt\n    /* \"#utility.yul\":2178:2290   */\n  iszero\n  tag_71\n  jumpi\n    /* \"#utility.yul\":2209:2288   */\n  tag_72\n  tag_16\n  jump\t// in\ntag_72:\n    /* \"#utility.yul\":2178:2290   */\ntag_71:\n    /* \"#utility.yul\":2299:2338   */\n  tag_73\n    /* \"#utility.yul\":2331:2337   */\n  dup5\n    /* \"#utility.yul\":2326:2329   */\n  dup3\n    /* \"#utility.yul\":2321:2324   */\n  dup6\n    /* \"#utility.yul\":2299:2338   */\n  tag_22\n  jump\t// in\ntag_73:\n    /* \"#utility.yul\":2018:2344   */\n  pop\n    /* \"#utility.yul\":1923:2344   */\n  swap4\n  swap3\n  pop\n  pop\n  pop\n  jump\t// out\n    /* \"#utility.yul\":2364:2719   */\ntag_24:\n    /* \"#utility.yul\":2431:2436   */\n  0x00\n    /* \"#utility.yul\":2480:2483   */\n  dup3\n    /* \"#utility.yul\":2473:2477   */\n  0x1f\n    /* \"#utility.yul\":2465:2471   */\n  dup4\n    /* \"#utility.yul\":2461:2478   */\n  add\n    /* \"#utility.yul\":2457:2484   */\n  slt\n    /* \"#utility.yul\":2447:2569   */\n  tag_75\n  jumpi\n    /* \"#utility.yul\":2488:2567   */\n  tag_76\n  tag_15\n  jump\t// in\ntag_76:\n    /* \"#utility.yul\":2447:2569   */\ntag_75:\n    /* \"#utility.yul\":2598:2604   */\n  dup2\n    /* \"#utility.yul\":2592:2605   */\n  mload\n    /* \"#utility.yul\":2623:2713   */\n  tag_77\n    /* \"#utility.yul\":2709:2712   */\n  dup5\n    /* \"#utility.yul\":2701:2707   */\n  dup3\n    /* \"#utility.yul\":2694:2698   */\n  0x20\n    /* \"#utility.yul\":2686:2692   */\n  dup7\n    /* \"#utility.yul\":2682:2699   */\n  add\n    /* \"#utility.yul\":2623:2713   */\n  tag_23\n  jump\t// in\ntag_77:\n    /* \"#utility.yul\":2614:2713   */\n  swap2\n  pop\n    /* \"#utility.yul\":2437:2719   */\n  pop\n    /* \"#utility.yul\":2364:2719   */\n  swap3\n  swap2\n  pop\n  pop\n  jump\t// out\n    /* \"#utility.yul\":2725:3578   */\ntag_3:\n    /* \"#utility.yul\":2824:2830   */\n  0x00\n    /* \"#utility.yul\":2832:2838   */\n  dup1\n    /* \"#utility.yul\":2881:2883   */\n  0x40\n    /* \"#utility.yul\":2869:2878   */\n  dup4\n    /* \"#utility.yul\":2860:2867   */\n  dup6\n    /* \"#utility.yul\":2856:2879   */\n  sub\n    /* \"#utility.yul\":2852:2884   */\n  slt\n    /* \"#utility.yul\":2849:2968   */\n  iszero\n  tag_79\n  jumpi\n    /* \"#utility.yul\":2887:2966   */\n  tag_80\n  tag_13\n  jump\t// in\ntag_80:\n    /* \"#utility.yul\":2849:2968   */\ntag_79:\n    /* \"#utility.yul\":3028:3029   */\n  0x00\n    /* \"#utility.yul\":3017:3026   */\n  dup4\n    /* \"#utility.yul\":3013:3030   */\n  add\n    /* \"#utility.yul\":3007:3031   */\n  mload\n    /* \"#utility.yul\":3058:3076   */\n  0xffffffffffffffff\n    /* \"#utility.yul\":3050:3056   */\n  dup2\n    /* \"#utility.yul\":3047:3077   */\n  gt\n    /* \"#utility.yul\":3044:3161   */\n  iszero\n  tag_81\n  jumpi\n    /* \"#utility.yul\":3080:3159   */\n  tag_82\n  tag_14\n  jump\t// in\ntag_82:\n    /* \"#utility.yul\":3044:3161   */\ntag_81:\n    /* \"#utility.yul\":3185:3259   */\n  tag_83\n    /* \"#utility.yul\":3251:3258   */\n  dup6\n    /* \"#utility.yul\":3242:3248   */\n  dup3\n    /* \"#utility.yul\":3231:3240   */\n  dup7\n    /* \"#utility.yul\":3227:3249   */\n  add\n    /* \"#utility.yul\":3185:3259   */\n  tag_24\n  jump\t// in\ntag_83:\n    /* \"#utility.yul\":3175:3259   */\n  swap3\n  pop\n    /* \"#utility.yul\":2978:3269   */\n  pop\n    /* \"#utility.yul\":3329:3331   */\n  0x20\n    /* \"#utility.yul\":3318:3327   */\n  dup4\n    /* \"#utility.yul\":3314:3332   */\n  add\n    /* \"#utility.yul\":3308:3333   */\n  mload\n    /* \"#utility.yul\":3360:3378   */\n  0xffffffffffffffff\n    /* \"#utility.yul\":3352:3358   */\n  dup2\n    /* \"#utility.yul\":3349:3379   */\n  gt\n    /* \"#utility.yul\":3346:3463   */\n  iszero\n  tag_84\n  jumpi\n    /* \"#utility.yul\":3382:3461   */\n  tag_85\n  tag_14\n  jump\t// in\ntag_85:\n    /* \"#utility.yul\":3346:3463   */\ntag_84:\n    /* \"#utility.yul\":3487:3561   */\n  tag_86\n    /* \"#utility.yul\":3553:3560   */\n  dup6\n    /* \"#utility.yul\":3544:3550   */\n  dup3\n    /* \"#utility.yul\":3533:3542   */\n  dup7\n    /* \"#utility.yul\":3529:3551   */\n  add\n    /* \"#utility.yul\":3487:3561   */\n  tag_24\n  jump\t// in\ntag_86:\n    /* \"#utility.yul\":3477:3561   */\n  swap2\n  pop\n    /* \"#utility.yul\":3279:3571   */\n  pop\n    /* \"#utility.yul\":2725:3578   */\n  swap3\n  pop\n  swap3\n  swap1\n  pop\n  jump\t// out\n    /* \"#utility.yul\":3584:3683   */\ntag_25:\n    /* \"#utility.yul\":3636:3642   */\n  0x00\n    /* \"#utility.yul\":3670:3675   */\n  dup2\n    /* \"#utility.yul\":3664:3676   */\n  mload\n    /* \"#utility.yul\":3654:3676   */\n  swap1\n  pop\n    /* \"#utility.yul\":3584:3683   */\n  swap2\n  swap1\n  pop\n  jump\t// out\n    /* \"#utility.yul\":3689:3869   */\ntag_26:\n    /* \"#utility.yul\":3737:3814   */\n  0x4e487b7100000000000000000000000000000000000000000000000000000000\n    /* \"#utility.yul\":3734:3735   */\n  0x00\n    /* \"#utility.yul\":3727:3815   */\n  mstore\n    /* \"#utility.yul\":3834:3838   */\n  0x22\n    /* \"#utility.yul\":3831:3832   */\n  0x04\n    /* \"#utility.yul\":3824:3839   */\n  mstore\n    /* \"#utility.yul\":3858:3862   */\n  0x24\n    /* \"#utility.yul\":3855:3856   */\n  0x00\n    /* \"#utility.yul\":3848:3863   */\n  revert\n    /* \"#utility.yul\":3875:4195   */\ntag_27:\n    /* \"#utility.yul\":3919:3925   */\n  0x00\n    /* \"#utility.yul\":3956:3957   */\n  0x02\n    /* \"#utility.yul\":3950:3954   */\n  dup3\n    /* \"#utility.yul\":3946:3958   */\n  div\n    /* \"#utility.yul\":3936:3958   */\n  swap1\n  pop\n    /* \"#utility.yul\":4003:4004   */\n  0x01\n    /* \"#utility.yul\":3997:4001   */\n  dup3\n    /* \"#utility.yul\":3993:4005   */\n  and\n    /* \"#utility.yul\":4024:4042   */\n  dup1\n    /* \"#utility.yul\":4014:4095   */\n  tag_90\n  jumpi\n    /* \"#utility.yul\":4080:4084   */\n  0x7f\n    /* \"#utility.yul\":4072:4078   */\n  dup3\n    /* \"#utility.yul\":4068:4085   */\n  and\n    /* \"#utility.yul\":4058:4085   */\n  swap2\n  pop\n    /* \"#utility.yul\":4014:4095   */\ntag_90:\n    /* \"#utility.yul\":4142:4144   */\n  0x20\n    /* \"#utility.yul\":4134:4140   */\n  dup3\n    /* \"#utility.yul\":4131:4145   */\n  lt\n    /* \"#utility.yul\":4111:4129   */\n  dup2\n    /* \"#utility.yul\":4108:4146   */\n  sub\n    /* \"#utility.yul\":4105:4189   */\n  tag_91\n  jumpi\n    /* \"#utility.yul\":4161:4179   */\n  tag_92\n  tag_26\n  jump\t// in\ntag_92:\n    /* \"#utility.yul\":4105:4189   */\ntag_91:\n    /* \"#utility.yul\":3926:4195   */\n  pop\n    /* \"#utility.yul\":3875:4195   */\n  swap2\n  swap1\n  pop\n  jump\t// out\n    /* \"#utility.yul\":4201:4342   */\ntag_28:\n    /* \"#utility.yul\":4250:4254   */\n  0x00\n    /* \"#utility.yul\":4273:4276   */\n  dup2\n    /* \"#utility.yul\":4265:4276   */\n  swap1\n  pop\n    /* \"#utility.yul\":4296:4299   */\n  dup2\n    /* \"#utility.yul\":4293:4294   */\n  0x00\n    /* \"#utility.yul\":4286:4300   */\n  mstore\n    /* \"#utility.yul\":4330:4334   */\n  0x20\n    /* \"#utility.yul\":4327:4328   */\n  0x00\n    /* \"#utility.yul\":4317:4335   */\n  keccak256\n    /* \"#utility.yul\":4309:4335   */\n  swap1\n  pop\n    /* \"#utility.yul\":4201:4342   */\n  swap2\n  swap1\n  pop\n  jump\t// out\n    /* \"#utility.yul\":4348:4441   */\ntag_29:\n    /* \"#utility.yul\":4385:4391   */\n  0x00\n    /* \"#utility.yul\":4432:4434   */\n  0x20\n    /* \"#utility.yul\":4427:4429   */\n  0x1f\n    /* \"#utility.yul\":4420:4425   */\n  dup4\n    /* \"#utility.yul\":4416:4430   */\n  add\n    /* \"#utility.yul\":4412:4435   */\n  div\n    /* \"#utility.yul\":4402:4435   */\n  swap1\n  pop\n    /* \"#utility.yul\":4348:4441   */\n  swap2\n  swap1\n  pop\n  jump\t// out\n    /* \"#utility.yul\":4447:4554   */\ntag_30:\n    /* \"#utility.yul\":4491:4499   */\n  0x00\n    /* \"#utility.yul\":4541:4546   */\n  dup3\n    /* \"#utility.yul\":4535:4539   */\n  dup3\n    /* \"#utility.yul\":4531:4547   */\n  shl\n    /* \"#utility.yul\":4510:4547   */\n  swap1\n  pop\n    /* \"#utility.yul\":4447:4554   */\n  swap3\n  swap2\n  pop\n  pop\n  jump\t// out\n    /* \"#utility.yul\":4560:4953   */\ntag_31:\n    /* \"#utility.yul\":4629:4635   */\n  0x00\n    /* \"#utility.yul\":4679:4680   */\n  0x08\n    /* \"#utility.yul\":4667:4677   */\n  dup4\n    /* \"#utility.yul\":4663:4681   */\n  mul\n    /* \"#utility.yul\":4702:4799   */\n  tag_97\n    /* \"#utility.yul\":4732:4798   */\n  0xffffffffffffffffffffffffffffffffffffffffffffffffffffffffffffffff\n    /* \"#utility.yul\":4721:4730   */\n  dup3\n    /* \"#utility.yul\":4702:4799   */\n  tag_30\n  jump\t// in\ntag_97:\n    /* \"#utility.yul\":4820:4859   */\n  tag_98\n    /* \"#utility.yul\":4850:4858   */\n  dup7\n    /* \"#utility.yul\":4839:4848   */\n  dup4\n    /* \"#utility.yul\":4820:4859   */\n  tag_30\n  jump\t// in\ntag_98:\n    /* \"#utility.yul\":4808:4859   */\n  swap6\n  pop\n    /* \"#utility.yul\":4892:4896   */\n  dup1\n    /* \"#utility.yul\":4888:4897   */\n  not\n    /* \"#utility.yul\":4881:4886   */\n  dup5\n    /* \"#utility.yul\":4877:4898   */\n  and\n    /* \"#utility.yul\":4868:4898   */\n  swap4\n  pop\n    /* \"#utility.yul\":4941:4945   */\n  dup1\n    /* \"#utility.yul\":4931:4939   */\n  dup7\n    /* \"#utility.yul\":4927:4946   */\n  and\n    /* \"#utility.yul\":4920:4925   */\n  dup5\n    /* \"#utility.yul\":4917:4947   */\n  or\n    /* \"#utility.yul\":4907:4947   */\n  swap3\n  pop\n    /* \"#utility.yul\":4636:4953   */\n  pop\n  pop\n    /* \"#utility.yul\":4560:4953   */\n  swap4\n  swap3\n  pop\n  pop\n  pop\n  jump\t// out\n    /* \"#utility.yul\":4959:5036   */\ntag_32:\n    /* \"#utility.yul\":4996:5003   */\n  0x00\n    /* \"#utility.yul\":5025:5030   */\n  dup2\n    /* \"#utility.yul\":5014:5030   */\n  swap1\n  pop\n    /* \"#utility.yul\":4959:5036   */\n  swap2\n  swap1\n  pop\n  jump\t// out\n    /* \"#utility.yul\":5042:5102   */\ntag_33:\n    /* \"#utility.yul\":5070:5073   */\n  0x00\n    /* \"#utility.yul\":5091:5096   */\n  dup2\n    /* \"#utility.yul\":5084:5096   */\n  swap1\n  pop\n    /* \"#utility.yul\":5042:5102   */\n  swap2\n  swap1\n  pop\n  jump\t// out\n    /* \"#utility.yul\":5108:5250   */\ntag_34:\n    /* \"#utility.yul\":5158:5167   */\n  0x00\n    /* \"#utility.yul\":5191:5244   */\n  tag_102\n    /* \"#utility.yul\":5209:5243   */\n  tag_103\n    /* \"#utility.yul\":5218:5242   */\n  tag_104\n    /* \"#utility.yul\":5236:5241   */\n  dup5\n    /* \"#utility.yul\":5218:5242   */\n  tag_32\n  jump\t// in\ntag_104:\n    /* \"#utility.yul\":5209:5243   */\n  tag_33\n  jump\t// in\ntag_103:\n    /* \"#utility.yul\":5191:5244   */\n  tag_32\n  jump\t// in\ntag_102:\n    /* \"#utility.yul\":5178:5244   */\n  swap1\n  pop\n    /* \"#utility.yul\":5108:5250   */\n  swap2\n  swap1\n  pop\n  jump\t// out\n    /* \"#utility.yul\":5256:5331   */\ntag_35:\n    /* \"#utility.yul\":5299:5302   */\n  0x00\n    /* \"#utility.yul\":5320:5325   */\n  dup2\n    /* \"#utility.yul\":5313:5325   */\n  swap1\n  pop\n    /* \"#utility.yul\":5256:5331   */\n  swap2\n  swap1\n  pop\n  jump\t// out\n    /* \"#utility.yul\":5337:5606   */\ntag_36:\n    /* \"#utility.yul\":5447:5486   */\n  tag_107\n    /* \"#utility.yul\":5478:5485   */\n  dup4\n    /* \"#utility.yul\":5447:5486   */\n  tag_34\n  jump\t// in\ntag_107:\n    /* \"#utility.yul\":5508:5599   */\n  tag_108\n    /* \"#utility.yul\":5557:5598   */\n  tag_109\n    /* \"#utility.yul\":5581:5597   */\n  dup3\n    /* \"#utility.yul\":5557:5598   */\n  tag_35\n  jump\t// in\ntag_109:\n    /* \"#utility.yul\":5549:5555   */\n  dup5\n    /* \"#utility.yul\":5542:5546   */\n  dup5\n    /* \"#utility.yul\":5536:5547   */\n  sload\n    /* \"#utility.yul\":5508:5599   */\n  tag_31\n  jump\t// in\ntag_108:\n    /* \"#utility.yul\":5502:5506   */\n  dup3\n    /* \"#utility.yul\":5495:5600   */\n  sstore\n    /* \"#utility.yul\":5413:5606   */\n  pop\n    /* \"#utility.yul\":5337:5606   */\n  pop\n  pop\n  pop\n  jump\t// out\n    /* \"#utility.yul\":5612:5685   */\ntag_37:\n    /* \"#utility.yul\":5657:5660   */\n  0x00\n    /* \"#utility.yul\":5612:5685   */\n  swap1\n  jump\t// out\n    /* \"#utility.yul\":5691:5880   */\ntag_38:\n    /* \"#utility.yul\":5768:5800   */\n  tag_112\n  tag_37\n  jump\t// in\ntag_112:\n    /* \"#utility.yul\":5809:5874   */\n  tag_113\n    /* \"#utility.yul\":5867:5873   */\n  dup2\n    /* \"#utility.yul\":5859:5865   */\n  dup5\n    /* \"#utility.yul\":5853:5857   */\n  dup5\n    /* \"#utility.yul\":5809:5874   */\n  tag_36\n  jump\t// in\ntag_113:\n    /* \"#utility.yul\":5744:5880   */\n  pop\n    /* \"#utility.yul\":5691:5880   */\n  pop\n  pop\n  jump\t// out\n    /* \"#utility.yul\":5886:6072   */\ntag_39:\n    /* \"#utility.yul\":5946:6066   */\ntag_115:\n    /* \"#utility.yul\":5963:5966   */\n  dup2\n    /* \"#utility.yul\":5956:5961   */\n  dup2\n    /* \"#utility.yul\":5953:5967   */\n  lt\n    /* \"#utility.yul\":5946:6066   */\n  iszero\n  tag_117\n  jumpi\n    /* \"#utility.yul\":6017:6056   */\n  tag_118\n    /* \"#utility.yul\":6054:6055   */\n  0x00\n    /* \"#utility.yul\":6047:6052   */\n  dup3\n    /* \"#utility.yul\":6017:6056   */\n  tag_38\n  jump\t// in\ntag_118:\n    /* \"#utility.yul\":5990:5991   */\n  0x01\n    /* \"#utility.yul\":5983:5988   */\n  dup2\n    /* \"#utility.yul\":5979:5992   */\n  add\n    /* \"#utility.yul\":5970:5992   */\n  swap1\n  pop\n    /* \"#utility.yul\":5946:6066   */\n  jump(tag_115)\ntag_117:\n    /* \"#utility.yul\":5886:6072   */\n  pop\n  pop\n  jump\t// out\n    /* \"#utility.yul\":6078:6621   */\ntag_40:\n    /* \"#utility.yul\":6179:6181   */\n  0x1f\n    /* \"#utility.yul\":6174:6177   */\n  dup3\n    /* \"#utility.yul\":6171:6182   */\n  gt\n    /* \"#utility.yul\":6168:6614   */\n  iszero\n  tag_120\n  jumpi\n    /* \"#utility.yul\":6213:6251   */\n  tag_121\n    /* \"#utility.yul\":6245:6250   */\n  dup2\n    /* \"#utility.yul\":6213:6251   */\n  tag_28\n  jump\t// in\ntag_121:\n    /* \"#utility.yul\":6297:6326   */\n  tag_122\n    /* \"#utility.yul\":6315:6325   */\n  dup5\n    /* \"#utility.yul\":6297:6326   */\n  tag_29\n  jump\t// in\ntag_122:\n    /* \"#utility.yul\":6287:6295   */\n  dup2\n    /* \"#utility.yul\":6283:6327   */\n  add\n    /* \"#utility.yul\":6480:6482   */\n  0x20\n    /* \"#utility.yul\":6468:6478   */\n  dup6\n    /* \"#utility.yul\":6465:6483   */\n  lt\n    /* \"#utility.yul\":6462:6511   */\n  iszero\n  tag_123\n  jumpi\n    /* \"#utility.yul\":6501:6509   */\n  dup2\n    /* \"#utility.yul\":6486:6509   */\n  swap1\n  pop\n    /* \"#utility.yul\":6462:6511   */\ntag_123:\n    /* \"#utility.yul\":6524:6604   */\n  tag_124\n    /* \"#utility.yul\":6580:6602   */\n  tag_125\n    /* \"#utility.yul\":6598:6601   */\n  dup6\n    /* \"#utility.yul\":6580:6602   */\n  tag_29\n  jump\t// in\ntag_125:\n    /* \"#utility.yul\":6570:6578   */\n  dup4\n    /* \"#utility.yul\":6566:6603   */\n  add\n    /* \"#utility.yul\":6553:6564   */\n  dup3\n    /* \"#utility.yul\":6524:6604   */\n  tag_39\n  jump\t// in\ntag_124:\n    /* \"#utility.yul\":6183:6614   */\n  pop\n  pop\n    /* \"#utility.yul\":6168:6614   */\ntag_120:\n    /* \"#utility.yul\":6078:6621   */\n  pop\n  pop\n  pop\n  jump\t// out\n    /* \"#utility.yul\":6627:6744   */\ntag_41:\n    /* \"#utility.yul\":6681:6689   */\n  0x00\n    /* \"#utility.yul\":6731:6736   */\n  dup3\n    /* \"#utility.yul\":6725:6729   */\n  dup3\n    /* \"#utility.yul\":6721:6737   */\n  shr\n    /* \"#utility.yul\":6700:6737   */\n  swap1\n  pop\n    /* \"#utility.yul\":6627:6744   */\n  swap3\n  swap2\n  pop\n  pop\n  jump\t// out\n    /* \"#utility.yul\":6750:6919   */\ntag_42:\n    /* \"#utility.yul\":6794:6800   */\n  0x00\n    /* \"#utility.yul\":6827:6878   */\n  tag_128\n    /* \"#utility.yul\":6875:6876   */\n  0x00\n    /* \"#utility.yul\":6871:6877   */\n  not\n    /* \"#utility.yul\":6863:6868   */\n  dup5\n    /* \"#utility.yul\":6860:6861   */\n  0x08\n    /* \"#utility.yul\":6856:6869   */\n  mul\n    /* \"#utility.yul\":6827:6878   */\n  tag_41\n  jump\t// in\ntag_128:\n    /* \"#utility.yul\":6823:6879   */\n  not\n    /* \"#utility.yul\":6908:6912   */\n  dup1\n    /* \"#utility.yul\":6902:6906   */\n  dup4\n    /* \"#utility.yul\":6898:6913   */\n  and\n    /* \"#utility.yul\":6888:6913   */\n  swap2\n  pop\n    /* \"#utility.yul\":6801:6919   */\n  pop\n    /* \"#utility.yul\":6750:6919   */\n  swap3\n  swap2\n  pop\n  pop\n  jump\t// out\n    /* \"#utility.yul\":6924:7219   */\ntag_43:\n    /* \"#utility.yul\":7000:7004   */\n  0x00\n    /* \"#utility.yul\":7146:7175   */\n  tag_130\n    /* \"#utility.yul\":7171:7174   */\n  dup4\n    /* \"#utility.yul\":7165:7169   */\n  dup4\n    /* \"#utility.yul\":7146:7175   */\n  tag_42\n  jump\t// in\ntag_130:\n    /* \"#utility.yul\":7138:7175   */\n  swap2\n  pop\n    /* \"#utility.yul\":7208:7211   */\n  dup3\n    /* \"#utility.yul\":7205:7206   */\n  0x02\n    /* \"#utility.yul\":7201:7212   */\n  mul\n    /* \"#utility.yul\":7195:7199   */\n  dup3\n    /* \"#utility.yul\":7192:7213   */\n  or\n    /* \"#utility.yul\":7184:7213   */\n  swap1\n  pop\n    /* \"#utility.yul\":6924:7219   */\n  swap3\n  swap2\n  pop\n  pop\n  jump\t// out\n    /* \"#utility.yul\":7224:8619   */\ntag_8:\n    /* \"#utility.yul\":7341:7378   */\n  tag_132\n    /* \"#utility.yul\":7374:7377   */\n  dup3\n    /* \"#utility.yul\":7341:7378   */\n  tag_25\n  jump\t// in\ntag_132:\n    /* \"#utility.yul\":7443:7461   */\n  0xffffffffffffffff\n    /* \"#utility.yul\":7435:7441   */\n  dup2\n    /* \"#utility.yul\":7432:7462   */\n  gt\n    /* \"#utility.yul\":7429:7485   */\n  iszero\n  tag_133\n  jumpi\n    /* \"#utility.yul\":7465:7483   */\n  tag_134\n  tag_18\n  jump\t// in\ntag_134:\n    /* \"#utility.yul\":7429:7485   */\ntag_133:\n    /* \"#utility.yul\":7509:7547   */\n  tag_135\n    /* \"#utility.yul\":7541:7545   */\n  dup3\n    /* \"#utility.yul\":7535:7546   */\n  sload\n    /* \"#utility.yul\":7509:7547   */\n  tag_27\n  jump\t// in\ntag_135:\n    /* \"#utility.yul\":7594:7661   */\n  tag_136\n    /* \"#utility.yul\":7654:7660   */\n  dup3\n    /* \"#utility.yul\":7646:7652   */\n  dup3\n    /* \"#utility.yul\":7640:7644   */\n  dup6\n    /* \"#utility.yul\":7594:7661   */\n  tag_40\n  jump\t// in\ntag_136:\n    /* \"#utility.yul\":7688:7689   */\n  0x00\n    /* \"#utility.yul\":7712:7716   */\n  0x20\n    /* \"#utility.yul\":7699:7716   */\n  swap1\n  pop\n    /* \"#utility.yul\":7744:7746   */\n  0x1f\n    /* \"#utility.yul\":7736:7742   */\n  dup4\n    /* \"#utility.yul\":7733:7747   */\n  gt\n    /* \"#utility.yul\":7761:7762   */\n  0x01\n    /* \"#utility.yul\":7756:8374   */\n  dup2\n  eq\n  tag_138\n  jumpi\n    /* \"#utility.yul\":8418:8419   */\n  0x00\n    /* \"#utility.yul\":8435:8441   */\n  dup5\n    /* \"#utility.yul\":8432:8509   */\n  iszero\n  tag_139\n  jumpi\n    /* \"#utility.yul\":8484:8493   */\n  dup3\n    /* \"#utility.yul\":8479:8482   */\n  dup8\n    /* \"#utility.yul\":8475:8494   */\n  add\n    /* \"#utility.yul\":8469:8495   */\n  mload\n    /* \"#utility.yul\":8460:8495   */\n  swap1\n  pop\n    /* \"#utility.yul\":8432:8509   */\ntag_139:\n    /* \"#utility.yul\":8535:8602   */\n  tag_140\n    /* \"#utility.yul\":8595:8601   */\n  dup6\n    /* \"#utility.yul\":8588:8593   */\n  dup3\n    /* \"#utility.yul\":8535:8602   */\n  tag_43\n  jump\t// in\ntag_140:\n    /* \"#utility.yul\":8529:8533   */\n  dup7\n    /* \"#utility.yul\":8522:8603   */\n  sstore\n    /* \"#utility.yul\":8391:8613   */\n  pop\n    /* \"#utility.yul\":7726:8613   */\n  jump(tag_137)\n    /* \"#utility.yul\":7756:8374   */\ntag_138:\n    /* \"#utility.yul\":7808:7812   */\n  0x1f\n    /* \"#utility.yul\":7804:7813   */\n  not\n    /* \"#utility.yul\":7796:7802   */\n  dup5\n    /* \"#utility.yul\":7792:7814   */\n  and\n    /* \"#utility.yul\":7842:7879   */\n  tag_141\n    /* \"#utility.yul\":7874:7878   */\n  dup7\n    /* \"#utility.yul\":7842:7879   */\n  tag_28\n  jump\t// in\ntag_141:\n    /* \"#utility.yul\":7901:7902   */\n  0x00\n    /* \"#utility.yul\":7915:8123   */\ntag_142:\n    /* \"#utility.yul\":7929:7936   */\n  dup3\n    /* \"#utility.yul\":7926:7927   */\n  dup2\n    /* \"#utility.yul\":7923:7937   */\n  lt\n    /* \"#utility.yul\":7915:8123   */\n  iszero\n  tag_144\n  jumpi\n    /* \"#utility.yul\":8008:8017   */\n  dup5\n    /* \"#utility.yul\":8003:8006   */\n  dup10\n    /* \"#utility.yul\":7999:8018   */\n  add\n    /* \"#utility.yul\":7993:8019   */\n  mload\n    /* \"#utility.yul\":7985:7991   */\n  dup3\n    /* \"#utility.yul\":7978:8020   */\n  sstore\n    /* \"#utility.yul\":8059:8060   */\n  0x01\n    /* \"#utility.yul\":8051:8057   */\n  dup3\n    /* \"#utility.yul\":8047:8061   */\n  add\n    /* \"#utility.yul\":8037:8061   */\n  swap2\n  pop\n    /* \"#utility.yul\":8106:8108   */\n  0x20\n    /* \"#utility.yul\":8095:8104   */\n  dup6\n    /* \"#utility.yul\":8091:8109   */\n  add\n    /* \"#utility.yul\":8078:8109   */\n  swap5\n  pop\n    /* \"#utility.yul\":7952:7956   */\n  0x20\n    /* \"#utility.yul\":7949:7950   */\n  dup2\n    /* \"#utility.yul\":7945:7957   */\n  add\n    /* \"#utility.yul\":7940:7957   */\n  swap1\n  pop\n    /* \"#utility.yul\":7915:8123   */\n  jump(tag_142)\ntag_144:\n    /* \"#utility.yul\":8151:8157   */\n  dup7\n    /* \"#utility.yul\":8142:8149   */\n  dup4\n    /* \"#utility.yul\":8139:8158   */\n  lt\n    /* \"#utility.yul\":8136:8315   */\n  iszero\n  tag_145\n  jumpi\n    /* \"#utility.yul\":8209:8218   */\n  dup5\n    /* \"#utility.yul\":8204:8207   */\n  dup10\n    /* \"#utility.yul\":8200:8219   */\n  add\n    /* \"#utility.yul\":8194:8220   */\n  mload\n    /* \"#utility.yul\":8252:8300   */\n  tag_146\n    /* \"#utility.yul\":8294:8298   */\n  0x1f\n    /* \"#utility.yul\":8286:8292   */\n  dup10\n    /* \"#utility.yul\":8282:8299   */\n  and\n    /* \"#utility.yul\":8271:8280   */\n  dup3\n    /* \"#utility.yul\":8252:8300   */\n  tag_42\n  jump\t// in\ntag_146:\n    /* \"#utility.yul\":8244:8250   */\n  dup4\n    /* \"#utility.yul\":8237:8301   */\n  sstore\n    /* \"#utility.yul\":8159:8315   */\n  pop\n    /* \"#utility.yul\":8136:8315   */\ntag_145:\n    /* \"#utility.yul\":8361:8362   */\n  0x01\n    /* \"#utility.yul\":8357:8358   */\n  0x02\n    /* \"#utility.yul\":8349:8355   */\n  dup9\n    /* \"#utility.yul\":8345:8359   */\n  mul\n    /* \"#utility.yul\":8341:8363   */\n  add\n    /* \"#utility.yul\":8335:8339   */\n  dup9\n    /* \"#utility.yul\":8328:8364   */\n  sstore\n    /* \"#utility.yul\":7763:8374   */\n  pop\n  pop\n  pop\n    /* \"#utility.yul\":7726:8613   */\ntag_137:\n  pop\n    /* \"#utility.yul\":7316:8619   */\n  pop\n  pop\n  pop\n    /* \"#utility.yul\":7224:8619   */\n  pop\n  pop\n  jump\t// out\n    /* \"ERC721/ERC721Enumerable.sol\":516:3785  contract ERC721Enumerable is ERC721 {... */\ntag_11:\n  dataSize(sub_0)\n  dup1\n  dataOffset(sub_0)\n  0x00\n  codecopy\n  0x00\n  return\nstop\n\nsub_0: assembly {\n        /* \"ERC721/ERC721Enumerable.sol\":516:3785  contract ERC721Enumerable is ERC721 {... */\n      mstore(0x40, 0x80)\n      callvalue\n      dup1\n      iszero\n      tag_1\n      jumpi\n      0x00\n      dup1\n      revert\n    tag_1:\n      pop\n      jumpi(tag_2, lt(calldatasize, 0x04))\n      shr(0xe0, calldataload(0x00))\n      dup1\n      0x4f6ccce7\n      gt\n      tag_18\n      jumpi\n      dup1\n      0x95d89b41\n      gt\n      tag_19\n      jumpi\n      dup1\n      0x95d89b41\n      eq\n      tag_14\n      jumpi\n      dup1\n      0xa22cb465\n      eq\n      tag_15\n      jumpi\n      dup1\n      0xc87b56dd\n      eq\n      tag_16\n      jumpi\n      dup1\n      0xe985e9c5\n      eq\n      tag_17\n      jumpi\n      jump(tag_2)\n    tag_19:\n      dup1\n      0x4f6ccce7\n      eq\n      tag_10\n      jumpi\n      dup1\n      0x6352211e\n      eq\n      tag_11\n      jumpi\n      dup1\n      0x6a627842\n      eq\n      tag_12\n      jumpi\n      dup1\n      0x70a08231\n      eq\n      tag_13\n      jumpi\n      jump(tag_2)\n    tag_18:\n      dup1\n      0x18160ddd\n      gt\n      tag_20\n      jumpi\n      dup1\n      0x18160ddd\n      eq\n      tag_6\n      jumpi\n      dup1\n      0x23b872dd\n      eq\n      tag_7\n      jumpi\n      dup1\n      0x2f745c59\n      eq\n      tag_8\n      jumpi\n      dup1\n      0x4e6ec247\n      eq\n      tag_9\n      jumpi\n      jump(tag_2)\n    tag_20:\n      dup1\n      0x06fdde03\n      eq\n      tag_3\n      jumpi\n      dup1\n      0x081812fc\n      eq\n      tag_4\n      jumpi\n      dup1\n      0x095ea7b3\n      eq\n      tag_5\n      jumpi\n    tag_2:\n      0x00\n      dup1\n      revert\n        /* \"ERC721/ERC721.sol\":408:435  string public override name */\n    tag_3:\n      tag_21\n      tag_22\n      jump\t// in\n    tag_21:\n      mload(0x40)\n      tag_23\n      swap2\n      swap1\n      tag_24\n      jump\t// in\n    tag_23:\n      mload(0x40)\n      dup1\n      swap2\n      sub\n      swap1\n      return\n        /* \"ERC721/ERC721.sol\":3450:3752  function getApproved(uint _tokenId) public override view returns (address) {... */\n    tag_4:\n      tag_25\n      0x04\n      dup1\n      calldatasize\n      sub\n      dup2\n      add\n      swap1\n      tag_26\n      swap2\n      swap1\n      tag_27\n      jump\t// in\n    tag_26:\n      tag_28\n      jump\t// in\n    tag_25:\n      mload(0x40)\n      tag_29\n      swap2\n      swap1\n      tag_30\n      jump\t// in\n    tag_29:\n      mload(0x40)\n      dup1\n      swap2\n      sub\n      swap1\n      return\n        /* \"ERC721/ERC721.sol\":1928:3334  function approve(address _to, uint _tokenId) external override {... */\n    tag_5:\n      tag_31\n      0x04\n      dup1\n      calldatasize\n      sub\n      dup2\n      add\n      swap1\n      tag_32\n      swap2\n      swap1\n      tag_33\n      jump\t// in\n    tag_32:\n      tag_34\n      jump\t// in\n    tag_31:\n      stop\n        /* \"ERC721/ERC721Enumerable.sol\":3155:3246  function totalSupply() public view returns (uint) {... */\n    tag_6:\n      tag_35\n      tag_36\n      jump\t// in\n    tag_35:\n      mload(0x40)\n      tag_37\n      swap2\n      swap1\n      tag_38\n      jump\t// in\n    tag_37:\n      mload(0x40)\n      dup1\n      swap2\n      sub\n      swap1\n      return\n        /* \"ERC721/ERC721.sol\":5094:5608  function transferFrom(address _from, address _to, uint _tokenId) external override {... */\n    tag_7:\n      tag_39\n      0x04\n      dup1\n      calldatasize\n      sub\n      dup2\n      add\n      swap1\n      tag_40\n      swap2\n      swap1\n      tag_41\n      jump\t// in\n    tag_40:\n      tag_42\n      jump\t// in\n    tag_39:\n      stop\n        /* \"ERC721/ERC721Enumerable.sol\":3522:3783  function tokenOfOwnerByIndex(address _owner, uint _index) public view returns (uint) {... */\n    tag_8:\n      tag_43\n      0x04\n      dup1\n      calldatasize\n      sub\n      dup2\n      add\n      swap1\n      tag_44\n      swap2\n      swap1\n      tag_33\n      jump\t// in\n    tag_44:\n      tag_45\n      jump\t// in\n    tag_43:\n      mload(0x40)\n      tag_46\n      swap2\n      swap1\n      tag_38\n      jump\t// in\n    tag_46:\n      mload(0x40)\n      dup1\n      swap2\n      sub\n      swap1\n      return\n        /* \"ERC721/ERC721.sol\":6074:6563  function _mint(address _to, uint _tokenId) public {... */\n    tag_9:\n      tag_47\n      0x04\n      dup1\n      calldatasize\n      sub\n      dup2\n      add\n      swap1\n      tag_48\n      swap2\n      swap1\n      tag_33\n      jump\t// in\n    tag_48:\n      tag_49\n      jump\t// in\n    tag_47:\n      stop\n        /* \"ERC721/ERC721Enumerable.sol\":3252:3474  function tokenByIndex(uint _index) public view returns (uint) {... */\n    tag_10:\n      tag_50\n      0x04\n      dup1\n      calldatasize\n      sub\n      dup2\n      add\n      swap1\n      tag_51\n      swap2\n      swap1\n      tag_27\n      jump\t// in\n    tag_51:\n      tag_52\n      jump\t// in\n    tag_50:\n      mload(0x40)\n      tag_53\n      swap2\n      swap1\n      tag_38\n      jump\t// in\n    tag_53:\n      mload(0x40)\n      dup1\n      swap2\n      sub\n      swap1\n      return\n        /* \"ERC721/ERC721.sol\":1679:1922  function ownerOf(uint _tokenId) public override view returns (address) {... */\n    tag_11:\n      tag_54\n      0x04\n      dup1\n      calldatasize\n      sub\n      dup2\n      add\n      swap1\n      tag_55\n      swap2\n      swap1\n      tag_27\n      jump\t// in\n    tag_55:\n      tag_56\n      jump\t// in\n    tag_54:\n      mload(0x40)\n      tag_57\n      swap2\n      swap1\n      tag_30\n      jump\t// in\n    tag_57:\n      mload(0x40)\n      dup1\n      swap2\n      sub\n      swap1\n      return\n        /* \"ERC721/ERC721Enumerable.sol\":1200:1515  function mint(address _to) public {... */\n    tag_12:\n      tag_58\n      0x04\n      dup1\n      calldatasize\n      sub\n      dup2\n      add\n      swap1\n      tag_59\n      swap2\n      swap1\n      tag_60\n      jump\t// in\n    tag_59:\n      tag_61\n      jump\t// in\n    tag_58:\n      stop\n        /* \"ERC721/ERC721.sol\":1475:1673  function balanceOf(address _owner) public override view returns (uint) {... */\n    tag_13:\n      tag_62\n      0x04\n      dup1\n      calldatasize\n      sub\n      dup2\n      add\n      swap1\n      tag_63\n      swap2\n      swap1\n      tag_60\n      jump\t// in\n    tag_63:\n      tag_64\n      jump\t// in\n    tag_62:\n      mload(0x40)\n      tag_65\n      swap2\n      swap1\n      tag_38\n      jump\t// in\n    tag_65:\n      mload(0x40)\n      dup1\n      swap2\n      sub\n      swap1\n      return\n        /* \"ERC721/ERC721.sol\":441:470  string public override symbol */\n    tag_14:\n      tag_66\n      tag_67\n      jump\t// in\n    tag_66:\n      mload(0x40)\n      tag_68\n      swap2\n      swap1\n      tag_24\n      jump\t// in\n    tag_68:\n      mload(0x40)\n      dup1\n      swap2\n      sub\n      swap1\n      return\n        /* \"ERC721/ERC721.sol\":3878:4133  function setApprovalForAll(address _operator, bool _approved) external override {... */\n    tag_15:\n      tag_69\n      0x04\n      dup1\n      calldatasize\n      sub\n      dup2\n      add\n      swap1\n      tag_70\n      swap2\n      swap1\n      tag_71\n      jump\t// in\n    tag_70:\n      tag_72\n      jump\t// in\n    tag_69:\n      stop\n        /* \"ERC721/ERC721.sol\":5930:6023  function tokenURI(uint256 _tokenId) external override virtual view returns (string memory) {} */\n    tag_16:\n      tag_73\n      0x04\n      dup1\n      calldatasize\n      sub\n      dup2\n      add\n      swap1\n      tag_74\n      swap2\n      swap1\n      tag_27\n      jump\t// in\n    tag_74:\n      tag_75\n      jump\t// in\n    tag_73:\n      mload(0x40)\n      tag_76\n      swap2\n      swap1\n      tag_24\n      jump\t// in\n    tag_76:\n      mload(0x40)\n      dup1\n      swap2\n      sub\n      swap1\n      return\n        /* \"ERC721/ERC721.sol\":4225:4382  function isApprovedForAll(address _owner, address _operator) public override view returns (bool){... */\n    tag_17:\n      tag_77\n      0x04\n      dup1\n      calldatasize\n      sub\n      dup2\n      add\n      swap1\n      tag_78\n      swap2\n      swap1\n      tag_79\n      jump\t// in\n    tag_78:\n      tag_80\n      jump\t// in\n    tag_77:\n      mload(0x40)\n      tag_81\n      swap2\n      swap1\n      tag_82\n      jump\t// in\n    tag_81:\n      mload(0x40)\n      dup1\n      swap2\n      sub\n      swap1\n      return\n        /* \"ERC721/ERC721.sol\":408:435  string public override name */\n    tag_22:\n      0x00\n      dup1\n      sload\n      tag_83\n      swap1\n      tag_84\n      jump\t// in\n    tag_83:\n      dup1\n      0x1f\n      add\n      0x20\n      dup1\n      swap2\n      div\n      mul\n      0x20\n      add\n      mload(0x40)\n      swap1\n      dup2\n      add\n      0x40\n      mstore\n      dup1\n      swap3\n      swap2\n      swap1\n      dup2\n      dup2\n      mstore\n      0x20\n      add\n      dup3\n      dup1\n      sload\n      tag_85\n      swap1\n      tag_84\n      jump\t// in\n    tag_85:\n      dup1\n      iszero\n      tag_86\n      jumpi\n      dup1\n      0x1f\n      lt\n      tag_87\n      jumpi\n      0x0100\n      dup1\n      dup4\n      sload\n      div\n      mul\n      dup4\n      mstore\n      swap2\n      0x20\n      add\n      swap2\n      jump(tag_86)\n    tag_87:\n      dup3\n      add\n      swap2\n      swap1\n      0x00\n      mstore\n      keccak256(0x00, 0x20)\n      swap1\n    tag_88:\n      dup2\n      sload\n      dup2\n      mstore\n      swap1\n      0x01\n      add\n      swap1\n      0x20\n      add\n      dup1\n      dup4\n      gt\n      tag_88\n      jumpi\n      dup3\n      swap1\n      sub\n      0x1f\n      and\n      dup3\n      add\n      swap2\n    tag_86:\n      pop\n      pop\n      pop\n      pop\n      pop\n      dup2\n      jump\t// out\n        /* \"ERC721/ERC721.sol\":3450:3752  function getApproved(uint _tokenId) public override view returns (address) {... */\n    tag_28:\n        /* \"ERC721/ERC721.sol\":3516:3523  address */\n      0x00\n        /* \"ERC721/ERC721.sol\":3634:3635  0 */\n      dup1\n        /* \"ERC721/ERC721.sol\":3605:3636  _owners[_tokenId] != address(0) */\n      0xffffffffffffffffffffffffffffffffffffffff\n      and\n        /* \"ERC721/ERC721.sol\":3605:3612  _owners */\n      0x03\n        /* \"ERC721/ERC721.sol\":3605:3622  _owners[_tokenId] */\n      0x00\n        /* \"ERC721/ERC721.sol\":3613:3621  _tokenId */\n      dup5\n        /* \"ERC721/ERC721.sol\":3605:3622  _owners[_tokenId] */\n      dup2\n      mstore\n      0x20\n      add\n      swap1\n      dup2\n      mstore\n      0x20\n      add\n      0x00\n      keccak256\n      0x00\n      swap1\n      sload\n      swap1\n      0x0100\n      exp\n      swap1\n      div\n      0xffffffffffffffffffffffffffffffffffffffff\n      and\n        /* \"ERC721/ERC721.sol\":3605:3636  _owners[_tokenId] != address(0) */\n      0xffffffffffffffffffffffffffffffffffffffff\n      and\n      sub\n        /* \"ERC721/ERC721.sol\":3597:3650  require(_owners[_tokenId] != address(0), \"ERC721 : \") */\n      tag_90\n      jumpi\n      mload(0x40)\n      0x08c379a000000000000000000000000000000000000000000000000000000000\n      dup2\n      mstore\n      0x04\n      add\n      tag_91\n      swap1\n      tag_92\n      jump\t// in\n    tag_91:\n      mload(0x40)\n      dup1\n      swap2\n      sub\n      swap1\n      revert\n    tag_90:\n        /* \"ERC721/ERC721.sol\":3667:3682  _tokenApprovals */\n      0x04\n        /* \"ERC721/ERC721.sol\":3667:3692  _tokenApprovals[_tokenId] */\n      0x00\n        /* \"ERC721/ERC721.sol\":3683:3691  _tokenId */\n      dup4\n        /* \"ERC721/ERC721.sol\":3667:3692  _tokenApprovals[_tokenId] */\n      dup2\n      mstore\n      0x20\n      add\n      swap1\n      dup2\n      mstore\n      0x20\n      add\n      0x00\n      keccak256\n      0x00\n      swap1\n      sload\n      swap1\n      0x0100\n      exp\n      swap1\n      div\n      0xffffffffffffffffffffffffffffffffffffffff\n      and\n        /* \"ERC721/ERC721.sol\":3660:3692  return _tokenApprovals[_tokenId] */\n      swap1\n      pop\n        /* \"ERC721/ERC721.sol\":3450:3752  function getApproved(uint _tokenId) public override view returns (address) {... */\n      swap2\n      swap1\n      pop\n      jump\t// out\n        /* \"ERC721/ERC721.sol\":1928:3334  function approve(address _to, uint _tokenId) external override {... */\n    tag_34:\n        /* \"ERC721/ERC721.sol\":2130:2143  address owner */\n      0x00\n        /* \"ERC721/ERC721.sol\":2146:2153  _owners */\n      0x03\n        /* \"ERC721/ERC721.sol\":2146:2163  _owners[_tokenId] */\n      0x00\n        /* \"ERC721/ERC721.sol\":2154:2162  _tokenId */\n      dup4\n        /* \"ERC721/ERC721.sol\":2146:2163  _owners[_tokenId] */\n      dup2\n      mstore\n      0x20\n      add\n      swap1\n      dup2\n      mstore\n      0x20\n      add\n      0x00\n      keccak256\n      0x00\n      swap1\n      sload\n      swap1\n      0x0100\n      exp\n      swap1\n      div\n      0xffffffffffffffffffffffffffffffffffffffff\n      and\n        /* \"ERC721/ERC721.sol\":2130:2163  address owner = _owners[_tokenId] */\n      swap1\n      pop\n        /* \"ERC721/ERC721.sol\":2680:2685  owner */\n      dup1\n        /* \"ERC721/ERC721.sol\":2673:2685  _to != owner */\n      0xffffffffffffffffffffffffffffffffffffffff\n      and\n        /* \"ERC721/ERC721.sol\":2673:2676  _to */\n      dup4\n        /* \"ERC721/ERC721.sol\":2673:2685  _to != owner */\n      0xffffffffffffffffffffffffffffffffffffffff\n      and\n      sub\n        /* \"ERC721/ERC721.sol\":2665:2724  require(_to != owner, \"ERC721 : approval to current owner\") */\n      tag_94\n      jumpi\n      mload(0x40)\n      0x08c379a000000000000000000000000000000000000000000000000000000000\n      dup2\n      mstore\n      0x04\n      add\n      tag_95\n      swap1\n      tag_96\n      jump\t// in\n    tag_95:\n      mload(0x40)\n      dup1\n      swap2\n      sub\n      swap1\n      revert\n    tag_94:\n        /* \"ERC721/ERC721.sol\":2817:2822  owner */\n      dup1\n        /* \"ERC721/ERC721.sol\":2803:2822  msg.sender == owner */\n      0xffffffffffffffffffffffffffffffffffffffff\n      and\n        /* \"ERC721/ERC721.sol\":2803:2813  msg.sender */\n      caller\n        /* \"ERC721/ERC721.sol\":2803:2822  msg.sender == owner */\n      0xffffffffffffffffffffffffffffffffffffffff\n      and\n      eq\n        /* \"ERC721/ERC721.sol\":2803:2861  msg.sender == owner || isApprovedForAll(owner, msg.sender) */\n      dup1\n      tag_97\n      jumpi\n      pop\n        /* \"ERC721/ERC721.sol\":2826:2861  isApprovedForAll(owner, msg.sender) */\n      tag_98\n        /* \"ERC721/ERC721.sol\":2843:2848  owner */\n      dup2\n        /* \"ERC721/ERC721.sol\":2850:2860  msg.sender */\n      caller\n        /* \"ERC721/ERC721.sol\":2826:2842  isApprovedForAll */\n      tag_80\n        /* \"ERC721/ERC721.sol\":2826:2861  isApprovedForAll(owner, msg.sender) */\n      jump\t// in\n    tag_98:\n        /* \"ERC721/ERC721.sol\":2803:2861  msg.sender == owner || isApprovedForAll(owner, msg.sender) */\n    tag_97:\n        /* \"ERC721/ERC721.sol\":2795:2862  require(msg.sender == owner || isApprovedForAll(owner, msg.sender)) */\n      tag_99\n      jumpi\n      0x00\n      dup1\n      revert\n    tag_99:\n        /* \"ERC721/ERC721.sol\":3220:3223  _to */\n      dup3\n        /* \"ERC721/ERC721.sol\":3192:3207  _tokenApprovals */\n      0x04\n        /* \"ERC721/ERC721.sol\":3192:3217  _tokenApprovals[_tokenId] */\n      0x00\n        /* \"ERC721/ERC721.sol\":3208:3216  _tokenId */\n      dup5\n        /* \"ERC721/ERC721.sol\":3192:3217  _tokenApprovals[_tokenId] */\n      dup2\n      mstore\n      0x20\n      add\n      swap1\n      dup2\n      mstore\n      0x20\n      add\n      0x00\n      keccak256\n      0x00\n        /* \"ERC721/ERC721.sol\":3192:3223  _tokenApprovals[_tokenId] = _to */\n      0x0100\n      exp\n      dup2\n      sload\n      dup2\n      0xffffffffffffffffffffffffffffffffffffffff\n      mul\n      not\n      and\n      swap1\n      dup4\n      0xffffffffffffffffffffffffffffffffffffffff\n      and\n      mul\n      or\n      swap1\n      sstore\n      pop\n        /* \"ERC721/ERC721.sol\":3279:3287  _tokenId */\n      dup2\n        /* \"ERC721/ERC721.sol\":3274:3277  _to */\n      dup4\n        /* \"ERC721/ERC721.sol\":3258:3288  Approval(owner, _to, _tokenId) */\n      0xffffffffffffffffffffffffffffffffffffffff\n      and\n        /* \"ERC721/ERC721.sol\":3267:3272  owner */\n      dup3\n        /* \"ERC721/ERC721.sol\":3258:3288  Approval(owner, _to, _tokenId) */\n      0xffffffffffffffffffffffffffffffffffffffff\n      and\n      0x8c5be1e5ebec7d5bd14f71427d1e84f3dd0314c0f7b2291e5b200ac8c7c3b925\n      mload(0x40)\n      mload(0x40)\n      dup1\n      swap2\n      sub\n      swap1\n      log4\n        /* \"ERC721/ERC721.sol\":1991:3334  {... */\n      pop\n        /* \"ERC721/ERC721.sol\":1928:3334  function approve(address _to, uint _tokenId) external override {... */\n      pop\n      pop\n      jump\t// out\n        /* \"ERC721/ERC721Enumerable.sol\":3155:3246  function totalSupply() public view returns (uint) {... */\n    tag_36:\n        /* \"ERC721/ERC721Enumerable.sol\":3199:3203  uint */\n      0x00\n        /* \"ERC721/ERC721Enumerable.sol\":3222:3232  _allTokens */\n      0x06\n        /* \"ERC721/ERC721Enumerable.sol\":3222:3239  _allTokens.length */\n      dup1\n      sload\n      swap1\n      pop\n        /* \"ERC721/ERC721Enumerable.sol\":3215:3239  return _allTokens.length */\n      swap1\n      pop\n        /* \"ERC721/ERC721Enumerable.sol\":3155:3246  function totalSupply() public view returns (uint) {... */\n      swap1\n      jump\t// out\n        /* \"ERC721/ERC721.sol\":5094:5608  function transferFrom(address _from, address _to, uint _tokenId) external override {... */\n    tag_42:\n        /* \"ERC721/ERC721.sol\":5326:5361  _isApprovedOrOwner(_from, _tokenId) */\n      tag_102\n        /* \"ERC721/ERC721.sol\":5345:5350  _from */\n      dup4\n        /* \"ERC721/ERC721.sol\":5352:5360  _tokenId */\n      dup3\n        /* \"ERC721/ERC721.sol\":5326:5344  _isApprovedOrOwner */\n      tag_103\n        /* \"ERC721/ERC721.sol\":5326:5361  _isApprovedOrOwner(_from, _tokenId) */\n      jump\t// in\n    tag_102:\n        /* \"ERC721/ERC721.sol\":5318:5362  require(_isApprovedOrOwner(_from, _tokenId)) */\n      tag_104\n      jumpi\n      0x00\n      dup1\n      revert\n    tag_104:\n        /* \"ERC721/ERC721.sol\":5413:5416  _to */\n      dup2\n        /* \"ERC721/ERC721.sol\":5404:5416  _from != _to */\n      0xffffffffffffffffffffffffffffffffffffffff\n      and\n        /* \"ERC721/ERC721.sol\":5404:5409  _from */\n      dup4\n        /* \"ERC721/ERC721.sol\":5404:5416  _from != _to */\n      0xffffffffffffffffffffffffffffffffffffffff\n      and\n      sub\n        /* \"ERC721/ERC721.sol\":5396:5417  require(_from != _to) */\n      tag_105\n      jumpi\n      0x00\n      dup1\n      revert\n    tag_105:\n        /* \"ERC721/ERC721.sol\":5448:5449  1 */\n      0x01\n        /* \"ERC721/ERC721.sol\":5428:5437  _balances */\n      0x02\n        /* \"ERC721/ERC721.sol\":5428:5444  _balances[_from] */\n      0x00\n        /* \"ERC721/ERC721.sol\":5438:5443  _from */\n      dup6\n        /* \"ERC721/ERC721.sol\":5428:5444  _balances[_from] */\n      0xffffffffffffffffffffffffffffffffffffffff\n      and\n      0xffffffffffffffffffffffffffffffffffffffff\n      and\n      dup2\n      mstore\n      0x20\n      add\n      swap1\n      dup2\n      mstore\n      0x20\n      add\n      0x00\n      keccak256\n      0x00\n        /* \"ERC721/ERC721.sol\":5428:5449  _balances[_from] -= 1 */\n      dup3\n      dup3\n      sload\n      tag_106\n      swap2\n      swap1\n      tag_107\n      jump\t// in\n    tag_106:\n      swap3\n      pop\n      pop\n      dup2\n      swap1\n      sstore\n      pop\n        /* \"ERC721/ERC721.sol\":5477:5478  1 */\n      0x01\n        /* \"ERC721/ERC721.sol\":5459:5468  _balances */\n      0x02\n        /* \"ERC721/ERC721.sol\":5459:5473  _balances[_to] */\n      0x00\n        /* \"ERC721/ERC721.sol\":5469:5472  _to */\n      dup5\n        /* \"ERC721/ERC721.sol\":5459:5473  _balances[_to] */\n      0xffffffffffffffffffffffffffffffffffffffff\n      and\n      0xffffffffffffffffffffffffffffffffffffffff\n      and\n      dup2\n      mstore\n      0x20\n      add\n      swap1\n      dup2\n      mstore\n      0x20\n      add\n      0x00\n      keccak256\n      0x00\n        /* \"ERC721/ERC721.sol\":5459:5478  _balances[_to] += 1 */\n      dup3\n      dup3\n      sload\n      tag_108\n      swap2\n      swap1\n      tag_109\n      jump\t// in\n    tag_108:\n      swap3\n      pop\n      pop\n      dup2\n      swap1\n      sstore\n      pop\n        /* \"ERC721/ERC721.sol\":5508:5511  _to */\n      dup2\n        /* \"ERC721/ERC721.sol\":5488:5495  _owners */\n      0x03\n        /* \"ERC721/ERC721.sol\":5488:5505  _owners[_tokenId] */\n      0x00\n        /* \"ERC721/ERC721.sol\":5496:5504  _tokenId */\n      dup4\n        /* \"ERC721/ERC721.sol\":5488:5505  _owners[_tokenId] */\n      dup2\n      mstore\n      0x20\n      add\n      swap1\n      dup2\n      mstore\n      0x20\n      add\n      0x00\n      keccak256\n      0x00\n        /* \"ERC721/ERC721.sol\":5488:5511  _owners[_tokenId] = _to */\n      0x0100\n      exp\n      dup2\n      sload\n      dup2\n      0xffffffffffffffffffffffffffffffffffffffff\n      mul\n      not\n      and\n      swap1\n      dup4\n      0xffffffffffffffffffffffffffffffffffffffff\n      and\n      mul\n      or\n      swap1\n      sstore\n      pop\n        /* \"ERC721/ERC721.sol\":5522:5555  _afterToken(_from, _to, _tokenId) */\n      tag_110\n        /* \"ERC721/ERC721.sol\":5534:5539  _from */\n      dup4\n        /* \"ERC721/ERC721.sol\":5541:5544  _to */\n      dup4\n        /* \"ERC721/ERC721.sol\":5546:5554  _tokenId */\n      dup4\n        /* \"ERC721/ERC721.sol\":5522:5533  _afterToken */\n      tag_111\n        /* \"ERC721/ERC721.sol\":5522:5555  _afterToken(_from, _to, _tokenId) */\n      jump\t// in\n    tag_110:\n        /* \"ERC721/ERC721.sol\":5592:5600  _tokenId */\n      dup1\n        /* \"ERC721/ERC721.sol\":5587:5590  _to */\n      dup3\n        /* \"ERC721/ERC721.sol\":5571:5601  Transfer(_from, _to, _tokenId) */\n      0xffffffffffffffffffffffffffffffffffffffff\n      and\n        /* \"ERC721/ERC721.sol\":5580:5585  _from */\n      dup5\n        /* \"ERC721/ERC721.sol\":5571:5601  Transfer(_from, _to, _tokenId) */\n      0xffffffffffffffffffffffffffffffffffffffff\n      and\n      0xddf252ad1be2c89b69c2b068fc378daa952ba7f163c4a11628f55a4df523b3ef\n      mload(0x40)\n      mload(0x40)\n      dup1\n      swap2\n      sub\n      swap1\n      log4\n        /* \"ERC721/ERC721.sol\":5094:5608  function transferFrom(address _from, address _to, uint _tokenId) external override {... */\n      pop\n      pop\n      pop\n      jump\t// out\n        /* \"ERC721/ERC721Enumerable.sol\":3522:3783  function tokenOfOwnerByIndex(address _owner, uint _index) public view returns (uint) {... */\n    tag_45:\n        /* \"ERC721/ERC721Enumerable.sol\":3601:3605  uint */\n      0x00\n        /* \"ERC721/ERC721Enumerable.sol\":3634:3651  balanceOf(_owner) */\n      tag_113\n        /* \"ERC721/ERC721Enumerable.sol\":3644:3650  _owner */\n      dup4\n        /* \"ERC721/ERC721Enumerable.sol\":3634:3643  balanceOf */\n      tag_64\n        /* \"ERC721/ERC721Enumerable.sol\":3634:3651  balanceOf(_owner) */\n      jump\t// in\n    tag_113:\n        /* \"ERC721/ERC721Enumerable.sol\":3625:3631  _index */\n      dup3\n        /* \"ERC721/ERC721Enumerable.sol\":3625:3651  _index < balanceOf(_owner) */\n      lt\n        /* \"ERC721/ERC721Enumerable.sol\":3617:3652  require(_index < balanceOf(_owner)) */\n      tag_114\n      jumpi\n      0x00\n      dup1\n      revert\n    tag_114:\n        /* \"ERC721/ERC721Enumerable.sol\":3748:3760  _ownedTokens */\n      0x07\n        /* \"ERC721/ERC721Enumerable.sol\":3748:3768  _ownedTokens[_owner] */\n      0x00\n        /* \"ERC721/ERC721Enumerable.sol\":3761:3767  _owner */\n      dup5\n        /* \"ERC721/ERC721Enumerable.sol\":3748:3768  _ownedTokens[_owner] */\n      0xffffffffffffffffffffffffffffffffffffffff\n      and\n      0xffffffffffffffffffffffffffffffffffffffff\n      and\n      dup2\n      mstore\n      0x20\n      add\n      swap1\n      dup2\n      mstore\n      0x20\n      add\n      0x00\n      keccak256\n        /* \"ERC721/ERC721Enumerable.sol\":3748:3776  _ownedTokens[_owner][_index] */\n      0x00\n        /* \"ERC721/ERC721Enumerable.sol\":3769:3775  _index */\n      dup4\n        /* \"ERC721/ERC721Enumerable.sol\":3748:3776  _ownedTokens[_owner][_index] */\n      dup2\n      mstore\n      0x20\n      add\n      swap1\n      dup2\n      mstore\n      0x20\n      add\n      0x00\n      keccak256\n      sload\n        /* \"ERC721/ERC721Enumerable.sol\":3741:3776  return _ownedTokens[_owner][_index] */\n      swap1\n      pop\n        /* \"ERC721/ERC721Enumerable.sol\":3522:3783  function tokenOfOwnerByIndex(address _owner, uint _index) public view returns (uint) {... */\n      swap3\n      swap2\n      pop\n      pop\n      jump\t// out\n        /* \"ERC721/ERC721.sol\":6074:6563  function _mint(address _to, uint _tokenId) public {... */\n    tag_49:\n        /* \"ERC721/ERC721.sol\":6157:6158  0 */\n      0x00\n        /* \"ERC721/ERC721.sol\":6142:6159  _to != address(0) */\n      0xffffffffffffffffffffffffffffffffffffffff\n      and\n        /* \"ERC721/ERC721.sol\":6142:6145  _to */\n      dup3\n        /* \"ERC721/ERC721.sol\":6142:6159  _to != address(0) */\n      0xffffffffffffffffffffffffffffffffffffffff\n      and\n      sub\n        /* \"ERC721/ERC721.sol\":6134:6160  require(_to != address(0)) */\n      tag_116\n      jumpi\n      0x00\n      dup1\n      revert\n    tag_116:\n        /* \"ERC721/ERC721.sol\":6236:6249  address owner */\n      0x00\n        /* \"ERC721/ERC721.sol\":6252:6259  _owners */\n      0x03\n        /* \"ERC721/ERC721.sol\":6252:6269  _owners[_tokenId] */\n      0x00\n        /* \"ERC721/ERC721.sol\":6260:6268  _tokenId */\n      dup4\n        /* \"ERC721/ERC721.sol\":6252:6269  _owners[_tokenId] */\n      dup2\n      mstore\n      0x20\n      add\n      swap1\n      dup2\n      mstore\n      0x20\n      add\n      0x00\n      keccak256\n      0x00\n      swap1\n      sload\n      swap1\n      0x0100\n      exp\n      swap1\n      div\n      0xffffffffffffffffffffffffffffffffffffffff\n      and\n        /* \"ERC721/ERC721.sol\":6236:6269  address owner = _owners[_tokenId] */\n      swap1\n      pop\n        /* \"ERC721/ERC721.sol\":6304:6305  0 */\n      0x00\n        /* \"ERC721/ERC721.sol\":6287:6306  owner == address(0) */\n      0xffffffffffffffffffffffffffffffffffffffff\n      and\n        /* \"ERC721/ERC721.sol\":6287:6292  owner */\n      dup2\n        /* \"ERC721/ERC721.sol\":6287:6306  owner == address(0) */\n      0xffffffffffffffffffffffffffffffffffffffff\n      and\n      eq\n        /* \"ERC721/ERC721.sol\":6279:6307  require(owner == address(0)) */\n      tag_117\n      jumpi\n      0x00\n      dup1\n      revert\n    tag_117:\n        /* \"ERC721/ERC721.sol\":6318:6356  _afterToken(address(0), _to, _tokenId) */\n      tag_118\n        /* \"ERC721/ERC721.sol\":6338:6339  0 */\n      0x00\n        /* \"ERC721/ERC721.sol\":6342:6345  _to */\n      dup5\n        /* \"ERC721/ERC721.sol\":6347:6355  _tokenId */\n      dup5\n        /* \"ERC721/ERC721.sol\":6318:6329  _afterToken */\n      tag_111\n        /* \"ERC721/ERC721.sol\":6318:6356  _afterToken(address(0), _to, _tokenId) */\n      jump\t// in\n    tag_118:\n        /* \"ERC721/ERC721.sol\":6385:6386  1 */\n      0x01\n        /* \"ERC721/ERC721.sol\":6367:6376  _balances */\n      0x02\n        /* \"ERC721/ERC721.sol\":6367:6381  _balances[_to] */\n      0x00\n        /* \"ERC721/ERC721.sol\":6377:6380  _to */\n      dup6\n        /* \"ERC721/ERC721.sol\":6367:6381  _balances[_to] */\n      0xffffffffffffffffffffffffffffffffffffffff\n      and\n      0xffffffffffffffffffffffffffffffffffffffff\n      and\n      dup2\n      mstore\n      0x20\n      add\n      swap1\n      dup2\n      mstore\n      0x20\n      add\n      0x00\n      keccak256\n      0x00\n        /* \"ERC721/ERC721.sol\":6367:6386  _balances[_to] += 1 */\n      dup3\n      dup3\n      sload\n      tag_119\n      swap2\n      swap1\n      tag_109\n      jump\t// in\n    tag_119:\n      swap3\n      pop\n      pop\n      dup2\n      swap1\n      sstore\n      pop\n        /* \"ERC721/ERC721.sol\":6416:6419  _to */\n      dup3\n        /* \"ERC721/ERC721.sol\":6396:6403  _owners */\n      0x03\n        /* \"ERC721/ERC721.sol\":6396:6413  _owners[_tokenId] */\n      0x00\n        /* \"ERC721/ERC721.sol\":6404:6412  _tokenId */\n      dup5\n        /* \"ERC721/ERC721.sol\":6396:6413  _owners[_tokenId] */\n      dup2\n      mstore\n      0x20\n      add\n      swap1\n      dup2\n      mstore\n      0x20\n      add\n      0x00\n      keccak256\n      0x00\n        /* \"ERC721/ERC721.sol\":6396:6419  _owners[_tokenId] = _to */\n      0x0100\n      exp\n      dup2\n      sload\n      dup2\n      0xffffffffffffffffffffffffffffffffffffffff\n      mul\n      not\n      and\n      swap1\n      dup4\n      0xffffffffffffffffffffffffffffffffffffffff\n      and\n      mul\n      or\n      swap1\n      sstore\n      pop\n        /* \"ERC721/ERC721.sol\":6461:6469  _tokenId */\n      dup2\n        /* \"ERC721/ERC721.sol\":6456:6459  _to */\n      dup4\n        /* \"ERC721/ERC721.sol\":6435:6470  Transfer(address(0), _to, _tokenId) */\n      0xffffffffffffffffffffffffffffffffffffffff\n      and\n        /* \"ERC721/ERC721.sol\":6452:6453  0 */\n      0x00\n        /* \"ERC721/ERC721.sol\":6435:6470  Transfer(address(0), _to, _tokenId) */\n      0xffffffffffffffffffffffffffffffffffffffff\n      and\n      0xddf252ad1be2c89b69c2b068fc378daa952ba7f163c4a11628f55a4df523b3ef\n      mload(0x40)\n      mload(0x40)\n      dup1\n      swap2\n      sub\n      swap1\n      log4\n        /* \"ERC721/ERC721.sol\":6124:6563  {... */\n      pop\n        /* \"ERC721/ERC721.sol\":6074:6563  function _mint(address _to, uint _tokenId) public {... */\n      pop\n      pop\n      jump\t// out\n        /* \"ERC721/ERC721Enumerable.sol\":3252:3474  function tokenByIndex(uint _index) public view returns (uint) {... */\n    tag_52:\n        /* \"ERC721/ERC721Enumerable.sol\":3308:3312  uint */\n      0x00\n        /* \"ERC721/ERC721Enumerable.sol\":3341:3351  _allTokens */\n      0x06\n        /* \"ERC721/ERC721Enumerable.sol\":3341:3358  _allTokens.length */\n      dup1\n      sload\n      swap1\n      pop\n        /* \"ERC721/ERC721Enumerable.sol\":3332:3338  _index */\n      dup3\n        /* \"ERC721/ERC721Enumerable.sol\":3332:3358  _index < _allTokens.length */\n      lt\n        /* \"ERC721/ERC721Enumerable.sol\":3324:3359  require(_index < _allTokens.length) */\n      tag_121\n      jumpi\n      0x00\n      dup1\n      revert\n    tag_121:\n        /* \"ERC721/ERC721Enumerable.sol\":3376:3386  _allTokens */\n      0x06\n        /* \"ERC721/ERC721Enumerable.sol\":3387:3393  _index */\n      dup3\n        /* \"ERC721/ERC721Enumerable.sol\":3376:3394  _allTokens[_index] */\n      dup2\n      sload\n      dup2\n      lt\n      tag_122\n      jumpi\n      tag_123\n      tag_124\n      jump\t// in\n    tag_123:\n    tag_122:\n      swap1\n      0x00\n      mstore\n      keccak256(0x00, 0x20)\n      add\n      sload\n        /* \"ERC721/ERC721Enumerable.sol\":3369:3394  return _allTokens[_index] */\n      swap1\n      pop\n        /* \"ERC721/ERC721Enumerable.sol\":3252:3474  function tokenByIndex(uint _index) public view returns (uint) {... */\n      swap2\n      swap1\n      pop\n      jump\t// out\n        /* \"ERC721/ERC721.sol\":1679:1922  function ownerOf(uint _tokenId) public override view returns (address) {... */\n    tag_56:\n        /* \"ERC721/ERC721.sol\":1741:1748  address */\n      0x00\n        /* \"ERC721/ERC721.sol\":1760:1773  address owner */\n      dup1\n        /* \"ERC721/ERC721.sol\":1776:1783  _owners */\n      0x03\n        /* \"ERC721/ERC721.sol\":1776:1793  _owners[_tokenId] */\n      0x00\n        /* \"ERC721/ERC721.sol\":1784:1792  _tokenId */\n      dup5\n        /* \"ERC721/ERC721.sol\":1776:1793  _owners[_tokenId] */\n      dup2\n      mstore\n      0x20\n      add\n      swap1\n      dup2\n      mstore\n      0x20\n      add\n      0x00\n      keccak256\n      0x00\n      swap1\n      sload\n      swap1\n      0x0100\n      exp\n      swap1\n      div\n      0xffffffffffffffffffffffffffffffffffffffff\n      and\n        /* \"ERC721/ERC721.sol\":1760:1793  address owner = _owners[_tokenId] */\n      swap1\n      pop\n        /* \"ERC721/ERC721.sol\":1828:1829  0 */\n      0x00\n        /* \"ERC721/ERC721.sol\":1811:1830  owner != address(0) */\n      0xffffffffffffffffffffffffffffffffffffffff\n      and\n        /* \"ERC721/ERC721.sol\":1811:1816  owner */\n      dup2\n        /* \"ERC721/ERC721.sol\":1811:1830  owner != address(0) */\n      0xffffffffffffffffffffffffffffffffffffffff\n      and\n      sub\n        /* \"ERC721/ERC721.sol\":1803:1881  require(owner != address(0), \"ERC721 : owner query for the nonexistent token\") */\n      tag_127\n      jumpi\n      mload(0x40)\n      0x08c379a000000000000000000000000000000000000000000000000000000000\n      dup2\n      mstore\n      0x04\n      add\n      tag_128\n      swap1\n      tag_129\n      jump\t// in\n    tag_128:\n      mload(0x40)\n      dup1\n      swap2\n      sub\n      swap1\n      revert\n    tag_127:\n        /* \"ERC721/ERC721.sol\":1898:1905  _owners */\n      0x03\n        /* \"ERC721/ERC721.sol\":1898:1915  _owners[_tokenId] */\n      0x00\n        /* \"ERC721/ERC721.sol\":1906:1914  _tokenId */\n      dup5\n        /* \"ERC721/ERC721.sol\":1898:1915  _owners[_tokenId] */\n      dup2\n      mstore\n      0x20\n      add\n      swap1\n      dup2\n      mstore\n      0x20\n      add\n      0x00\n      keccak256\n      0x00\n      swap1\n      sload\n      swap1\n      0x0100\n      exp\n      swap1\n      div\n      0xffffffffffffffffffffffffffffffffffffffff\n      and\n        /* \"ERC721/ERC721.sol\":1891:1915  return _owners[_tokenId] */\n      swap2\n      pop\n      pop\n        /* \"ERC721/ERC721.sol\":1679:1922  function ownerOf(uint _tokenId) public override view returns (address) {... */\n      swap2\n      swap1\n      pop\n      jump\t// out\n        /* \"ERC721/ERC721Enumerable.sol\":1200:1515  function mint(address _to) public {... */\n    tag_61:\n        /* \"ERC721/ERC721Enumerable.sol\":1432:1461  _mint(_to, _allTokens.length) */\n      tag_131\n        /* \"ERC721/ERC721Enumerable.sol\":1438:1441  _to */\n      dup2\n        /* \"ERC721/ERC721Enumerable.sol\":1443:1453  _allTokens */\n      0x06\n        /* \"ERC721/ERC721Enumerable.sol\":1443:1460  _allTokens.length */\n      dup1\n      sload\n      swap1\n      pop\n        /* \"ERC721/ERC721Enumerable.sol\":1432:1437  _mint */\n      tag_49\n        /* \"ERC721/ERC721Enumerable.sol\":1432:1461  _mint(_to, _allTokens.length) */\n      jump\t// in\n    tag_131:\n        /* \"ERC721/ERC721Enumerable.sol\":1200:1515  function mint(address _to) public {... */\n      pop\n      jump\t// out\n        /* \"ERC721/ERC721.sol\":1475:1673  function balanceOf(address _owner) public override view returns (uint) {... */\n    tag_64:\n        /* \"ERC721/ERC721.sol\":1540:1544  uint */\n      0x00\n        /* \"ERC721/ERC721.sol\":1582:1583  0 */\n      dup1\n        /* \"ERC721/ERC721.sol\":1564:1584  _owner != address(0) */\n      0xffffffffffffffffffffffffffffffffffffffff\n      and\n        /* \"ERC721/ERC721.sol\":1564:1570  _owner */\n      dup3\n        /* \"ERC721/ERC721.sol\":1564:1584  _owner != address(0) */\n      0xffffffffffffffffffffffffffffffffffffffff\n      and\n      sub\n        /* \"ERC721/ERC721.sol\":1556:1632  require(_owner != address(0), \"ERC721 : balance query for the zero address\") */\n      tag_133\n      jumpi\n      mload(0x40)\n      0x08c379a000000000000000000000000000000000000000000000000000000000\n      dup2\n      mstore\n      0x04\n      add\n      tag_134\n      swap1\n      tag_135\n      jump\t// in\n    tag_134:\n      mload(0x40)\n      dup1\n      swap2\n      sub\n      swap1\n      revert\n    tag_133:\n        /* \"ERC721/ERC721.sol\":1649:1658  _balances */\n      0x02\n        /* \"ERC721/ERC721.sol\":1649:1666  _balances[_owner] */\n      0x00\n        /* \"ERC721/ERC721.sol\":1659:1665  _owner */\n      dup4\n        /* \"ERC721/ERC721.sol\":1649:1666  _balances[_owner] */\n      0xffffffffffffffffffffffffffffffffffffffff\n      and\n      0xffffffffffffffffffffffffffffffffffffffff\n      and\n      dup2\n      mstore\n      0x20\n      add\n      swap1\n      dup2\n      mstore\n      0x20\n      add\n      0x00\n      keccak256\n      sload\n        /* \"ERC721/ERC721.sol\":1642:1666  return _balances[_owner] */\n      swap1\n      pop\n        /* \"ERC721/ERC721.sol\":1475:1673  function balanceOf(address _owner) public override view returns (uint) {... */\n      swap2\n      swap1\n      pop\n      jump\t// out\n        /* \"ERC721/ERC721.sol\":441:470  string public override symbol */\n    tag_67:\n      0x01\n      dup1\n      sload\n      tag_136\n      swap1\n      tag_84\n      jump\t// in\n    tag_136:\n      dup1\n      0x1f\n      add\n      0x20\n      dup1\n      swap2\n      div\n      mul\n      0x20\n      add\n      mload(0x40)\n      swap1\n      dup2\n      add\n      0x40\n      mstore\n      dup1\n      swap3\n      swap2\n      swap1\n      dup2\n      dup2\n      mstore\n      0x20\n      add\n      dup3\n      dup1\n      sload\n      tag_137\n      swap1\n      tag_84\n      jump\t// in\n    tag_137:\n      dup1\n      iszero\n      tag_138\n      jumpi\n      dup1\n      0x1f\n      lt\n      tag_139\n      jumpi\n      0x0100\n      dup1\n      dup4\n      sload\n      div\n      mul\n      dup4\n      mstore\n      swap2\n      0x20\n      add\n      swap2\n      jump(tag_138)\n    tag_139:\n      dup3\n      add\n      swap2\n      swap1\n      0x00\n      mstore\n      keccak256(0x00, 0x20)\n      swap1\n    tag_140:\n      dup2\n      sload\n      dup2\n      mstore\n      swap1\n      0x01\n      add\n      swap1\n      0x20\n      add\n      dup1\n      dup4\n      gt\n      tag_140\n      jumpi\n      dup3\n      swap1\n      sub\n      0x1f\n      and\n      dup3\n      add\n      swap2\n    tag_138:\n      pop\n      pop\n      pop\n      pop\n      pop\n      dup2\n      jump\t// out\n        /* \"ERC721/ERC721.sol\":3878:4133  function setApprovalForAll(address _operator, bool _approved) external override {... */\n    tag_72:\n        /* \"ERC721/ERC721.sol\":3990:3999  _operator */\n      dup2\n        /* \"ERC721/ERC721.sol\":3976:3999  msg.sender != _operator */\n      0xffffffffffffffffffffffffffffffffffffffff\n      and\n        /* \"ERC721/ERC721.sol\":3976:3986  msg.sender */\n      caller\n        /* \"ERC721/ERC721.sol\":3976:3999  msg.sender != _operator */\n      0xffffffffffffffffffffffffffffffffffffffff\n      and\n      sub\n        /* \"ERC721/ERC721.sol\":3968:4000  require(msg.sender != _operator) */\n      tag_142\n      jumpi\n      0x00\n      dup1\n      revert\n    tag_142:\n        /* \"ERC721/ERC721.sol\":4054:4063  _approved */\n      dup1\n        /* \"ERC721/ERC721.sol\":4010:4028  _operatorApprovals */\n      0x05\n        /* \"ERC721/ERC721.sol\":4010:4040  _operatorApprovals[msg.sender] */\n      0x00\n        /* \"ERC721/ERC721.sol\":4029:4039  msg.sender */\n      caller\n        /* \"ERC721/ERC721.sol\":4010:4040  _operatorApprovals[msg.sender] */\n      0xffffffffffffffffffffffffffffffffffffffff\n      and\n      0xffffffffffffffffffffffffffffffffffffffff\n      and\n      dup2\n      mstore\n      0x20\n      add\n      swap1\n      dup2\n      mstore\n      0x20\n      add\n      0x00\n      keccak256\n        /* \"ERC721/ERC721.sol\":4010:4051  _operatorApprovals[msg.sender][_operator] */\n      0x00\n        /* \"ERC721/ERC721.sol\":4041:4050  _operator */\n      dup5\n        /* \"ERC721/ERC721.sol\":4010:4051  _operatorApprovals[msg.sender][_operator] */\n      0xffffffffffffffffffffffffffffffffffffffff\n      and\n      0xffffffffffffffffffffffffffffffffffffffff\n      and\n      dup2\n      mstore\n      0x20\n      add\n      swap1\n      dup2\n      mstore\n      0x20\n      add\n      0x00\n      keccak256\n      0x00\n        /* \"ERC721/ERC721.sol\":4010:4063  _operatorApprovals[msg.sender][_operator] = _approved */\n      0x0100\n      exp\n      dup2\n      sload\n      dup2\n      0xff\n      mul\n      not\n      and\n      swap1\n      dup4\n      iszero\n      iszero\n      mul\n      or\n      swap1\n      sstore\n      pop\n        /* \"ERC721/ERC721.sol\":4105:4114  _operator */\n      dup2\n        /* \"ERC721/ERC721.sol\":4078:4126  ApprovalForAll(msg.sender, _operator, _approved) */\n      0xffffffffffffffffffffffffffffffffffffffff\n      and\n        /* \"ERC721/ERC721.sol\":4093:4103  msg.sender */\n      caller\n        /* \"ERC721/ERC721.sol\":4078:4126  ApprovalForAll(msg.sender, _operator, _approved) */\n      0xffffffffffffffffffffffffffffffffffffffff\n      and\n      0x17307eab39ab6107e8899845ad3d59bd9653f200f220920489ca2b5937696c31\n        /* \"ERC721/ERC721.sol\":4116:4125  _approved */\n      dup4\n        /* \"ERC721/ERC721.sol\":4078:4126  ApprovalForAll(msg.sender, _operator, _approved) */\n      mload(0x40)\n      tag_143\n      swap2\n      swap1\n      tag_82\n      jump\t// in\n    tag_143:\n      mload(0x40)\n      dup1\n      swap2\n      sub\n      swap1\n      log3\n        /* \"ERC721/ERC721.sol\":3878:4133  function setApprovalForAll(address _operator, bool _approved) external override {... */\n      pop\n      pop\n      jump\t// out\n        /* \"ERC721/ERC721.sol\":5930:6023  function tokenURI(uint256 _tokenId) external override virtual view returns (string memory) {} */\n    tag_75:\n        /* \"ERC721/ERC721.sol\":6006:6019  string memory */\n      0x60\n        /* \"ERC721/ERC721.sol\":5930:6023  function tokenURI(uint256 _tokenId) external override virtual view returns (string memory) {} */\n      swap2\n      swap1\n      pop\n      jump\t// out\n        /* \"ERC721/ERC721.sol\":4225:4382  function isApprovedForAll(address _owner, address _operator) public override view returns (bool){... */\n    tag_80:\n        /* \"ERC721/ERC721.sol\":4316:4320  bool */\n      0x00\n        /* \"ERC721/ERC721.sol\":4338:4356  _operatorApprovals */\n      0x05\n        /* \"ERC721/ERC721.sol\":4338:4364  _operatorApprovals[_owner] */\n      0x00\n        /* \"ERC721/ERC721.sol\":4357:4363  _owner */\n      dup5\n        /* \"ERC721/ERC721.sol\":4338:4364  _operatorApprovals[_owner] */\n      0xffffffffffffffffffffffffffffffffffffffff\n      and\n      0xffffffffffffffffffffffffffffffffffffffff\n      and\n      dup2\n      mstore\n      0x20\n      add\n      swap1\n      dup2\n      mstore\n      0x20\n      add\n      0x00\n      keccak256\n        /* \"ERC721/ERC721.sol\":4338:4375  _operatorApprovals[_owner][_operator] */\n      0x00\n        /* \"ERC721/ERC721.sol\":4365:4374  _operator */\n      dup4\n        /* \"ERC721/ERC721.sol\":4338:4375  _operatorApprovals[_owner][_operator] */\n      0xffffffffffffffffffffffffffffffffffffffff\n      and\n      0xffffffffffffffffffffffffffffffffffffffff\n      and\n      dup2\n      mstore\n      0x20\n      add\n      swap1\n      dup2\n      mstore\n      0x20\n      add\n      0x00\n      keccak256\n      0x00\n      swap1\n      sload\n      swap1\n      0x0100\n      exp\n      swap1\n      div\n      0xff\n      and\n        /* \"ERC721/ERC721.sol\":4331:4375  return _operatorApprovals[_owner][_operator] */\n      swap1\n      pop\n        /* \"ERC721/ERC721.sol\":4225:4382  function isApprovedForAll(address _owner, address _operator) public override view returns (bool){... */\n      swap3\n      swap2\n      pop\n      pop\n      jump\t// out\n        /* \"ERC721/ERC721.sol\":4434:4960  function _isApprovedOrOwner (address _spender, uint _tokenId) private view returns(bool) {... */\n    tag_103:\n        /* \"ERC721/ERC721.sol\":4517:4521  bool */\n      0x00\n        /* \"ERC721/ERC721.sol\":4533:4546  address owner */\n      dup1\n        /* \"ERC721/ERC721.sol\":4549:4556  _owners */\n      0x03\n        /* \"ERC721/ERC721.sol\":4549:4566  _owners[_tokenId] */\n      0x00\n        /* \"ERC721/ERC721.sol\":4557:4565  _tokenId */\n      dup5\n        /* \"ERC721/ERC721.sol\":4549:4566  _owners[_tokenId] */\n      dup2\n      mstore\n      0x20\n      add\n      swap1\n      dup2\n      mstore\n      0x20\n      add\n      0x00\n      keccak256\n      0x00\n      swap1\n      sload\n      swap1\n      0x0100\n      exp\n      swap1\n      div\n      0xffffffffffffffffffffffffffffffffffffffff\n      and\n        /* \"ERC721/ERC721.sol\":4533:4566  address owner = _owners[_tokenId] */\n      swap1\n      pop\n        /* \"ERC721/ERC721.sol\":4601:4602  0 */\n      0x00\n        /* \"ERC721/ERC721.sol\":4584:4603  owner != address(0) */\n      0xffffffffffffffffffffffffffffffffffffffff\n      and\n        /* \"ERC721/ERC721.sol\":4584:4589  owner */\n      dup2\n        /* \"ERC721/ERC721.sol\":4584:4603  owner != address(0) */\n      0xffffffffffffffffffffffffffffffffffffffff\n      and\n      sub\n        /* \"ERC721/ERC721.sol\":4576:4604  require(owner != address(0)) */\n      tag_147\n      jumpi\n      0x00\n      dup1\n      revert\n    tag_147:\n        /* \"ERC721/ERC721.sol\":4873:4878  owner */\n      dup1\n        /* \"ERC721/ERC721.sol\":4861:4878  _spender == owner */\n      0xffffffffffffffffffffffffffffffffffffffff\n      and\n        /* \"ERC721/ERC721.sol\":4861:4869  _spender */\n      dup5\n        /* \"ERC721/ERC721.sol\":4861:4878  _spender == owner */\n      0xffffffffffffffffffffffffffffffffffffffff\n      and\n      eq\n        /* \"ERC721/ERC721.sol\":4861:4915  _spender == owner || isApprovedForAll(owner, _spender) */\n      dup1\n      tag_148\n      jumpi\n      pop\n        /* \"ERC721/ERC721.sol\":4882:4915  isApprovedForAll(owner, _spender) */\n      tag_149\n        /* \"ERC721/ERC721.sol\":4899:4904  owner */\n      dup2\n        /* \"ERC721/ERC721.sol\":4906:4914  _spender */\n      dup6\n        /* \"ERC721/ERC721.sol\":4882:4898  isApprovedForAll */\n      tag_80\n        /* \"ERC721/ERC721.sol\":4882:4915  isApprovedForAll(owner, _spender) */\n      jump\t// in\n    tag_149:\n        /* \"ERC721/ERC721.sol\":4861:4915  _spender == owner || isApprovedForAll(owner, _spender) */\n    tag_148:\n        /* \"ERC721/ERC721.sol\":4861:4952  _spender == owner || isApprovedForAll(owner, _spender) || getApproved(_tokenId) == _spender */\n      dup1\n      tag_150\n      jumpi\n      pop\n        /* \"ERC721/ERC721.sol\":4944:4952  _spender */\n      dup4\n        /* \"ERC721/ERC721.sol\":4919:4952  getApproved(_tokenId) == _spender */\n      0xffffffffffffffffffffffffffffffffffffffff\n      and\n        /* \"ERC721/ERC721.sol\":4919:4940  getApproved(_tokenId) */\n      tag_151\n        /* \"ERC721/ERC721.sol\":4931:4939  _tokenId */\n      dup5\n        /* \"ERC721/ERC721.sol\":4919:4930  getApproved */\n      tag_28\n        /* \"ERC721/ERC721.sol\":4919:4940  getApproved(_tokenId) */\n      jump\t// in\n    tag_151:\n        /* \"ERC721/ERC721.sol\":4919:4952  getApproved(_tokenId) == _spender */\n      0xffffffffffffffffffffffffffffffffffffffff\n      and\n      eq\n        /* \"ERC721/ERC721.sol\":4861:4952  _spender == owner || isApprovedForAll(owner, _spender) || getApproved(_tokenId) == _spender */\n    tag_150:\n        /* \"ERC721/ERC721.sol\":4853:4953  return (_spender == owner || isApprovedForAll(owner, _spender) || getApproved(_tokenId) == _spender) */\n      swap2\n      pop\n      pop\n        /* \"ERC721/ERC721.sol\":4434:4960  function _isApprovedOrOwner (address _spender, uint _tokenId) private view returns(bool) {... */\n      swap3\n      swap2\n      pop\n      pop\n      jump\t// out\n        /* \"ERC721/ERC721Enumerable.sol\":1521:3148  function _afterToken(address _from, address _to, uint _tokenId) internal override {... */\n    tag_111:\n        /* \"ERC721/ERC721Enumerable.sol\":1687:1688  0 */\n      0x00\n        /* \"ERC721/ERC721Enumerable.sol\":1670:1689  _from == address(0) */\n      0xffffffffffffffffffffffffffffffffffffffff\n      and\n        /* \"ERC721/ERC721Enumerable.sol\":1670:1675  _from */\n      dup4\n        /* \"ERC721/ERC721Enumerable.sol\":1670:1689  _from == address(0) */\n      0xffffffffffffffffffffffffffffffffffffffff\n      and\n      sub\n        /* \"ERC721/ERC721Enumerable.sol\":1666:2796  if (_from == address(0)) {... */\n      tag_153\n      jumpi\n        /* \"ERC721/ERC721Enumerable.sol\":1706:1716  _allTokens */\n      0x06\n        /* \"ERC721/ERC721Enumerable.sol\":1722:1732  _allTokens */\n      dup1\n        /* \"ERC721/ERC721Enumerable.sol\":1722:1739  _allTokens.length */\n      dup1\n      sload\n      swap1\n      pop\n        /* \"ERC721/ERC721Enumerable.sol\":1706:1740  _allTokens.push(_allTokens.length) */\n      swap1\n      dup1\n      0x01\n      dup2\n      sload\n      add\n      dup1\n      dup3\n      sstore\n      dup1\n      swap2\n      pop\n      pop\n      0x01\n      swap1\n      sub\n      swap1\n      0x00\n      mstore\n      keccak256(0x00, 0x20)\n      add\n      0x00\n      swap1\n      swap2\n      swap1\n      swap2\n      swap1\n      swap2\n      pop\n      sstore\n        /* \"ERC721/ERC721Enumerable.sol\":1666:2796  if (_from == address(0)) {... */\n      jump(tag_155)\n    tag_153:\n        /* \"ERC721/ERC721Enumerable.sol\":2235:2256  uint latestTokenIndex */\n      0x00\n        /* \"ERC721/ERC721Enumerable.sol\":2285:2286  1 */\n      0x01\n        /* \"ERC721/ERC721Enumerable.sol\":2259:2282  ERC721.balanceOf(_from) */\n      tag_156\n        /* \"ERC721/ERC721Enumerable.sol\":2276:2281  _from */\n      dup6\n        /* \"ERC721/ERC721Enumerable.sol\":2259:2275  ERC721.balanceOf */\n      tag_64\n        /* \"ERC721/ERC721Enumerable.sol\":2259:2282  ERC721.balanceOf(_from) */\n      jump\t// in\n    tag_156:\n        /* \"ERC721/ERC721Enumerable.sol\":2259:2286  ERC721.balanceOf(_from) - 1 */\n      tag_157\n      swap2\n      swap1\n      tag_107\n      jump\t// in\n    tag_157:\n        /* \"ERC721/ERC721Enumerable.sol\":2235:2286  uint latestTokenIndex = ERC721.balanceOf(_from) - 1 */\n      swap1\n      pop\n        /* \"ERC721/ERC721Enumerable.sol\":2358:2373  uint tokenIndex */\n      0x00\n        /* \"ERC721/ERC721Enumerable.sol\":2376:2393  _ownedTokensIndex */\n      0x08\n        /* \"ERC721/ERC721Enumerable.sol\":2376:2403  _ownedTokensIndex[_tokenId] */\n      0x00\n        /* \"ERC721/ERC721Enumerable.sol\":2394:2402  _tokenId */\n      dup5\n        /* \"ERC721/ERC721Enumerable.sol\":2376:2403  _ownedTokensIndex[_tokenId] */\n      dup2\n      mstore\n      0x20\n      add\n      swap1\n      dup2\n      mstore\n      0x20\n      add\n      0x00\n      keccak256\n      sload\n        /* \"ERC721/ERC721Enumerable.sol\":2358:2403  uint tokenIndex = _ownedTokensIndex[_tokenId] */\n      swap1\n      pop\n        /* \"ERC721/ERC721Enumerable.sol\":2436:2452  latestTokenIndex */\n      dup2\n        /* \"ERC721/ERC721Enumerable.sol\":2422:2432  tokenIndex */\n      dup2\n        /* \"ERC721/ERC721Enumerable.sol\":2422:2452  tokenIndex != latestTokenIndex */\n      eq\n        /* \"ERC721/ERC721Enumerable.sol\":2418:2679  if (tokenIndex != latestTokenIndex) {... */\n      tag_158\n      jumpi\n        /* \"ERC721/ERC721Enumerable.sol\":2472:2490  uint latestTokenId */\n      0x00\n        /* \"ERC721/ERC721Enumerable.sol\":2493:2505  _ownedTokens */\n      0x07\n        /* \"ERC721/ERC721Enumerable.sol\":2493:2512  _ownedTokens[_from] */\n      0x00\n        /* \"ERC721/ERC721Enumerable.sol\":2506:2511  _from */\n      dup8\n        /* \"ERC721/ERC721Enumerable.sol\":2493:2512  _ownedTokens[_from] */\n      0xffffffffffffffffffffffffffffffffffffffff\n      and\n      0xffffffffffffffffffffffffffffffffffffffff\n      and\n      dup2\n      mstore\n      0x20\n      add\n      swap1\n      dup2\n      mstore\n      0x20\n      add\n      0x00\n      keccak256\n        /* \"ERC721/ERC721Enumerable.sol\":2493:2530  _ownedTokens[_from][latestTokenIndex] */\n      0x00\n        /* \"ERC721/ERC721Enumerable.sol\":2513:2529  latestTokenIndex */\n      dup5\n        /* \"ERC721/ERC721Enumerable.sol\":2493:2530  _ownedTokens[_from][latestTokenIndex] */\n      dup2\n      mstore\n      0x20\n      add\n      swap1\n      dup2\n      mstore\n      0x20\n      add\n      0x00\n      keccak256\n      sload\n        /* \"ERC721/ERC721Enumerable.sol\":2472:2530  uint latestTokenId = _ownedTokens[_from][latestTokenIndex] */\n      swap1\n      pop\n        /* \"ERC721/ERC721Enumerable.sol\":2588:2601  latestTokenId */\n      dup1\n        /* \"ERC721/ERC721Enumerable.sol\":2554:2566  _ownedTokens */\n      0x07\n        /* \"ERC721/ERC721Enumerable.sol\":2554:2573  _ownedTokens[_from] */\n      0x00\n        /* \"ERC721/ERC721Enumerable.sol\":2567:2572  _from */\n      dup9\n        /* \"ERC721/ERC721Enumerable.sol\":2554:2573  _ownedTokens[_from] */\n      0xffffffffffffffffffffffffffffffffffffffff\n      and\n      0xffffffffffffffffffffffffffffffffffffffff\n      and\n      dup2\n      mstore\n      0x20\n      add\n      swap1\n      dup2\n      mstore\n      0x20\n      add\n      0x00\n      keccak256\n        /* \"ERC721/ERC721Enumerable.sol\":2554:2585  _ownedTokens[_from][tokenIndex] */\n      0x00\n        /* \"ERC721/ERC721Enumerable.sol\":2574:2584  tokenIndex */\n      dup5\n        /* \"ERC721/ERC721Enumerable.sol\":2554:2585  _ownedTokens[_from][tokenIndex] */\n      dup2\n      mstore\n      0x20\n      add\n      swap1\n      dup2\n      mstore\n      0x20\n      add\n      0x00\n      keccak256\n        /* \"ERC721/ERC721Enumerable.sol\":2554:2601  _ownedTokens[_from][tokenIndex] = latestTokenId */\n      dup2\n      swap1\n      sstore\n      pop\n        /* \"ERC721/ERC721Enumerable.sol\":2654:2664  tokenIndex */\n      dup2\n        /* \"ERC721/ERC721Enumerable.sol\":2619:2636  _ownedTokensIndex */\n      0x08\n        /* \"ERC721/ERC721Enumerable.sol\":2619:2651  _ownedTokensIndex[latestTokenId] */\n      0x00\n        /* \"ERC721/ERC721Enumerable.sol\":2637:2650  latestTokenId */\n      dup4\n        /* \"ERC721/ERC721Enumerable.sol\":2619:2651  _ownedTokensIndex[latestTokenId] */\n      dup2\n      mstore\n      0x20\n      add\n      swap1\n      dup2\n      mstore\n      0x20\n      add\n      0x00\n      keccak256\n        /* \"ERC721/ERC721Enumerable.sol\":2619:2664  _ownedTokensIndex[latestTokenId] = tokenIndex */\n      dup2\n      swap1\n      sstore\n      pop\n        /* \"ERC721/ERC721Enumerable.sol\":2454:2679  {... */\n      pop\n        /* \"ERC721/ERC721Enumerable.sol\":2418:2679  if (tokenIndex != latestTokenIndex) {... */\n    tag_158:\n        /* \"ERC721/ERC721Enumerable.sol\":2700:2712  _ownedTokens */\n      0x07\n        /* \"ERC721/ERC721Enumerable.sol\":2700:2719  _ownedTokens[_from] */\n      0x00\n        /* \"ERC721/ERC721Enumerable.sol\":2713:2718  _from */\n      dup7\n        /* \"ERC721/ERC721Enumerable.sol\":2700:2719  _ownedTokens[_from] */\n      0xffffffffffffffffffffffffffffffffffffffff\n      and\n      0xffffffffffffffffffffffffffffffffffffffff\n      and\n      dup2\n      mstore\n      0x20\n      add\n      swap1\n      dup2\n      mstore\n      0x20\n      add\n      0x00\n      keccak256\n        /* \"ERC721/ERC721Enumerable.sol\":2700:2737  _ownedTokens[_from][latestTokenIndex] */\n      0x00\n        /* \"ERC721/ERC721Enumerable.sol\":2720:2736  latestTokenIndex */\n      dup4\n        /* \"ERC721/ERC721Enumerable.sol\":2700:2737  _ownedTokens[_from][latestTokenIndex] */\n      dup2\n      mstore\n      0x20\n      add\n      swap1\n      dup2\n      mstore\n      0x20\n      add\n      0x00\n      keccak256\n        /* \"ERC721/ERC721Enumerable.sol\":2693:2737  delete _ownedTokens[_from][latestTokenIndex] */\n      0x00\n      swap1\n      sstore\n        /* \"ERC721/ERC721Enumerable.sol\":2758:2775  _ownedTokensIndex */\n      0x08\n        /* \"ERC721/ERC721Enumerable.sol\":2758:2785  _ownedTokensIndex[_tokenId] */\n      0x00\n        /* \"ERC721/ERC721Enumerable.sol\":2776:2784  _tokenId */\n      dup5\n        /* \"ERC721/ERC721Enumerable.sol\":2758:2785  _ownedTokensIndex[_tokenId] */\n      dup2\n      mstore\n      0x20\n      add\n      swap1\n      dup2\n      mstore\n      0x20\n      add\n      0x00\n      keccak256\n        /* \"ERC721/ERC721Enumerable.sol\":2751:2785  delete _ownedTokensIndex[_tokenId] */\n      0x00\n      swap1\n      sstore\n        /* \"ERC721/ERC721Enumerable.sol\":1876:2796  {... */\n      pop\n      pop\n        /* \"ERC721/ERC721Enumerable.sol\":1666:2796  if (_from == address(0)) {... */\n    tag_155:\n        /* \"ERC721/ERC721Enumerable.sol\":2806:2817  uint length */\n      0x00\n        /* \"ERC721/ERC721Enumerable.sol\":2820:2841  ERC721.balanceOf(_to) */\n      tag_159\n        /* \"ERC721/ERC721Enumerable.sol\":2837:2840  _to */\n      dup4\n        /* \"ERC721/ERC721Enumerable.sol\":2820:2836  ERC721.balanceOf */\n      tag_64\n        /* \"ERC721/ERC721Enumerable.sol\":2820:2841  ERC721.balanceOf(_to) */\n      jump\t// in\n    tag_159:\n        /* \"ERC721/ERC721Enumerable.sol\":2806:2841  uint length = ERC721.balanceOf(_to) */\n      swap1\n      pop\n        /* \"ERC721/ERC721Enumerable.sol\":3078:3086  _tokenId */\n      dup2\n        /* \"ERC721/ERC721Enumerable.sol\":3050:3062  _ownedTokens */\n      0x07\n        /* \"ERC721/ERC721Enumerable.sol\":3050:3067  _ownedTokens[_to] */\n      0x00\n        /* \"ERC721/ERC721Enumerable.sol\":3063:3066  _to */\n      dup6\n        /* \"ERC721/ERC721Enumerable.sol\":3050:3067  _ownedTokens[_to] */\n      0xffffffffffffffffffffffffffffffffffffffff\n      and\n      0xffffffffffffffffffffffffffffffffffffffff\n      and\n      dup2\n      mstore\n      0x20\n      add\n      swap1\n      dup2\n      mstore\n      0x20\n      add\n      0x00\n      keccak256\n        /* \"ERC721/ERC721Enumerable.sol\":3050:3075  _ownedTokens[_to][length] */\n      0x00\n        /* \"ERC721/ERC721Enumerable.sol\":3068:3074  length */\n      dup4\n        /* \"ERC721/ERC721Enumerable.sol\":3050:3075  _ownedTokens[_to][length] */\n      dup2\n      mstore\n      0x20\n      add\n      swap1\n      dup2\n      mstore\n      0x20\n      add\n      0x00\n      keccak256\n        /* \"ERC721/ERC721Enumerable.sol\":3050:3086  _ownedTokens[_to][length] = _tokenId */\n      dup2\n      swap1\n      sstore\n      pop\n        /* \"ERC721/ERC721Enumerable.sol\":3126:3132  length */\n      dup1\n        /* \"ERC721/ERC721Enumerable.sol\":3096:3113  _ownedTokensIndex */\n      0x08\n        /* \"ERC721/ERC721Enumerable.sol\":3096:3123  _ownedTokensIndex[_tokenId] */\n      0x00\n        /* \"ERC721/ERC721Enumerable.sol\":3114:3122  _tokenId */\n      dup5\n        /* \"ERC721/ERC721Enumerable.sol\":3096:3123  _ownedTokensIndex[_tokenId] */\n      dup2\n      mstore\n      0x20\n      add\n      swap1\n      dup2\n      mstore\n      0x20\n      add\n      0x00\n      keccak256\n        /* \"ERC721/ERC721Enumerable.sol\":3096:3132  _ownedTokensIndex[_tokenId] = length */\n      dup2\n      swap1\n      sstore\n      pop\n        /* \"ERC721/ERC721Enumerable.sol\":1603:3148  {... */\n      pop\n        /* \"ERC721/ERC721Enumerable.sol\":1521:3148  function _afterToken(address _from, address _to, uint _tokenId) internal override {... */\n      pop\n      pop\n      pop\n      jump\t// out\n        /* \"#utility.yul\":7:106   */\n    tag_160:\n        /* \"#utility.yul\":59:65   */\n      0x00\n        /* \"#utility.yul\":93:98   */\n      dup2\n        /* \"#utility.yul\":87:99   */\n      mload\n        /* \"#utility.yul\":77:99   */\n      swap1\n      pop\n        /* \"#utility.yul\":7:106   */\n      swap2\n      swap1\n      pop\n      jump\t// out\n        /* \"#utility.yul\":112:281   */\n    tag_161:\n        /* \"#utility.yul\":196:207   */\n      0x00\n        /* \"#utility.yul\":230:236   */\n      dup3\n        /* \"#utility.yul\":225:228   */\n      dup3\n        /* \"#utility.yul\":218:237   */\n      mstore\n        /* \"#utility.yul\":270:274   */\n      0x20\n        /* \"#utility.yul\":265:268   */\n      dup3\n        /* \"#utility.yul\":261:275   */\n      add\n        /* \"#utility.yul\":246:275   */\n      swap1\n      pop\n        /* \"#utility.yul\":112:281   */\n      swap3\n      swap2\n      pop\n      pop\n      jump\t// out\n        /* \"#utility.yul\":287:594   */\n    tag_162:\n        /* \"#utility.yul\":355:356   */\n      0x00\n        /* \"#utility.yul\":365:478   */\n    tag_195:\n        /* \"#utility.yul\":379:385   */\n      dup4\n        /* \"#utility.yul\":376:377   */\n      dup2\n        /* \"#utility.yul\":373:386   */\n      lt\n        /* \"#utility.yul\":365:478   */\n      iszero\n      tag_197\n      jumpi\n        /* \"#utility.yul\":464:465   */\n      dup1\n        /* \"#utility.yul\":459:462   */\n      dup3\n        /* \"#utility.yul\":455:466   */\n      add\n        /* \"#utility.yul\":449:467   */\n      mload\n        /* \"#utility.yul\":445:446   */\n      dup2\n        /* \"#utility.yul\":440:443   */\n      dup5\n        /* \"#utility.yul\":436:447   */\n      add\n        /* \"#utility.yul\":429:468   */\n      mstore\n        /* \"#utility.yul\":401:403   */\n      0x20\n        /* \"#utility.yul\":398:399   */\n      dup2\n        /* \"#utility.yul\":394:404   */\n      add\n        /* \"#utility.yul\":389:404   */\n      swap1\n      pop\n        /* \"#utility.yul\":365:478   */\n      jump(tag_195)\n    tag_197:\n        /* \"#utility.yul\":496:502   */\n      dup4\n        /* \"#utility.yul\":493:494   */\n      dup2\n        /* \"#utility.yul\":490:503   */\n      gt\n        /* \"#utility.yul\":487:588   */\n      iszero\n      tag_198\n      jumpi\n        /* \"#utility.yul\":576:577   */\n      0x00\n        /* \"#utility.yul\":567:573   */\n      dup5\n        /* \"#utility.yul\":562:565   */\n      dup5\n        /* \"#utility.yul\":558:574   */\n      add\n        /* \"#utility.yul\":551:578   */\n      mstore\n        /* \"#utility.yul\":487:588   */\n    tag_198:\n        /* \"#utility.yul\":336:594   */\n      pop\n        /* \"#utility.yul\":287:594   */\n      pop\n      pop\n      pop\n      jump\t// out\n        /* \"#utility.yul\":600:702   */\n    tag_163:\n        /* \"#utility.yul\":641:647   */\n      0x00\n        /* \"#utility.yul\":692:694   */\n      0x1f\n        /* \"#utility.yul\":688:695   */\n      not\n        /* \"#utility.yul\":683:685   */\n      0x1f\n        /* \"#utility.yul\":676:681   */\n      dup4\n        /* \"#utility.yul\":672:686   */\n      add\n        /* \"#utility.yul\":668:696   */\n      and\n        /* \"#utility.yul\":658:696   */\n      swap1\n      pop\n        /* \"#utility.yul\":600:702   */\n      swap2\n      swap1\n      pop\n      jump\t// out\n        /* \"#utility.yul\":708:1072   */\n    tag_164:\n        /* \"#utility.yul\":796:799   */\n      0x00\n        /* \"#utility.yul\":824:863   */\n      tag_201\n        /* \"#utility.yul\":857:862   */\n      dup3\n        /* \"#utility.yul\":824:863   */\n      tag_160\n      jump\t// in\n    tag_201:\n        /* \"#utility.yul\":879:950   */\n      tag_202\n        /* \"#utility.yul\":943:949   */\n      dup2\n        /* \"#utility.yul\":938:941   */\n      dup6\n        /* \"#utility.yul\":879:950   */\n      tag_161\n      jump\t// in\n    tag_202:\n        /* \"#utility.yul\":872:950   */\n      swap4\n      pop\n        /* \"#utility.yul\":959:1011   */\n      tag_203\n        /* \"#utility.yul\":1004:1010   */\n      dup2\n        /* \"#utility.yul\":999:1002   */\n      dup6\n        /* \"#utility.yul\":992:996   */\n      0x20\n        /* \"#utility.yul\":985:990   */\n      dup7\n        /* \"#utility.yul\":981:997   */\n      add\n        /* \"#utility.yul\":959:1011   */\n      tag_162\n      jump\t// in\n    tag_203:\n        /* \"#utility.yul\":1036:1065   */\n      tag_204\n        /* \"#utility.yul\":1058:1064   */\n      dup2\n        /* \"#utility.yul\":1036:1065   */\n      tag_163\n      jump\t// in\n    tag_204:\n        /* \"#utility.yul\":1031:1034   */\n      dup5\n        /* \"#utility.yul\":1027:1066   */\n      add\n        /* \"#utility.yul\":1020:1066   */\n      swap2\n      pop\n        /* \"#utility.yul\":800:1072   */\n      pop\n        /* \"#utility.yul\":708:1072   */\n      swap3\n      swap2\n      pop\n      pop\n      jump\t// out\n        /* \"#utility.yul\":1078:1391   */\n    tag_24:\n        /* \"#utility.yul\":1191:1195   */\n      0x00\n        /* \"#utility.yul\":1229:1231   */\n      0x20\n        /* \"#utility.yul\":1218:1227   */\n      dup3\n        /* \"#utility.yul\":1214:1232   */\n      add\n        /* \"#utility.yul\":1206:1232   */\n      swap1\n      pop\n        /* \"#utility.yul\":1278:1287   */\n      dup2\n        /* \"#utility.yul\":1272:1276   */\n      dup2\n        /* \"#utility.yul\":1268:1288   */\n      sub\n        /* \"#utility.yul\":1264:1265   */\n      0x00\n        /* \"#utility.yul\":1253:1262   */\n      dup4\n        /* \"#utility.yul\":1249:1266   */\n      add\n        /* \"#utility.yul\":1242:1289   */\n      mstore\n        /* \"#utility.yul\":1306:1384   */\n      tag_206\n        /* \"#utility.yul\":1379:1383   */\n      dup2\n        /* \"#utility.yul\":1370:1376   */\n      dup5\n        /* \"#utility.yul\":1306:1384   */\n      tag_164\n      jump\t// in\n    tag_206:\n        /* \"#utility.yul\":1298:1384   */\n      swap1\n      pop\n        /* \"#utility.yul\":1078:1391   */\n      swap3\n      swap2\n      pop\n      pop\n      jump\t// out\n        /* \"#utility.yul\":1478:1595   */\n    tag_166:\n        /* \"#utility.yul\":1587:1588   */\n      0x00\n        /* \"#utility.yul\":1584:1585   */\n      dup1\n        /* \"#utility.yul\":1577:1589   */\n      revert\n        /* \"#utility.yul\":1724:1801   */\n    tag_168:\n        /* \"#utility.yul\":1761:1768   */\n      0x00\n        /* \"#utility.yul\":1790:1795   */\n      dup2\n        /* \"#utility.yul\":1779:1795   */\n      swap1\n      pop\n        /* \"#utility.yul\":1724:1801   */\n      swap2\n      swap1\n      pop\n      jump\t// out\n        /* \"#utility.yul\":1807:1929   */\n    tag_169:\n        /* \"#utility.yul\":1880:1904   */\n      tag_212\n        /* \"#utility.yul\":1898:1903   */\n      dup2\n        /* \"#utility.yul\":1880:1904   */\n      tag_168\n      jump\t// in\n    tag_212:\n        /* \"#utility.yul\":1873:1878   */\n      dup2\n        /* \"#utility.yul\":1870:1905   */\n      eq\n        /* \"#utility.yul\":1860:1923   */\n      tag_213\n      jumpi\n        /* \"#utility.yul\":1919:1920   */\n      0x00\n        /* \"#utility.yul\":1916:1917   */\n      dup1\n        /* \"#utility.yul\":1909:1921   */\n      revert\n        /* \"#utility.yul\":1860:1923   */\n    tag_213:\n        /* \"#utility.yul\":1807:1929   */\n      pop\n      jump\t// out\n        /* \"#utility.yul\":1935:2074   */\n    tag_170:\n        /* \"#utility.yul\":1981:1986   */\n      0x00\n        /* \"#utility.yul\":2019:2025   */\n      dup2\n        /* \"#utility.yul\":2006:2026   */\n      calldataload\n        /* \"#utility.yul\":1997:2026   */\n      swap1\n      pop\n        /* \"#utility.yul\":2035:2068   */\n      tag_215\n        /* \"#utility.yul\":2062:2067   */\n      dup2\n        /* \"#utility.yul\":2035:2068   */\n      tag_169\n      jump\t// in\n    tag_215:\n        /* \"#utility.yul\":1935:2074   */\n      swap3\n      swap2\n      pop\n      pop\n      jump\t// out\n        /* \"#utility.yul\":2080:2409   */\n    tag_27:\n        /* \"#utility.yul\":2139:2145   */\n      0x00\n        /* \"#utility.yul\":2188:2190   */\n      0x20\n        /* \"#utility.yul\":2176:2185   */\n      dup3\n        /* \"#utility.yul\":2167:2174   */\n      dup5\n        /* \"#utility.yul\":2163:2186   */\n      sub\n        /* \"#utility.yul\":2159:2191   */\n      slt\n        /* \"#utility.yul\":2156:2275   */\n      iszero\n      tag_217\n      jumpi\n        /* \"#utility.yul\":2194:2273   */\n      tag_218\n      tag_166\n      jump\t// in\n    tag_218:\n        /* \"#utility.yul\":2156:2275   */\n    tag_217:\n        /* \"#utility.yul\":2314:2315   */\n      0x00\n        /* \"#utility.yul\":2339:2392   */\n      tag_219\n        /* \"#utility.yul\":2384:2391   */\n      dup5\n        /* \"#utility.yul\":2375:2381   */\n      dup3\n        /* \"#utility.yul\":2364:2373   */\n      dup6\n        /* \"#utility.yul\":2360:2382   */\n      add\n        /* \"#utility.yul\":2339:2392   */\n      tag_170\n      jump\t// in\n    tag_219:\n        /* \"#utility.yul\":2329:2392   */\n      swap2\n      pop\n        /* \"#utility.yul\":2285:2402   */\n      pop\n        /* \"#utility.yul\":2080:2409   */\n      swap3\n      swap2\n      pop\n      pop\n      jump\t// out\n        /* \"#utility.yul\":2415:2541   */\n    tag_171:\n        /* \"#utility.yul\":2452:2459   */\n      0x00\n        /* \"#utility.yul\":2492:2534   */\n      0xffffffffffffffffffffffffffffffffffffffff\n        /* \"#utility.yul\":2485:2490   */\n      dup3\n        /* \"#utility.yul\":2481:2535   */\n      and\n        /* \"#utility.yul\":2470:2535   */\n      swap1\n      pop\n        /* \"#utility.yul\":2415:2541   */\n      swap2\n      swap1\n      pop\n      jump\t// out\n        /* \"#utility.yul\":2547:2643   */\n    tag_172:\n        /* \"#utility.yul\":2584:2591   */\n      0x00\n        /* \"#utility.yul\":2613:2637   */\n      tag_222\n        /* \"#utility.yul\":2631:2636   */\n      dup3\n        /* \"#utility.yul\":2613:2637   */\n      tag_171\n      jump\t// in\n    tag_222:\n        /* \"#utility.yul\":2602:2637   */\n      swap1\n      pop\n        /* \"#utility.yul\":2547:2643   */\n      swap2\n      swap1\n      pop\n      jump\t// out\n        /* \"#utility.yul\":2649:2767   */\n    tag_173:\n        /* \"#utility.yul\":2736:2760   */\n      tag_224\n        /* \"#utility.yul\":2754:2759   */\n      dup2\n        /* \"#utility.yul\":2736:2760   */\n      tag_172\n      jump\t// in\n    tag_224:\n        /* \"#utility.yul\":2731:2734   */\n      dup3\n        /* \"#utility.yul\":2724:2761   */\n      mstore\n        /* \"#utility.yul\":2649:2767   */\n      pop\n      pop\n      jump\t// out\n        /* \"#utility.yul\":2773:2995   */\n    tag_30:\n        /* \"#utility.yul\":2866:2870   */\n      0x00\n        /* \"#utility.yul\":2904:2906   */\n      0x20\n        /* \"#utility.yul\":2893:2902   */\n      dup3\n        /* \"#utility.yul\":2889:2907   */\n      add\n        /* \"#utility.yul\":2881:2907   */\n      swap1\n      pop\n        /* \"#utility.yul\":2917:2988   */\n      tag_226\n        /* \"#utility.yul\":2985:2986   */\n      0x00\n        /* \"#utility.yul\":2974:2983   */\n      dup4\n        /* \"#utility.yul\":2970:2987   */\n      add\n        /* \"#utility.yul\":2961:2967   */\n      dup5\n        /* \"#utility.yul\":2917:2988   */\n      tag_173\n      jump\t// in\n    tag_226:\n        /* \"#utility.yul\":2773:2995   */\n      swap3\n      swap2\n      pop\n      pop\n      jump\t// out\n        /* \"#utility.yul\":3001:3123   */\n    tag_174:\n        /* \"#utility.yul\":3074:3098   */\n      tag_228\n        /* \"#utility.yul\":3092:3097   */\n      dup2\n        /* \"#utility.yul\":3074:3098   */\n      tag_172\n      jump\t// in\n    tag_228:\n        /* \"#utility.yul\":3067:3072   */\n      dup2\n        /* \"#utility.yul\":3064:3099   */\n      eq\n        /* \"#utility.yul\":3054:3117   */\n      tag_229\n      jumpi\n        /* \"#utility.yul\":3113:3114   */\n      0x00\n        /* \"#utility.yul\":3110:3111   */\n      dup1\n        /* \"#utility.yul\":3103:3115   */\n      revert\n        /* \"#utility.yul\":3054:3117   */\n    tag_229:\n        /* \"#utility.yul\":3001:3123   */\n      pop\n      jump\t// out\n        /* \"#utility.yul\":3129:3268   */\n    tag_175:\n        /* \"#utility.yul\":3175:3180   */\n      0x00\n        /* \"#utility.yul\":3213:3219   */\n      dup2\n        /* \"#utility.yul\":3200:3220   */\n      calldataload\n        /* \"#utility.yul\":3191:3220   */\n      swap1\n      pop\n        /* \"#utility.yul\":3229:3262   */\n      tag_231\n        /* \"#utility.yul\":3256:3261   */\n      dup2\n        /* \"#utility.yul\":3229:3262   */\n      tag_174\n      jump\t// in\n    tag_231:\n        /* \"#utility.yul\":3129:3268   */\n      swap3\n      swap2\n      pop\n      pop\n      jump\t// out\n        /* \"#utility.yul\":3274:3748   */\n    tag_33:\n        /* \"#utility.yul\":3342:3348   */\n      0x00\n        /* \"#utility.yul\":3350:3356   */\n      dup1\n        /* \"#utility.yul\":3399:3401   */\n      0x40\n        /* \"#utility.yul\":3387:3396   */\n      dup4\n        /* \"#utility.yul\":3378:3385   */\n      dup6\n        /* \"#utility.yul\":3374:3397   */\n      sub\n        /* \"#utility.yul\":3370:3402   */\n      slt\n        /* \"#utility.yul\":3367:3486   */\n      iszero\n      tag_233\n      jumpi\n        /* \"#utility.yul\":3405:3484   */\n      tag_234\n      tag_166\n      jump\t// in\n    tag_234:\n        /* \"#utility.yul\":3367:3486   */\n    tag_233:\n        /* \"#utility.yul\":3525:3526   */\n      0x00\n        /* \"#utility.yul\":3550:3603   */\n      tag_235\n        /* \"#utility.yul\":3595:3602   */\n      dup6\n        /* \"#utility.yul\":3586:3592   */\n      dup3\n        /* \"#utility.yul\":3575:3584   */\n      dup7\n        /* \"#utility.yul\":3571:3593   */\n      add\n        /* \"#utility.yul\":3550:3603   */\n      tag_175\n      jump\t// in\n    tag_235:\n        /* \"#utility.yul\":3540:3603   */\n      swap3\n      pop\n        /* \"#utility.yul\":3496:3613   */\n      pop\n        /* \"#utility.yul\":3652:3654   */\n      0x20\n        /* \"#utility.yul\":3678:3731   */\n      tag_236\n        /* \"#utility.yul\":3723:3730   */\n      dup6\n        /* \"#utility.yul\":3714:3720   */\n      dup3\n        /* \"#utility.yul\":3703:3712   */\n      dup7\n        /* \"#utility.yul\":3699:3721   */\n      add\n        /* \"#utility.yul\":3678:3731   */\n      tag_170\n      jump\t// in\n    tag_236:\n        /* \"#utility.yul\":3668:3731   */\n      swap2\n      pop\n        /* \"#utility.yul\":3623:3741   */\n      pop\n        /* \"#utility.yul\":3274:3748   */\n      swap3\n      pop\n      swap3\n      swap1\n      pop\n      jump\t// out\n        /* \"#utility.yul\":3754:3872   */\n    tag_176:\n        /* \"#utility.yul\":3841:3865   */\n      tag_238\n        /* \"#utility.yul\":3859:3864   */\n      dup2\n        /* \"#utility.yul\":3841:3865   */\n      tag_168\n      jump\t// in\n    tag_238:\n        /* \"#utility.yul\":3836:3839   */\n      dup3\n        /* \"#utility.yul\":3829:3866   */\n      mstore\n        /* \"#utility.yul\":3754:3872   */\n      pop\n      pop\n      jump\t// out\n        /* \"#utility.yul\":3878:4100   */\n    tag_38:\n        /* \"#utility.yul\":3971:3975   */\n      0x00\n        /* \"#utility.yul\":4009:4011   */\n      0x20\n        /* \"#utility.yul\":3998:4007   */\n      dup3\n        /* \"#utility.yul\":3994:4012   */\n      add\n        /* \"#utility.yul\":3986:4012   */\n      swap1\n      pop\n        /* \"#utility.yul\":4022:4093   */\n      tag_240\n        /* \"#utility.yul\":4090:4091   */\n      0x00\n        /* \"#utility.yul\":4079:4088   */\n      dup4\n        /* \"#utility.yul\":4075:4092   */\n      add\n        /* \"#utility.yul\":4066:4072   */\n      dup5\n        /* \"#utility.yul\":4022:4093   */\n      tag_176\n      jump\t// in\n    tag_240:\n        /* \"#utility.yul\":3878:4100   */\n      swap3\n      swap2\n      pop\n      pop\n      jump\t// out\n        /* \"#utility.yul\":4106:4725   */\n    tag_41:\n        /* \"#utility.yul\":4183:4189   */\n      0x00\n        /* \"#utility.yul\":4191:4197   */\n      dup1\n        /* \"#utility.yul\":4199:4205   */\n      0x00\n        /* \"#utility.yul\":4248:4250   */\n      0x60\n        /* \"#utility.yul\":4236:4245   */\n      dup5\n        /* \"#utility.yul\":4227:4234   */\n      dup7\n        /* \"#utility.yul\":4223:4246   */\n      sub\n        /* \"#utility.yul\":4219:4251   */\n      slt\n        /* \"#utility.yul\":4216:4335   */\n      iszero\n      tag_242\n      jumpi\n        /* \"#utility.yul\":4254:4333   */\n      tag_243\n      tag_166\n      jump\t// in\n    tag_243:\n        /* \"#utility.yul\":4216:4335   */\n    tag_242:\n        /* \"#utility.yul\":4374:4375   */\n      0x00\n        /* \"#utility.yul\":4399:4452   */\n      tag_244\n        /* \"#utility.yul\":4444:4451   */\n      dup7\n        /* \"#utility.yul\":4435:4441   */\n      dup3\n        /* \"#utility.yul\":4424:4433   */\n      dup8\n        /* \"#utility.yul\":4420:4442   */\n      add\n        /* \"#utility.yul\":4399:4452   */\n      tag_175\n      jump\t// in\n    tag_244:\n        /* \"#utility.yul\":4389:4452   */\n      swap4\n      pop\n        /* \"#utility.yul\":4345:4462   */\n      pop\n        /* \"#utility.yul\":4501:4503   */\n      0x20\n        /* \"#utility.yul\":4527:4580   */\n      tag_245\n        /* \"#utility.yul\":4572:4579   */\n      dup7\n        /* \"#utility.yul\":4563:4569   */\n      dup3\n        /* \"#utility.yul\":4552:4561   */\n      dup8\n        /* \"#utility.yul\":4548:4570   */\n      add\n        /* \"#utility.yul\":4527:4580   */\n      tag_175\n      jump\t// in\n    tag_245:\n        /* \"#utility.yul\":4517:4580   */\n      swap3\n      pop\n        /* \"#utility.yul\":4472:4590   */\n      pop\n        /* \"#utility.yul\":4629:4631   */\n      0x40\n        /* \"#utility.yul\":4655:4708   */\n      tag_246\n        /* \"#utility.yul\":4700:4707   */\n      dup7\n        /* \"#utility.yul\":4691:4697   */\n      dup3\n        /* \"#utility.yul\":4680:4689   */\n      dup8\n        /* \"#utility.yul\":4676:4698   */\n      add\n        /* \"#utility.yul\":4655:4708   */\n      tag_170\n      jump\t// in\n    tag_246:\n        /* \"#utility.yul\":4645:4708   */\n      swap2\n      pop\n        /* \"#utility.yul\":4600:4718   */\n      pop\n        /* \"#utility.yul\":4106:4725   */\n      swap3\n      pop\n      swap3\n      pop\n      swap3\n      jump\t// out\n        /* \"#utility.yul\":4731:5060   */\n    tag_60:\n        /* \"#utility.yul\":4790:4796   */\n      0x00\n        /* \"#utility.yul\":4839:4841   */\n      0x20\n        /* \"#utility.yul\":4827:4836   */\n      dup3\n        /* \"#utility.yul\":4818:4825   */\n      dup5\n        /* \"#utility.yul\":4814:4837   */\n      sub\n        /* \"#utility.yul\":4810:4842   */\n      slt\n        /* \"#utility.yul\":4807:4926   */\n      iszero\n      tag_248\n      jumpi\n        /* \"#utility.yul\":4845:4924   */\n      tag_249\n      tag_166\n      jump\t// in\n    tag_249:\n        /* \"#utility.yul\":4807:4926   */\n    tag_248:\n        /* \"#utility.yul\":4965:4966   */\n      0x00\n        /* \"#utility.yul\":4990:5043   */\n      tag_250\n        /* \"#utility.yul\":5035:5042   */\n      dup5\n        /* \"#utility.yul\":5026:5032   */\n      dup3\n        /* \"#utility.yul\":5015:5024   */\n      dup6\n        /* \"#utility.yul\":5011:5033   */\n      add\n        /* \"#utility.yul\":4990:5043   */\n      tag_175\n      jump\t// in\n    tag_250:\n        /* \"#utility.yul\":4980:5043   */\n      swap2\n      pop\n        /* \"#utility.yul\":4936:5053   */\n      pop\n        /* \"#utility.yul\":4731:5060   */\n      swap3\n      swap2\n      pop\n      pop\n      jump\t// out\n        /* \"#utility.yul\":5066:5156   */\n    tag_177:\n        /* \"#utility.yul\":5100:5107   */\n      0x00\n        /* \"#utility.yul\":5143:5148   */\n      dup2\n        /* \"#utility.yul\":5136:5149   */\n      iszero\n        /* \"#utility.yul\":5129:5150   */\n      iszero\n        /* \"#utility.yul\":5118:5150   */\n      swap1\n      pop\n        /* \"#utility.yul\":5066:5156   */\n      swap2\n      swap1\n      pop\n      jump\t// out\n        /* \"#utility.yul\":5162:5278   */\n    tag_178:\n        /* \"#utility.yul\":5232:5253   */\n      tag_253\n        /* \"#utility.yul\":5247:5252   */\n      dup2\n        /* \"#utility.yul\":5232:5253   */\n      tag_177\n      jump\t// in\n    tag_253:\n        /* \"#utility.yul\":5225:5230   */\n      dup2\n        /* \"#utility.yul\":5222:5254   */\n      eq\n        /* \"#utility.yul\":5212:5272   */\n      tag_254\n      jumpi\n        /* \"#utility.yul\":5268:5269   */\n      0x00\n        /* \"#utility.yul\":5265:5266   */\n      dup1\n        /* \"#utility.yul\":5258:5270   */\n      revert\n        /* \"#utility.yul\":5212:5272   */\n    tag_254:\n        /* \"#utility.yul\":5162:5278   */\n      pop\n      jump\t// out\n        /* \"#utility.yul\":5284:5417   */\n    tag_179:\n        /* \"#utility.yul\":5327:5332   */\n      0x00\n        /* \"#utility.yul\":5365:5371   */\n      dup2\n        /* \"#utility.yul\":5352:5372   */\n      calldataload\n        /* \"#utility.yul\":5343:5372   */\n      swap1\n      pop\n        /* \"#utility.yul\":5381:5411   */\n      tag_256\n        /* \"#utility.yul\":5405:5410   */\n      dup2\n        /* \"#utility.yul\":5381:5411   */\n      tag_178\n      jump\t// in\n    tag_256:\n        /* \"#utility.yul\":5284:5417   */\n      swap3\n      swap2\n      pop\n      pop\n      jump\t// out\n        /* \"#utility.yul\":5423:5891   */\n    tag_71:\n        /* \"#utility.yul\":5488:5494   */\n      0x00\n        /* \"#utility.yul\":5496:5502   */\n      dup1\n        /* \"#utility.yul\":5545:5547   */\n      0x40\n        /* \"#utility.yul\":5533:5542   */\n      dup4\n        /* \"#utility.yul\":5524:5531   */\n      dup6\n        /* \"#utility.yul\":5520:5543   */\n      sub\n        /* \"#utility.yul\":5516:5548   */\n      slt\n        /* \"#utility.yul\":5513:5632   */\n      iszero\n      tag_258\n      jumpi\n        /* \"#utility.yul\":5551:5630   */\n      tag_259\n      tag_166\n      jump\t// in\n    tag_259:\n        /* \"#utility.yul\":5513:5632   */\n    tag_258:\n        /* \"#utility.yul\":5671:5672   */\n      0x00\n        /* \"#utility.yul\":5696:5749   */\n      tag_260\n        /* \"#utility.yul\":5741:5748   */\n      dup6\n        /* \"#utility.yul\":5732:5738   */\n      dup3\n        /* \"#utility.yul\":5721:5730   */\n      dup7\n        /* \"#utility.yul\":5717:5739   */\n      add\n        /* \"#utility.yul\":5696:5749   */\n      tag_175\n      jump\t// in\n    tag_260:\n        /* \"#utility.yul\":5686:5749   */\n      swap3\n      pop\n        /* \"#utility.yul\":5642:5759   */\n      pop\n        /* \"#utility.yul\":5798:5800   */\n      0x20\n        /* \"#utility.yul\":5824:5874   */\n      tag_261\n        /* \"#utility.yul\":5866:5873   */\n      dup6\n        /* \"#utility.yul\":5857:5863   */\n      dup3\n        /* \"#utility.yul\":5846:5855   */\n      dup7\n        /* \"#utility.yul\":5842:5864   */\n      add\n        /* \"#utility.yul\":5824:5874   */\n      tag_179\n      jump\t// in\n    tag_261:\n        /* \"#utility.yul\":5814:5874   */\n      swap2\n      pop\n        /* \"#utility.yul\":5769:5884   */\n      pop\n        /* \"#utility.yul\":5423:5891   */\n      swap3\n      pop\n      swap3\n      swap1\n      pop\n      jump\t// out\n        /* \"#utility.yul\":5897:6371   */\n    tag_79:\n        /* \"#utility.yul\":5965:5971   */\n      0x00\n        /* \"#utility.yul\":5973:5979   */\n      dup1\n        /* \"#utility.yul\":6022:6024   */\n      0x40\n        /* \"#utility.yul\":6010:6019   */\n      dup4\n        /* \"#utility.yul\":6001:6008   */\n      dup6\n        /* \"#utility.yul\":5997:6020   */\n      sub\n        /* \"#utility.yul\":5993:6025   */\n      slt\n        /* \"#utility.yul\":5990:6109   */\n      iszero\n      tag_263\n      jumpi\n        /* \"#utility.yul\":6028:6107   */\n      tag_264\n      tag_166\n      jump\t// in\n    tag_264:\n        /* \"#utility.yul\":5990:6109   */\n    tag_263:\n        /* \"#utility.yul\":6148:6149   */\n      0x00\n        /* \"#utility.yul\":6173:6226   */\n      tag_265\n        /* \"#utility.yul\":6218:6225   */\n      dup6\n        /* \"#utility.yul\":6209:6215   */\n      dup3\n        /* \"#utility.yul\":6198:6207   */\n      dup7\n        /* \"#utility.yul\":6194:6216   */\n      add\n        /* \"#utility.yul\":6173:6226   */\n      tag_175\n      jump\t// in\n    tag_265:\n        /* \"#utility.yul\":6163:6226   */\n      swap3\n      pop\n        /* \"#utility.yul\":6119:6236   */\n      pop\n        /* \"#utility.yul\":6275:6277   */\n      0x20\n        /* \"#utility.yul\":6301:6354   */\n      tag_266\n        /* \"#utility.yul\":6346:6353   */\n      dup6\n        /* \"#utility.yul\":6337:6343   */\n      dup3\n        /* \"#utility.yul\":6326:6335   */\n      dup7\n        /* \"#utility.yul\":6322:6344   */\n      add\n        /* \"#utility.yul\":6301:6354   */\n      tag_175\n      jump\t// in\n    tag_266:\n        /* \"#utility.yul\":6291:6354   */\n      swap2\n      pop\n        /* \"#utility.yul\":6246:6364   */\n      pop\n        /* \"#utility.yul\":5897:6371   */\n      swap3\n      pop\n      swap3\n      swap1\n      pop\n      jump\t// out\n        /* \"#utility.yul\":6377:6486   */\n    tag_180:\n        /* \"#utility.yul\":6458:6479   */\n      tag_268\n        /* \"#utility.yul\":6473:6478   */\n      dup2\n        /* \"#utility.yul\":6458:6479   */\n      tag_177\n      jump\t// in\n    tag_268:\n        /* \"#utility.yul\":6453:6456   */\n      dup3\n        /* \"#utility.yul\":6446:6480   */\n      mstore\n        /* \"#utility.yul\":6377:6486   */\n      pop\n      pop\n      jump\t// out\n        /* \"#utility.yul\":6492:6702   */\n    tag_82:\n        /* \"#utility.yul\":6579:6583   */\n      0x00\n        /* \"#utility.yul\":6617:6619   */\n      0x20\n        /* \"#utility.yul\":6606:6615   */\n      dup3\n        /* \"#utility.yul\":6602:6620   */\n      add\n        /* \"#utility.yul\":6594:6620   */\n      swap1\n      pop\n        /* \"#utility.yul\":6630:6695   */\n      tag_270\n        /* \"#utility.yul\":6692:6693   */\n      0x00\n        /* \"#utility.yul\":6681:6690   */\n      dup4\n        /* \"#utility.yul\":6677:6694   */\n      add\n        /* \"#utility.yul\":6668:6674   */\n      dup5\n        /* \"#utility.yul\":6630:6695   */\n      tag_180\n      jump\t// in\n    tag_270:\n        /* \"#utility.yul\":6492:6702   */\n      swap3\n      swap2\n      pop\n      pop\n      jump\t// out\n        /* \"#utility.yul\":6708:6888   */\n    tag_181:\n        /* \"#utility.yul\":6756:6833   */\n      0x4e487b7100000000000000000000000000000000000000000000000000000000\n        /* \"#utility.yul\":6753:6754   */\n      0x00\n        /* \"#utility.yul\":6746:6834   */\n      mstore\n        /* \"#utility.yul\":6853:6857   */\n      0x22\n        /* \"#utility.yul\":6850:6851   */\n      0x04\n        /* \"#utility.yul\":6843:6858   */\n      mstore\n        /* \"#utility.yul\":6877:6881   */\n      0x24\n        /* \"#utility.yul\":6874:6875   */\n      0x00\n        /* \"#utility.yul\":6867:6882   */\n      revert\n        /* \"#utility.yul\":6894:7214   */\n    tag_84:\n        /* \"#utility.yul\":6938:6944   */\n      0x00\n        /* \"#utility.yul\":6975:6976   */\n      0x02\n        /* \"#utility.yul\":6969:6973   */\n      dup3\n        /* \"#utility.yul\":6965:6977   */\n      div\n        /* \"#utility.yul\":6955:6977   */\n      swap1\n      pop\n        /* \"#utility.yul\":7022:7023   */\n      0x01\n        /* \"#utility.yul\":7016:7020   */\n      dup3\n        /* \"#utility.yul\":7012:7024   */\n      and\n        /* \"#utility.yul\":7043:7061   */\n      dup1\n        /* \"#utility.yul\":7033:7114   */\n      tag_273\n      jumpi\n        /* \"#utility.yul\":7099:7103   */\n      0x7f\n        /* \"#utility.yul\":7091:7097   */\n      dup3\n        /* \"#utility.yul\":7087:7104   */\n      and\n        /* \"#utility.yul\":7077:7104   */\n      swap2\n      pop\n        /* \"#utility.yul\":7033:7114   */\n    tag_273:\n        /* \"#utility.yul\":7161:7163   */\n      0x20\n        /* \"#utility.yul\":7153:7159   */\n      dup3\n        /* \"#utility.yul\":7150:7164   */\n      lt\n        /* \"#utility.yul\":7130:7148   */\n      dup2\n        /* \"#utility.yul\":7127:7165   */\n      sub\n        /* \"#utility.yul\":7124:7208   */\n      tag_274\n      jumpi\n        /* \"#utility.yul\":7180:7198   */\n      tag_275\n      tag_181\n      jump\t// in\n    tag_275:\n        /* \"#utility.yul\":7124:7208   */\n    tag_274:\n        /* \"#utility.yul\":6945:7214   */\n      pop\n        /* \"#utility.yul\":6894:7214   */\n      swap2\n      swap1\n      pop\n      jump\t// out\n        /* \"#utility.yul\":7220:7379   */\n    tag_182:\n        /* \"#utility.yul\":7360:7371   */\n      0x455243373231203a200000000000000000000000000000000000000000000000\n        /* \"#utility.yul\":7356:7357   */\n      0x00\n        /* \"#utility.yul\":7348:7354   */\n      dup3\n        /* \"#utility.yul\":7344:7358   */\n      add\n        /* \"#utility.yul\":7337:7372   */\n      mstore\n        /* \"#utility.yul\":7220:7379   */\n      pop\n      jump\t// out\n        /* \"#utility.yul\":7385:7750   */\n    tag_183:\n        /* \"#utility.yul\":7527:7530   */\n      0x00\n        /* \"#utility.yul\":7548:7614   */\n      tag_278\n        /* \"#utility.yul\":7612:7613   */\n      0x09\n        /* \"#utility.yul\":7607:7610   */\n      dup4\n        /* \"#utility.yul\":7548:7614   */\n      tag_161\n      jump\t// in\n    tag_278:\n        /* \"#utility.yul\":7541:7614   */\n      swap2\n      pop\n        /* \"#utility.yul\":7623:7716   */\n      tag_279\n        /* \"#utility.yul\":7712:7715   */\n      dup3\n        /* \"#utility.yul\":7623:7716   */\n      tag_182\n      jump\t// in\n    tag_279:\n        /* \"#utility.yul\":7741:7743   */\n      0x20\n        /* \"#utility.yul\":7736:7739   */\n      dup3\n        /* \"#utility.yul\":7732:7744   */\n      add\n        /* \"#utility.yul\":7725:7744   */\n      swap1\n      pop\n        /* \"#utility.yul\":7385:7750   */\n      swap2\n      swap1\n      pop\n      jump\t// out\n        /* \"#utility.yul\":7756:8175   */\n    tag_92:\n        /* \"#utility.yul\":7922:7926   */\n      0x00\n        /* \"#utility.yul\":7960:7962   */\n      0x20\n        /* \"#utility.yul\":7949:7958   */\n      dup3\n        /* \"#utility.yul\":7945:7963   */\n      add\n        /* \"#utility.yul\":7937:7963   */\n      swap1\n      pop\n        /* \"#utility.yul\":8009:8018   */\n      dup2\n        /* \"#utility.yul\":8003:8007   */\n      dup2\n        /* \"#utility.yul\":7999:8019   */\n      sub\n        /* \"#utility.yul\":7995:7996   */\n      0x00\n        /* \"#utility.yul\":7984:7993   */\n      dup4\n        /* \"#utility.yul\":7980:7997   */\n      add\n        /* \"#utility.yul\":7973:8020   */\n      mstore\n        /* \"#utility.yul\":8037:8168   */\n      tag_281\n        /* \"#utility.yul\":8163:8167   */\n      dup2\n        /* \"#utility.yul\":8037:8168   */\n      tag_183\n      jump\t// in\n    tag_281:\n        /* \"#utility.yul\":8029:8168   */\n      swap1\n      pop\n        /* \"#utility.yul\":7756:8175   */\n      swap2\n      swap1\n      pop\n      jump\t// out\n        /* \"#utility.yul\":8181:8402   */\n    tag_184:\n        /* \"#utility.yul\":8321:8355   */\n      0x455243373231203a20617070726f76616c20746f2063757272656e74206f776e\n        /* \"#utility.yul\":8317:8318   */\n      0x00\n        /* \"#utility.yul\":8309:8315   */\n      dup3\n        /* \"#utility.yul\":8305:8319   */\n      add\n        /* \"#utility.yul\":8298:8356   */\n      mstore\n        /* \"#utility.yul\":8390:8394   */\n      0x6572000000000000000000000000000000000000000000000000000000000000\n        /* \"#utility.yul\":8385:8387   */\n      0x20\n        /* \"#utility.yul\":8377:8383   */\n      dup3\n        /* \"#utility.yul\":8373:8388   */\n      add\n        /* \"#utility.yul\":8366:8395   */\n      mstore\n        /* \"#utility.yul\":8181:8402   */\n      pop\n      jump\t// out\n        /* \"#utility.yul\":8408:8774   */\n    tag_185:\n        /* \"#utility.yul\":8550:8553   */\n      0x00\n        /* \"#utility.yul\":8571:8638   */\n      tag_284\n        /* \"#utility.yul\":8635:8637   */\n      0x22\n        /* \"#utility.yul\":8630:8633   */\n      dup4\n        /* \"#utility.yul\":8571:8638   */\n      tag_161\n      jump\t// in\n    tag_284:\n        /* \"#utility.yul\":8564:8638   */\n      swap2\n      pop\n        /* \"#utility.yul\":8647:8740   */\n      tag_285\n        /* \"#utility.yul\":8736:8739   */\n      dup3\n        /* \"#utility.yul\":8647:8740   */\n      tag_184\n      jump\t// in\n    tag_285:\n        /* \"#utility.yul\":8765:8767   */\n      0x40\n        /* \"#utility.yul\":8760:8763   */\n      dup3\n        /* \"#utility.yul\":8756:8768   */\n      add\n        /* \"#utility.yul\":8749:8768   */\n      swap1\n      pop\n        /* \"#utility.yul\":8408:8774   */\n      swap2\n      swap1\n      pop\n      jump\t// out\n        /* \"#utility.yul\":8780:9199   */\n    tag_96:\n        /* \"#utility.yul\":8946:8950   */\n      0x00\n        /* \"#utility.yul\":8984:8986   */\n      0x20\n        /* \"#utility.yul\":8973:8982   */\n      dup3\n        /* \"#utility.yul\":8969:8987   */\n      add\n        /* \"#utility.yul\":8961:8987   */\n      swap1\n      pop\n        /* \"#utility.yul\":9033:9042   */\n      dup2\n        /* \"#utility.yul\":9027:9031   */\n      dup2\n        /* \"#utility.yul\":9023:9043   */\n      sub\n        /* \"#utility.yul\":9019:9020   */\n      0x00\n        /* \"#utility.yul\":9008:9017   */\n      dup4\n        /* \"#utility.yul\":9004:9021   */\n      add\n        /* \"#utility.yul\":8997:9044   */\n      mstore\n        /* \"#utility.yul\":9061:9192   */\n      tag_287\n        /* \"#utility.yul\":9187:9191   */\n      dup2\n        /* \"#utility.yul\":9061:9192   */\n      tag_185\n      jump\t// in\n    tag_287:\n        /* \"#utility.yul\":9053:9192   */\n      swap1\n      pop\n        /* \"#utility.yul\":8780:9199   */\n      swap2\n      swap1\n      pop\n      jump\t// out\n        /* \"#utility.yul\":9205:9385   */\n    tag_186:\n        /* \"#utility.yul\":9253:9330   */\n      0x4e487b7100000000000000000000000000000000000000000000000000000000\n        /* \"#utility.yul\":9250:9251   */\n      0x00\n        /* \"#utility.yul\":9243:9331   */\n      mstore\n        /* \"#utility.yul\":9350:9354   */\n      0x11\n        /* \"#utility.yul\":9347:9348   */\n      0x04\n        /* \"#utility.yul\":9340:9355   */\n      mstore\n        /* \"#utility.yul\":9374:9378   */\n      0x24\n        /* \"#utility.yul\":9371:9372   */\n      0x00\n        /* \"#utility.yul\":9364:9379   */\n      revert\n        /* \"#utility.yul\":9391:9582   */\n    tag_107:\n        /* \"#utility.yul\":9431:9435   */\n      0x00\n        /* \"#utility.yul\":9451:9471   */\n      tag_290\n        /* \"#utility.yul\":9469:9470   */\n      dup3\n        /* \"#utility.yul\":9451:9471   */\n      tag_168\n      jump\t// in\n    tag_290:\n        /* \"#utility.yul\":9446:9471   */\n      swap2\n      pop\n        /* \"#utility.yul\":9485:9505   */\n      tag_291\n        /* \"#utility.yul\":9503:9504   */\n      dup4\n        /* \"#utility.yul\":9485:9505   */\n      tag_168\n      jump\t// in\n    tag_291:\n        /* \"#utility.yul\":9480:9505   */\n      swap3\n      pop\n        /* \"#utility.yul\":9524:9525   */\n      dup3\n        /* \"#utility.yul\":9521:9522   */\n      dup3\n        /* \"#utility.yul\":9518:9526   */\n      lt\n        /* \"#utility.yul\":9515:9549   */\n      iszero\n      tag_292\n      jumpi\n        /* \"#utility.yul\":9529:9547   */\n      tag_293\n      tag_186\n      jump\t// in\n    tag_293:\n        /* \"#utility.yul\":9515:9549   */\n    tag_292:\n        /* \"#utility.yul\":9574:9575   */\n      dup3\n        /* \"#utility.yul\":9571:9572   */\n      dup3\n        /* \"#utility.yul\":9567:9576   */\n      sub\n        /* \"#utility.yul\":9559:9576   */\n      swap1\n      pop\n        /* \"#utility.yul\":9391:9582   */\n      swap3\n      swap2\n      pop\n      pop\n      jump\t// out\n        /* \"#utility.yul\":9588:9893   */\n    tag_109:\n        /* \"#utility.yul\":9628:9631   */\n      0x00\n        /* \"#utility.yul\":9647:9667   */\n      tag_295\n        /* \"#utility.yul\":9665:9666   */\n      dup3\n        /* \"#utility.yul\":9647:9667   */\n      tag_168\n      jump\t// in\n    tag_295:\n        /* \"#utility.yul\":9642:9667   */\n      swap2\n      pop\n        /* \"#utility.yul\":9681:9701   */\n      tag_296\n        /* \"#utility.yul\":9699:9700   */\n      dup4\n        /* \"#utility.yul\":9681:9701   */\n      tag_168\n      jump\t// in\n    tag_296:\n        /* \"#utility.yul\":9676:9701   */\n      swap3\n      pop\n        /* \"#utility.yul\":9835:9836   */\n      dup3\n        /* \"#utility.yul\":9767:9833   */\n      0xffffffffffffffffffffffffffffffffffffffffffffffffffffffffffffffff\n        /* \"#utility.yul\":9763:9837   */\n      sub\n        /* \"#utility.yul\":9760:9761   */\n      dup3\n        /* \"#utility.yul\":9757:9838   */\n      gt\n        /* \"#utility.yul\":9754:9861   */\n      iszero\n      tag_297\n      jumpi\n        /* \"#utility.yul\":9841:9859   */\n      tag_298\n      tag_186\n      jump\t// in\n    tag_298:\n        /* \"#utility.yul\":9754:9861   */\n    tag_297:\n        /* \"#utility.yul\":9885:9886   */\n      dup3\n        /* \"#utility.yul\":9882:9883   */\n      dup3\n        /* \"#utility.yul\":9878:9887   */\n      add\n        /* \"#utility.yul\":9871:9887   */\n      swap1\n      pop\n        /* \"#utility.yul\":9588:9893   */\n      swap3\n      swap2\n      pop\n      pop\n      jump\t// out\n        /* \"#utility.yul\":9899:10079   */\n    tag_124:\n        /* \"#utility.yul\":9947:10024   */\n      0x4e487b7100000000000000000000000000000000000000000000000000000000\n        /* \"#utility.yul\":9944:9945   */\n      0x00\n        /* \"#utility.yul\":9937:10025   */\n      mstore\n        /* \"#utility.yul\":10044:10048   */\n      0x32\n        /* \"#utility.yul\":10041:10042   */\n      0x04\n        /* \"#utility.yul\":10034:10049   */\n      mstore\n        /* \"#utility.yul\":10068:10072   */\n      0x24\n        /* \"#utility.yul\":10065:10066   */\n      0x00\n        /* \"#utility.yul\":10058:10073   */\n      revert\n        /* \"#utility.yul\":10085:10318   */\n    tag_187:\n        /* \"#utility.yul\":10225:10259   */\n      0x455243373231203a206f776e657220717565727920666f7220746865206e6f6e\n        /* \"#utility.yul\":10221:10222   */\n      0x00\n        /* \"#utility.yul\":10213:10219   */\n      dup3\n        /* \"#utility.yul\":10209:10223   */\n      add\n        /* \"#utility.yul\":10202:10260   */\n      mstore\n        /* \"#utility.yul\":10294:10310   */\n      0x6578697374656e7420746f6b656e000000000000000000000000000000000000\n        /* \"#utility.yul\":10289:10291   */\n      0x20\n        /* \"#utility.yul\":10281:10287   */\n      dup3\n        /* \"#utility.yul\":10277:10292   */\n      add\n        /* \"#utility.yul\":10270:10311   */\n      mstore\n        /* \"#utility.yul\":10085:10318   */\n      pop\n      jump\t// out\n        /* \"#utility.yul\":10324:10690   */\n    tag_188:\n        /* \"#utility.yul\":10466:10469   */\n      0x00\n        /* \"#utility.yul\":10487:10554   */\n      tag_302\n        /* \"#utility.yul\":10551:10553   */\n      0x2e\n        /* \"#utility.yul\":10546:10549   */\n      dup4\n        /* \"#utility.yul\":10487:10554   */\n      tag_161\n      jump\t// in\n    tag_302:\n        /* \"#utility.yul\":10480:10554   */\n      swap2\n      pop\n        /* \"#utility.yul\":10563:10656   */\n      tag_303\n        /* \"#utility.yul\":10652:10655   */\n      dup3\n        /* \"#utility.yul\":10563:10656   */\n      tag_187\n      jump\t// in\n    tag_303:\n        /* \"#utility.yul\":10681:10683   */\n      0x40\n        /* \"#utility.yul\":10676:10679   */\n      dup3\n        /* \"#utility.yul\":10672:10684   */\n      add\n        /* \"#utility.yul\":10665:10684   */\n      swap1\n      pop\n        /* \"#utility.yul\":10324:10690   */\n      swap2\n      swap1\n      pop\n      jump\t// out\n        /* \"#utility.yul\":10696:11115   */\n    tag_129:\n        /* \"#utility.yul\":10862:10866   */\n      0x00\n        /* \"#utility.yul\":10900:10902   */\n      0x20\n        /* \"#utility.yul\":10889:10898   */\n      dup3\n        /* \"#utility.yul\":10885:10903   */\n      add\n        /* \"#utility.yul\":10877:10903   */\n      swap1\n      pop\n        /* \"#utility.yul\":10949:10958   */\n      dup2\n        /* \"#utility.yul\":10943:10947   */\n      dup2\n        /* \"#utility.yul\":10939:10959   */\n      sub\n        /* \"#utility.yul\":10935:10936   */\n      0x00\n        /* \"#utility.yul\":10924:10933   */\n      dup4\n        /* \"#utility.yul\":10920:10937   */\n      add\n        /* \"#utility.yul\":10913:10960   */\n      mstore\n        /* \"#utility.yul\":10977:11108   */\n      tag_305\n        /* \"#utility.yul\":11103:11107   */\n      dup2\n        /* \"#utility.yul\":10977:11108   */\n      tag_188\n      jump\t// in\n    tag_305:\n        /* \"#utility.yul\":10969:11108   */\n      swap1\n      pop\n        /* \"#utility.yul\":10696:11115   */\n      swap2\n      swap1\n      pop\n      jump\t// out\n        /* \"#utility.yul\":11121:11351   */\n    tag_189:\n        /* \"#utility.yul\":11261:11295   */\n      0x455243373231203a2062616c616e636520717565727920666f7220746865207a\n        /* \"#utility.yul\":11257:11258   */\n      0x00\n        /* \"#utility.yul\":11249:11255   */\n      dup3\n        /* \"#utility.yul\":11245:11259   */\n      add\n        /* \"#utility.yul\":11238:11296   */\n      mstore\n        /* \"#utility.yul\":11330:11343   */\n      0x65726f2061646472657373000000000000000000000000000000000000000000\n        /* \"#utility.yul\":11325:11327   */\n      0x20\n        /* \"#utility.yul\":11317:11323   */\n      dup3\n        /* \"#utility.yul\":11313:11328   */\n      add\n        /* \"#utility.yul\":11306:11344   */\n      mstore\n        /* \"#utility.yul\":11121:11351   */\n      pop\n      jump\t// out\n        /* \"#utility.yul\":11357:11723   */\n    tag_190:\n        /* \"#utility.yul\":11499:11502   */\n      0x00\n        /* \"#utility.yul\":11520:11587   */\n      tag_308\n        /* \"#utility.yul\":11584:11586   */\n      0x2b\n        /* \"#utility.yul\":11579:11582   */\n      dup4\n        /* \"#utility.yul\":11520:11587   */\n      tag_161\n      jump\t// in\n    tag_308:\n        /* \"#utility.yul\":11513:11587   */\n      swap2\n      pop\n        /* \"#utility.yul\":11596:11689   */\n      tag_309\n        /* \"#utility.yul\":11685:11688   */\n      dup3\n        /* \"#utility.yul\":11596:11689   */\n      tag_189\n      jump\t// in\n    tag_309:\n        /* \"#utility.yul\":11714:11716   */\n      0x40\n        /* \"#utility.yul\":11709:11712   */\n      dup3\n        /* \"#utility.yul\":11705:11717   */\n      add\n        /* \"#utility.yul\":11698:11717   */\n      swap1\n      pop\n        /* \"#utility.yul\":11357:11723   */\n      swap2\n      swap1\n      pop\n      jump\t// out\n        /* \"#utility.yul\":11729:12148   */\n    tag_135:\n        /* \"#utility.yul\":11895:11899   */\n      0x00\n        /* \"#utility.yul\":11933:11935   */\n      0x20\n        /* \"#utility.yul\":11922:11931   */\n      dup3\n        /* \"#utility.yul\":11918:11936   */\n      add\n        /* \"#utility.yul\":11910:11936   */\n      swap1\n      pop\n        /* \"#utility.yul\":11982:11991   */\n      dup2\n        /* \"#utility.yul\":11976:11980   */\n      dup2\n        /* \"#utility.yul\":11972:11992   */\n      sub\n        /* \"#utility.yul\":11968:11969   */\n      0x00\n        /* \"#utility.yul\":11957:11966   */\n      dup4\n        /* \"#utility.yul\":11953:11970   */\n      add\n        /* \"#utility.yul\":11946:11993   */\n      mstore\n        /* \"#utility.yul\":12010:12141   */\n      tag_311\n        /* \"#utility.yul\":12136:12140   */\n      dup2\n        /* \"#utility.yul\":12010:12141   */\n      tag_190\n      jump\t// in\n    tag_311:\n        /* \"#utility.yul\":12002:12141   */\n      swap1\n      pop\n        /* \"#utility.yul\":11729:12148   */\n      swap2\n      swap1\n      pop\n      jump\t// out\n\n    auxdata: 0xa2646970667358221220b63e34d8e286ce3fefcd3446d05dd25655daa1cb4ead5c6b4a97b69c5b54533264736f6c634300080f0033\n}\n",
				"bytecode": {
					"linkReferences": {},
					"object": "60806040523480156200001157600080fd5b5060405162001e9e38038062001e9e833981810160405281019062000037919062000204565b818181600090816200004a9190620004d4565b5080600190816200005c9190620004d4565b5050505050620005bb565b6000604051905090565b600080fd5b600080fd5b600080fd5b600080fd5b6000601f19601f8301169050919050565b7f4e487b7100000000000000000000000000000000000000000000000000000000600052604160045260246000fd5b620000d08262000085565b810181811067ffffffffffffffff82111715620000f257620000f162000096565b5b80604052505050565b60006200010762000067565b9050620001158282620000c5565b919050565b600067ffffffffffffffff82111562000138576200013762000096565b5b620001438262000085565b9050602081019050919050565b60005b838110156200017057808201518184015260208101905062000153565b8381111562000180576000848401525b50505050565b60006200019d62000197846200011a565b620000fb565b905082815260208101848484011115620001bc57620001bb62000080565b5b620001c984828562000150565b509392505050565b600082601f830112620001e957620001e86200007b565b5b8151620001fb84826020860162000186565b91505092915050565b600080604083850312156200021e576200021d62000071565b5b600083015167ffffffffffffffff8111156200023f576200023e62000076565b5b6200024d85828601620001d1565b925050602083015167ffffffffffffffff81111562000271576200027062000076565b5b6200027f85828601620001d1565b9150509250929050565b600081519050919050565b7f4e487b7100000000000000000000000000000000000000000000000000000000600052602260045260246000fd5b60006002820490506001821680620002dc57607f821691505b602082108103620002f257620002f162000294565b5b50919050565b60008190508160005260206000209050919050565b60006020601f8301049050919050565b600082821b905092915050565b6000600883026200035c7fffffffffffffffffffffffffffffffffffffffffffffffffffffffffffffffff826200031d565b6200036886836200031d565b95508019841693508086168417925050509392505050565b6000819050919050565b6000819050919050565b6000620003b5620003af620003a98462000380565b6200038a565b62000380565b9050919050565b6000819050919050565b620003d18362000394565b620003e9620003e082620003bc565b8484546200032a565b825550505050565b600090565b62000400620003f1565b6200040d818484620003c6565b505050565b5b81811015620004355762000429600082620003f6565b60018101905062000413565b5050565b601f82111562000484576200044e81620002f8565b62000459846200030d565b8101602085101562000469578190505b6200048162000478856200030d565b83018262000412565b50505b505050565b600082821c905092915050565b6000620004a96000198460080262000489565b1980831691505092915050565b6000620004c4838362000496565b9150826002028217905092915050565b620004df8262000289565b67ffffffffffffffff811115620004fb57620004fa62000096565b5b620005078254620002c3565b6200051482828562000439565b600060209050601f8311600181146200054c576000841562000537578287015190505b620005438582620004b6565b865550620005b3565b601f1984166200055c86620002f8565b60005b8281101562000586578489015182556001820191506020850194506020810190506200055f565b86831015620005a65784890151620005a2601f89168262000496565b8355505b6001600288020188555050505b505050505050565b6118d380620005cb6000396000f3fe608060405234801561001057600080fd5b50600436106100f55760003560e01c80634f6ccce71161009757806395d89b411161006657806395d89b4114610296578063a22cb465146102b4578063c87b56dd146102d0578063e985e9c514610300576100f5565b80634f6ccce7146101ea5780636352211e1461021a5780636a6278421461024a57806370a0823114610266576100f5565b806318160ddd116100d357806318160ddd1461016457806323b872dd146101825780632f745c591461019e5780634e6ec247146101ce576100f5565b806306fdde03146100fa578063081812fc14610118578063095ea7b314610148575b600080fd5b610102610330565b60405161010f9190611255565b60405180910390f35b610132600480360381019061012d91906112b2565b6103be565b60405161013f9190611320565b60405180910390f35b610162600480360381019061015d9190611367565b61049c565b005b61016c61063d565b60405161017991906113b6565b60405180910390f35b61019c600480360381019061019791906113d1565b61064a565b005b6101b860048036038101906101b39190611367565b610800565b6040516101c591906113b6565b60405180910390f35b6101e860048036038101906101e39190611367565b61086f565b005b61020460048036038101906101ff91906112b2565b610a2f565b60405161021191906113b6565b60405180910390f35b610234600480360381019061022f91906112b2565b610a68565b6040516102419190611320565b60405180910390f35b610264600480360381019061025f9190611424565b610b4c565b005b610280600480360381019061027b9190611424565b610b5e565b60405161028d91906113b6565b60405180910390f35b61029e610c15565b6040516102ab9190611255565b60405180910390f35b6102ce60048036038101906102c99190611489565b610ca3565b005b6102ea60048036038101906102e591906112b2565b610dd8565b6040516102f79190611255565b60405180910390f35b61031a600480360381019061031591906114c9565b610ddf565b6040516103279190611518565b60405180910390f35b6000805461033d90611562565b80601f016020809104026020016040519081016040528092919081815260200182805461036990611562565b80156103b65780601f1061038b576101008083540402835291602001916103b6565b820191906000526020600020905b81548152906001019060200180831161039957829003601f168201915b505050505081565b60008073ffffffffffffffffffffffffffffffffffffffff166003600084815260200190815260200160002060009054906101000a900473ffffffffffffffffffffffffffffffffffffffff1673ffffffffffffffffffffffffffffffffffffffff1603610461576040517f08c379a0000000000000000000000000000000000000000000000000000000008152600401610458906115df565b60405180910390fd5b6004600083815260200190815260200160002060009054906101000a900473ffffffffffffffffffffffffffffffffffffffff169050919050565b60006003600083815260200190815260200160002060009054906101000a900473ffffffffffffffffffffffffffffffffffffffff1690508073ffffffffffffffffffffffffffffffffffffffff168373ffffffffffffffffffffffffffffffffffffffff1603610542576040517f08c379a000000000000000000000000000000000000000000000000000000000815260040161053990611671565b60405180910390fd5b8073ffffffffffffffffffffffffffffffffffffffff163373ffffffffffffffffffffffffffffffffffffffff16148061058257506105818133610ddf565b5b61058b57600080fd5b826004600084815260200190815260200160002060006101000a81548173ffffffffffffffffffffffffffffffffffffffff021916908373ffffffffffffffffffffffffffffffffffffffff160217905550818373ffffffffffffffffffffffffffffffffffffffff168273ffffffffffffffffffffffffffffffffffffffff167f8c5be1e5ebec7d5bd14f71427d1e84f3dd0314c0f7b2291e5b200ac8c7c3b92560405160405180910390a4505050565b6000600680549050905090565b6106548382610e73565b61065d57600080fd5b8173ffffffffffffffffffffffffffffffffffffffff168373ffffffffffffffffffffffffffffffffffffffff160361069557600080fd5b6001600260008573ffffffffffffffffffffffffffffffffffffffff1673ffffffffffffffffffffffffffffffffffffffff16815260200190815260200160002060008282546106e591906116c0565b925050819055506001600260008473ffffffffffffffffffffffffffffffffffffffff1673ffffffffffffffffffffffffffffffffffffffff168152602001908152602001600020600082825461073c91906116f4565b92505081905550816003600083815260200190815260200160002060006101000a81548173ffffffffffffffffffffffffffffffffffffffff021916908373ffffffffffffffffffffffffffffffffffffffff1602179055506107a0838383610f6c565b808273ffffffffffffffffffffffffffffffffffffffff168473ffffffffffffffffffffffffffffffffffffffff167fddf252ad1be2c89b69c2b068fc378daa952ba7f163c4a11628f55a4df523b3ef60405160405180910390a4505050565b600061080b83610b5e565b821061081657600080fd5b600760008473ffffffffffffffffffffffffffffffffffffffff1673ffffffffffffffffffffffffffffffffffffffff168152602001908152602001600020600083815260200190815260200160002054905092915050565b600073ffffffffffffffffffffffffffffffffffffffff168273ffffffffffffffffffffffffffffffffffffffff16036108a857600080fd5b60006003600083815260200190815260200160002060009054906101000a900473ffffffffffffffffffffffffffffffffffffffff169050600073ffffffffffffffffffffffffffffffffffffffff168173ffffffffffffffffffffffffffffffffffffffff161461091957600080fd5b61092560008484610f6c565b6001600260008573ffffffffffffffffffffffffffffffffffffffff1673ffffffffffffffffffffffffffffffffffffffff168152602001908152602001600020600082825461097591906116f4565b92505081905550826003600084815260200190815260200160002060006101000a81548173ffffffffffffffffffffffffffffffffffffffff021916908373ffffffffffffffffffffffffffffffffffffffff160217905550818373ffffffffffffffffffffffffffffffffffffffff16600073ffffffffffffffffffffffffffffffffffffffff167fddf252ad1be2c89b69c2b068fc378daa952ba7f163c4a11628f55a4df523b3ef60405160405180910390a4505050565b60006006805490508210610a4257600080fd5b60068281548110610a5657610a5561174a565b5b90600052602060002001549050919050565b6000806003600084815260200190815260200160002060009054906101000a900473ffffffffffffffffffffffffffffffffffffffff169050600073ffffffffffffffffffffffffffffffffffffffff168173ffffffffffffffffffffffffffffffffffffffff1603610b10576040517f08c379a0000000000000000000000000000000000000000000000000000000008152600401610b07906117eb565b60405180910390fd5b6003600084815260200190815260200160002060009054906101000a900473ffffffffffffffffffffffffffffffffffffffff16915050919050565b610b5b8160068054905061086f565b50565b60008073ffffffffffffffffffffffffffffffffffffffff168273ffffffffffffffffffffffffffffffffffffffff1603610bce576040517f08c379a0000000000000000000000000000000000000000000000000000000008152600401610bc59061187d565b60405180910390fd5b600260008373ffffffffffffffffffffffffffffffffffffffff1673ffffffffffffffffffffffffffffffffffffffff168152602001908152602001600020549050919050565b60018054610c2290611562565b80601f0160208091040260200160405190810160405280929190818152602001828054610c4e90611562565b8015610c9b5780601f10610c7057610100808354040283529160200191610c9b565b820191906000526020600020905b815481529060010190602001808311610c7e57829003601f168201915b505050505081565b8173ffffffffffffffffffffffffffffffffffffffff163373ffffffffffffffffffffffffffffffffffffffff1603610cdb57600080fd5b80600560003373ffffffffffffffffffffffffffffffffffffffff1673ffffffffffffffffffffffffffffffffffffffff16815260200190815260200160002060008473ffffffffffffffffffffffffffffffffffffffff1673ffffffffffffffffffffffffffffffffffffffff16815260200190815260200160002060006101000a81548160ff0219169083151502179055508173ffffffffffffffffffffffffffffffffffffffff163373ffffffffffffffffffffffffffffffffffffffff167f17307eab39ab6107e8899845ad3d59bd9653f200f220920489ca2b5937696c3183604051610dcc9190611518565b60405180910390a35050565b6060919050565b6000600560008473ffffffffffffffffffffffffffffffffffffffff1673ffffffffffffffffffffffffffffffffffffffff16815260200190815260200160002060008373ffffffffffffffffffffffffffffffffffffffff1673ffffffffffffffffffffffffffffffffffffffff16815260200190815260200160002060009054906101000a900460ff16905092915050565b6000806003600084815260200190815260200160002060009054906101000a900473ffffffffffffffffffffffffffffffffffffffff169050600073ffffffffffffffffffffffffffffffffffffffff168173ffffffffffffffffffffffffffffffffffffffff1603610ee557600080fd5b8073ffffffffffffffffffffffffffffffffffffffff168473ffffffffffffffffffffffffffffffffffffffff161480610f255750610f248185610ddf565b5b80610f6357508373ffffffffffffffffffffffffffffffffffffffff16610f4b846103be565b73ffffffffffffffffffffffffffffffffffffffff16145b91505092915050565b600073ffffffffffffffffffffffffffffffffffffffff168373ffffffffffffffffffffffffffffffffffffffff1603610fd25760068080549050908060018154018082558091505060019003906000526020600020016000909190919091505561113c565b60006001610fdf85610b5e565b610fe991906116c0565b90506000600860008481526020019081526020016000205490508181146110ce576000600760008773ffffffffffffffffffffffffffffffffffffffff1673ffffffffffffffffffffffffffffffffffffffff168152602001908152602001600020600084815260200190815260200160002054905080600760008873ffffffffffffffffffffffffffffffffffffffff1673ffffffffffffffffffffffffffffffffffffffff168152602001908152602001600020600084815260200190815260200160002081905550816008600083815260200190815260200160002081905550505b600760008673ffffffffffffffffffffffffffffffffffffffff1673ffffffffffffffffffffffffffffffffffffffff168152602001908152602001600020600083815260200190815260200160002060009055600860008481526020019081526020016000206000905550505b600061114783610b5e565b905081600760008573ffffffffffffffffffffffffffffffffffffffff1673ffffffffffffffffffffffffffffffffffffffff16815260200190815260200160002060008381526020019081526020016000208190555080600860008481526020019081526020016000208190555050505050565b600081519050919050565b600082825260208201905092915050565b60005b838110156111f65780820151818401526020810190506111db565b83811115611205576000848401525b50505050565b6000601f19601f8301169050919050565b6000611227826111bc565b61123181856111c7565b93506112418185602086016111d8565b61124a8161120b565b840191505092915050565b6000602082019050818103600083015261126f818461121c565b905092915050565b600080fd5b6000819050919050565b61128f8161127c565b811461129a57600080fd5b50565b6000813590506112ac81611286565b92915050565b6000602082840312156112c8576112c7611277565b5b60006112d68482850161129d565b91505092915050565b600073ffffffffffffffffffffffffffffffffffffffff82169050919050565b600061130a826112df565b9050919050565b61131a816112ff565b82525050565b60006020820190506113356000830184611311565b92915050565b611344816112ff565b811461134f57600080fd5b50565b6000813590506113618161133b565b92915050565b6000806040838503121561137e5761137d611277565b5b600061138c85828601611352565b925050602061139d8582860161129d565b9150509250929050565b6113b08161127c565b82525050565b60006020820190506113cb60008301846113a7565b92915050565b6000806000606084860312156113ea576113e9611277565b5b60006113f886828701611352565b935050602061140986828701611352565b925050604061141a8682870161129d565b9150509250925092565b60006020828403121561143a57611439611277565b5b600061144884828501611352565b91505092915050565b60008115159050919050565b61146681611451565b811461147157600080fd5b50565b6000813590506114838161145d565b92915050565b600080604083850312156114a05761149f611277565b5b60006114ae85828601611352565b92505060206114bf85828601611474565b9150509250929050565b600080604083850312156114e0576114df611277565b5b60006114ee85828601611352565b92505060206114ff85828601611352565b9150509250929050565b61151281611451565b82525050565b600060208201905061152d6000830184611509565b92915050565b7f4e487b7100000000000000000000000000000000000000000000000000000000600052602260045260246000fd5b6000600282049050600182168061157a57607f821691505b60208210810361158d5761158c611533565b5b50919050565b7f455243373231203a200000000000000000000000000000000000000000000000600082015250565b60006115c96009836111c7565b91506115d482611593565b602082019050919050565b600060208201905081810360008301526115f8816115bc565b9050919050565b7f455243373231203a20617070726f76616c20746f2063757272656e74206f776e60008201527f6572000000000000000000000000000000000000000000000000000000000000602082015250565b600061165b6022836111c7565b9150611666826115ff565b604082019050919050565b6000602082019050818103600083015261168a8161164e565b9050919050565b7f4e487b7100000000000000000000000000000000000000000000000000000000600052601160045260246000fd5b60006116cb8261127c565b91506116d68361127c565b9250828210156116e9576116e8611691565b5b828203905092915050565b60006116ff8261127c565b915061170a8361127c565b9250827fffffffffffffffffffffffffffffffffffffffffffffffffffffffffffffffff0382111561173f5761173e611691565b5b828201905092915050565b7f4e487b7100000000000000000000000000000000000000000000000000000000600052603260045260246000fd5b7f455243373231203a206f776e657220717565727920666f7220746865206e6f6e60008201527f6578697374656e7420746f6b656e000000000000000000000000000000000000602082015250565b60006117d5602e836111c7565b91506117e082611779565b604082019050919050565b60006020820190508181036000830152611804816117c8565b9050919050565b7f455243373231203a2062616c616e636520717565727920666f7220746865207a60008201527f65726f2061646472657373000000000000000000000000000000000000000000602082015250565b6000611867602b836111c7565b91506118728261180b565b604082019050919050565b600060208201905081810360008301526118968161185a565b905091905056fea2646970667358221220b63e34d8e286ce3fefcd3446d05dd25655daa1cb4ead5c6b4a97b69c5b54533264736f6c634300080f0033",
					"opcodes": "PUSH1 0x80 PUSH1 0x40 MSTORE CALLVALUE DUP1 ISZERO PUSH3 0x11 JUMPI PUSH1 0x0 DUP1 REVERT JUMPDEST POP PUSH1 0x40 MLOAD PUSH3 0x1E9E CODESIZE SUB DUP1 PUSH3 0x1E9E DUP4 CODECOPY DUP2 DUP2 ADD PUSH1 0x40 MSTORE DUP2 ADD SWAP1 PUSH3 0x37 SWAP2 SWAP1 PUSH3 0x204 JUMP JUMPDEST DUP2 DUP2 DUP2 PUSH1 0x0 SWAP1 DUP2 PUSH3 0x4A SWAP2 SWAP1 PUSH3 0x4D4 JUMP JUMPDEST POP DUP1 PUSH1 0x1 SWAP1 DUP2 PUSH3 0x5C SWAP2 SWAP1 PUSH3 0x4D4 JUMP JUMPDEST POP POP POP POP POP PUSH3 0x5BB JUMP JUMPDEST PUSH1 0x0 PUSH1 0x40 MLOAD SWAP1 POP SWAP1 JUMP JUMPDEST PUSH1 0x0 DUP1 REVERT JUMPDEST PUSH1 0x0 DUP1 REVERT JUMPDEST PUSH1 0x0 DUP1 REVERT JUMPDEST PUSH1 0x0 DUP1 REVERT JUMPDEST PUSH1 0x0 PUSH1 0x1F NOT PUSH1 0x1F DUP4 ADD AND SWAP1 POP SWAP2 SWAP1 POP JUMP JUMPDEST PUSH32 0x4E487B7100000000000000000000000000000000000000000000000000000000 PUSH1 0x0 MSTORE PUSH1 0x41 PUSH1 0x4 MSTORE PUSH1 0x24 PUSH1 0x0 REVERT JUMPDEST PUSH3 0xD0 DUP3 PUSH3 0x85 JUMP JUMPDEST DUP2 ADD DUP2 DUP2 LT PUSH8 0xFFFFFFFFFFFFFFFF DUP3 GT OR ISZERO PUSH3 0xF2 JUMPI PUSH3 0xF1 PUSH3 0x96 JUMP JUMPDEST JUMPDEST DUP1 PUSH1 0x40 MSTORE POP POP POP JUMP JUMPDEST PUSH1 0x0 PUSH3 0x107 PUSH3 0x67 JUMP JUMPDEST SWAP1 POP PUSH3 0x115 DUP3 DUP3 PUSH3 0xC5 JUMP JUMPDEST SWAP2 SWAP1 POP JUMP JUMPDEST PUSH1 0x0 PUSH8 0xFFFFFFFFFFFFFFFF DUP3 GT ISZERO PUSH3 0x138 JUMPI PUSH3 0x137 PUSH3 0x96 JUMP JUMPDEST JUMPDEST PUSH3 0x143 DUP3 PUSH3 0x85 JUMP JUMPDEST SWAP1 POP PUSH1 0x20 DUP2 ADD SWAP1 POP SWAP2 SWAP1 POP JUMP JUMPDEST PUSH1 0x0 JUMPDEST DUP4 DUP2 LT ISZERO PUSH3 0x170 JUMPI DUP1 DUP3 ADD MLOAD DUP2 DUP5 ADD MSTORE PUSH1 0x20 DUP2 ADD SWAP1 POP PUSH3 0x153 JUMP JUMPDEST DUP4 DUP2 GT ISZERO PUSH3 0x180 JUMPI PUSH1 0x0 DUP5 DUP5 ADD MSTORE JUMPDEST POP POP POP POP JUMP JUMPDEST PUSH1 0x0 PUSH3 0x19D PUSH3 0x197 DUP5 PUSH3 0x11A JUMP JUMPDEST PUSH3 0xFB JUMP JUMPDEST SWAP1 POP DUP3 DUP2 MSTORE PUSH1 0x20 DUP2 ADD DUP5 DUP5 DUP5 ADD GT ISZERO PUSH3 0x1BC JUMPI PUSH3 0x1BB PUSH3 0x80 JUMP JUMPDEST JUMPDEST PUSH3 0x1C9 DUP5 DUP3 DUP6 PUSH3 0x150 JUMP JUMPDEST POP SWAP4 SWAP3 POP POP POP JUMP JUMPDEST PUSH1 0x0 DUP3 PUSH1 0x1F DUP4 ADD SLT PUSH3 0x1E9 JUMPI PUSH3 0x1E8 PUSH3 0x7B JUMP JUMPDEST JUMPDEST DUP2 MLOAD PUSH3 0x1FB DUP5 DUP3 PUSH1 0x20 DUP7 ADD PUSH3 0x186 JUMP JUMPDEST SWAP2 POP POP SWAP3 SWAP2 POP POP JUMP JUMPDEST PUSH1 0x0 DUP1 PUSH1 0x40 DUP4 DUP6 SUB SLT ISZERO PUSH3 0x21E JUMPI PUSH3 0x21D PUSH3 0x71 JUMP JUMPDEST JUMPDEST PUSH1 0x0 DUP4 ADD MLOAD PUSH8 0xFFFFFFFFFFFFFFFF DUP2 GT ISZERO PUSH3 0x23F JUMPI PUSH3 0x23E PUSH3 0x76 JUMP JUMPDEST JUMPDEST PUSH3 0x24D DUP6 DUP3 DUP7 ADD PUSH3 0x1D1 JUMP JUMPDEST SWAP3 POP POP PUSH1 0x20 DUP4 ADD MLOAD PUSH8 0xFFFFFFFFFFFFFFFF DUP2 GT ISZERO PUSH3 0x271 JUMPI PUSH3 0x270 PUSH3 0x76 JUMP JUMPDEST JUMPDEST PUSH3 0x27F DUP6 DUP3 DUP7 ADD PUSH3 0x1D1 JUMP JUMPDEST SWAP2 POP POP SWAP3 POP SWAP3 SWAP1 POP JUMP JUMPDEST PUSH1 0x0 DUP2 MLOAD SWAP1 POP SWAP2 SWAP1 POP JUMP JUMPDEST PUSH32 0x4E487B7100000000000000000000000000000000000000000000000000000000 PUSH1 0x0 MSTORE PUSH1 0x22 PUSH1 0x4 MSTORE PUSH1 0x24 PUSH1 0x0 REVERT JUMPDEST PUSH1 0x0 PUSH1 0x2 DUP3 DIV SWAP1 POP PUSH1 0x1 DUP3 AND DUP1 PUSH3 0x2DC JUMPI PUSH1 0x7F DUP3 AND SWAP2 POP JUMPDEST PUSH1 0x20 DUP3 LT DUP2 SUB PUSH3 0x2F2 JUMPI PUSH3 0x2F1 PUSH3 0x294 JUMP JUMPDEST JUMPDEST POP SWAP2 SWAP1 POP JUMP JUMPDEST PUSH1 0x0 DUP2 SWAP1 POP DUP2 PUSH1 0x0 MSTORE PUSH1 0x20 PUSH1 0x0 KECCAK256 SWAP1 POP SWAP2 SWAP1 POP JUMP JUMPDEST PUSH1 0x0 PUSH1 0x20 PUSH1 0x1F DUP4 ADD DIV SWAP1 POP SWAP2 SWAP1 POP JUMP JUMPDEST PUSH1 0x0 DUP3 DUP3 SHL SWAP1 POP SWAP3 SWAP2 POP POP JUMP JUMPDEST PUSH1 0x0 PUSH1 0x8 DUP4 MUL PUSH3 0x35C PUSH32 0xFFFFFFFFFFFFFFFFFFFFFFFFFFFFFFFFFFFFFFFFFFFFFFFFFFFFFFFFFFFFFFFF DUP3 PUSH3 0x31D JUMP JUMPDEST PUSH3 0x368 DUP7 DUP4 PUSH3 0x31D JUMP JUMPDEST SWAP6 POP DUP1 NOT DUP5 AND SWAP4 POP DUP1 DUP7 AND DUP5 OR SWAP3 POP POP POP SWAP4 SWAP3 POP POP POP JUMP JUMPDEST PUSH1 0x0 DUP2 SWAP1 POP SWAP2 SWAP1 POP JUMP JUMPDEST PUSH1 0x0 DUP2 SWAP1 POP SWAP2 SWAP1 POP JUMP JUMPDEST PUSH1 0x0 PUSH3 0x3B5 PUSH3 0x3AF PUSH3 0x3A9 DUP5 PUSH3 0x380 JUMP JUMPDEST PUSH3 0x38A JUMP JUMPDEST PUSH3 0x380 JUMP JUMPDEST SWAP1 POP SWAP2 SWAP1 POP JUMP JUMPDEST PUSH1 0x0 DUP2 SWAP1 POP SWAP2 SWAP1 POP JUMP JUMPDEST PUSH3 0x3D1 DUP4 PUSH3 0x394 JUMP JUMPDEST PUSH3 0x3E9 PUSH3 0x3E0 DUP3 PUSH3 0x3BC JUMP JUMPDEST DUP5 DUP5 SLOAD PUSH3 0x32A JUMP JUMPDEST DUP3 SSTORE POP POP POP POP JUMP JUMPDEST PUSH1 0x0 SWAP1 JUMP JUMPDEST PUSH3 0x400 PUSH3 0x3F1 JUMP JUMPDEST PUSH3 0x40D DUP2 DUP5 DUP5 PUSH3 0x3C6 JUMP JUMPDEST POP POP POP JUMP JUMPDEST JUMPDEST DUP2 DUP2 LT ISZERO PUSH3 0x435 JUMPI PUSH3 0x429 PUSH1 0x0 DUP3 PUSH3 0x3F6 JUMP JUMPDEST PUSH1 0x1 DUP2 ADD SWAP1 POP PUSH3 0x413 JUMP JUMPDEST POP POP JUMP JUMPDEST PUSH1 0x1F DUP3 GT ISZERO PUSH3 0x484 JUMPI PUSH3 0x44E DUP2 PUSH3 0x2F8 JUMP JUMPDEST PUSH3 0x459 DUP5 PUSH3 0x30D JUMP JUMPDEST DUP2 ADD PUSH1 0x20 DUP6 LT ISZERO PUSH3 0x469 JUMPI DUP2 SWAP1 POP JUMPDEST PUSH3 0x481 PUSH3 0x478 DUP6 PUSH3 0x30D JUMP JUMPDEST DUP4 ADD DUP3 PUSH3 0x412 JUMP JUMPDEST POP POP JUMPDEST POP POP POP JUMP JUMPDEST PUSH1 0x0 DUP3 DUP3 SHR SWAP1 POP SWAP3 SWAP2 POP POP JUMP JUMPDEST PUSH1 0x0 PUSH3 0x4A9 PUSH1 0x0 NOT DUP5 PUSH1 0x8 MUL PUSH3 0x489 JUMP JUMPDEST NOT DUP1 DUP4 AND SWAP2 POP POP SWAP3 SWAP2 POP POP JUMP JUMPDEST PUSH1 0x0 PUSH3 0x4C4 DUP4 DUP4 PUSH3 0x496 JUMP JUMPDEST SWAP2 POP DUP3 PUSH1 0x2 MUL DUP3 OR SWAP1 POP SWAP3 SWAP2 POP POP JUMP JUMPDEST PUSH3 0x4DF DUP3 PUSH3 0x289 JUMP JUMPDEST PUSH8 0xFFFFFFFFFFFFFFFF DUP2 GT ISZERO PUSH3 0x4FB JUMPI PUSH3 0x4FA PUSH3 0x96 JUMP JUMPDEST JUMPDEST PUSH3 0x507 DUP3 SLOAD PUSH3 0x2C3 JUMP JUMPDEST PUSH3 0x514 DUP3 DUP3 DUP6 PUSH3 0x439 JUMP JUMPDEST PUSH1 0x0 PUSH1 0x20 SWAP1 POP PUSH1 0x1F DUP4 GT PUSH1 0x1 DUP2 EQ PUSH3 0x54C JUMPI PUSH1 0x0 DUP5 ISZERO PUSH3 0x537 JUMPI DUP3 DUP8 ADD MLOAD SWAP1 POP JUMPDEST PUSH3 0x543 DUP6 DUP3 PUSH3 0x4B6 JUMP JUMPDEST DUP7 SSTORE POP PUSH3 0x5B3 JUMP JUMPDEST PUSH1 0x1F NOT DUP5 AND PUSH3 0x55C DUP7 PUSH3 0x2F8 JUMP JUMPDEST PUSH1 0x0 JUMPDEST DUP3 DUP2 LT ISZERO PUSH3 0x586 JUMPI DUP5 DUP10 ADD MLOAD DUP3 SSTORE PUSH1 0x1 DUP3 ADD SWAP2 POP PUSH1 0x20 DUP6 ADD SWAP5 POP PUSH1 0x20 DUP2 ADD SWAP1 POP PUSH3 0x55F JUMP JUMPDEST DUP7 DUP4 LT ISZERO PUSH3 0x5A6 JUMPI DUP5 DUP10 ADD MLOAD PUSH3 0x5A2 PUSH1 0x1F DUP10 AND DUP3 PUSH3 0x496 JUMP JUMPDEST DUP4 SSTORE POP JUMPDEST PUSH1 0x1 PUSH1 0x2 DUP9 MUL ADD DUP9 SSTORE POP POP POP JUMPDEST POP POP POP POP POP POP JUMP JUMPDEST PUSH2 0x18D3 DUP1 PUSH3 0x5CB PUSH1 0x0 CODECOPY PUSH1 0x0 RETURN INVALID PUSH1 0x80 PUSH1 0x40 MSTORE CALLVALUE DUP1 ISZERO PUSH2 0x10 JUMPI PUSH1 0x0 DUP1 REVERT JUMPDEST POP PUSH1 0x4 CALLDATASIZE LT PUSH2 0xF5 JUMPI PUSH1 0x0 CALLDATALOAD PUSH1 0xE0 SHR DUP1 PUSH4 0x4F6CCCE7 GT PUSH2 0x97 JUMPI DUP1 PUSH4 0x95D89B41 GT PUSH2 0x66 JUMPI DUP1 PUSH4 0x95D89B41 EQ PUSH2 0x296 JUMPI DUP1 PUSH4 0xA22CB465 EQ PUSH2 0x2B4 JUMPI DUP1 PUSH4 0xC87B56DD EQ PUSH2 0x2D0 JUMPI DUP1 PUSH4 0xE985E9C5 EQ PUSH2 0x300 JUMPI PUSH2 0xF5 JUMP JUMPDEST DUP1 PUSH4 0x4F6CCCE7 EQ PUSH2 0x1EA JUMPI DUP1 PUSH4 0x6352211E EQ PUSH2 0x21A JUMPI DUP1 PUSH4 0x6A627842 EQ PUSH2 0x24A JUMPI DUP1 PUSH4 0x70A08231 EQ PUSH2 0x266 JUMPI PUSH2 0xF5 JUMP JUMPDEST DUP1 PUSH4 0x18160DDD GT PUSH2 0xD3 JUMPI DUP1 PUSH4 0x18160DDD EQ PUSH2 0x164 JUMPI DUP1 PUSH4 0x23B872DD EQ PUSH2 0x182 JUMPI DUP1 PUSH4 0x2F745C59 EQ PUSH2 0x19E JUMPI DUP1 PUSH4 0x4E6EC247 EQ PUSH2 0x1CE JUMPI PUSH2 0xF5 JUMP JUMPDEST DUP1 PUSH4 0x6FDDE03 EQ PUSH2 0xFA JUMPI DUP1 PUSH4 0x81812FC EQ PUSH2 0x118 JUMPI DUP1 PUSH4 0x95EA7B3 EQ PUSH2 0x148 JUMPI JUMPDEST PUSH1 0x0 DUP1 REVERT JUMPDEST PUSH2 0x102 PUSH2 0x330 JUMP JUMPDEST PUSH1 0x40 MLOAD PUSH2 0x10F SWAP2 SWAP1 PUSH2 0x1255 JUMP JUMPDEST PUSH1 0x40 MLOAD DUP1 SWAP2 SUB SWAP1 RETURN JUMPDEST PUSH2 0x132 PUSH1 0x4 DUP1 CALLDATASIZE SUB DUP2 ADD SWAP1 PUSH2 0x12D SWAP2 SWAP1 PUSH2 0x12B2 JUMP JUMPDEST PUSH2 0x3BE JUMP JUMPDEST PUSH1 0x40 MLOAD PUSH2 0x13F SWAP2 SWAP1 PUSH2 0x1320 JUMP JUMPDEST PUSH1 0x40 MLOAD DUP1 SWAP2 SUB SWAP1 RETURN JUMPDEST PUSH2 0x162 PUSH1 0x4 DUP1 CALLDATASIZE SUB DUP2 ADD SWAP1 PUSH2 0x15D SWAP2 SWAP1 PUSH2 0x1367 JUMP JUMPDEST PUSH2 0x49C JUMP JUMPDEST STOP JUMPDEST PUSH2 0x16C PUSH2 0x63D JUMP JUMPDEST PUSH1 0x40 MLOAD PUSH2 0x179 SWAP2 SWAP1 PUSH2 0x13B6 JUMP JUMPDEST PUSH1 0x40 MLOAD DUP1 SWAP2 SUB SWAP1 RETURN JUMPDEST PUSH2 0x19C PUSH1 0x4 DUP1 CALLDATASIZE SUB DUP2 ADD SWAP1 PUSH2 0x197 SWAP2 SWAP1 PUSH2 0x13D1 JUMP JUMPDEST PUSH2 0x64A JUMP JUMPDEST STOP JUMPDEST PUSH2 0x1B8 PUSH1 0x4 DUP1 CALLDATASIZE SUB DUP2 ADD SWAP1 PUSH2 0x1B3 SWAP2 SWAP1 PUSH2 0x1367 JUMP JUMPDEST PUSH2 0x800 JUMP JUMPDEST PUSH1 0x40 MLOAD PUSH2 0x1C5 SWAP2 SWAP1 PUSH2 0x13B6 JUMP JUMPDEST PUSH1 0x40 MLOAD DUP1 SWAP2 SUB SWAP1 RETURN JUMPDEST PUSH2 0x1E8 PUSH1 0x4 DUP1 CALLDATASIZE SUB DUP2 ADD SWAP1 PUSH2 0x1E3 SWAP2 SWAP1 PUSH2 0x1367 JUMP JUMPDEST PUSH2 0x86F JUMP JUMPDEST STOP JUMPDEST PUSH2 0x204 PUSH1 0x4 DUP1 CALLDATASIZE SUB DUP2 ADD SWAP1 PUSH2 0x1FF SWAP2 SWAP1 PUSH2 0x12B2 JUMP JUMPDEST PUSH2 0xA2F JUMP JUMPDEST PUSH1 0x40 MLOAD PUSH2 0x211 SWAP2 SWAP1 PUSH2 0x13B6 JUMP JUMPDEST PUSH1 0x40 MLOAD DUP1 SWAP2 SUB SWAP1 RETURN JUMPDEST PUSH2 0x234 PUSH1 0x4 DUP1 CALLDATASIZE SUB DUP2 ADD SWAP1 PUSH2 0x22F SWAP2 SWAP1 PUSH2 0x12B2 JUMP JUMPDEST PUSH2 0xA68 JUMP JUMPDEST PUSH1 0x40 MLOAD PUSH2 0x241 SWAP2 SWAP1 PUSH2 0x1320 JUMP JUMPDEST PUSH1 0x40 MLOAD DUP1 SWAP2 SUB SWAP1 RETURN JUMPDEST PUSH2 0x264 PUSH1 0x4 DUP1 CALLDATASIZE SUB DUP2 ADD SWAP1 PUSH2 0x25F SWAP2 SWAP1 PUSH2 0x1424 JUMP JUMPDEST PUSH2 0xB4C JUMP JUMPDEST STOP JUMPDEST PUSH2 0x280 PUSH1 0x4 DUP1 CALLDATASIZE SUB DUP2 ADD SWAP1 PUSH2 0x27B SWAP2 SWAP1 PUSH2 0x1424 JUMP JUMPDEST PUSH2 0xB5E JUMP JUMPDEST PUSH1 0x40 MLOAD PUSH2 0x28D SWAP2 SWAP1 PUSH2 0x13B6 JUMP JUMPDEST PUSH1 0x40 MLOAD DUP1 SWAP2 SUB SWAP1 RETURN JUMPDEST PUSH2 0x29E PUSH2 0xC15 JUMP JUMPDEST PUSH1 0x40 MLOAD PUSH2 0x2AB SWAP2 SWAP1 PUSH2 0x1255 JUMP JUMPDEST PUSH1 0x40 MLOAD DUP1 SWAP2 SUB SWAP1 RETURN JUMPDEST PUSH2 0x2CE PUSH1 0x4 DUP1 CALLDATASIZE SUB DUP2 ADD SWAP1 PUSH2 0x2C9 SWAP2 SWAP1 PUSH2 0x1489 JUMP JUMPDEST PUSH2 0xCA3 JUMP JUMPDEST STOP JUMPDEST PUSH2 0x2EA PUSH1 0x4 DUP1 CALLDATASIZE SUB DUP2 ADD SWAP1 PUSH2 0x2E5 SWAP2 SWAP1 PUSH2 0x12B2 JUMP JUMPDEST PUSH2 0xDD8 JUMP JUMPDEST PUSH1 0x40 MLOAD PUSH2 0x2F7 SWAP2 SWAP1 PUSH2 0x1255 JUMP JUMPDEST PUSH1 0x40 MLOAD DUP1 SWAP2 SUB SWAP1 RETURN JUMPDEST PUSH2 0x31A PUSH1 0x4 DUP1 CALLDATASIZE SUB DUP2 ADD SWAP1 PUSH2 0x315 SWAP2 SWAP1 PUSH2 0x14C9 JUMP JUMPDEST PUSH2 0xDDF JUMP JUMPDEST PUSH1 0x40 MLOAD PUSH2 0x327 SWAP2 SWAP1 PUSH2 0x1518 JUMP JUMPDEST PUSH1 0x40 MLOAD DUP1 SWAP2 SUB SWAP1 RETURN JUMPDEST PUSH1 0x0 DUP1 SLOAD PUSH2 0x33D SWAP1 PUSH2 0x1562 JUMP JUMPDEST DUP1 PUSH1 0x1F ADD PUSH1 0x20 DUP1 SWAP2 DIV MUL PUSH1 0x20 ADD PUSH1 0x40 MLOAD SWAP1 DUP2 ADD PUSH1 0x40 MSTORE DUP1 SWAP3 SWAP2 SWAP1 DUP2 DUP2 MSTORE PUSH1 0x20 ADD DUP3 DUP1 SLOAD PUSH2 0x369 SWAP1 PUSH2 0x1562 JUMP JUMPDEST DUP1 ISZERO PUSH2 0x3B6 JUMPI DUP1 PUSH1 0x1F LT PUSH2 0x38B JUMPI PUSH2 0x100 DUP1 DUP4 SLOAD DIV MUL DUP4 MSTORE SWAP2 PUSH1 0x20 ADD SWAP2 PUSH2 0x3B6 JUMP JUMPDEST DUP3 ADD SWAP2 SWAP1 PUSH1 0x0 MSTORE PUSH1 0x20 PUSH1 0x0 KECCAK256 SWAP1 JUMPDEST DUP2 SLOAD DUP2 MSTORE SWAP1 PUSH1 0x1 ADD SWAP1 PUSH1 0x20 ADD DUP1 DUP4 GT PUSH2 0x399 JUMPI DUP3 SWAP1 SUB PUSH1 0x1F AND DUP3 ADD SWAP2 JUMPDEST POP POP POP POP POP DUP2 JUMP JUMPDEST PUSH1 0x0 DUP1 PUSH20 0xFFFFFFFFFFFFFFFFFFFFFFFFFFFFFFFFFFFFFFFF AND PUSH1 0x3 PUSH1 0x0 DUP5 DUP2 MSTORE PUSH1 0x20 ADD SWAP1 DUP2 MSTORE PUSH1 0x20 ADD PUSH1 0x0 KECCAK256 PUSH1 0x0 SWAP1 SLOAD SWAP1 PUSH2 0x100 EXP SWAP1 DIV PUSH20 0xFFFFFFFFFFFFFFFFFFFFFFFFFFFFFFFFFFFFFFFF AND PUSH20 0xFFFFFFFFFFFFFFFFFFFFFFFFFFFFFFFFFFFFFFFF AND SUB PUSH2 0x461 JUMPI PUSH1 0x40 MLOAD PUSH32 0x8C379A000000000000000000000000000000000000000000000000000000000 DUP2 MSTORE PUSH1 0x4 ADD PUSH2 0x458 SWAP1 PUSH2 0x15DF JUMP JUMPDEST PUSH1 0x40 MLOAD DUP1 SWAP2 SUB SWAP1 REVERT JUMPDEST PUSH1 0x4 PUSH1 0x0 DUP4 DUP2 MSTORE PUSH1 0x20 ADD SWAP1 DUP2 MSTORE PUSH1 0x20 ADD PUSH1 0x0 KECCAK256 PUSH1 0x0 SWAP1 SLOAD SWAP1 PUSH2 0x100 EXP SWAP1 DIV PUSH20 0xFFFFFFFFFFFFFFFFFFFFFFFFFFFFFFFFFFFFFFFF AND SWAP1 POP SWAP2 SWAP1 POP JUMP JUMPDEST PUSH1 0x0 PUSH1 0x3 PUSH1 0x0 DUP4 DUP2 MSTORE PUSH1 0x20 ADD SWAP1 DUP2 MSTORE PUSH1 0x20 ADD PUSH1 0x0 KECCAK256 PUSH1 0x0 SWAP1 SLOAD SWAP1 PUSH2 0x100 EXP SWAP1 DIV PUSH20 0xFFFFFFFFFFFFFFFFFFFFFFFFFFFFFFFFFFFFFFFF AND SWAP1 POP DUP1 PUSH20 0xFFFFFFFFFFFFFFFFFFFFFFFFFFFFFFFFFFFFFFFF AND DUP4 PUSH20 0xFFFFFFFFFFFFFFFFFFFFFFFFFFFFFFFFFFFFFFFF AND SUB PUSH2 0x542 JUMPI PUSH1 0x40 MLOAD PUSH32 0x8C379A000000000000000000000000000000000000000000000000000000000 DUP2 MSTORE PUSH1 0x4 ADD PUSH2 0x539 SWAP1 PUSH2 0x1671 JUMP JUMPDEST PUSH1 0x40 MLOAD DUP1 SWAP2 SUB SWAP1 REVERT JUMPDEST DUP1 PUSH20 0xFFFFFFFFFFFFFFFFFFFFFFFFFFFFFFFFFFFFFFFF AND CALLER PUSH20 0xFFFFFFFFFFFFFFFFFFFFFFFFFFFFFFFFFFFFFFFF AND EQ DUP1 PUSH2 0x582 JUMPI POP PUSH2 0x581 DUP2 CALLER PUSH2 0xDDF JUMP JUMPDEST JUMPDEST PUSH2 0x58B JUMPI PUSH1 0x0 DUP1 REVERT JUMPDEST DUP3 PUSH1 0x4 PUSH1 0x0 DUP5 DUP2 MSTORE PUSH1 0x20 ADD SWAP1 DUP2 MSTORE PUSH1 0x20 ADD PUSH1 0x0 KECCAK256 PUSH1 0x0 PUSH2 0x100 EXP DUP2 SLOAD DUP2 PUSH20 0xFFFFFFFFFFFFFFFFFFFFFFFFFFFFFFFFFFFFFFFF MUL NOT AND SWAP1 DUP4 PUSH20 0xFFFFFFFFFFFFFFFFFFFFFFFFFFFFFFFFFFFFFFFF AND MUL OR SWAP1 SSTORE POP DUP2 DUP4 PUSH20 0xFFFFFFFFFFFFFFFFFFFFFFFFFFFFFFFFFFFFFFFF AND DUP3 PUSH20 0xFFFFFFFFFFFFFFFFFFFFFFFFFFFFFFFFFFFFFFFF AND PUSH32 0x8C5BE1E5EBEC7D5BD14F71427D1E84F3DD0314C0F7B2291E5B200AC8C7C3B925 PUSH1 0x40 MLOAD PUSH1 0x40 MLOAD DUP1 SWAP2 SUB SWAP1 LOG4 POP POP POP JUMP JUMPDEST PUSH1 0x0 PUSH1 0x6 DUP1 SLOAD SWAP1 POP SWAP1 POP SWAP1 JUMP JUMPDEST PUSH2 0x654 DUP4 DUP3 PUSH2 0xE73 JUMP JUMPDEST PUSH2 0x65D JUMPI PUSH1 0x0 DUP1 REVERT JUMPDEST DUP2 PUSH20 0xFFFFFFFFFFFFFFFFFFFFFFFFFFFFFFFFFFFFFFFF AND DUP4 PUSH20 0xFFFFFFFFFFFFFFFFFFFFFFFFFFFFFFFFFFFFFFFF AND SUB PUSH2 0x695 JUMPI PUSH1 0x0 DUP1 REVERT JUMPDEST PUSH1 0x1 PUSH1 0x2 PUSH1 0x0 DUP6 PUSH20 0xFFFFFFFFFFFFFFFFFFFFFFFFFFFFFFFFFFFFFFFF AND PUSH20 0xFFFFFFFFFFFFFFFFFFFFFFFFFFFFFFFFFFFFFFFF AND DUP2 MSTORE PUSH1 0x20 ADD SWAP1 DUP2 MSTORE PUSH1 0x20 ADD PUSH1 0x0 KECCAK256 PUSH1 0x0 DUP3 DUP3 SLOAD PUSH2 0x6E5 SWAP2 SWAP1 PUSH2 0x16C0 JUMP JUMPDEST SWAP3 POP POP DUP2 SWAP1 SSTORE POP PUSH1 0x1 PUSH1 0x2 PUSH1 0x0 DUP5 PUSH20 0xFFFFFFFFFFFFFFFFFFFFFFFFFFFFFFFFFFFFFFFF AND PUSH20 0xFFFFFFFFFFFFFFFFFFFFFFFFFFFFFFFFFFFFFFFF AND DUP2 MSTORE PUSH1 0x20 ADD SWAP1 DUP2 MSTORE PUSH1 0x20 ADD PUSH1 0x0 KECCAK256 PUSH1 0x0 DUP3 DUP3 SLOAD PUSH2 0x73C SWAP2 SWAP1 PUSH2 0x16F4 JUMP JUMPDEST SWAP3 POP POP DUP2 SWAP1 SSTORE POP DUP2 PUSH1 0x3 PUSH1 0x0 DUP4 DUP2 MSTORE PUSH1 0x20 ADD SWAP1 DUP2 MSTORE PUSH1 0x20 ADD PUSH1 0x0 KECCAK256 PUSH1 0x0 PUSH2 0x100 EXP DUP2 SLOAD DUP2 PUSH20 0xFFFFFFFFFFFFFFFFFFFFFFFFFFFFFFFFFFFFFFFF MUL NOT AND SWAP1 DUP4 PUSH20 0xFFFFFFFFFFFFFFFFFFFFFFFFFFFFFFFFFFFFFFFF AND MUL OR SWAP1 SSTORE POP PUSH2 0x7A0 DUP4 DUP4 DUP4 PUSH2 0xF6C JUMP JUMPDEST DUP1 DUP3 PUSH20 0xFFFFFFFFFFFFFFFFFFFFFFFFFFFFFFFFFFFFFFFF AND DUP5 PUSH20 0xFFFFFFFFFFFFFFFFFFFFFFFFFFFFFFFFFFFFFFFF AND PUSH32 0xDDF252AD1BE2C89B69C2B068FC378DAA952BA7F163C4A11628F55A4DF523B3EF PUSH1 0x40 MLOAD PUSH1 0x40 MLOAD DUP1 SWAP2 SUB SWAP1 LOG4 POP POP POP JUMP JUMPDEST PUSH1 0x0 PUSH2 0x80B DUP4 PUSH2 0xB5E JUMP JUMPDEST DUP3 LT PUSH2 0x816 JUMPI PUSH1 0x0 DUP1 REVERT JUMPDEST PUSH1 0x7 PUSH1 0x0 DUP5 PUSH20 0xFFFFFFFFFFFFFFFFFFFFFFFFFFFFFFFFFFFFFFFF AND PUSH20 0xFFFFFFFFFFFFFFFFFFFFFFFFFFFFFFFFFFFFFFFF AND DUP2 MSTORE PUSH1 0x20 ADD SWAP1 DUP2 MSTORE PUSH1 0x20 ADD PUSH1 0x0 KECCAK256 PUSH1 0x0 DUP4 DUP2 MSTORE PUSH1 0x20 ADD SWAP1 DUP2 MSTORE PUSH1 0x20 ADD PUSH1 0x0 KECCAK256 SLOAD SWAP1 POP SWAP3 SWAP2 POP POP JUMP JUMPDEST PUSH1 0x0 PUSH20 0xFFFFFFFFFFFFFFFFFFFFFFFFFFFFFFFFFFFFFFFF AND DUP3 PUSH20 0xFFFFFFFFFFFFFFFFFFFFFFFFFFFFFFFFFFFFFFFF AND SUB PUSH2 0x8A8 JUMPI PUSH1 0x0 DUP1 REVERT JUMPDEST PUSH1 0x0 PUSH1 0x3 PUSH1 0x0 DUP4 DUP2 MSTORE PUSH1 0x20 ADD SWAP1 DUP2 MSTORE PUSH1 0x20 ADD PUSH1 0x0 KECCAK256 PUSH1 0x0 SWAP1 SLOAD SWAP1 PUSH2 0x100 EXP SWAP1 DIV PUSH20 0xFFFFFFFFFFFFFFFFFFFFFFFFFFFFFFFFFFFFFFFF AND SWAP1 POP PUSH1 0x0 PUSH20 0xFFFFFFFFFFFFFFFFFFFFFFFFFFFFFFFFFFFFFFFF AND DUP2 PUSH20 0xFFFFFFFFFFFFFFFFFFFFFFFFFFFFFFFFFFFFFFFF AND EQ PUSH2 0x919 JUMPI PUSH1 0x0 DUP1 REVERT JUMPDEST PUSH2 0x925 PUSH1 0x0 DUP5 DUP5 PUSH2 0xF6C JUMP JUMPDEST PUSH1 0x1 PUSH1 0x2 PUSH1 0x0 DUP6 PUSH20 0xFFFFFFFFFFFFFFFFFFFFFFFFFFFFFFFFFFFFFFFF AND PUSH20 0xFFFFFFFFFFFFFFFFFFFFFFFFFFFFFFFFFFFFFFFF AND DUP2 MSTORE PUSH1 0x20 ADD SWAP1 DUP2 MSTORE PUSH1 0x20 ADD PUSH1 0x0 KECCAK256 PUSH1 0x0 DUP3 DUP3 SLOAD PUSH2 0x975 SWAP2 SWAP1 PUSH2 0x16F4 JUMP JUMPDEST SWAP3 POP POP DUP2 SWAP1 SSTORE POP DUP3 PUSH1 0x3 PUSH1 0x0 DUP5 DUP2 MSTORE PUSH1 0x20 ADD SWAP1 DUP2 MSTORE PUSH1 0x20 ADD PUSH1 0x0 KECCAK256 PUSH1 0x0 PUSH2 0x100 EXP DUP2 SLOAD DUP2 PUSH20 0xFFFFFFFFFFFFFFFFFFFFFFFFFFFFFFFFFFFFFFFF MUL NOT AND SWAP1 DUP4 PUSH20 0xFFFFFFFFFFFFFFFFFFFFFFFFFFFFFFFFFFFFFFFF AND MUL OR SWAP1 SSTORE POP DUP2 DUP4 PUSH20 0xFFFFFFFFFFFFFFFFFFFFFFFFFFFFFFFFFFFFFFFF AND PUSH1 0x0 PUSH20 0xFFFFFFFFFFFFFFFFFFFFFFFFFFFFFFFFFFFFFFFF AND PUSH32 0xDDF252AD1BE2C89B69C2B068FC378DAA952BA7F163C4A11628F55A4DF523B3EF PUSH1 0x40 MLOAD PUSH1 0x40 MLOAD DUP1 SWAP2 SUB SWAP1 LOG4 POP POP POP JUMP JUMPDEST PUSH1 0x0 PUSH1 0x6 DUP1 SLOAD SWAP1 POP DUP3 LT PUSH2 0xA42 JUMPI PUSH1 0x0 DUP1 REVERT JUMPDEST PUSH1 0x6 DUP3 DUP2 SLOAD DUP2 LT PUSH2 0xA56 JUMPI PUSH2 0xA55 PUSH2 0x174A JUMP JUMPDEST JUMPDEST SWAP1 PUSH1 0x0 MSTORE PUSH1 0x20 PUSH1 0x0 KECCAK256 ADD SLOAD SWAP1 POP SWAP2 SWAP1 POP JUMP JUMPDEST PUSH1 0x0 DUP1 PUSH1 0x3 PUSH1 0x0 DUP5 DUP2 MSTORE PUSH1 0x20 ADD SWAP1 DUP2 MSTORE PUSH1 0x20 ADD PUSH1 0x0 KECCAK256 PUSH1 0x0 SWAP1 SLOAD SWAP1 PUSH2 0x100 EXP SWAP1 DIV PUSH20 0xFFFFFFFFFFFFFFFFFFFFFFFFFFFFFFFFFFFFFFFF AND SWAP1 POP PUSH1 0x0 PUSH20 0xFFFFFFFFFFFFFFFFFFFFFFFFFFFFFFFFFFFFFFFF AND DUP2 PUSH20 0xFFFFFFFFFFFFFFFFFFFFFFFFFFFFFFFFFFFFFFFF AND SUB PUSH2 0xB10 JUMPI PUSH1 0x40 MLOAD PUSH32 0x8C379A000000000000000000000000000000000000000000000000000000000 DUP2 MSTORE PUSH1 0x4 ADD PUSH2 0xB07 SWAP1 PUSH2 0x17EB JUMP JUMPDEST PUSH1 0x40 MLOAD DUP1 SWAP2 SUB SWAP1 REVERT JUMPDEST PUSH1 0x3 PUSH1 0x0 DUP5 DUP2 MSTORE PUSH1 0x20 ADD SWAP1 DUP2 MSTORE PUSH1 0x20 ADD PUSH1 0x0 KECCAK256 PUSH1 0x0 SWAP1 SLOAD SWAP1 PUSH2 0x100 EXP SWAP1 DIV PUSH20 0xFFFFFFFFFFFFFFFFFFFFFFFFFFFFFFFFFFFFFFFF AND SWAP2 POP POP SWAP2 SWAP1 POP JUMP JUMPDEST PUSH2 0xB5B DUP2 PUSH1 0x6 DUP1 SLOAD SWAP1 POP PUSH2 0x86F JUMP JUMPDEST POP JUMP JUMPDEST PUSH1 0x0 DUP1 PUSH20 0xFFFFFFFFFFFFFFFFFFFFFFFFFFFFFFFFFFFFFFFF AND DUP3 PUSH20 0xFFFFFFFFFFFFFFFFFFFFFFFFFFFFFFFFFFFFFFFF AND SUB PUSH2 0xBCE JUMPI PUSH1 0x40 MLOAD PUSH32 0x8C379A000000000000000000000000000000000000000000000000000000000 DUP2 MSTORE PUSH1 0x4 ADD PUSH2 0xBC5 SWAP1 PUSH2 0x187D JUMP JUMPDEST PUSH1 0x40 MLOAD DUP1 SWAP2 SUB SWAP1 REVERT JUMPDEST PUSH1 0x2 PUSH1 0x0 DUP4 PUSH20 0xFFFFFFFFFFFFFFFFFFFFFFFFFFFFFFFFFFFFFFFF AND PUSH20 0xFFFFFFFFFFFFFFFFFFFFFFFFFFFFFFFFFFFFFFFF AND DUP2 MSTORE PUSH1 0x20 ADD SWAP1 DUP2 MSTORE PUSH1 0x20 ADD PUSH1 0x0 KECCAK256 SLOAD SWAP1 POP SWAP2 SWAP1 POP JUMP JUMPDEST PUSH1 0x1 DUP1 SLOAD PUSH2 0xC22 SWAP1 PUSH2 0x1562 JUMP JUMPDEST DUP1 PUSH1 0x1F ADD PUSH1 0x20 DUP1 SWAP2 DIV MUL PUSH1 0x20 ADD PUSH1 0x40 MLOAD SWAP1 DUP2 ADD PUSH1 0x40 MSTORE DUP1 SWAP3 SWAP2 SWAP1 DUP2 DUP2 MSTORE PUSH1 0x20 ADD DUP3 DUP1 SLOAD PUSH2 0xC4E SWAP1 PUSH2 0x1562 JUMP JUMPDEST DUP1 ISZERO PUSH2 0xC9B JUMPI DUP1 PUSH1 0x1F LT PUSH2 0xC70 JUMPI PUSH2 0x100 DUP1 DUP4 SLOAD DIV MUL DUP4 MSTORE SWAP2 PUSH1 0x20 ADD SWAP2 PUSH2 0xC9B JUMP JUMPDEST DUP3 ADD SWAP2 SWAP1 PUSH1 0x0 MSTORE PUSH1 0x20 PUSH1 0x0 KECCAK256 SWAP1 JUMPDEST DUP2 SLOAD DUP2 MSTORE SWAP1 PUSH1 0x1 ADD SWAP1 PUSH1 0x20 ADD DUP1 DUP4 GT PUSH2 0xC7E JUMPI DUP3 SWAP1 SUB PUSH1 0x1F AND DUP3 ADD SWAP2 JUMPDEST POP POP POP POP POP DUP2 JUMP JUMPDEST DUP2 PUSH20 0xFFFFFFFFFFFFFFFFFFFFFFFFFFFFFFFFFFFFFFFF AND CALLER PUSH20 0xFFFFFFFFFFFFFFFFFFFFFFFFFFFFFFFFFFFFFFFF AND SUB PUSH2 0xCDB JUMPI PUSH1 0x0 DUP1 REVERT JUMPDEST DUP1 PUSH1 0x5 PUSH1 0x0 CALLER PUSH20 0xFFFFFFFFFFFFFFFFFFFFFFFFFFFFFFFFFFFFFFFF AND PUSH20 0xFFFFFFFFFFFFFFFFFFFFFFFFFFFFFFFFFFFFFFFF AND DUP2 MSTORE PUSH1 0x20 ADD SWAP1 DUP2 MSTORE PUSH1 0x20 ADD PUSH1 0x0 KECCAK256 PUSH1 0x0 DUP5 PUSH20 0xFFFFFFFFFFFFFFFFFFFFFFFFFFFFFFFFFFFFFFFF AND PUSH20 0xFFFFFFFFFFFFFFFFFFFFFFFFFFFFFFFFFFFFFFFF AND DUP2 MSTORE PUSH1 0x20 ADD SWAP1 DUP2 MSTORE PUSH1 0x20 ADD PUSH1 0x0 KECCAK256 PUSH1 0x0 PUSH2 0x100 EXP DUP2 SLOAD DUP2 PUSH1 0xFF MUL NOT AND SWAP1 DUP4 ISZERO ISZERO MUL OR SWAP1 SSTORE POP DUP2 PUSH20 0xFFFFFFFFFFFFFFFFFFFFFFFFFFFFFFFFFFFFFFFF AND CALLER PUSH20 0xFFFFFFFFFFFFFFFFFFFFFFFFFFFFFFFFFFFFFFFF AND PUSH32 0x17307EAB39AB6107E8899845AD3D59BD9653F200F220920489CA2B5937696C31 DUP4 PUSH1 0x40 MLOAD PUSH2 0xDCC SWAP2 SWAP1 PUSH2 0x1518 JUMP JUMPDEST PUSH1 0x40 MLOAD DUP1 SWAP2 SUB SWAP1 LOG3 POP POP JUMP JUMPDEST PUSH1 0x60 SWAP2 SWAP1 POP JUMP JUMPDEST PUSH1 0x0 PUSH1 0x5 PUSH1 0x0 DUP5 PUSH20 0xFFFFFFFFFFFFFFFFFFFFFFFFFFFFFFFFFFFFFFFF AND PUSH20 0xFFFFFFFFFFFFFFFFFFFFFFFFFFFFFFFFFFFFFFFF AND DUP2 MSTORE PUSH1 0x20 ADD SWAP1 DUP2 MSTORE PUSH1 0x20 ADD PUSH1 0x0 KECCAK256 PUSH1 0x0 DUP4 PUSH20 0xFFFFFFFFFFFFFFFFFFFFFFFFFFFFFFFFFFFFFFFF AND PUSH20 0xFFFFFFFFFFFFFFFFFFFFFFFFFFFFFFFFFFFFFFFF AND DUP2 MSTORE PUSH1 0x20 ADD SWAP1 DUP2 MSTORE PUSH1 0x20 ADD PUSH1 0x0 KECCAK256 PUSH1 0x0 SWAP1 SLOAD SWAP1 PUSH2 0x100 EXP SWAP1 DIV PUSH1 0xFF AND SWAP1 POP SWAP3 SWAP2 POP POP JUMP JUMPDEST PUSH1 0x0 DUP1 PUSH1 0x3 PUSH1 0x0 DUP5 DUP2 MSTORE PUSH1 0x20 ADD SWAP1 DUP2 MSTORE PUSH1 0x20 ADD PUSH1 0x0 KECCAK256 PUSH1 0x0 SWAP1 SLOAD SWAP1 PUSH2 0x100 EXP SWAP1 DIV PUSH20 0xFFFFFFFFFFFFFFFFFFFFFFFFFFFFFFFFFFFFFFFF AND SWAP1 POP PUSH1 0x0 PUSH20 0xFFFFFFFFFFFFFFFFFFFFFFFFFFFFFFFFFFFFFFFF AND DUP2 PUSH20 0xFFFFFFFFFFFFFFFFFFFFFFFFFFFFFFFFFFFFFFFF AND SUB PUSH2 0xEE5 JUMPI PUSH1 0x0 DUP1 REVERT JUMPDEST DUP1 PUSH20 0xFFFFFFFFFFFFFFFFFFFFFFFFFFFFFFFFFFFFFFFF AND DUP5 PUSH20 0xFFFFFFFFFFFFFFFFFFFFFFFFFFFFFFFFFFFFFFFF AND EQ DUP1 PUSH2 0xF25 JUMPI POP PUSH2 0xF24 DUP2 DUP6 PUSH2 0xDDF JUMP JUMPDEST JUMPDEST DUP1 PUSH2 0xF63 JUMPI POP DUP4 PUSH20 0xFFFFFFFFFFFFFFFFFFFFFFFFFFFFFFFFFFFFFFFF AND PUSH2 0xF4B DUP5 PUSH2 0x3BE JUMP JUMPDEST PUSH20 0xFFFFFFFFFFFFFFFFFFFFFFFFFFFFFFFFFFFFFFFF AND EQ JUMPDEST SWAP2 POP POP SWAP3 SWAP2 POP POP JUMP JUMPDEST PUSH1 0x0 PUSH20 0xFFFFFFFFFFFFFFFFFFFFFFFFFFFFFFFFFFFFFFFF AND DUP4 PUSH20 0xFFFFFFFFFFFFFFFFFFFFFFFFFFFFFFFFFFFFFFFF AND SUB PUSH2 0xFD2 JUMPI PUSH1 0x6 DUP1 DUP1 SLOAD SWAP1 POP SWAP1 DUP1 PUSH1 0x1 DUP2 SLOAD ADD DUP1 DUP3 SSTORE DUP1 SWAP2 POP POP PUSH1 0x1 SWAP1 SUB SWAP1 PUSH1 0x0 MSTORE PUSH1 0x20 PUSH1 0x0 KECCAK256 ADD PUSH1 0x0 SWAP1 SWAP2 SWAP1 SWAP2 SWAP1 SWAP2 POP SSTORE PUSH2 0x113C JUMP JUMPDEST PUSH1 0x0 PUSH1 0x1 PUSH2 0xFDF DUP6 PUSH2 0xB5E JUMP JUMPDEST PUSH2 0xFE9 SWAP2 SWAP1 PUSH2 0x16C0 JUMP JUMPDEST SWAP1 POP PUSH1 0x0 PUSH1 0x8 PUSH1 0x0 DUP5 DUP2 MSTORE PUSH1 0x20 ADD SWAP1 DUP2 MSTORE PUSH1 0x20 ADD PUSH1 0x0 KECCAK256 SLOAD SWAP1 POP DUP2 DUP2 EQ PUSH2 0x10CE JUMPI PUSH1 0x0 PUSH1 0x7 PUSH1 0x0 DUP8 PUSH20 0xFFFFFFFFFFFFFFFFFFFFFFFFFFFFFFFFFFFFFFFF AND PUSH20 0xFFFFFFFFFFFFFFFFFFFFFFFFFFFFFFFFFFFFFFFF AND DUP2 MSTORE PUSH1 0x20 ADD SWAP1 DUP2 MSTORE PUSH1 0x20 ADD PUSH1 0x0 KECCAK256 PUSH1 0x0 DUP5 DUP2 MSTORE PUSH1 0x20 ADD SWAP1 DUP2 MSTORE PUSH1 0x20 ADD PUSH1 0x0 KECCAK256 SLOAD SWAP1 POP DUP1 PUSH1 0x7 PUSH1 0x0 DUP9 PUSH20 0xFFFFFFFFFFFFFFFFFFFFFFFFFFFFFFFFFFFFFFFF AND PUSH20 0xFFFFFFFFFFFFFFFFFFFFFFFFFFFFFFFFFFFFFFFF AND DUP2 MSTORE PUSH1 0x20 ADD SWAP1 DUP2 MSTORE PUSH1 0x20 ADD PUSH1 0x0 KECCAK256 PUSH1 0x0 DUP5 DUP2 MSTORE PUSH1 0x20 ADD SWAP1 DUP2 MSTORE PUSH1 0x20 ADD PUSH1 0x0 KECCAK256 DUP2 SWAP1 SSTORE POP DUP2 PUSH1 0x8 PUSH1 0x0 DUP4 DUP2 MSTORE PUSH1 0x20 ADD SWAP1 DUP2 MSTORE PUSH1 0x20 ADD PUSH1 0x0 KECCAK256 DUP2 SWAP1 SSTORE POP POP JUMPDEST PUSH1 0x7 PUSH1 0x0 DUP7 PUSH20 0xFFFFFFFFFFFFFFFFFFFFFFFFFFFFFFFFFFFFFFFF AND PUSH20 0xFFFFFFFFFFFFFFFFFFFFFFFFFFFFFFFFFFFFFFFF AND DUP2 MSTORE PUSH1 0x20 ADD SWAP1 DUP2 MSTORE PUSH1 0x20 ADD PUSH1 0x0 KECCAK256 PUSH1 0x0 DUP4 DUP2 MSTORE PUSH1 0x20 ADD SWAP1 DUP2 MSTORE PUSH1 0x20 ADD PUSH1 0x0 KECCAK256 PUSH1 0x0 SWAP1 SSTORE PUSH1 0x8 PUSH1 0x0 DUP5 DUP2 MSTORE PUSH1 0x20 ADD SWAP1 DUP2 MSTORE PUSH1 0x20 ADD PUSH1 0x0 KECCAK256 PUSH1 0x0 SWAP1 SSTORE POP POP JUMPDEST PUSH1 0x0 PUSH2 0x1147 DUP4 PUSH2 0xB5E JUMP JUMPDEST SWAP1 POP DUP2 PUSH1 0x7 PUSH1 0x0 DUP6 PUSH20 0xFFFFFFFFFFFFFFFFFFFFFFFFFFFFFFFFFFFFFFFF AND PUSH20 0xFFFFFFFFFFFFFFFFFFFFFFFFFFFFFFFFFFFFFFFF AND DUP2 MSTORE PUSH1 0x20 ADD SWAP1 DUP2 MSTORE PUSH1 0x20 ADD PUSH1 0x0 KECCAK256 PUSH1 0x0 DUP4 DUP2 MSTORE PUSH1 0x20 ADD SWAP1 DUP2 MSTORE PUSH1 0x20 ADD PUSH1 0x0 KECCAK256 DUP2 SWAP1 SSTORE POP DUP1 PUSH1 0x8 PUSH1 0x0 DUP5 DUP2 MSTORE PUSH1 0x20 ADD SWAP1 DUP2 MSTORE PUSH1 0x20 ADD PUSH1 0x0 KECCAK256 DUP2 SWAP1 SSTORE POP POP POP POP POP JUMP JUMPDEST PUSH1 0x0 DUP2 MLOAD SWAP1 POP SWAP2 SWAP1 POP JUMP JUMPDEST PUSH1 0x0 DUP3 DUP3 MSTORE PUSH1 0x20 DUP3 ADD SWAP1 POP SWAP3 SWAP2 POP POP JUMP JUMPDEST PUSH1 0x0 JUMPDEST DUP4 DUP2 LT ISZERO PUSH2 0x11F6 JUMPI DUP1 DUP3 ADD MLOAD DUP2 DUP5 ADD MSTORE PUSH1 0x20 DUP2 ADD SWAP1 POP PUSH2 0x11DB JUMP JUMPDEST DUP4 DUP2 GT ISZERO PUSH2 0x1205 JUMPI PUSH1 0x0 DUP5 DUP5 ADD MSTORE JUMPDEST POP POP POP POP JUMP JUMPDEST PUSH1 0x0 PUSH1 0x1F NOT PUSH1 0x1F DUP4 ADD AND SWAP1 POP SWAP2 SWAP1 POP JUMP JUMPDEST PUSH1 0x0 PUSH2 0x1227 DUP3 PUSH2 0x11BC JUMP JUMPDEST PUSH2 0x1231 DUP2 DUP6 PUSH2 0x11C7 JUMP JUMPDEST SWAP4 POP PUSH2 0x1241 DUP2 DUP6 PUSH1 0x20 DUP7 ADD PUSH2 0x11D8 JUMP JUMPDEST PUSH2 0x124A DUP2 PUSH2 0x120B JUMP JUMPDEST DUP5 ADD SWAP2 POP POP SWAP3 SWAP2 POP POP JUMP JUMPDEST PUSH1 0x0 PUSH1 0x20 DUP3 ADD SWAP1 POP DUP2 DUP2 SUB PUSH1 0x0 DUP4 ADD MSTORE PUSH2 0x126F DUP2 DUP5 PUSH2 0x121C JUMP JUMPDEST SWAP1 POP SWAP3 SWAP2 POP POP JUMP JUMPDEST PUSH1 0x0 DUP1 REVERT JUMPDEST PUSH1 0x0 DUP2 SWAP1 POP SWAP2 SWAP1 POP JUMP JUMPDEST PUSH2 0x128F DUP2 PUSH2 0x127C JUMP JUMPDEST DUP2 EQ PUSH2 0x129A JUMPI PUSH1 0x0 DUP1 REVERT JUMPDEST POP JUMP JUMPDEST PUSH1 0x0 DUP2 CALLDATALOAD SWAP1 POP PUSH2 0x12AC DUP2 PUSH2 0x1286 JUMP JUMPDEST SWAP3 SWAP2 POP POP JUMP JUMPDEST PUSH1 0x0 PUSH1 0x20 DUP3 DUP5 SUB SLT ISZERO PUSH2 0x12C8 JUMPI PUSH2 0x12C7 PUSH2 0x1277 JUMP JUMPDEST JUMPDEST PUSH1 0x0 PUSH2 0x12D6 DUP5 DUP3 DUP6 ADD PUSH2 0x129D JUMP JUMPDEST SWAP2 POP POP SWAP3 SWAP2 POP POP JUMP JUMPDEST PUSH1 0x0 PUSH20 0xFFFFFFFFFFFFFFFFFFFFFFFFFFFFFFFFFFFFFFFF DUP3 AND SWAP1 POP SWAP2 SWAP1 POP JUMP JUMPDEST PUSH1 0x0 PUSH2 0x130A DUP3 PUSH2 0x12DF JUMP JUMPDEST SWAP1 POP SWAP2 SWAP1 POP JUMP JUMPDEST PUSH2 0x131A DUP2 PUSH2 0x12FF JUMP JUMPDEST DUP3 MSTORE POP POP JUMP JUMPDEST PUSH1 0x0 PUSH1 0x20 DUP3 ADD SWAP1 POP PUSH2 0x1335 PUSH1 0x0 DUP4 ADD DUP5 PUSH2 0x1311 JUMP JUMPDEST SWAP3 SWAP2 POP POP JUMP JUMPDEST PUSH2 0x1344 DUP2 PUSH2 0x12FF JUMP JUMPDEST DUP2 EQ PUSH2 0x134F JUMPI PUSH1 0x0 DUP1 REVERT JUMPDEST POP JUMP JUMPDEST PUSH1 0x0 DUP2 CALLDATALOAD SWAP1 POP PUSH2 0x1361 DUP2 PUSH2 0x133B JUMP JUMPDEST SWAP3 SWAP2 POP POP JUMP JUMPDEST PUSH1 0x0 DUP1 PUSH1 0x40 DUP4 DUP6 SUB SLT ISZERO PUSH2 0x137E JUMPI PUSH2 0x137D PUSH2 0x1277 JUMP JUMPDEST JUMPDEST PUSH1 0x0 PUSH2 0x138C DUP6 DUP3 DUP7 ADD PUSH2 0x1352 JUMP JUMPDEST SWAP3 POP POP PUSH1 0x20 PUSH2 0x139D DUP6 DUP3 DUP7 ADD PUSH2 0x129D JUMP JUMPDEST SWAP2 POP POP SWAP3 POP SWAP3 SWAP1 POP JUMP JUMPDEST PUSH2 0x13B0 DUP2 PUSH2 0x127C JUMP JUMPDEST DUP3 MSTORE POP POP JUMP JUMPDEST PUSH1 0x0 PUSH1 0x20 DUP3 ADD SWAP1 POP PUSH2 0x13CB PUSH1 0x0 DUP4 ADD DUP5 PUSH2 0x13A7 JUMP JUMPDEST SWAP3 SWAP2 POP POP JUMP JUMPDEST PUSH1 0x0 DUP1 PUSH1 0x0 PUSH1 0x60 DUP5 DUP7 SUB SLT ISZERO PUSH2 0x13EA JUMPI PUSH2 0x13E9 PUSH2 0x1277 JUMP JUMPDEST JUMPDEST PUSH1 0x0 PUSH2 0x13F8 DUP7 DUP3 DUP8 ADD PUSH2 0x1352 JUMP JUMPDEST SWAP4 POP POP PUSH1 0x20 PUSH2 0x1409 DUP7 DUP3 DUP8 ADD PUSH2 0x1352 JUMP JUMPDEST SWAP3 POP POP PUSH1 0x40 PUSH2 0x141A DUP7 DUP3 DUP8 ADD PUSH2 0x129D JUMP JUMPDEST SWAP2 POP POP SWAP3 POP SWAP3 POP SWAP3 JUMP JUMPDEST PUSH1 0x0 PUSH1 0x20 DUP3 DUP5 SUB SLT ISZERO PUSH2 0x143A JUMPI PUSH2 0x1439 PUSH2 0x1277 JUMP JUMPDEST JUMPDEST PUSH1 0x0 PUSH2 0x1448 DUP5 DUP3 DUP6 ADD PUSH2 0x1352 JUMP JUMPDEST SWAP2 POP POP SWAP3 SWAP2 POP POP JUMP JUMPDEST PUSH1 0x0 DUP2 ISZERO ISZERO SWAP1 POP SWAP2 SWAP1 POP JUMP JUMPDEST PUSH2 0x1466 DUP2 PUSH2 0x1451 JUMP JUMPDEST DUP2 EQ PUSH2 0x1471 JUMPI PUSH1 0x0 DUP1 REVERT JUMPDEST POP JUMP JUMPDEST PUSH1 0x0 DUP2 CALLDATALOAD SWAP1 POP PUSH2 0x1483 DUP2 PUSH2 0x145D JUMP JUMPDEST SWAP3 SWAP2 POP POP JUMP JUMPDEST PUSH1 0x0 DUP1 PUSH1 0x40 DUP4 DUP6 SUB SLT ISZERO PUSH2 0x14A0 JUMPI PUSH2 0x149F PUSH2 0x1277 JUMP JUMPDEST JUMPDEST PUSH1 0x0 PUSH2 0x14AE DUP6 DUP3 DUP7 ADD PUSH2 0x1352 JUMP JUMPDEST SWAP3 POP POP PUSH1 0x20 PUSH2 0x14BF DUP6 DUP3 DUP7 ADD PUSH2 0x1474 JUMP JUMPDEST SWAP2 POP POP SWAP3 POP SWAP3 SWAP1 POP JUMP JUMPDEST PUSH1 0x0 DUP1 PUSH1 0x40 DUP4 DUP6 SUB SLT ISZERO PUSH2 0x14E0 JUMPI PUSH2 0x14DF PUSH2 0x1277 JUMP JUMPDEST JUMPDEST PUSH1 0x0 PUSH2 0x14EE DUP6 DUP3 DUP7 ADD PUSH2 0x1352 JUMP JUMPDEST SWAP3 POP POP PUSH1 0x20 PUSH2 0x14FF DUP6 DUP3 DUP7 ADD PUSH2 0x1352 JUMP JUMPDEST SWAP2 POP POP SWAP3 POP SWAP3 SWAP1 POP JUMP JUMPDEST PUSH2 0x1512 DUP2 PUSH2 0x1451 JUMP JUMPDEST DUP3 MSTORE POP POP JUMP JUMPDEST PUSH1 0x0 PUSH1 0x20 DUP3 ADD SWAP1 POP PUSH2 0x152D PUSH1 0x0 DUP4 ADD DUP5 PUSH2 0x1509 JUMP JUMPDEST SWAP3 SWAP2 POP POP JUMP JUMPDEST PUSH32 0x4E487B7100000000000000000000000000000000000000000000000000000000 PUSH1 0x0 MSTORE PUSH1 0x22 PUSH1 0x4 MSTORE PUSH1 0x24 PUSH1 0x0 REVERT JUMPDEST PUSH1 0x0 PUSH1 0x2 DUP3 DIV SWAP1 POP PUSH1 0x1 DUP3 AND DUP1 PUSH2 0x157A JUMPI PUSH1 0x7F DUP3 AND SWAP2 POP JUMPDEST PUSH1 0x20 DUP3 LT DUP2 SUB PUSH2 0x158D JUMPI PUSH2 0x158C PUSH2 0x1533 JUMP JUMPDEST JUMPDEST POP SWAP2 SWAP1 POP JUMP JUMPDEST PUSH32 0x455243373231203A200000000000000000000000000000000000000000000000 PUSH1 0x0 DUP3 ADD MSTORE POP JUMP JUMPDEST PUSH1 0x0 PUSH2 0x15C9 PUSH1 0x9 DUP4 PUSH2 0x11C7 JUMP JUMPDEST SWAP2 POP PUSH2 0x15D4 DUP3 PUSH2 0x1593 JUMP JUMPDEST PUSH1 0x20 DUP3 ADD SWAP1 POP SWAP2 SWAP1 POP JUMP JUMPDEST PUSH1 0x0 PUSH1 0x20 DUP3 ADD SWAP1 POP DUP2 DUP2 SUB PUSH1 0x0 DUP4 ADD MSTORE PUSH2 0x15F8 DUP2 PUSH2 0x15BC JUMP JUMPDEST SWAP1 POP SWAP2 SWAP1 POP JUMP JUMPDEST PUSH32 0x455243373231203A20617070726F76616C20746F2063757272656E74206F776E PUSH1 0x0 DUP3 ADD MSTORE PUSH32 0x6572000000000000000000000000000000000000000000000000000000000000 PUSH1 0x20 DUP3 ADD MSTORE POP JUMP JUMPDEST PUSH1 0x0 PUSH2 0x165B PUSH1 0x22 DUP4 PUSH2 0x11C7 JUMP JUMPDEST SWAP2 POP PUSH2 0x1666 DUP3 PUSH2 0x15FF JUMP JUMPDEST PUSH1 0x40 DUP3 ADD SWAP1 POP SWAP2 SWAP1 POP JUMP JUMPDEST PUSH1 0x0 PUSH1 0x20 DUP3 ADD SWAP1 POP DUP2 DUP2 SUB PUSH1 0x0 DUP4 ADD MSTORE PUSH2 0x168A DUP2 PUSH2 0x164E JUMP JUMPDEST SWAP1 POP SWAP2 SWAP1 POP JUMP JUMPDEST PUSH32 0x4E487B7100000000000000000000000000000000000000000000000000000000 PUSH1 0x0 MSTORE PUSH1 0x11 PUSH1 0x4 MSTORE PUSH1 0x24 PUSH1 0x0 REVERT JUMPDEST PUSH1 0x0 PUSH2 0x16CB DUP3 PUSH2 0x127C JUMP JUMPDEST SWAP2 POP PUSH2 0x16D6 DUP4 PUSH2 0x127C JUMP JUMPDEST SWAP3 POP DUP3 DUP3 LT ISZERO PUSH2 0x16E9 JUMPI PUSH2 0x16E8 PUSH2 0x1691 JUMP JUMPDEST JUMPDEST DUP3 DUP3 SUB SWAP1 POP SWAP3 SWAP2 POP POP JUMP JUMPDEST PUSH1 0x0 PUSH2 0x16FF DUP3 PUSH2 0x127C JUMP JUMPDEST SWAP2 POP PUSH2 0x170A DUP4 PUSH2 0x127C JUMP JUMPDEST SWAP3 POP DUP3 PUSH32 0xFFFFFFFFFFFFFFFFFFFFFFFFFFFFFFFFFFFFFFFFFFFFFFFFFFFFFFFFFFFFFFFF SUB DUP3 GT ISZERO PUSH2 0x173F JUMPI PUSH2 0x173E PUSH2 0x1691 JUMP JUMPDEST JUMPDEST DUP3 DUP3 ADD SWAP1 POP SWAP3 SWAP2 POP POP JUMP JUMPDEST PUSH32 0x4E487B7100000000000000000000000000000000000000000000000000000000 PUSH1 0x0 MSTORE PUSH1 0x32 PUSH1 0x4 MSTORE PUSH1 0x24 PUSH1 0x0 REVERT JUMPDEST PUSH32 0x455243373231203A206F776E657220717565727920666F7220746865206E6F6E PUSH1 0x0 DUP3 ADD MSTORE PUSH32 0x6578697374656E7420746F6B656E000000000000000000000000000000000000 PUSH1 0x20 DUP3 ADD MSTORE POP JUMP JUMPDEST PUSH1 0x0 PUSH2 0x17D5 PUSH1 0x2E DUP4 PUSH2 0x11C7 JUMP JUMPDEST SWAP2 POP PUSH2 0x17E0 DUP3 PUSH2 0x1779 JUMP JUMPDEST PUSH1 0x40 DUP3 ADD SWAP1 POP SWAP2 SWAP1 POP JUMP JUMPDEST PUSH1 0x0 PUSH1 0x20 DUP3 ADD SWAP1 POP DUP2 DUP2 SUB PUSH1 0x0 DUP4 ADD MSTORE PUSH2 0x1804 DUP2 PUSH2 0x17C8 JUMP JUMPDEST SWAP1 POP SWAP2 SWAP1 POP JUMP JUMPDEST PUSH32 0x455243373231203A2062616C616E636520717565727920666F7220746865207A PUSH1 0x0 DUP3 ADD MSTORE PUSH32 0x65726F2061646472657373000000000000000000000000000000000000000000 PUSH1 0x20 DUP3 ADD MSTORE POP JUMP JUMPDEST PUSH1 0x0 PUSH2 0x1867 PUSH1 0x2B DUP4 PUSH2 0x11C7 JUMP JUMPDEST SWAP2 POP PUSH2 0x1872 DUP3 PUSH2 0x180B JUMP JUMPDEST PUSH1 0x40 DUP3 ADD SWAP1 POP SWAP2 SWAP1 POP JUMP JUMPDEST PUSH1 0x0 PUSH1 0x20 DUP3 ADD SWAP1 POP DUP2 DUP2 SUB PUSH1 0x0 DUP4 ADD MSTORE PUSH2 0x1896 DUP2 PUSH2 0x185A JUMP JUMPDEST SWAP1 POP SWAP2 SWAP1 POP JUMP INVALID LOG2 PUSH5 0x6970667358 0x22 SLT KECCAK256 0xB6 RETURNDATACOPY CALLVALUE 0xD8 0xE2 DUP7 0xCE EXTCODEHASH 0xEF 0xCD CALLVALUE CHAINID 0xD0 0x5D 0xD2 JUMP SSTORE 0xDA LOG1 0xCB 0x4E 0xAD 0x5C PUSH12 0x4A97B69C5B54533264736F6C PUSH4 0x4300080F STOP CALLER "
				},
				"gasEstimates": {
					"creation": {
						"codeDepositCost": "1271000",
						"executionCost": "infinite",
						"totalCost": "infinite"
					},
					"external": {
						"_mint(address,uint256)": "infinite",
						"approve(address,uint256)": "31645",
						"balanceOf(address)": "2965",
						"getApproved(uint256)": "5160",
						"isApprovedForAll(address,address)": "infinite",
						"mint(address)": "infinite",
						"name()": "infinite",
						"ownerOf(uint256)": "5172",
						"setApprovalForAll(address,bool)": "infinite",
						"symbol()": "infinite",
						"tokenByIndex(uint256)": "infinite",
						"tokenOfOwnerByIndex(address,uint256)": "infinite",
						"tokenURI(uint256)": "infinite",
						"totalSupply()": "2468",
						"transferFrom(address,address,uint256)": "infinite"
					},
					"internal": {
						"_afterToken(address,address,uint256)": "infinite"
					}
				},
				"methodIdentifiers": {
					"_mint(address,uint256)": "4e6ec247",
					"approve(address,uint256)": "095ea7b3",
					"balanceOf(address)": "70a08231",
					"getApproved(uint256)": "081812fc",
					"isApprovedForAll(address,address)": "e985e9c5",
					"mint(address)": "6a627842",
					"name()": "06fdde03",
					"ownerOf(uint256)": "6352211e",
					"setApprovalForAll(address,bool)": "a22cb465",
					"symbol()": "95d89b41",
					"tokenByIndex(uint256)": "4f6ccce7",
					"tokenOfOwnerByIndex(address,uint256)": "2f745c59",
					"tokenURI(uint256)": "c87b56dd",
					"totalSupply()": "18160ddd",
					"transferFrom(address,address,uint256)": "23b872dd"
				}
			},
			"storageLayout": {
				"storage": [
					{
						"astId": 10,
						"contract": "ERC721/ERC721Enumerable.sol:ERC721Enumerable",
						"label": "name",
						"offset": 0,
						"slot": "0",
						"type": "t_string_storage"
					},
					{
						"astId": 13,
						"contract": "ERC721/ERC721Enumerable.sol:ERC721Enumerable",
						"label": "symbol",
						"offset": 0,
						"slot": "1",
						"type": "t_string_storage"
					},
					{
						"astId": 17,
						"contract": "ERC721/ERC721Enumerable.sol:ERC721Enumerable",
						"label": "_balances",
						"offset": 0,
						"slot": "2",
						"type": "t_mapping(t_address,t_uint256)"
					},
					{
						"astId": 21,
						"contract": "ERC721/ERC721Enumerable.sol:ERC721Enumerable",
						"label": "_owners",
						"offset": 0,
						"slot": "3",
						"type": "t_mapping(t_uint256,t_address)"
					},
					{
						"astId": 25,
						"contract": "ERC721/ERC721Enumerable.sol:ERC721Enumerable",
						"label": "_tokenApprovals",
						"offset": 0,
						"slot": "4",
						"type": "t_mapping(t_uint256,t_address)"
					},
					{
						"astId": 31,
						"contract": "ERC721/ERC721Enumerable.sol:ERC721Enumerable",
						"label": "_operatorApprovals",
						"offset": 0,
						"slot": "5",
						"type": "t_mapping(t_address,t_mapping(t_address,t_bool))"
					},
					{
						"astId": 405,
						"contract": "ERC721/ERC721Enumerable.sol:ERC721Enumerable",
						"label": "_allTokens",
						"offset": 0,
						"slot": "6",
						"type": "t_array(t_uint256)dyn_storage"
					},
					{
						"astId": 411,
						"contract": "ERC721/ERC721Enumerable.sol:ERC721Enumerable",
						"label": "_ownedTokens",
						"offset": 0,
						"slot": "7",
						"type": "t_mapping(t_address,t_mapping(t_uint256,t_uint256))"
					},
					{
						"astId": 415,
						"contract": "ERC721/ERC721Enumerable.sol:ERC721Enumerable",
						"label": "_ownedTokensIndex",
						"offset": 0,
						"slot": "8",
						"type": "t_mapping(t_uint256,t_uint256)"
					}
				],
				"types": {
					"t_address": {
						"encoding": "inplace",
						"label": "address",
						"numberOfBytes": "20"
					},
					"t_array(t_uint256)dyn_storage": {
						"base": "t_uint256",
						"encoding": "dynamic_array",
						"label": "uint256[]",
						"numberOfBytes": "32"
					},
					"t_bool": {
						"encoding": "inplace",
						"label": "bool",
						"numberOfBytes": "1"
					},
					"t_mapping(t_address,t_bool)": {
						"encoding": "mapping",
						"key": "t_address",
						"label": "mapping(address => bool)",
						"numberOfBytes": "32",
						"value": "t_bool"
					},
					"t_mapping(t_address,t_mapping(t_address,t_bool))": {
						"encoding": "mapping",
						"key": "t_address",
						"label": "mapping(address => mapping(address => bool))",
						"numberOfBytes": "32",
						"value": "t_mapping(t_address,t_bool)"
					},
					"t_mapping(t_address,t_mapping(t_uint256,t_uint256))": {
						"encoding": "mapping",
						"key": "t_address",
						"label": "mapping(address => mapping(uint256 => uint256))",
						"numberOfBytes": "32",
						"value": "t_mapping(t_uint256,t_uint256)"
					},
					"t_mapping(t_address,t_uint256)": {
						"encoding": "mapping",
						"key": "t_address",
						"label": "mapping(address => uint256)",
						"numberOfBytes": "32",
						"value": "t_uint256"
					},
					"t_mapping(t_uint256,t_address)": {
						"encoding": "mapping",
						"key": "t_uint256",
						"label": "mapping(uint256 => address)",
						"numberOfBytes": "32",
						"value": "t_address"
					},
					"t_mapping(t_uint256,t_uint256)": {
						"encoding": "mapping",
						"key": "t_uint256",
						"label": "mapping(uint256 => uint256)",
						"numberOfBytes": "32",
						"value": "t_uint256"
					},
					"t_string_storage": {
						"encoding": "bytes",
						"label": "string",
						"numberOfBytes": "32"
					},
					"t_uint256": {
						"encoding": "inplace",
						"label": "uint256",
						"numberOfBytes": "32"
					}
				}
			},
			"userdoc": {
				"kind": "user",
				"methods": {},
				"version": 1
			}
		}
	}
}