{
  "contractName": "IngToken",
  "abi": [
    {
      "inputs": [
        {
          "internalType": "string",
          "name": "_name",
          "type": "string"
        },
        {
          "internalType": "string",
          "name": "_symbol",
          "type": "string"
        },
        {
          "internalType": "string",
          "name": "_metadataURI",
          "type": "string"
        }
      ],
      "stateMutability": "nonpayable",
      "type": "constructor"
    },
    {
      "anonymous": false,
      "inputs": [
        {
          "indexed": true,
          "internalType": "address",
          "name": "owner",
          "type": "address"
        },
        {
          "indexed": true,
          "internalType": "address",
          "name": "approved",
          "type": "address"
        },
        {
          "indexed": true,
          "internalType": "uint256",
          "name": "tokenId",
          "type": "uint256"
        }
      ],
      "name": "Approval",
      "type": "event"
    },
    {
      "anonymous": false,
      "inputs": [
        {
          "indexed": true,
          "internalType": "address",
          "name": "owner",
          "type": "address"
        },
        {
          "indexed": true,
          "internalType": "address",
          "name": "operator",
          "type": "address"
        },
        {
          "indexed": false,
          "internalType": "bool",
          "name": "approved",
          "type": "bool"
        }
      ],
      "name": "ApprovalForAll",
      "type": "event"
    },
    {
      "anonymous": false,
      "inputs": [
        {
          "indexed": true,
          "internalType": "address",
          "name": "previousOwner",
          "type": "address"
        },
        {
          "indexed": true,
          "internalType": "address",
          "name": "newOwner",
          "type": "address"
        }
      ],
      "name": "OwnershipTransferred",
      "type": "event"
    },
    {
      "anonymous": false,
      "inputs": [
        {
          "indexed": true,
          "internalType": "address",
          "name": "from",
          "type": "address"
        },
        {
          "indexed": true,
          "internalType": "address",
          "name": "to",
          "type": "address"
        },
        {
          "indexed": true,
          "internalType": "uint256",
          "name": "tokenId",
          "type": "uint256"
        }
      ],
      "name": "Transfer",
      "type": "event"
    },
    {
      "inputs": [],
      "name": "MAX_TOKEN_COUNT",
      "outputs": [
        {
          "internalType": "uint256",
          "name": "",
          "type": "uint256"
        }
      ],
      "stateMutability": "view",
      "type": "function",
      "constant": true
    },
    {
      "inputs": [
        {
          "internalType": "uint256",
          "name": "",
          "type": "uint256"
        }
      ],
      "name": "TokenDatas",
      "outputs": [
        {
          "internalType": "uint256",
          "name": "Rank",
          "type": "uint256"
        },
        {
          "internalType": "uint256",
          "name": "Type",
          "type": "uint256"
        }
      ],
      "stateMutability": "view",
      "type": "function",
      "constant": true
    },
    {
      "inputs": [
        {
          "internalType": "address",
          "name": "to",
          "type": "address"
        },
        {
          "internalType": "uint256",
          "name": "tokenId",
          "type": "uint256"
        }
      ],
      "name": "approve",
      "outputs": [],
      "stateMutability": "nonpayable",
      "type": "function"
    },
    {
      "inputs": [
        {
          "internalType": "address",
          "name": "owner",
          "type": "address"
        }
      ],
      "name": "balanceOf",
      "outputs": [
        {
          "internalType": "uint256",
          "name": "",
          "type": "uint256"
        }
      ],
      "stateMutability": "view",
      "type": "function",
      "constant": true
    },
    {
      "inputs": [
        {
          "internalType": "uint256",
          "name": "tokenId",
          "type": "uint256"
        }
      ],
      "name": "getApproved",
      "outputs": [
        {
          "internalType": "address",
          "name": "",
          "type": "address"
        }
      ],
      "stateMutability": "view",
      "type": "function",
      "constant": true
    },
    {
      "inputs": [
        {
          "internalType": "address",
          "name": "owner",
          "type": "address"
        },
        {
          "internalType": "address",
          "name": "operator",
          "type": "address"
        }
      ],
      "name": "isApprovedForAll",
      "outputs": [
        {
          "internalType": "bool",
          "name": "",
          "type": "bool"
        }
      ],
      "stateMutability": "view",
      "type": "function",
      "constant": true
    },
    {
      "inputs": [],
      "name": "metadataURI",
      "outputs": [
        {
          "internalType": "string",
          "name": "",
          "type": "string"
        }
      ],
      "stateMutability": "view",
      "type": "function",
      "constant": true
    },
    {
      "inputs": [],
      "name": "mint_price",
      "outputs": [
        {
          "internalType": "uint256",
          "name": "",
          "type": "uint256"
        }
      ],
      "stateMutability": "view",
      "type": "function",
      "constant": true
    },
    {
      "inputs": [],
      "name": "name",
      "outputs": [
        {
          "internalType": "string",
          "name": "",
          "type": "string"
        }
      ],
      "stateMutability": "view",
      "type": "function",
      "constant": true
    },
    {
      "inputs": [],
      "name": "owner",
      "outputs": [
        {
          "internalType": "address",
          "name": "",
          "type": "address"
        }
      ],
      "stateMutability": "view",
      "type": "function",
      "constant": true
    },
    {
      "inputs": [
        {
          "internalType": "uint256",
          "name": "tokenId",
          "type": "uint256"
        }
      ],
      "name": "ownerOf",
      "outputs": [
        {
          "internalType": "address",
          "name": "",
          "type": "address"
        }
      ],
      "stateMutability": "view",
      "type": "function",
      "constant": true
    },
    {
      "inputs": [],
      "name": "renounceOwnership",
      "outputs": [],
      "stateMutability": "nonpayable",
      "type": "function"
    },
    {
      "inputs": [
        {
          "internalType": "address",
          "name": "from",
          "type": "address"
        },
        {
          "internalType": "address",
          "name": "to",
          "type": "address"
        },
        {
          "internalType": "uint256",
          "name": "tokenId",
          "type": "uint256"
        }
      ],
      "name": "safeTransferFrom",
      "outputs": [],
      "stateMutability": "nonpayable",
      "type": "function"
    },
    {
      "inputs": [
        {
          "internalType": "address",
          "name": "from",
          "type": "address"
        },
        {
          "internalType": "address",
          "name": "to",
          "type": "address"
        },
        {
          "internalType": "uint256",
          "name": "tokenId",
          "type": "uint256"
        },
        {
          "internalType": "bytes",
          "name": "_data",
          "type": "bytes"
        }
      ],
      "name": "safeTransferFrom",
      "outputs": [],
      "stateMutability": "nonpayable",
      "type": "function"
    },
    {
      "inputs": [
        {
          "internalType": "address",
          "name": "operator",
          "type": "address"
        },
        {
          "internalType": "bool",
          "name": "approved",
          "type": "bool"
        }
      ],
      "name": "setApprovalForAll",
      "outputs": [],
      "stateMutability": "nonpayable",
      "type": "function"
    },
    {
      "inputs": [
        {
          "internalType": "bytes4",
          "name": "interfaceId",
          "type": "bytes4"
        }
      ],
      "name": "supportsInterface",
      "outputs": [
        {
          "internalType": "bool",
          "name": "",
          "type": "bool"
        }
      ],
      "stateMutability": "view",
      "type": "function",
      "constant": true
    },
    {
      "inputs": [],
      "name": "symbol",
      "outputs": [
        {
          "internalType": "string",
          "name": "",
          "type": "string"
        }
      ],
      "stateMutability": "view",
      "type": "function",
      "constant": true
    },
    {
      "inputs": [
        {
          "internalType": "uint256",
          "name": "index",
          "type": "uint256"
        }
      ],
      "name": "tokenByIndex",
      "outputs": [
        {
          "internalType": "uint256",
          "name": "",
          "type": "uint256"
        }
      ],
      "stateMutability": "view",
      "type": "function",
      "constant": true
    },
    {
      "inputs": [
        {
          "internalType": "address",
          "name": "owner",
          "type": "address"
        },
        {
          "internalType": "uint256",
          "name": "index",
          "type": "uint256"
        }
      ],
      "name": "tokenOfOwnerByIndex",
      "outputs": [
        {
          "internalType": "uint256",
          "name": "",
          "type": "uint256"
        }
      ],
      "stateMutability": "view",
      "type": "function",
      "constant": true
    },
    {
      "inputs": [],
      "name": "totalSupply",
      "outputs": [
        {
          "internalType": "uint256",
          "name": "",
          "type": "uint256"
        }
      ],
      "stateMutability": "view",
      "type": "function",
      "constant": true
    },
    {
      "inputs": [
        {
          "internalType": "address",
          "name": "from",
          "type": "address"
        },
        {
          "internalType": "address",
          "name": "to",
          "type": "address"
        },
        {
          "internalType": "uint256",
          "name": "tokenId",
          "type": "uint256"
        }
      ],
      "name": "transferFrom",
      "outputs": [],
      "stateMutability": "nonpayable",
      "type": "function"
    },
    {
      "inputs": [
        {
          "internalType": "address",
          "name": "newOwner",
          "type": "address"
        }
      ],
      "name": "transferOwnership",
      "outputs": [],
      "stateMutability": "nonpayable",
      "type": "function"
    },
    {
      "inputs": [],
      "name": "mintToken",
      "outputs": [],
      "stateMutability": "payable",
      "type": "function",
      "payable": true
    },
    {
      "inputs": [
        {
          "internalType": "uint256",
          "name": "_tokenId",
          "type": "uint256"
        }
      ],
      "name": "tokenURI",
      "outputs": [
        {
          "internalType": "string",
          "name": "",
          "type": "string"
        }
      ],
      "stateMutability": "view",
      "type": "function",
      "constant": true
    }
  ],
  "bytecode": "0x6080604052670de0b6b3a7640000600b553480156200001d57600080fd5b506040516200407f3803806200407f833981810160405281019062000043919062000311565b8282816000908162000056919062000615565b50806001908162000068919062000615565b5050506200008b6200007f620000a660201b60201c565b620000ae60201b60201c565b80600c90816200009c919062000615565b50505050620006fc565b600033905090565b6000600a60009054906101000a900473ffffffffffffffffffffffffffffffffffffffff16905081600a60006101000a81548173ffffffffffffffffffffffffffffffffffffffff021916908373ffffffffffffffffffffffffffffffffffffffff1602179055508173ffffffffffffffffffffffffffffffffffffffff168173ffffffffffffffffffffffffffffffffffffffff167f8be0079c531659141344cd1fd0a4f28419497f9722a3daafe3b4186f6b6457e060405160405180910390a35050565b6000604051905090565b600080fd5b600080fd5b600080fd5b600080fd5b6000601f19601f8301169050919050565b7f4e487b7100000000000000000000000000000000000000000000000000000000600052604160045260246000fd5b620001dd8262000192565b810181811067ffffffffffffffff82111715620001ff57620001fe620001a3565b5b80604052505050565b60006200021462000174565b9050620002228282620001d2565b919050565b600067ffffffffffffffff821115620002455762000244620001a3565b5b620002508262000192565b9050602081019050919050565b60005b838110156200027d57808201518184015260208101905062000260565b838111156200028d576000848401525b50505050565b6000620002aa620002a48462000227565b62000208565b905082815260208101848484011115620002c957620002c86200018d565b5b620002d68482856200025d565b509392505050565b600082601f830112620002f657620002f562000188565b5b81516200030884826020860162000293565b91505092915050565b6000806000606084860312156200032d576200032c6200017e565b5b600084015167ffffffffffffffff8111156200034e576200034d62000183565b5b6200035c86828701620002de565b935050602084015167ffffffffffffffff81111562000380576200037f62000183565b5b6200038e86828701620002de565b925050604084015167ffffffffffffffff811115620003b257620003b162000183565b5b620003c086828701620002de565b9150509250925092565b600081519050919050565b7f4e487b7100000000000000000000000000000000000000000000000000000000600052602260045260246000fd5b600060028204905060018216806200041d57607f821691505b602082108103620004335762000432620003d5565b5b50919050565b60008190508160005260206000209050919050565b60006020601f8301049050919050565b600082821b905092915050565b6000600883026200049d7fffffffffffffffffffffffffffffffffffffffffffffffffffffffffffffffff826200045e565b620004a986836200045e565b95508019841693508086168417925050509392505050565b6000819050919050565b6000819050919050565b6000620004f6620004f0620004ea84620004c1565b620004cb565b620004c1565b9050919050565b6000819050919050565b6200051283620004d5565b6200052a6200052182620004fd565b8484546200046b565b825550505050565b600090565b6200054162000532565b6200054e81848462000507565b505050565b5b8181101562000576576200056a60008262000537565b60018101905062000554565b5050565b601f821115620005c5576200058f8162000439565b6200059a846200044e565b81016020851015620005aa578190505b620005c2620005b9856200044e565b83018262000553565b50505b505050565b600082821c905092915050565b6000620005ea60001984600802620005ca565b1980831691505092915050565b6000620006058383620005d7565b9150826002028217905092915050565b6200062082620003ca565b67ffffffffffffffff8111156200063c576200063b620001a3565b5b62000648825462000404565b620006558282856200057a565b600060209050601f8311600181146200068d576000841562000678578287015190505b620006848582620005f7565b865550620006f4565b601f1984166200069d8662000439565b60005b82811015620006c757848901518255600182019150602085019450602081019050620006a0565b86831015620006e75784890151620006e3601f891682620005d7565b8355505b6001600288020188555050505b505050505050565b613973806200070c6000396000f3fe60806040526004361061014b5760003560e01c80634f6ccce7116100b6578063a22cb4651161006f578063a22cb4651461049a578063b88d4fde146104c3578063c87b56dd146104ec578063d0bbb0d714610529578063e985e9c514610554578063f2fde38b146105915761014b565b80634f6ccce7146103765780636352211e146103b357806370a08231146103f0578063715018a61461042d5780638da5cb5b1461044457806395d89b411461046f5761014b565b80631a4231a4116101085780631a4231a4146102745780631b8151ae1461029f5780632004ffd9146102dd57806323b872dd146102e75780632f745c591461031057806342842e0e1461034d5761014b565b806301ffc9a71461015057806303ee438c1461018d57806306fdde03146101b8578063081812fc146101e3578063095ea7b31461022057806318160ddd14610249575b600080fd5b34801561015c57600080fd5b506101776004803603810190610172919061251d565b6105ba565b6040516101849190612565565b60405180910390f35b34801561019957600080fd5b506101a2610634565b6040516101af9190612619565b60405180910390f35b3480156101c457600080fd5b506101cd6106c2565b6040516101da9190612619565b60405180910390f35b3480156101ef57600080fd5b5061020a60048036038101906102059190612671565b610754565b60405161021791906126df565b60405180910390f35b34801561022c57600080fd5b5061024760048036038101906102429190612726565b6107d9565b005b34801561025557600080fd5b5061025e6108f0565b60405161026b9190612775565b60405180910390f35b34801561028057600080fd5b506102896108fd565b6040516102969190612775565b60405180910390f35b3480156102ab57600080fd5b506102c660048036038101906102c19190612671565b610903565b6040516102d4929190612790565b60405180910390f35b6102e5610927565b005b3480156102f357600080fd5b5061030e600480360381019061030991906127b9565b6109f1565b005b34801561031c57600080fd5b5061033760048036038101906103329190612726565b610a51565b6040516103449190612775565b60405180910390f35b34801561035957600080fd5b50610374600480360381019061036f91906127b9565b610af6565b005b34801561038257600080fd5b5061039d60048036038101906103989190612671565b610b16565b6040516103aa9190612775565b60405180910390f35b3480156103bf57600080fd5b506103da60048036038101906103d59190612671565b610b87565b6040516103e791906126df565b60405180910390f35b3480156103fc57600080fd5b506104176004803603810190610412919061280c565b610c38565b6040516104249190612775565b60405180910390f35b34801561043957600080fd5b50610442610cef565b005b34801561045057600080fd5b50610459610d77565b60405161046691906126df565b60405180910390f35b34801561047b57600080fd5b50610484610da1565b6040516104919190612619565b60405180910390f35b3480156104a657600080fd5b506104c160048036038101906104bc9190612865565b610e33565b005b3480156104cf57600080fd5b506104ea60048036038101906104e591906129da565b610e49565b005b3480156104f857600080fd5b50610513600480360381019061050e9190612671565b610eab565b6040516105209190612619565b60405180910390f35b34801561053557600080fd5b5061053e610f21565b60405161054b9190612775565b60405180910390f35b34801561056057600080fd5b5061057b60048036038101906105769190612a5d565b610f27565b6040516105889190612565565b60405180910390f35b34801561059d57600080fd5b506105b860048036038101906105b3919061280c565b610fbb565b005b60007f780e9d63000000000000000000000000000000000000000000000000000000007bffffffffffffffffffffffffffffffffffffffffffffffffffffffff1916827bffffffffffffffffffffffffffffffffffffffffffffffffffffffff1916148061062d575061062c826110b2565b5b9050919050565b600c805461064190612acc565b80601f016020809104026020016040519081016040528092919081815260200182805461066d90612acc565b80156106ba5780601f1061068f576101008083540402835291602001916106ba565b820191906000526020600020905b81548152906001019060200180831161069d57829003601f168201915b505050505081565b6060600080546106d190612acc565b80601f01602080910402602001604051908101604052809291908181526020018280546106fd90612acc565b801561074a5780601f1061071f5761010080835404028352916020019161074a565b820191906000526020600020905b81548152906001019060200180831161072d57829003601f168201915b5050505050905090565b600061075f82611194565b61079e576040517f08c379a000000000000000000000000000000000000000000000000000000000815260040161079590612b6f565b60405180910390fd5b6004600083815260200190815260200160002060009054906101000a900473ffffffffffffffffffffffffffffffffffffffff169050919050565b60006107e482610b87565b90508073ffffffffffffffffffffffffffffffffffffffff168373ffffffffffffffffffffffffffffffffffffffff1603610854576040517f08c379a000000000000000000000000000000000000000000000000000000000815260040161084b90612c01565b60405180910390fd5b8073ffffffffffffffffffffffffffffffffffffffff16610873611200565b73ffffffffffffffffffffffffffffffffffffffff1614806108a257506108a18161089c611200565b610f27565b5b6108e1576040517f08c379a00000000000000000000000000000000000000000000000000000000081526004016108d890612c93565b60405180910390fd5b6108eb8383611208565b505050565b6000600880549050905090565b600b5481565b600d6020528060005260406000206000915090508060000154908060010154905082565b600b54341461093557600080fd5b61093d6108f0565b6103e81161094a57600080fd5b600060016109566108f0565b6109609190612ce2565b905061096c33826112c1565b600d6000838152602001908152602001600020600082015181600001556020820151816001015590505061099e610d77565b73ffffffffffffffffffffffffffffffffffffffff166108fc349081150290604051600060405180830381858888f193505050501580156109e3573d6000803e3d6000fd5b506109ee3382611556565b50565b610a026109fc611200565b8261172f565b610a41576040517f08c379a0000000000000000000000000000000000000000000000000000000008152600401610a3890612daa565b60405180910390fd5b610a4c83838361180d565b505050565b6000610a5c83610c38565b8210610a9d576040517f08c379a0000000000000000000000000000000000000000000000000000000008152600401610a9490612e3c565b60405180910390fd5b600660008473ffffffffffffffffffffffffffffffffffffffff1673ffffffffffffffffffffffffffffffffffffffff168152602001908152602001600020600083815260200190815260200160002054905092915050565b610b1183838360405180602001604052806000815250610e49565b505050565b6000610b206108f0565b8210610b61576040517f08c379a0000000000000000000000000000000000000000000000000000000008152600401610b5890612ece565b60405180910390fd5b60088281548110610b7557610b74612eee565b5b90600052602060002001549050919050565b6000806002600084815260200190815260200160002060009054906101000a900473ffffffffffffffffffffffffffffffffffffffff169050600073ffffffffffffffffffffffffffffffffffffffff168173ffffffffffffffffffffffffffffffffffffffff1603610c2f576040517f08c379a0000000000000000000000000000000000000000000000000000000008152600401610c2690612f8f565b60405180910390fd5b80915050919050565b60008073ffffffffffffffffffffffffffffffffffffffff168273ffffffffffffffffffffffffffffffffffffffff1603610ca8576040517f08c379a0000000000000000000000000000000000000000000000000000000008152600401610c9f90613021565b60405180910390fd5b600360008373ffffffffffffffffffffffffffffffffffffffff1673ffffffffffffffffffffffffffffffffffffffff168152602001908152602001600020549050919050565b610cf7611200565b73ffffffffffffffffffffffffffffffffffffffff16610d15610d77565b73ffffffffffffffffffffffffffffffffffffffff1614610d6b576040517f08c379a0000000000000000000000000000000000000000000000000000000008152600401610d629061308d565b60405180910390fd5b610d756000611a73565b565b6000600a60009054906101000a900473ffffffffffffffffffffffffffffffffffffffff16905090565b606060018054610db090612acc565b80601f0160208091040260200160405190810160405280929190818152602001828054610ddc90612acc565b8015610e295780601f10610dfe57610100808354040283529160200191610e29565b820191906000526020600020905b815481529060010190602001808311610e0c57829003601f168201915b5050505050905090565b610e45610e3e611200565b8383611b39565b5050565b610e5a610e54611200565b8361172f565b610e99576040517f08c379a0000000000000000000000000000000000000000000000000000000008152600401610e9090612daa565b60405180910390fd5b610ea584848484611ca5565b50505050565b60606000610ece600d600085815260200190815260200160002060000154611d01565b90506000610ef1600d600086815260200190815260200160002060010154611d01565b9050600c8282604051602001610f0993929190613219565b60405160208183030381529060405292505050919050565b6103e881565b6000600560008473ffffffffffffffffffffffffffffffffffffffff1673ffffffffffffffffffffffffffffffffffffffff16815260200190815260200160002060008373ffffffffffffffffffffffffffffffffffffffff1673ffffffffffffffffffffffffffffffffffffffff16815260200190815260200160002060009054906101000a900460ff16905092915050565b610fc3611200565b73ffffffffffffffffffffffffffffffffffffffff16610fe1610d77565b73ffffffffffffffffffffffffffffffffffffffff1614611037576040517f08c379a000000000000000000000000000000000000000000000000000000000815260040161102e9061308d565b60405180910390fd5b600073ffffffffffffffffffffffffffffffffffffffff168173ffffffffffffffffffffffffffffffffffffffff16036110a6576040517f08c379a000000000000000000000000000000000000000000000000000000000815260040161109d906132dd565b60405180910390fd5b6110af81611a73565b50565b60007f80ac58cd000000000000000000000000000000000000000000000000000000007bffffffffffffffffffffffffffffffffffffffffffffffffffffffff1916827bffffffffffffffffffffffffffffffffffffffffffffffffffffffff1916148061117d57507f5b5e139f000000000000000000000000000000000000000000000000000000007bffffffffffffffffffffffffffffffffffffffffffffffffffffffff1916827bffffffffffffffffffffffffffffffffffffffffffffffffffffffff1916145b8061118d575061118c82611e61565b5b9050919050565b60008073ffffffffffffffffffffffffffffffffffffffff166002600084815260200190815260200160002060009054906101000a900473ffffffffffffffffffffffffffffffffffffffff1673ffffffffffffffffffffffffffffffffffffffff1614159050919050565b600033905090565b816004600083815260200190815260200160002060006101000a81548173ffffffffffffffffffffffffffffffffffffffff021916908373ffffffffffffffffffffffffffffffffffffffff160217905550808273ffffffffffffffffffffffffffffffffffffffff1661127b83610b87565b73ffffffffffffffffffffffffffffffffffffffff167f8c5be1e5ebec7d5bd14f71427d1e84f3dd0314c0f7b2291e5b200ac8c7c3b92560405160405180910390a45050565b6112c9612497565b6000606484846040516020016112e0929190613366565b6040516020818303038152906040528051906020012060001c61130391906133c1565b905061130d612497565b600582101561139d57600182036113395760048160000181815250506001816020018181525050611398565b6002820361135c5760048160000181815250506002816020018181525050611397565b6003820361137f5760048160000181815250506003816020018181525050611396565b600481600001818152505060048160200181815250505b5b5b61154b565b600d8210156114305760078210156113ca576003816000018181525050600181602001818152505061142b565b60098210156113ee576003816000018181525050600281602001818152505061142a565b600b8210156114125760038160000181815250506003816020018181525050611429565b600381600001818152505060048160200181815250505b5b5b61154a565b60258210156114c357601382101561145d57600281600001818152505060018160200181815250506114be565b601982101561148157600281600001818152505060028160200181815250506114bd565b601f8210156114a557600281600001818152505060038160200181815250506114bc565b600281600001818152505060048160200181815250505b5b5b611549565b60348210156114e75760018160000181815250506001816020018181525050611548565b604482101561150b5760018160000181815250506002816020018181525050611547565b605482101561152f5760018160000181815250506003816020018181525050611546565b600181600001818152505060048160200181815250505b5b5b5b5b5b809250505092915050565b600073ffffffffffffffffffffffffffffffffffffffff168273ffffffffffffffffffffffffffffffffffffffff16036115c5576040517f08c379a00000000000000000000000000000000000000000000000000000000081526004016115bc9061343e565b60405180910390fd5b6115ce81611194565b1561160e576040517f08c379a0000000000000000000000000000000000000000000000000000000008152600401611605906134aa565b60405180910390fd5b61161a60008383611ecb565b6001600360008473ffffffffffffffffffffffffffffffffffffffff1673ffffffffffffffffffffffffffffffffffffffff168152602001908152602001600020600082825461166a9190612ce2565b92505081905550816002600083815260200190815260200160002060006101000a81548173ffffffffffffffffffffffffffffffffffffffff021916908373ffffffffffffffffffffffffffffffffffffffff160217905550808273ffffffffffffffffffffffffffffffffffffffff16600073ffffffffffffffffffffffffffffffffffffffff167fddf252ad1be2c89b69c2b068fc378daa952ba7f163c4a11628f55a4df523b3ef60405160405180910390a461172b60008383611fdd565b5050565b600061173a82611194565b611779576040517f08c379a00000000000000000000000000000000000000000000000000000000081526004016117709061353c565b60405180910390fd5b600061178483610b87565b90508073ffffffffffffffffffffffffffffffffffffffff168473ffffffffffffffffffffffffffffffffffffffff1614806117c657506117c58185610f27565b5b8061180457508373ffffffffffffffffffffffffffffffffffffffff166117ec84610754565b73ffffffffffffffffffffffffffffffffffffffff16145b91505092915050565b8273ffffffffffffffffffffffffffffffffffffffff1661182d82610b87565b73ffffffffffffffffffffffffffffffffffffffff1614611883576040517f08c379a000000000000000000000000000000000000000000000000000000000815260040161187a906135ce565b60405180910390fd5b600073ffffffffffffffffffffffffffffffffffffffff168273ffffffffffffffffffffffffffffffffffffffff16036118f2576040517f08c379a00000000000000000000000000000000000000000000000000000000081526004016118e990613660565b60405180910390fd5b6118fd838383611ecb565b611908600082611208565b6001600360008573ffffffffffffffffffffffffffffffffffffffff1673ffffffffffffffffffffffffffffffffffffffff16815260200190815260200160002060008282546119589190613680565b925050819055506001600360008473ffffffffffffffffffffffffffffffffffffffff1673ffffffffffffffffffffffffffffffffffffffff16815260200190815260200160002060008282546119af9190612ce2565b92505081905550816002600083815260200190815260200160002060006101000a81548173ffffffffffffffffffffffffffffffffffffffff021916908373ffffffffffffffffffffffffffffffffffffffff160217905550808273ffffffffffffffffffffffffffffffffffffffff168473ffffffffffffffffffffffffffffffffffffffff167fddf252ad1be2c89b69c2b068fc378daa952ba7f163c4a11628f55a4df523b3ef60405160405180910390a4611a6e838383611fdd565b505050565b6000600a60009054906101000a900473ffffffffffffffffffffffffffffffffffffffff16905081600a60006101000a81548173ffffffffffffffffffffffffffffffffffffffff021916908373ffffffffffffffffffffffffffffffffffffffff1602179055508173ffffffffffffffffffffffffffffffffffffffff168173ffffffffffffffffffffffffffffffffffffffff167f8be0079c531659141344cd1fd0a4f28419497f9722a3daafe3b4186f6b6457e060405160405180910390a35050565b8173ffffffffffffffffffffffffffffffffffffffff168373ffffffffffffffffffffffffffffffffffffffff1603611ba7576040517f08c379a0000000000000000000000000000000000000000000000000000000008152600401611b9e90613700565b60405180910390fd5b80600560008573ffffffffffffffffffffffffffffffffffffffff1673ffffffffffffffffffffffffffffffffffffffff16815260200190815260200160002060008473ffffffffffffffffffffffffffffffffffffffff1673ffffffffffffffffffffffffffffffffffffffff16815260200190815260200160002060006101000a81548160ff0219169083151502179055508173ffffffffffffffffffffffffffffffffffffffff168373ffffffffffffffffffffffffffffffffffffffff167f17307eab39ab6107e8899845ad3d59bd9653f200f220920489ca2b5937696c3183604051611c989190612565565b60405180910390a3505050565b611cb084848461180d565b611cbc84848484611fe2565b611cfb576040517f08c379a0000000000000000000000000000000000000000000000000000000008152600401611cf290613792565b60405180910390fd5b50505050565b606060008203611d48576040518060400160405280600181526020017f30000000000000000000000000000000000000000000000000000000000000008152509050611e5c565b600082905060005b60008214611d7a578080611d63906137b2565b915050600a82611d7391906137fa565b9150611d50565b60008167ffffffffffffffff811115611d9657611d956128af565b5b6040519080825280601f01601f191660200182016040528015611dc85781602001600182028036833780820191505090505b5090505b60008514611e5557600182611de19190613680565b9150600a85611df091906133c1565b6030611dfc9190612ce2565b60f81b818381518110611e1257611e11612eee565b5b60200101907effffffffffffffffffffffffffffffffffffffffffffffffffffffffffffff1916908160001a905350600a85611e4e91906137fa565b9450611dcc565b8093505050505b919050565b60007f01ffc9a7000000000000000000000000000000000000000000000000000000007bffffffffffffffffffffffffffffffffffffffffffffffffffffffff1916827bffffffffffffffffffffffffffffffffffffffffffffffffffffffff1916149050919050565b611ed6838383612169565b600073ffffffffffffffffffffffffffffffffffffffff168373ffffffffffffffffffffffffffffffffffffffff1603611f1857611f138161216e565b611f57565b8173ffffffffffffffffffffffffffffffffffffffff168373ffffffffffffffffffffffffffffffffffffffff1614611f5657611f5583826121b7565b5b5b600073ffffffffffffffffffffffffffffffffffffffff168273ffffffffffffffffffffffffffffffffffffffff1603611f9957611f9481612324565b611fd8565b8273ffffffffffffffffffffffffffffffffffffffff168273ffffffffffffffffffffffffffffffffffffffff1614611fd757611fd682826123f5565b5b5b505050565b505050565b60006120038473ffffffffffffffffffffffffffffffffffffffff16612474565b1561215c578373ffffffffffffffffffffffffffffffffffffffff1663150b7a0261202c611200565b8786866040518563ffffffff1660e01b815260040161204e9493929190613880565b6020604051808303816000875af192505050801561208a57506040513d601f19601f8201168201806040525081019061208791906138e1565b60015b61210c573d80600081146120ba576040519150601f19603f3d011682016040523d82523d6000602084013e6120bf565b606091505b506000815103612104576040517f08c379a00000000000000000000000000000000000000000000000000000000081526004016120fb90613792565b60405180910390fd5b805181602001fd5b63150b7a0260e01b7bffffffffffffffffffffffffffffffffffffffffffffffffffffffff1916817bffffffffffffffffffffffffffffffffffffffffffffffffffffffff191614915050612161565b600190505b949350505050565b505050565b6008805490506009600083815260200190815260200160002081905550600881908060018154018082558091505060019003906000526020600020016000909190919091505550565b600060016121c484610c38565b6121ce9190613680565b90506000600760008481526020019081526020016000205490508181146122b3576000600660008673ffffffffffffffffffffffffffffffffffffffff1673ffffffffffffffffffffffffffffffffffffffff168152602001908152602001600020600084815260200190815260200160002054905080600660008773ffffffffffffffffffffffffffffffffffffffff1673ffffffffffffffffffffffffffffffffffffffff168152602001908152602001600020600084815260200190815260200160002081905550816007600083815260200190815260200160002081905550505b6007600084815260200190815260200160002060009055600660008573ffffffffffffffffffffffffffffffffffffffff1673ffffffffffffffffffffffffffffffffffffffff16815260200190815260200160002060008381526020019081526020016000206000905550505050565b600060016008805490506123389190613680565b905060006009600084815260200190815260200160002054905060006008838154811061236857612367612eee565b5b90600052602060002001549050806008838154811061238a57612389612eee565b5b9060005260206000200181905550816009600083815260200190815260200160002081905550600960008581526020019081526020016000206000905560088054806123d9576123d861390e565b5b6001900381819060005260206000200160009055905550505050565b600061240083610c38565b905081600660008573ffffffffffffffffffffffffffffffffffffffff1673ffffffffffffffffffffffffffffffffffffffff168152602001908152602001600020600083815260200190815260200160002081905550806007600084815260200190815260200160002081905550505050565b6000808273ffffffffffffffffffffffffffffffffffffffff163b119050919050565b604051806040016040528060008152602001600081525090565b6000604051905090565b600080fd5b600080fd5b60007fffffffff0000000000000000000000000000000000000000000000000000000082169050919050565b6124fa816124c5565b811461250557600080fd5b50565b600081359050612517816124f1565b92915050565b600060208284031215612533576125326124bb565b5b600061254184828501612508565b91505092915050565b60008115159050919050565b61255f8161254a565b82525050565b600060208201905061257a6000830184612556565b92915050565b600081519050919050565b600082825260208201905092915050565b60005b838110156125ba57808201518184015260208101905061259f565b838111156125c9576000848401525b50505050565b6000601f19601f8301169050919050565b60006125eb82612580565b6125f5818561258b565b935061260581856020860161259c565b61260e816125cf565b840191505092915050565b6000602082019050818103600083015261263381846125e0565b905092915050565b6000819050919050565b61264e8161263b565b811461265957600080fd5b50565b60008135905061266b81612645565b92915050565b600060208284031215612687576126866124bb565b5b60006126958482850161265c565b91505092915050565b600073ffffffffffffffffffffffffffffffffffffffff82169050919050565b60006126c98261269e565b9050919050565b6126d9816126be565b82525050565b60006020820190506126f460008301846126d0565b92915050565b612703816126be565b811461270e57600080fd5b50565b600081359050612720816126fa565b92915050565b6000806040838503121561273d5761273c6124bb565b5b600061274b85828601612711565b925050602061275c8582860161265c565b9150509250929050565b61276f8161263b565b82525050565b600060208201905061278a6000830184612766565b92915050565b60006040820190506127a56000830185612766565b6127b26020830184612766565b9392505050565b6000806000606084860312156127d2576127d16124bb565b5b60006127e086828701612711565b93505060206127f186828701612711565b92505060406128028682870161265c565b9150509250925092565b600060208284031215612822576128216124bb565b5b600061283084828501612711565b91505092915050565b6128428161254a565b811461284d57600080fd5b50565b60008135905061285f81612839565b92915050565b6000806040838503121561287c5761287b6124bb565b5b600061288a85828601612711565b925050602061289b85828601612850565b9150509250929050565b600080fd5b600080fd5b7f4e487b7100000000000000000000000000000000000000000000000000000000600052604160045260246000fd5b6128e7826125cf565b810181811067ffffffffffffffff82111715612906576129056128af565b5b80604052505050565b60006129196124b1565b905061292582826128de565b919050565b600067ffffffffffffffff821115612945576129446128af565b5b61294e826125cf565b9050602081019050919050565b82818337600083830152505050565b600061297d6129788461292a565b61290f565b905082815260208101848484011115612999576129986128aa565b5b6129a484828561295b565b509392505050565b600082601f8301126129c1576129c06128a5565b5b81356129d184826020860161296a565b91505092915050565b600080600080608085870312156129f4576129f36124bb565b5b6000612a0287828801612711565b9450506020612a1387828801612711565b9350506040612a248782880161265c565b925050606085013567ffffffffffffffff811115612a4557612a446124c0565b5b612a51878288016129ac565b91505092959194509250565b60008060408385031215612a7457612a736124bb565b5b6000612a8285828601612711565b9250506020612a9385828601612711565b9150509250929050565b7f4e487b7100000000000000000000000000000000000000000000000000000000600052602260045260246000fd5b60006002820490506001821680612ae457607f821691505b602082108103612af757612af6612a9d565b5b50919050565b7f4552433732313a20617070726f76656420717565727920666f72206e6f6e657860008201527f697374656e7420746f6b656e0000000000000000000000000000000000000000602082015250565b6000612b59602c8361258b565b9150612b6482612afd565b604082019050919050565b60006020820190508181036000830152612b8881612b4c565b9050919050565b7f4552433732313a20617070726f76616c20746f2063757272656e74206f776e6560008201527f7200000000000000000000000000000000000000000000000000000000000000602082015250565b6000612beb60218361258b565b9150612bf682612b8f565b604082019050919050565b60006020820190508181036000830152612c1a81612bde565b9050919050565b7f4552433732313a20617070726f76652063616c6c6572206973206e6f74206f7760008201527f6e6572206e6f7220617070726f76656420666f7220616c6c0000000000000000602082015250565b6000612c7d60388361258b565b9150612c8882612c21565b604082019050919050565b60006020820190508181036000830152612cac81612c70565b9050919050565b7f4e487b7100000000000000000000000000000000000000000000000000000000600052601160045260246000fd5b6000612ced8261263b565b9150612cf88361263b565b9250827fffffffffffffffffffffffffffffffffffffffffffffffffffffffffffffffff03821115612d2d57612d2c612cb3565b5b828201905092915050565b7f4552433732313a207472616e736665722063616c6c6572206973206e6f74206f60008201527f776e6572206e6f7220617070726f766564000000000000000000000000000000602082015250565b6000612d9460318361258b565b9150612d9f82612d38565b604082019050919050565b60006020820190508181036000830152612dc381612d87565b9050919050565b7f455243373231456e756d657261626c653a206f776e657220696e646578206f7560008201527f74206f6620626f756e6473000000000000000000000000000000000000000000602082015250565b6000612e26602b8361258b565b9150612e3182612dca565b604082019050919050565b60006020820190508181036000830152612e5581612e19565b9050919050565b7f455243373231456e756d657261626c653a20676c6f62616c20696e646578206f60008201527f7574206f6620626f756e64730000000000000000000000000000000000000000602082015250565b6000612eb8602c8361258b565b9150612ec382612e5c565b604082019050919050565b60006020820190508181036000830152612ee781612eab565b9050919050565b7f4e487b7100000000000000000000000000000000000000000000000000000000600052603260045260246000fd5b7f4552433732313a206f776e657220717565727920666f72206e6f6e657869737460008201527f656e7420746f6b656e0000000000000000000000000000000000000000000000602082015250565b6000612f7960298361258b565b9150612f8482612f1d565b604082019050919050565b60006020820190508181036000830152612fa881612f6c565b9050919050565b7f4552433732313a2062616c616e636520717565727920666f7220746865207a6560008201527f726f206164647265737300000000000000000000000000000000000000000000602082015250565b600061300b602a8361258b565b915061301682612faf565b604082019050919050565b6000602082019050818103600083015261303a81612ffe565b9050919050565b7f4f776e61626c653a2063616c6c6572206973206e6f7420746865206f776e6572600082015250565b600061307760208361258b565b915061308282613041565b602082019050919050565b600060208201905081810360008301526130a68161306a565b9050919050565b600081905092915050565b60008190508160005260206000209050919050565b600081546130da81612acc565b6130e481866130ad565b945060018216600081146130ff576001811461311457613147565b60ff1983168652811515820286019350613147565b61311d856130b8565b60005b8381101561313f57815481890152600182019150602081019050613120565b838801955050505b50505092915050565b7f2f00000000000000000000000000000000000000000000000000000000000000600082015250565b60006131866001836130ad565b915061319182613150565b600182019050919050565b60006131a782612580565b6131b181856130ad565b93506131c181856020860161259c565b80840191505092915050565b7f2e6a736f6e000000000000000000000000000000000000000000000000000000600082015250565b60006132036005836130ad565b915061320e826131cd565b600582019050919050565b600061322582866130cd565b915061323082613179565b915061323c828561319c565b915061324782613179565b9150613253828461319c565b915061325e826131f6565b9150819050949350505050565b7f4f776e61626c653a206e6577206f776e657220697320746865207a65726f206160008201527f6464726573730000000000000000000000000000000000000000000000000000602082015250565b60006132c760268361258b565b91506132d28261326b565b604082019050919050565b600060208201905081810360008301526132f6816132ba565b9050919050565b60008160601b9050919050565b6000613315826132fd565b9050919050565b60006133278261330a565b9050919050565b61333f61333a826126be565b61331c565b82525050565b6000819050919050565b61336061335b8261263b565b613345565b82525050565b6000613372828561332e565b601482019150613382828461334f565b6020820191508190509392505050565b7f4e487b7100000000000000000000000000000000000000000000000000000000600052601260045260246000fd5b60006133cc8261263b565b91506133d78361263b565b9250826133e7576133e6613392565b5b828206905092915050565b7f4552433732313a206d696e7420746f20746865207a65726f2061646472657373600082015250565b600061342860208361258b565b9150613433826133f2565b602082019050919050565b600060208201905081810360008301526134578161341b565b9050919050565b7f4552433732313a20746f6b656e20616c7265616479206d696e74656400000000600082015250565b6000613494601c8361258b565b915061349f8261345e565b602082019050919050565b600060208201905081810360008301526134c381613487565b9050919050565b7f4552433732313a206f70657261746f7220717565727920666f72206e6f6e657860008201527f697374656e7420746f6b656e0000000000000000000000000000000000000000602082015250565b6000613526602c8361258b565b9150613531826134ca565b604082019050919050565b6000602082019050818103600083015261355581613519565b9050919050565b7f4552433732313a207472616e736665722066726f6d20696e636f72726563742060008201527f6f776e6572000000000000000000000000000000000000000000000000000000602082015250565b60006135b860258361258b565b91506135c38261355c565b604082019050919050565b600060208201905081810360008301526135e7816135ab565b9050919050565b7f4552433732313a207472616e7366657220746f20746865207a65726f2061646460008201527f7265737300000000000000000000000000000000000000000000000000000000602082015250565b600061364a60248361258b565b9150613655826135ee565b604082019050919050565b600060208201905081810360008301526136798161363d565b9050919050565b600061368b8261263b565b91506136968361263b565b9250828210156136a9576136a8612cb3565b5b828203905092915050565b7f4552433732313a20617070726f766520746f2063616c6c657200000000000000600082015250565b60006136ea60198361258b565b91506136f5826136b4565b602082019050919050565b60006020820190508181036000830152613719816136dd565b9050919050565b7f4552433732313a207472616e7366657220746f206e6f6e20455243373231526560008201527f63656976657220696d706c656d656e7465720000000000000000000000000000602082015250565b600061377c60328361258b565b915061378782613720565b604082019050919050565b600060208201905081810360008301526137ab8161376f565b9050919050565b60006137bd8261263b565b91507fffffffffffffffffffffffffffffffffffffffffffffffffffffffffffffffff82036137ef576137ee612cb3565b5b600182019050919050565b60006138058261263b565b91506138108361263b565b9250826138205761381f613392565b5b828204905092915050565b600081519050919050565b600082825260208201905092915050565b60006138528261382b565b61385c8185613836565b935061386c81856020860161259c565b613875816125cf565b840191505092915050565b600060808201905061389560008301876126d0565b6138a260208301866126d0565b6138af6040830185612766565b81810360608301526138c18184613847565b905095945050505050565b6000815190506138db816124f1565b92915050565b6000602082840312156138f7576138f66124bb565b5b6000613905848285016138cc565b91505092915050565b7f4e487b7100000000000000000000000000000000000000000000000000000000600052603160045260246000fdfea2646970667358221220084f8719481eaeba10f59a9fcecdc2b0fff0573d082477ea61b635abbee3808b64736f6c634300080f0033",
  "immutableReferences": {},
  "source": "// SPDX-License-Identifier: MIT\r\npragma solidity ^0.8.15;\r\n\r\nimport \"./node_modules/openzeppelin-solidity/contracts/token/ERC721/extensions/ERC721Enumerable.sol\";\r\nimport \"./node_modules/openzeppelin-solidity/contracts/access/Ownable.sol\";\r\nimport \"./node_modules/openzeppelin-solidity/contracts/utils/Strings.sol\";\r\n\r\ncontract IngToken is ERC721Enumerable, Ownable{\r\n    uint constant public MAX_TOKEN_COUNT = 1000;\r\n    uint public mint_price = 1 ether;\r\n    string public metadataURI;\r\n    // 4   10000000000\r\n    //   0xa1BFe3cF53a27dF1b7CF3D89D00D305a722b4583\r\n    //  0x442Eaf5a06E08198Ec0A9a3DbE24df1D4593b708\r\n    // https://gateway.pinata.cloud/ipfs/QmUsEKtVS5Gn4rZWbYfD7D4qLLKPf1YbsBWYaSqtmCPBzf\r\n    constructor(string memory _name, string memory _symbol, string memory _metadataURI) ERC721(_name, _symbol){\r\n        metadataURI = _metadataURI;\r\n    }\r\n\r\n    struct TokenData {\r\n        uint Rank;\r\n        uint Type;\r\n    }\r\n\r\n    mapping(uint=>TokenData) public TokenDatas;\r\n\r\n    function mintToken() public payable {\r\n        \r\n        require(msg.value == mint_price);\r\n        require(MAX_TOKEN_COUNT > totalSupply());\r\n\r\n        uint tokenId = totalSupply() + 1;\r\n        // rank, type\r\n        TokenDatas[tokenId] = getRandomNum(msg.sender, tokenId);\r\n\r\n        payable(Ownable.owner()).transfer(msg.value);\r\n        _mint(msg.sender, tokenId);\r\n    }\r\n\r\n    function tokenURI(uint _tokenId) public override view returns(string memory) {\r\n        string memory Rank = Strings.toString(TokenDatas[_tokenId].Rank);\r\n        string memory Type = Strings.toString(TokenDatas[_tokenId].Type);\r\n        return string(abi.encodePacked(metadataURI,\"/\",Rank,\"/\",Type,\".json\"));\r\n    }\r\n\r\n    function getRandomNum(address _owner, uint _tokenId) private pure returns (TokenData memory){\r\n        uint randomNum = uint(keccak256(abi.encodePacked(_owner, _tokenId)))%100;  // 00~99 32\r\n        TokenData memory data; \r\n\r\n        if (randomNum < 5) {\r\n            if (randomNum == 1) {\r\n                data.Rank = 4;\r\n                data.Type = 1;\r\n            } else if (randomNum == 2) {\r\n                data.Rank = 4;\r\n                data.Type = 2;\r\n            } else if (randomNum == 3) {\r\n                data.Rank = 4;\r\n                data.Type = 3;\r\n            } else {\r\n                data.Rank = 4;\r\n                data.Type = 4;\r\n            }\r\n        } else if (randomNum < 13) {\r\n            if (randomNum < 7) {\r\n                data.Rank = 3;\r\n                data.Type = 1;\r\n            } else if (randomNum < 9) {\r\n                data.Rank = 3;\r\n                data.Type = 2;\r\n            } else if (randomNum < 11) {\r\n                data.Rank = 3;\r\n                data.Type = 3;\r\n            } else {\r\n                data.Rank = 3;\r\n                data.Type = 4;\r\n            }\r\n        } else if (randomNum < 37) {\r\n            if (randomNum < 19) {\r\n                data.Rank = 2;\r\n                data.Type = 1;\r\n            } else if (randomNum < 25) {\r\n                data.Rank = 2;\r\n                data.Type = 2;\r\n            } else if (randomNum < 31) {\r\n                data.Rank = 2;\r\n                data.Type = 3;\r\n            } else {\r\n                data.Rank = 2;\r\n                data.Type = 4;\r\n            }\r\n        } else {\r\n            if (randomNum < 52) {\r\n                data.Rank = 1;\r\n                data.Type = 1;\r\n            } else if (randomNum < 68) {\r\n                data.Rank = 1;\r\n                data.Type = 2;\r\n            } else if (randomNum < 84) {\r\n                data.Rank = 1;\r\n                data.Type = 3;\r\n            } else {\r\n                data.Rank = 1;\r\n                data.Type = 4;\r\n            }\r\n        }\r\n\r\n        return data;\r\n    }\r\n}\r\n",
  "sourcePath": "C:\\Users\\pc-007\\Documents\\workspace\\blockchain5\\5\\20220728\\truffle\\contracts\\ingToken.sol",
  "compiler": {
    "name": "solc",
    "version": "0.8.15+commit.e14f2714.Emscripten.clang"
  },
  "schemaVersion": "3.4.3",
  "updatedAt": "2022-07-28T02:27:49.789Z",
  "networkType": "ethereum",
  "devdoc": {
    "kind": "dev",
    "methods": {
      "approve(address,uint256)": {
        "details": "See {IERC721-approve}."
      },
      "balanceOf(address)": {
        "details": "See {IERC721-balanceOf}."
      },
      "getApproved(uint256)": {
        "details": "See {IERC721-getApproved}."
      },
      "isApprovedForAll(address,address)": {
        "details": "See {IERC721-isApprovedForAll}."
      },
      "name()": {
        "details": "See {IERC721Metadata-name}."
      },
      "owner()": {
        "details": "Returns the address of the current owner."
      },
      "ownerOf(uint256)": {
        "details": "See {IERC721-ownerOf}."
      },
      "renounceOwnership()": {
        "details": "Leaves the contract without owner. It will not be possible to call `onlyOwner` functions anymore. Can only be called by the current owner. NOTE: Renouncing ownership will leave the contract without an owner, thereby removing any functionality that is only available to the owner."
      },
      "safeTransferFrom(address,address,uint256)": {
        "details": "See {IERC721-safeTransferFrom}."
      },
      "safeTransferFrom(address,address,uint256,bytes)": {
        "details": "See {IERC721-safeTransferFrom}."
      },
      "setApprovalForAll(address,bool)": {
        "details": "See {IERC721-setApprovalForAll}."
      },
      "supportsInterface(bytes4)": {
        "details": "See {IERC165-supportsInterface}."
      },
      "symbol()": {
        "details": "See {IERC721Metadata-symbol}."
      },
      "tokenByIndex(uint256)": {
        "details": "See {IERC721Enumerable-tokenByIndex}."
      },
      "tokenOfOwnerByIndex(address,uint256)": {
        "details": "See {IERC721Enumerable-tokenOfOwnerByIndex}."
      },
      "totalSupply()": {
        "details": "See {IERC721Enumerable-totalSupply}."
      },
      "transferFrom(address,address,uint256)": {
        "details": "See {IERC721-transferFrom}."
      },
      "transferOwnership(address)": {
        "details": "Transfers ownership of the contract to a new account (`newOwner`). Can only be called by the current owner."
      }
    },
    "version": 1
  },
  "userdoc": {
    "kind": "user",
    "methods": {},
    "version": 1
  }
}