{
  "contractName": "SaleToken",
  "abi": [
    {
      "inputs": [
        {
          "internalType": "address",
          "name": "_tokenAddress",
          "type": "address"
        }
      ],
      "stateMutability": "nonpayable",
      "type": "constructor"
    },
    {
      "inputs": [
        {
          "internalType": "uint256",
          "name": "",
          "type": "uint256"
        }
      ],
      "name": "SaleTokenList",
      "outputs": [
        {
          "internalType": "uint256",
          "name": "",
          "type": "uint256"
        }
      ],
      "stateMutability": "view",
      "type": "function",
      "constant": true
    },
    {
      "inputs": [],
      "name": "Token",
      "outputs": [
        {
          "internalType": "contract IngToken",
          "name": "",
          "type": "address"
        }
      ],
      "stateMutability": "view",
      "type": "function",
      "constant": true
    },
    {
      "inputs": [
        {
          "internalType": "uint256",
          "name": "",
          "type": "uint256"
        }
      ],
      "name": "tokenPrices",
      "outputs": [
        {
          "internalType": "uint256",
          "name": "",
          "type": "uint256"
        }
      ],
      "stateMutability": "view",
      "type": "function",
      "constant": true
    },
    {
      "inputs": [
        {
          "internalType": "uint256",
          "name": "_tokenId",
          "type": "uint256"
        },
        {
          "internalType": "uint256",
          "name": "_price",
          "type": "uint256"
        }
      ],
      "name": "SalesToken",
      "outputs": [],
      "stateMutability": "nonpayable",
      "type": "function"
    },
    {
      "inputs": [
        {
          "internalType": "uint256",
          "name": "_tokenId",
          "type": "uint256"
        }
      ],
      "name": "PurchaseToken",
      "outputs": [],
      "stateMutability": "payable",
      "type": "function",
      "payable": true
    },
    {
      "inputs": [
        {
          "internalType": "uint256",
          "name": "_tokenId",
          "type": "uint256"
        }
      ],
      "name": "cancelSaleToken",
      "outputs": [],
      "stateMutability": "nonpayable",
      "type": "function"
    }
  ],
  "bytecode": "0x608060405234801561001057600080fd5b50604051610cab380380610cab833981810160405281019061003291906100db565b806000806101000a81548173ffffffffffffffffffffffffffffffffffffffff021916908373ffffffffffffffffffffffffffffffffffffffff16021790555050610108565b600080fd5b600073ffffffffffffffffffffffffffffffffffffffff82169050919050565b60006100a88261007d565b9050919050565b6100b88161009d565b81146100c357600080fd5b50565b6000815190506100d5816100af565b92915050565b6000602082840312156100f1576100f0610078565b5b60006100ff848285016100c6565b91505092915050565b610b94806101176000396000f3fe6080604052600436106100555760003560e01c80630c8cc5691461005a5780631899ca99146100975780633048f512146100c0578063921e033b146100dc578063c241267614610105578063e5afe3e614610130575b600080fd5b34801561006657600080fd5b50610081600480360381019061007c91906107e5565b61016d565b60405161008e9190610821565b60405180910390f35b3480156100a357600080fd5b506100be60048036038101906100b991906107e5565b610191565b005b6100da60048036038101906100d591906107e5565b6102af565b005b3480156100e857600080fd5b5061010360048036038101906100fe919061083c565b6104c3565b005b34801561011157600080fd5b5061011a610692565b60405161012791906108fb565b60405180910390f35b34801561013c57600080fd5b50610157600480360381019061015291906107e5565b6106b6565b6040516101649190610821565b60405180910390f35b6002818154811061017d57600080fd5b906000526020600020016000915090505481565b60008060009054906101000a900473ffffffffffffffffffffffffffffffffffffffff1673ffffffffffffffffffffffffffffffffffffffff16636352211e836040518263ffffffff1660e01b81526004016101ed9190610821565b602060405180830381865afa15801561020a573d6000803e3d6000fd5b505050506040513d601f19601f8201168201806040525081019061022e9190610954565b90503373ffffffffffffffffffffffffffffffffffffffff168173ffffffffffffffffffffffffffffffffffffffff161461026857600080fd5b600060016000848152602001908152602001600020541161028857600080fd5b600060016000848152602001908152602001600020819055506102aa826106ce565b505050565b60008060009054906101000a900473ffffffffffffffffffffffffffffffffffffffff1673ffffffffffffffffffffffffffffffffffffffff16636352211e836040518263ffffffff1660e01b815260040161030b9190610821565b602060405180830381865afa158015610328573d6000803e3d6000fd5b505050506040513d601f19601f8201168201806040525081019061034c9190610954565b90503373ffffffffffffffffffffffffffffffffffffffff168173ffffffffffffffffffffffffffffffffffffffff160361038657600080fd5b60006001600084815260200190815260200160002054116103a657600080fd5b34600160008481526020019081526020016000205411156103c657600080fd5b8073ffffffffffffffffffffffffffffffffffffffff166108fc349081150290604051600060405180830381858888f1935050505015801561040c573d6000803e3d6000fd5b5060008054906101000a900473ffffffffffffffffffffffffffffffffffffffff1673ffffffffffffffffffffffffffffffffffffffff166323b872dd8233856040518463ffffffff1660e01b815260040161046a93929190610990565b600060405180830381600087803b15801561048457600080fd5b505af1158015610498573d6000803e3d6000fd5b50505050600060016000848152602001908152602001600020819055506104be826106ce565b505050565b60008060009054906101000a900473ffffffffffffffffffffffffffffffffffffffff1673ffffffffffffffffffffffffffffffffffffffff16636352211e846040518263ffffffff1660e01b815260040161051f9190610821565b602060405180830381865afa15801561053c573d6000803e3d6000fd5b505050506040513d601f19601f820116820180604052508101906105609190610954565b90503373ffffffffffffffffffffffffffffffffffffffff168173ffffffffffffffffffffffffffffffffffffffff161461059a57600080fd5b600082116105a757600080fd5b60008054906101000a900473ffffffffffffffffffffffffffffffffffffffff1673ffffffffffffffffffffffffffffffffffffffff1663e985e9c533306040518363ffffffff1660e01b81526004016106029291906109c7565b602060405180830381865afa15801561061f573d6000803e3d6000fd5b505050506040513d601f19601f820116820180604052508101906106439190610a28565b61064c57600080fd5b8160016000858152602001908152602001600020819055506002839080600181540180825580915050600190039060005260206000200160009091909190915055505050565b60008054906101000a900473ffffffffffffffffffffffffffffffffffffffff1681565b60016020528060005260406000206000915090505481565b600080600090505b60028054905081101561079f5782600282815481106106f8576106f7610a55565b5b90600052602060002001540361078c576002600160028054905061071c9190610ab3565b8154811061072d5761072c610a55565b5b90600052602060002001546002828154811061074c5761074b610a55565b5b9060005260206000200181905550600280548061076c5761076b610ae7565b5b6001900381819060005260206000200160009055905560019150506107a5565b808061079790610b16565b9150506106d6565b50600090505b919050565b600080fd5b6000819050919050565b6107c2816107af565b81146107cd57600080fd5b50565b6000813590506107df816107b9565b92915050565b6000602082840312156107fb576107fa6107aa565b5b6000610809848285016107d0565b91505092915050565b61081b816107af565b82525050565b60006020820190506108366000830184610812565b92915050565b60008060408385031215610853576108526107aa565b5b6000610861858286016107d0565b9250506020610872858286016107d0565b9150509250929050565b600073ffffffffffffffffffffffffffffffffffffffff82169050919050565b6000819050919050565b60006108c16108bc6108b78461087c565b61089c565b61087c565b9050919050565b60006108d3826108a6565b9050919050565b60006108e5826108c8565b9050919050565b6108f5816108da565b82525050565b600060208201905061091060008301846108ec565b92915050565b60006109218261087c565b9050919050565b61093181610916565b811461093c57600080fd5b50565b60008151905061094e81610928565b92915050565b60006020828403121561096a576109696107aa565b5b60006109788482850161093f565b91505092915050565b61098a81610916565b82525050565b60006060820190506109a56000830186610981565b6109b26020830185610981565b6109bf6040830184610812565b949350505050565b60006040820190506109dc6000830185610981565b6109e96020830184610981565b9392505050565b60008115159050919050565b610a05816109f0565b8114610a1057600080fd5b50565b600081519050610a22816109fc565b92915050565b600060208284031215610a3e57610a3d6107aa565b5b6000610a4c84828501610a13565b91505092915050565b7f4e487b7100000000000000000000000000000000000000000000000000000000600052603260045260246000fd5b7f4e487b7100000000000000000000000000000000000000000000000000000000600052601160045260246000fd5b6000610abe826107af565b9150610ac9836107af565b925082821015610adc57610adb610a84565b5b828203905092915050565b7f4e487b7100000000000000000000000000000000000000000000000000000000600052603160045260246000fd5b6000610b21826107af565b91507fffffffffffffffffffffffffffffffffffffffffffffffffffffffffffffffff8203610b5357610b52610a84565b5b60018201905091905056fea26469706673582212209dab3bb7bdc1e694dc5920572ca38540529ea0b6d8b9d927ec0f18de0f78fe4164736f6c634300080f0033",
  "immutableReferences": {},
  "source": "// SPDX-License-Identifier: MIT\r\npragma solidity ^0.8.15;\r\n\r\nimport \"./ingToken.sol\";\r\n\r\ncontract SaleToken{ \r\n    IngToken public Token;\r\n\r\n    constructor(address _tokenAddress){\r\n        Token = IngToken(_tokenAddress);\r\n    }\r\n\r\n    //   \r\n    mapping(uint => uint) public tokenPrices;\r\n\r\n    //   \r\n    uint[] public SaleTokenList;\r\n\r\n    //\r\n    function SalesToken(uint _tokenId, uint _price) public {\r\n\r\n        address tokenOwner = Token.ownerOf(_tokenId);\r\n\r\n        require(tokenOwner == msg.sender);\r\n        require(_price > 0);\r\n        require(Token.isApprovedForAll(msg.sender, address(this)));\r\n\r\n        tokenPrices[_tokenId] = _price;\r\n        SaleTokenList.push(_tokenId);\r\n    }\r\n\r\n\r\n    //   -> CA -> \r\n    function PurchaseToken(uint _tokenId) public payable {\r\n        address tokenOwner = Token.ownerOf(_tokenId);\r\n\r\n        require(tokenOwner != msg.sender);\r\n        require(tokenPrices[_tokenId] > 0);\r\n        require(tokenPrices[_tokenId] <= msg.value);\r\n\r\n        payable(tokenOwner).transfer(msg.value);\r\n        //   SallToken\r\n        Token.transferFrom(tokenOwner, msg.sender, _tokenId);\r\n        tokenPrices[_tokenId] = 0;\r\n        popSaleToken(_tokenId);\r\n    }\r\n\r\n    function cancelSaleToken(uint _tokenId) public {\r\n        address tokenOwner = Token.ownerOf(_tokenId);\r\n        require(tokenOwner == msg.sender);\r\n        require(tokenPrices[_tokenId] > 0);\r\n\r\n        tokenPrices[_tokenId] = 0;\r\n        popSaleToken(_tokenId);\r\n    }\r\n\r\n    function popSaleToken(uint _tokenId) private returns(bool) {\r\n        for(uint i = 0; i < SaleTokenList.length; i++){\r\n            if (SaleTokenList[i] == _tokenId) {\r\n                // i == index\r\n                SaleTokenList[i] = SaleTokenList[SaleTokenList.length -1];\r\n                SaleTokenList.pop();\r\n                return true;\r\n            }\r\n        }\r\n        return false;\r\n    }\r\n}",
  "sourcePath": "C:\\Users\\pc-007\\Documents\\workspace\\blockchain5\\5\\20220728\\truffle\\contracts\\SaleToken.sol",
  "compiler": {
    "name": "solc",
    "version": "0.8.15+commit.e14f2714.Emscripten.clang"
  },
  "schemaVersion": "3.4.3",
  "updatedAt": "2022-07-28T02:27:49.827Z",
  "networkType": "ethereum",
  "devdoc": {
    "kind": "dev",
    "methods": {},
    "version": 1
  },
  "userdoc": {
    "kind": "user",
    "methods": {},
    "version": 1
  }
}