{
  "contractName": "BreadShop",
  "abi": [
    {
      "inputs": [
        {
          "internalType": "address",
          "name": "",
          "type": "address"
        }
      ],
      "name": "breads",
      "outputs": [
        {
          "internalType": "uint256",
          "name": "",
          "type": "uint256"
        }
      ],
      "stateMutability": "view",
      "type": "function",
      "constant": true
    },
    {
      "inputs": [
        {
          "internalType": "uint256",
          "name": "order",
          "type": "uint256"
        }
      ],
      "name": "buyBread",
      "outputs": [],
      "stateMutability": "payable",
      "type": "function",
      "payable": true
    },
    {
      "inputs": [],
      "name": "sellBread",
      "outputs": [],
      "stateMutability": "payable",
      "type": "function",
      "payable": true
    },
    {
      "inputs": [],
      "name": "getBread",
      "outputs": [
        {
          "internalType": "uint256",
          "name": "",
          "type": "uint256"
        }
      ],
      "stateMutability": "view",
      "type": "function",
      "constant": true
    },
    {
      "inputs": [],
      "name": "getSender",
      "outputs": [
        {
          "internalType": "address",
          "name": "",
          "type": "address"
        }
      ],
      "stateMutability": "view",
      "type": "function",
      "constant": true
    }
  ],
  "bytecode": "0x6080604052600a60025534801561001557600080fd5b506104e5806100256000396000f3fe60806040526004361061004a5760003560e01c80632fad08dc1461004f5780635e01eb5a1461007a5780636cbed609146100a5578063b8c9a795146100af578063e081aaa9146100cb575b600080fd5b34801561005b57600080fd5b50610064610108565b60405161007191906102a8565b60405180910390f35b34801561008657600080fd5b5061008f61014e565b60405161009c9190610304565b60405180910390f35b6100ad610156565b005b6100c960048036038101906100c49190610350565b6101fd565b005b3480156100d757600080fd5b506100f260048036038101906100ed91906103a9565b610277565b6040516100ff91906102a8565b60405180910390f35b60008060003373ffffffffffffffffffffffffffffffffffffffff1673ffffffffffffffffffffffffffffffffffffffff16815260200190815260200160002054905090565b600033905090565b60016000803373ffffffffffffffffffffffffffffffffffffffff1673ffffffffffffffffffffffffffffffffffffffff16815260200190815260200160002060008282546101a59190610405565b925050819055503373ffffffffffffffffffffffffffffffffffffffff166108fc6706f05b59d3b200009081150290604051600060405180830381858888f193505050501580156101fa573d6000803e3d6000fd5b50565b678ac7230489e8000034101561021257600080fd5b600254816102209190610439565b6000803373ffffffffffffffffffffffffffffffffffffffff1673ffffffffffffffffffffffffffffffffffffffff168152602001908152602001600020600082825461026d919061047b565b9250508190555050565b60006020528060005260406000206000915090505481565b6000819050919050565b6102a28161028f565b82525050565b60006020820190506102bd6000830184610299565b92915050565b600073ffffffffffffffffffffffffffffffffffffffff82169050919050565b60006102ee826102c3565b9050919050565b6102fe816102e3565b82525050565b600060208201905061031960008301846102f5565b92915050565b600080fd5b61032d8161028f565b811461033857600080fd5b50565b60008135905061034a81610324565b92915050565b6000602082840312156103665761036561031f565b5b60006103748482850161033b565b91505092915050565b610386816102e3565b811461039157600080fd5b50565b6000813590506103a38161037d565b92915050565b6000602082840312156103bf576103be61031f565b5b60006103cd84828501610394565b91505092915050565b7f4e487b7100000000000000000000000000000000000000000000000000000000600052601160045260246000fd5b60006104108261028f565b915061041b8361028f565b9250828203905081811115610433576104326103d6565b5b92915050565b60006104448261028f565b915061044f8361028f565b925082820261045d8161028f565b91508282048414831517610474576104736103d6565b5b5092915050565b60006104868261028f565b91506104918361028f565b92508282019050808211156104a9576104a86103d6565b5b9291505056fea26469706673582212202d52e9dc9926088c042aa99af25e0a8aa575900faa650c7baa3e6e1fecc105c764736f6c63430008130033",
  "immutableReferences": {},
  "source": "// SPDX-License-Identifier: MIT\r\npragma solidity ^0.8.19;\r\n\r\ncontract BreadShop {\r\n  mapping(address => uint) public breads;\r\n\r\n  address owner;\r\n  uint breadprice = 10;\r\n\r\n  //     \r\n\r\n  //   struct BreadInfo {\r\n  //     address owner;\r\n  //     uint price;\r\n  //     uint amount;\r\n  //   }\r\n\r\n  //   mapping(address => BreadInfo) public sellingBread;\r\n\r\n  //   constructor(){\r\n\r\n  //   }\r\n\r\n  function buyBread(uint order) public payable {\r\n    // require(msg.value >= 10 ** 18);\r\n    require(msg.value >= 10 * 10 ** 18);\r\n    //1->   \r\n    // if (msg.value > 2 * 10 * 18) {\r\n    //   payable(msg.sender).transfer(msg.value-2 * 10 ** 18);\r\n    // }\r\n    breads[msg.sender] += order * breadprice;\r\n    //msg.sender: \r\n    //      \r\n  }\r\n\r\n  function sellBread() public payable {\r\n    breads[msg.sender] -= 1;\r\n    //      \r\n    payable(msg.sender).transfer(0.5 * 10 ** 18);\r\n    //   -> 0.5 \r\n  }\r\n\r\n  function getBread() public view returns (uint) {\r\n    return breads[msg.sender];\r\n    //   \r\n  }\r\n\r\n  function getSender() public view returns (address) {\r\n    return msg.sender;\r\n    //   \r\n  }\r\n}\r\n",
  "sourcePath": "C:\\Users\\KGA_18\\Documents\\GitHub\\blockchain2208\\blockchain2208\\230308\\back\\contracts\\BreadShop.sol",
  "compiler": {
    "name": "solc",
    "version": "0.8.19+commit.7dd6d404.Emscripten.clang"
  },
  "schemaVersion": "3.4.13",
  "updatedAt": "2023-03-08T06:41:37.304Z",
  "networkType": "ethereum",
  "devdoc": {
    "kind": "dev",
    "methods": {},
    "version": 1
  },
  "userdoc": {
    "kind": "user",
    "methods": {},
    "version": 1
  }
}