{
  "contractName": "AppleShop",
  "abi": [
    {
      "inputs": [],
      "name": "buyApple",
      "outputs": [],
      "stateMutability": "payable",
      "type": "function",
      "payable": true
    },
    {
      "inputs": [
        {
          "internalType": "uint256",
          "name": "_applePrice",
          "type": "uint256"
        }
      ],
      "name": "sellApple",
      "outputs": [],
      "stateMutability": "payable",
      "type": "function",
      "payable": true
    },
    {
      "inputs": [],
      "name": "getApple",
      "outputs": [
        {
          "internalType": "uint256",
          "name": "",
          "type": "uint256"
        }
      ],
      "stateMutability": "view",
      "type": "function",
      "constant": true
    }
  ],
  "bytecode": "0x608060405234801561001057600080fd5b506103ac806100206000396000f3fe6080604052600436106100345760003560e01c8063143fe5a514610039578063284131c714610064578063db54b74c1461006e575b600080fd5b34801561004557600080fd5b5061004e61008a565b60405161005b919061021e565b60405180910390f35b61006c6100d0565b005b6100886004803603810190610083919061026a565b610128565b005b60008060003373ffffffffffffffffffffffffffffffffffffffff1673ffffffffffffffffffffffffffffffffffffffff16815260200190815260200160002054905090565b60016000803373ffffffffffffffffffffffffffffffffffffffff1673ffffffffffffffffffffffffffffffffffffffff168152602001908152602001600020600082825461011f91906102c6565b92505081905550565b6000816000803373ffffffffffffffffffffffffffffffffffffffff1673ffffffffffffffffffffffffffffffffffffffff16815260200190815260200160002054610174919061031c565b905060008060003373ffffffffffffffffffffffffffffffffffffffff1673ffffffffffffffffffffffffffffffffffffffff168152602001908152602001600020819055503373ffffffffffffffffffffffffffffffffffffffff166108fc829081150290604051600060405180830381858888f19350505050158015610200573d6000803e3d6000fd5b505050565b6000819050919050565b61021881610205565b82525050565b6000602082019050610233600083018461020f565b92915050565b600080fd5b61024781610205565b811461025257600080fd5b50565b6000813590506102648161023e565b92915050565b6000602082840312156102805761027f610239565b5b600061028e84828501610255565b91505092915050565b7f4e487b7100000000000000000000000000000000000000000000000000000000600052601160045260246000fd5b60006102d182610205565b91506102dc83610205565b9250827fffffffffffffffffffffffffffffffffffffffffffffffffffffffffffffffff0382111561031157610310610297565b5b828201905092915050565b600061032782610205565b915061033283610205565b9250817fffffffffffffffffffffffffffffffffffffffffffffffffffffffffffffffff048311821515161561036b5761036a610297565b5b82820290509291505056fea26469706673582212205c914d52b4d03dcdeebb3c150f21067173704a090df669d472073b6c41ae594764736f6c634300080f0033",
  "immutableReferences": {},
  "source": "// SPDX-License-Identifier: MIT\npragma solidity ^0.8.15;\n\ncontract AppleShop {\n\n    mapping(address => uint) myApple;\n\n    // payable    CA ETH     .\n    // tx  value ETH   .\n    function buyApple() public payable {\n        myApple[msg.sender] += 1;\n    }\n\n    function sellApple(uint _applePrice) public payable {\n        uint256 refund = myApple[msg.sender] * _applePrice;\n        myApple[msg.sender] = 0;\n        // address   \n        // msg.sender    \n        payable(msg.sender).transfer(refund);\n    }\n\n    function getApple() view public returns (uint) {\n        return myApple[msg.sender];\n    }\n\n}",
  "sourcePath": "/home/bitkunst/Ethereum/220720/truffle/contracts/AppleShop.sol",
  "compiler": {
    "name": "solc",
    "version": "0.8.15+commit.e14f2714.Emscripten.clang"
  },
  "schemaVersion": "3.4.8",
  "updatedAt": "2022-07-20T00:56:46.919Z",
  "networkType": "ethereum",
  "devdoc": {
    "kind": "dev",
    "methods": {},
    "version": 1
  },
  "userdoc": {
    "kind": "user",
    "methods": {},
    "version": 1
  }
}