{
  "contractName": "ERC20",
  "abi": [
    {
      "anonymous": false,
      "inputs": [
        {
          "indexed": true,
          "internalType": "address",
          "name": "owner",
          "type": "address"
        },
        {
          "indexed": true,
          "internalType": "address",
          "name": "spender",
          "type": "address"
        },
        {
          "indexed": false,
          "internalType": "uint256",
          "name": "value",
          "type": "uint256"
        }
      ],
      "name": "Approval",
      "type": "event"
    },
    {
      "anonymous": false,
      "inputs": [
        {
          "indexed": true,
          "internalType": "address",
          "name": "from",
          "type": "address"
        },
        {
          "indexed": true,
          "internalType": "address",
          "name": "to",
          "type": "address"
        },
        {
          "indexed": false,
          "internalType": "uint256",
          "name": "value",
          "type": "uint256"
        }
      ],
      "name": "Transfer",
      "type": "event"
    },
    {
      "inputs": [
        {
          "internalType": "address",
          "name": "",
          "type": "address"
        },
        {
          "internalType": "address",
          "name": "",
          "type": "address"
        }
      ],
      "name": "allowance",
      "outputs": [
        {
          "internalType": "uint256",
          "name": "",
          "type": "uint256"
        }
      ],
      "stateMutability": "view",
      "type": "function"
    },
    {
      "inputs": [
        {
          "internalType": "address",
          "name": "",
          "type": "address"
        }
      ],
      "name": "balances",
      "outputs": [
        {
          "internalType": "uint256",
          "name": "",
          "type": "uint256"
        }
      ],
      "stateMutability": "view",
      "type": "function"
    },
    {
      "inputs": [],
      "name": "decimals",
      "outputs": [
        {
          "internalType": "uint8",
          "name": "",
          "type": "uint8"
        }
      ],
      "stateMutability": "view",
      "type": "function"
    },
    {
      "inputs": [],
      "name": "name",
      "outputs": [
        {
          "internalType": "string",
          "name": "",
          "type": "string"
        }
      ],
      "stateMutability": "view",
      "type": "function"
    },
    {
      "inputs": [],
      "name": "symbol",
      "outputs": [
        {
          "internalType": "string",
          "name": "",
          "type": "string"
        }
      ],
      "stateMutability": "view",
      "type": "function"
    },
    {
      "inputs": [],
      "name": "totalSupply",
      "outputs": [
        {
          "internalType": "uint256",
          "name": "",
          "type": "uint256"
        }
      ],
      "stateMutability": "view",
      "type": "function"
    },
    {
      "inputs": [
        {
          "internalType": "address",
          "name": "account",
          "type": "address"
        }
      ],
      "name": "balanceOf",
      "outputs": [
        {
          "internalType": "uint256",
          "name": "",
          "type": "uint256"
        }
      ],
      "stateMutability": "view",
      "type": "function"
    },
    {
      "inputs": [
        {
          "internalType": "address",
          "name": "recipient",
          "type": "address"
        },
        {
          "internalType": "uint256",
          "name": "amount",
          "type": "uint256"
        }
      ],
      "name": "transfer",
      "outputs": [
        {
          "internalType": "bool",
          "name": "",
          "type": "bool"
        }
      ],
      "stateMutability": "nonpayable",
      "type": "function"
    },
    {
      "inputs": [
        {
          "internalType": "address",
          "name": "spender",
          "type": "address"
        },
        {
          "internalType": "uint256",
          "name": "amount",
          "type": "uint256"
        }
      ],
      "name": "approve",
      "outputs": [
        {
          "internalType": "bool",
          "name": "",
          "type": "bool"
        }
      ],
      "stateMutability": "nonpayable",
      "type": "function"
    },
    {
      "inputs": [
        {
          "internalType": "address",
          "name": "sender",
          "type": "address"
        },
        {
          "internalType": "address",
          "name": "recipient",
          "type": "address"
        },
        {
          "internalType": "uint256",
          "name": "amount",
          "type": "uint256"
        }
      ],
      "name": "transferFrom",
      "outputs": [
        {
          "internalType": "bool",
          "name": "",
          "type": "bool"
        }
      ],
      "stateMutability": "nonpayable",
      "type": "function"
    },
    {
      "inputs": [
        {
          "internalType": "uint256",
          "name": "amount",
          "type": "uint256"
        }
      ],
      "name": "burn",
      "outputs": [],
      "stateMutability": "nonpayable",
      "type": "function"
    }
  ],
  "bytecode": "0x60806040526012600260006101000a81548160ff021916908360ff16021790555034801561002c57600080fd5b50610da58061003c6000396000f3fe608060405234801561001057600080fd5b50600436106100a95760003560e01c8063313ce56711610071578063313ce5671461017a57806342966c681461019857806370a08231146101b457806395d89b41146101e4578063a9059cbb14610202578063dd62ed3e14610232576100a9565b806306fdde03146100ae578063095ea7b3146100cc57806318160ddd146100fc57806323b872dd1461011a57806327e235e31461014a575b600080fd5b6100b6610262565b6040516100c391906109d7565b60405180910390f35b6100e660048036038101906100e19190610a92565b6102f0565b6040516100f39190610aed565b60405180910390f35b6101046103e2565b6040516101119190610b17565b60405180910390f35b610134600480360381019061012f9190610b32565b6103e8565b6040516101419190610aed565b60405180910390f35b610164600480360381019061015f9190610b85565b610622565b6040516101719190610b17565b60405180910390f35b61018261063a565b60405161018f9190610bce565b60405180910390f35b6101b260048036038101906101ad9190610be9565b61064d565b005b6101ce60048036038101906101c99190610b85565b610725565b6040516101db9190610b17565b60405180910390f35b6101ec61076e565b6040516101f991906109d7565b60405180910390f35b61021c60048036038101906102179190610a92565b6107fc565b6040516102299190610aed565b60405180910390f35b61024c60048036038101906102479190610c16565b610919565b6040516102599190610b17565b60405180910390f35b6000805461026f90610c85565b80601f016020809104026020016040519081016040528092919081815260200182805461029b90610c85565b80156102e85780601f106102bd576101008083540402835291602001916102e8565b820191906000526020600020905b8154815290600101906020018083116102cb57829003601f168201915b505050505081565b600081600560003373ffffffffffffffffffffffffffffffffffffffff1673ffffffffffffffffffffffffffffffffffffffff16815260200190815260200160002060008573ffffffffffffffffffffffffffffffffffffffff1673ffffffffffffffffffffffffffffffffffffffff168152602001908152602001600020819055508273ffffffffffffffffffffffffffffffffffffffff163373ffffffffffffffffffffffffffffffffffffffff167f8c5be1e5ebec7d5bd14f71427d1e84f3dd0314c0f7b2291e5b200ac8c7c3b925846040516103d09190610b17565b60405180910390a36001905092915050565b60035481565b600081600560008673ffffffffffffffffffffffffffffffffffffffff1673ffffffffffffffffffffffffffffffffffffffff16815260200190815260200160002060003373ffffffffffffffffffffffffffffffffffffffff1673ffffffffffffffffffffffffffffffffffffffff16815260200190815260200160002054101561047357600080fd5b81600560008673ffffffffffffffffffffffffffffffffffffffff1673ffffffffffffffffffffffffffffffffffffffff16815260200190815260200160002060003373ffffffffffffffffffffffffffffffffffffffff1673ffffffffffffffffffffffffffffffffffffffff16815260200190815260200160002060008282546104ff9190610ce5565b9250508190555081600460008673ffffffffffffffffffffffffffffffffffffffff1673ffffffffffffffffffffffffffffffffffffffff16815260200190815260200160002060008282546105559190610ce5565b9250508190555081600460008573ffffffffffffffffffffffffffffffffffffffff1673ffffffffffffffffffffffffffffffffffffffff16815260200190815260200160002060008282546105ab9190610d19565b925050819055508273ffffffffffffffffffffffffffffffffffffffff168473ffffffffffffffffffffffffffffffffffffffff167fddf252ad1be2c89b69c2b068fc378daa952ba7f163c4a11628f55a4df523b3ef8460405161060f9190610b17565b60405180910390a3600190509392505050565b60046020528060005260406000206000915090505481565b600260009054906101000a900460ff1681565b80600460003373ffffffffffffffffffffffffffffffffffffffff1673ffffffffffffffffffffffffffffffffffffffff168152602001908152602001600020600082825461069c9190610ce5565b9250508190555080600360008282546106b59190610ce5565b92505081905550600073ffffffffffffffffffffffffffffffffffffffff163373ffffffffffffffffffffffffffffffffffffffff167fddf252ad1be2c89b69c2b068fc378daa952ba7f163c4a11628f55a4df523b3ef8360405161071a9190610b17565b60405180910390a350565b6000600460008373ffffffffffffffffffffffffffffffffffffffff1673ffffffffffffffffffffffffffffffffffffffff168152602001908152602001600020549050919050565b6001805461077b90610c85565b80601f01602080910402602001604051908101604052809291908181526020018280546107a790610c85565b80156107f45780601f106107c9576101008083540402835291602001916107f4565b820191906000526020600020905b8154815290600101906020018083116107d757829003601f168201915b505050505081565b600081600460003373ffffffffffffffffffffffffffffffffffffffff1673ffffffffffffffffffffffffffffffffffffffff168152602001908152602001600020600082825461084d9190610ce5565b9250508190555081600460008573ffffffffffffffffffffffffffffffffffffffff1673ffffffffffffffffffffffffffffffffffffffff16815260200190815260200160002060008282546108a39190610d19565b925050819055508273ffffffffffffffffffffffffffffffffffffffff163373ffffffffffffffffffffffffffffffffffffffff167fddf252ad1be2c89b69c2b068fc378daa952ba7f163c4a11628f55a4df523b3ef846040516109079190610b17565b60405180910390a36001905092915050565b6005602052816000526040600020602052806000526040600020600091509150505481565b600081519050919050565b600082825260208201905092915050565b60005b8381101561097857808201518184015260208101905061095d565b83811115610987576000848401525b50505050565b6000601f19601f8301169050919050565b60006109a98261093e565b6109b38185610949565b93506109c381856020860161095a565b6109cc8161098d565b840191505092915050565b600060208201905081810360008301526109f1818461099e565b905092915050565b600080fd5b600073ffffffffffffffffffffffffffffffffffffffff82169050919050565b6000610a29826109fe565b9050919050565b610a3981610a1e565b8114610a4457600080fd5b50565b600081359050610a5681610a30565b92915050565b6000819050919050565b610a6f81610a5c565b8114610a7a57600080fd5b50565b600081359050610a8c81610a66565b92915050565b60008060408385031215610aa957610aa86109f9565b5b6000610ab785828601610a47565b9250506020610ac885828601610a7d565b9150509250929050565b60008115159050919050565b610ae781610ad2565b82525050565b6000602082019050610b026000830184610ade565b92915050565b610b1181610a5c565b82525050565b6000602082019050610b2c6000830184610b08565b92915050565b600080600060608486031215610b4b57610b4a6109f9565b5b6000610b5986828701610a47565b9350506020610b6a86828701610a47565b9250506040610b7b86828701610a7d565b9150509250925092565b600060208284031215610b9b57610b9a6109f9565b5b6000610ba984828501610a47565b91505092915050565b600060ff82169050919050565b610bc881610bb2565b82525050565b6000602082019050610be36000830184610bbf565b92915050565b600060208284031215610bff57610bfe6109f9565b5b6000610c0d84828501610a7d565b91505092915050565b60008060408385031215610c2d57610c2c6109f9565b5b6000610c3b85828601610a47565b9250506020610c4c85828601610a47565b9150509250929050565b7f4e487b7100000000000000000000000000000000000000000000000000000000600052602260045260246000fd5b60006002820490506001821680610c9d57607f821691505b602082108103610cb057610caf610c56565b5b50919050565b7f4e487b7100000000000000000000000000000000000000000000000000000000600052601160045260246000fd5b6000610cf082610a5c565b9150610cfb83610a5c565b925082821015610d0e57610d0d610cb6565b5b828203905092915050565b6000610d2482610a5c565b9150610d2f83610a5c565b9250827fffffffffffffffffffffffffffffffffffffffffffffffffffffffffffffffff03821115610d6457610d63610cb6565b5b82820190509291505056fea264697066735822122074ef7292a053759890fd276e9ead913e65a0a4146fb6648129cd6ae4bc5110fb64736f6c634300080f0033",
  "immutableReferences": {},
  "source": "// SPDX-License-Identifier: MIT\npragma solidity ^0.8.15;\n\nimport './IERC20.sol';\n// interface      \n\ncontract ERC20 is IERC20 {\n\n    string public name;\n    string public symbol;\n    uint8 public decimals = 18;\n\n    uint public override totalSupply;\n    mapping(address => uint) public balances;\n    mapping(address => mapping(address => uint)) public override allowance;  //    \n    // allowance[account1][account3] = 3000;\n    /*\n        {\n            \"0x0000\": 10,\n        }\n\n        {\n            \"0x0000\": {\n                \"0x0001\": 10\n            }\n        }\n    */\n\n    //        override \n    // override   interface     .\n    function balanceOf(address account) view override external returns (uint) {\n        return balances[account];\n    }\n\n    function transfer(address recipient, uint amount) external override returns (bool) {\n        balances[msg.sender] -= amount;\n        balances[recipient] += amount;\n        emit Transfer(msg.sender, recipient, amount);\n        return true;\n    }\n\n    // \n    // A B 5000 \n    // msg.sender : A\n    // spender : B\n    // amount : 5000\n    //    : A\n    //   \n    function approve(address spender, uint amount) external override returns (bool){\n        allowance[msg.sender][spender] = amount;  // msg.sender spender    \n        emit Approval(msg.sender, spender, amount);  //   / approve   \n        return true;\n    }\n\n    //     3     \n    // A  B \n\n    // B -> C 1000 \n    // msg.sender : B\n    // sender : A (   )\n    // recipient : C (  )\n    // amount : 1000\n    //    : B\n    //   \n    function transferFrom(address sender, address recipient, uint amount) external override returns (bool) {\n\n        require(allowance[sender][msg.sender] >= amount);\n\n        allowance[sender][msg.sender] -= amount;\n        balances[sender] -= amount;\n        balances[recipient] += amount;\n        emit Transfer(sender, recipient, amount);\n        return true;\n    }\n\n    // mint ( )\n    function mint(uint amount) internal {\n        balances[msg.sender] += amount;\n        totalSupply += amount;\n        emit Transfer(address(0), msg.sender, amount);\n    }\n\n    //    ()\n    // address(0) == address  null \n    function burn(uint amount) external {\n        balances[msg.sender] -= amount;\n        totalSupply -= amount;\n        emit Transfer(msg.sender, address(0), amount);\n    }\n\n}",
  "sourcePath": "/home/bitkunst/Ethereum/220720/truffle/contracts/ERC20.sol",
  "compiler": {
    "name": "solc",
    "version": "0.8.15+commit.e14f2714.Emscripten.clang"
  },
  "schemaVersion": "3.4.8",
  "updatedAt": "2022-07-22T15:36:20.892Z",
  "devdoc": {
    "kind": "dev",
    "methods": {},
    "version": 1
  },
  "userdoc": {
    "kind": "user",
    "methods": {},
    "version": 1
  }
}