{
  "contractName": "JwToken",
  "abi": [
    {
      "inputs": [
        {
          "internalType": "string",
          "name": "_name",
          "type": "string"
        },
        {
          "internalType": "string",
          "name": "_symbol",
          "type": "string"
        },
        {
          "internalType": "uint256",
          "name": "_amount",
          "type": "uint256"
        }
      ],
      "stateMutability": "nonpayable",
      "type": "constructor"
    },
    {
      "anonymous": false,
      "inputs": [
        {
          "indexed": true,
          "internalType": "address",
          "name": "owner",
          "type": "address"
        },
        {
          "indexed": true,
          "internalType": "address",
          "name": "spender",
          "type": "address"
        },
        {
          "indexed": false,
          "internalType": "uint256",
          "name": "value",
          "type": "uint256"
        }
      ],
      "name": "Approval",
      "type": "event"
    },
    {
      "anonymous": false,
      "inputs": [
        {
          "indexed": true,
          "internalType": "address",
          "name": "from",
          "type": "address"
        },
        {
          "indexed": true,
          "internalType": "address",
          "name": "to",
          "type": "address"
        },
        {
          "indexed": false,
          "internalType": "uint256",
          "name": "value",
          "type": "uint256"
        }
      ],
      "name": "Transfer",
      "type": "event"
    },
    {
      "inputs": [
        {
          "internalType": "address",
          "name": "",
          "type": "address"
        },
        {
          "internalType": "address",
          "name": "",
          "type": "address"
        }
      ],
      "name": "allowance",
      "outputs": [
        {
          "internalType": "uint256",
          "name": "",
          "type": "uint256"
        }
      ],
      "stateMutability": "view",
      "type": "function",
      "constant": true
    },
    {
      "inputs": [
        {
          "internalType": "address",
          "name": "spender",
          "type": "address"
        },
        {
          "internalType": "uint256",
          "name": "amount",
          "type": "uint256"
        }
      ],
      "name": "approve",
      "outputs": [
        {
          "internalType": "bool",
          "name": "",
          "type": "bool"
        }
      ],
      "stateMutability": "nonpayable",
      "type": "function"
    },
    {
      "inputs": [
        {
          "internalType": "address",
          "name": "account",
          "type": "address"
        }
      ],
      "name": "balanceOf",
      "outputs": [
        {
          "internalType": "uint256",
          "name": "",
          "type": "uint256"
        }
      ],
      "stateMutability": "view",
      "type": "function",
      "constant": true
    },
    {
      "inputs": [
        {
          "internalType": "address",
          "name": "",
          "type": "address"
        }
      ],
      "name": "balances",
      "outputs": [
        {
          "internalType": "uint256",
          "name": "",
          "type": "uint256"
        }
      ],
      "stateMutability": "view",
      "type": "function",
      "constant": true
    },
    {
      "inputs": [
        {
          "internalType": "uint256",
          "name": "amount",
          "type": "uint256"
        }
      ],
      "name": "burn",
      "outputs": [],
      "stateMutability": "nonpayable",
      "type": "function"
    },
    {
      "inputs": [],
      "name": "decimals",
      "outputs": [
        {
          "internalType": "uint8",
          "name": "",
          "type": "uint8"
        }
      ],
      "stateMutability": "view",
      "type": "function",
      "constant": true
    },
    {
      "inputs": [],
      "name": "ethCanBuy",
      "outputs": [
        {
          "internalType": "uint256",
          "name": "",
          "type": "uint256"
        }
      ],
      "stateMutability": "view",
      "type": "function",
      "constant": true
    },
    {
      "inputs": [],
      "name": "name",
      "outputs": [
        {
          "internalType": "string",
          "name": "",
          "type": "string"
        }
      ],
      "stateMutability": "view",
      "type": "function",
      "constant": true
    },
    {
      "inputs": [],
      "name": "owner",
      "outputs": [
        {
          "internalType": "address",
          "name": "",
          "type": "address"
        }
      ],
      "stateMutability": "view",
      "type": "function",
      "constant": true
    },
    {
      "inputs": [],
      "name": "symbol",
      "outputs": [
        {
          "internalType": "string",
          "name": "",
          "type": "string"
        }
      ],
      "stateMutability": "view",
      "type": "function",
      "constant": true
    },
    {
      "inputs": [],
      "name": "totalSupply",
      "outputs": [
        {
          "internalType": "uint256",
          "name": "",
          "type": "uint256"
        }
      ],
      "stateMutability": "view",
      "type": "function",
      "constant": true
    },
    {
      "inputs": [
        {
          "internalType": "address",
          "name": "recipient",
          "type": "address"
        },
        {
          "internalType": "uint256",
          "name": "amount",
          "type": "uint256"
        }
      ],
      "name": "transfer",
      "outputs": [
        {
          "internalType": "bool",
          "name": "",
          "type": "bool"
        }
      ],
      "stateMutability": "nonpayable",
      "type": "function"
    },
    {
      "inputs": [
        {
          "internalType": "address",
          "name": "sender",
          "type": "address"
        },
        {
          "internalType": "address",
          "name": "recipient",
          "type": "address"
        },
        {
          "internalType": "uint256",
          "name": "amount",
          "type": "uint256"
        }
      ],
      "name": "transferFrom",
      "outputs": [
        {
          "internalType": "bool",
          "name": "",
          "type": "bool"
        }
      ],
      "stateMutability": "nonpayable",
      "type": "function"
    },
    {
      "stateMutability": "payable",
      "type": "receive",
      "payable": true
    }
  ],
  "bytecode": "0x60806040526012600260006101000a81548160ff021916908360ff16021790555060c86007553480156200003257600080fd5b5060405162001cc338038062001cc38339818101604052810190620000589190620003ba565b33600660006101000a81548173ffffffffffffffffffffffffffffffffffffffff021916908373ffffffffffffffffffffffffffffffffffffffff1602179055508260009081620000aa919062000695565b508160019081620000bc919062000695565b50620000fb600260009054906101000a900460ff1660ff16600a620000e29190620008ff565b82620000ef919062000950565b6200010460201b60201c565b50505062000a3c565b80600460003373ffffffffffffffffffffffffffffffffffffffff1673ffffffffffffffffffffffffffffffffffffffff1681526020019081526020016000206000828254620001559190620009b1565b925050819055508060036000828254620001709190620009b1565b925050819055503373ffffffffffffffffffffffffffffffffffffffff16600073ffffffffffffffffffffffffffffffffffffffff167fddf252ad1be2c89b69c2b068fc378daa952ba7f163c4a11628f55a4df523b3ef83604051620001d7919062000a1f565b60405180910390a350565b6000604051905090565b600080fd5b600080fd5b600080fd5b600080fd5b6000601f19601f8301169050919050565b7f4e487b7100000000000000000000000000000000000000000000000000000000600052604160045260246000fd5b6200024b8262000200565b810181811067ffffffffffffffff821117156200026d576200026c62000211565b5b80604052505050565b600062000282620001e2565b905062000290828262000240565b919050565b600067ffffffffffffffff821115620002b357620002b262000211565b5b620002be8262000200565b9050602081019050919050565b60005b83811015620002eb578082015181840152602081019050620002ce565b83811115620002fb576000848401525b50505050565b600062000318620003128462000295565b62000276565b905082815260208101848484011115620003375762000336620001fb565b5b62000344848285620002cb565b509392505050565b600082601f830112620003645762000363620001f6565b5b81516200037684826020860162000301565b91505092915050565b6000819050919050565b62000394816200037f565b8114620003a057600080fd5b50565b600081519050620003b48162000389565b92915050565b600080600060608486031215620003d657620003d5620001ec565b5b600084015167ffffffffffffffff811115620003f757620003f6620001f1565b5b62000405868287016200034c565b935050602084015167ffffffffffffffff811115620004295762000428620001f1565b5b62000437868287016200034c565b92505060406200044a86828701620003a3565b9150509250925092565b600081519050919050565b7f4e487b7100000000000000000000000000000000000000000000000000000000600052602260045260246000fd5b60006002820490506001821680620004a757607f821691505b602082108103620004bd57620004bc6200045f565b5b50919050565b60008190508160005260206000209050919050565b60006020601f8301049050919050565b600082821b905092915050565b600060088302620005277fffffffffffffffffffffffffffffffffffffffffffffffffffffffffffffffff82620004e8565b620005338683620004e8565b95508019841693508086168417925050509392505050565b6000819050919050565b600062000576620005706200056a846200037f565b6200054b565b6200037f565b9050919050565b6000819050919050565b620005928362000555565b620005aa620005a1826200057d565b848454620004f5565b825550505050565b600090565b620005c1620005b2565b620005ce81848462000587565b505050565b5b81811015620005f657620005ea600082620005b7565b600181019050620005d4565b5050565b601f82111562000645576200060f81620004c3565b6200061a84620004d8565b810160208510156200062a578190505b620006426200063985620004d8565b830182620005d3565b50505b505050565b600082821c905092915050565b60006200066a600019846008026200064a565b1980831691505092915050565b600062000685838362000657565b9150826002028217905092915050565b620006a08262000454565b67ffffffffffffffff811115620006bc57620006bb62000211565b5b620006c882546200048e565b620006d5828285620005fa565b600060209050601f8311600181146200070d5760008415620006f8578287015190505b62000704858262000677565b86555062000774565b601f1984166200071d86620004c3565b60005b82811015620007475784890151825560018201915060208501945060208101905062000720565b8683101562000767578489015162000763601f89168262000657565b8355505b6001600288020188555050505b505050505050565b7f4e487b7100000000000000000000000000000000000000000000000000000000600052601160045260246000fd5b60008160011c9050919050565b6000808291508390505b60018511156200080a57808604811115620007e257620007e16200077c565b5b6001851615620007f25780820291505b80810290506200080285620007ab565b9450620007c2565b94509492505050565b600082620008255760019050620008f8565b81620008355760009050620008f8565b81600181146200084e576002811462000859576200088f565b6001915050620008f8565b60ff8411156200086e576200086d6200077c565b5b8360020a9150848211156200088857620008876200077c565b5b50620008f8565b5060208310610133831016604e8410600b8410161715620008c95782820a905083811115620008c357620008c26200077c565b5b620008f8565b620008d88484846001620007b8565b92509050818404811115620008f257620008f16200077c565b5b81810290505b9392505050565b60006200090c826200037f565b915062000919836200037f565b9250620009487fffffffffffffffffffffffffffffffffffffffffffffffffffffffffffffffff848462000813565b905092915050565b60006200095d826200037f565b91506200096a836200037f565b9250817fffffffffffffffffffffffffffffffffffffffffffffffffffffffffffffffff0483118215151615620009a657620009a56200077c565b5b828202905092915050565b6000620009be826200037f565b9150620009cb836200037f565b9250827fffffffffffffffffffffffffffffffffffffffffffffffffffffffffffffffff0382111562000a035762000a026200077c565b5b828201905092915050565b62000a19816200037f565b82525050565b600060208201905062000a36600083018462000a0e565b92915050565b6112778062000a4c6000396000f3fe6080604052600436106100c65760003560e01c806331b0a2c61161007f5780638da5cb5b116100595780638da5cb5b146104dc57806395d89b4114610507578063a9059cbb14610532578063dd62ed3e1461056f5761030e565b806331b0a2c61461044b57806342966c681461047657806370a082311461049f5761030e565b806306fdde0314610313578063095ea7b31461033e57806318160ddd1461037b57806323b872dd146103a657806327e235e3146103e3578063313ce567146104205761030e565b3661030e57600034036100d857600080fd5b6000600754346100e89190610dc5565b90508060046000600660009054906101000a900473ffffffffffffffffffffffffffffffffffffffff1673ffffffffffffffffffffffffffffffffffffffff1673ffffffffffffffffffffffffffffffffffffffff16815260200190815260200160002054101561015857600080fd5b8060046000600660009054906101000a900473ffffffffffffffffffffffffffffffffffffffff1673ffffffffffffffffffffffffffffffffffffffff1673ffffffffffffffffffffffffffffffffffffffff16815260200190815260200160002060008282546101c99190610e1f565b9250508190555080600460003373ffffffffffffffffffffffffffffffffffffffff1673ffffffffffffffffffffffffffffffffffffffff168152602001908152602001600020600082825461021f9190610e53565b92505081905550600660009054906101000a900473ffffffffffffffffffffffffffffffffffffffff1673ffffffffffffffffffffffffffffffffffffffff163373ffffffffffffffffffffffffffffffffffffffff160361028557610284816105ac565b5b3373ffffffffffffffffffffffffffffffffffffffff16600660009054906101000a900473ffffffffffffffffffffffffffffffffffffffff1673ffffffffffffffffffffffffffffffffffffffff167fddf252ad1be2c89b69c2b068fc378daa952ba7f163c4a11628f55a4df523b3ef836040516103049190610eb8565b60405180910390a3005b600080fd5b34801561031f57600080fd5b50610328610684565b6040516103359190610f6c565b60405180910390f35b34801561034a57600080fd5b506103656004803603810190610360919061101d565b610712565b6040516103729190611078565b60405180910390f35b34801561038757600080fd5b50610390610804565b60405161039d9190610eb8565b60405180910390f35b3480156103b257600080fd5b506103cd60048036038101906103c89190611093565b61080a565b6040516103da9190611078565b60405180910390f35b3480156103ef57600080fd5b5061040a600480360381019061040591906110e6565b610a44565b6040516104179190610eb8565b60405180910390f35b34801561042c57600080fd5b50610435610a5c565b604051610442919061112f565b60405180910390f35b34801561045757600080fd5b50610460610a6f565b60405161046d9190610eb8565b60405180910390f35b34801561048257600080fd5b5061049d6004803603810190610498919061114a565b610a75565b005b3480156104ab57600080fd5b506104c660048036038101906104c191906110e6565b610b4d565b6040516104d39190610eb8565b60405180910390f35b3480156104e857600080fd5b506104f1610b96565b6040516104fe9190611186565b60405180910390f35b34801561051357600080fd5b5061051c610bbc565b6040516105299190610f6c565b60405180910390f35b34801561053e57600080fd5b506105596004803603810190610554919061101d565b610c4a565b6040516105669190611078565b60405180910390f35b34801561057b57600080fd5b50610596600480360381019061059191906111a1565b610d67565b6040516105a39190610eb8565b60405180910390f35b80600460003373ffffffffffffffffffffffffffffffffffffffff1673ffffffffffffffffffffffffffffffffffffffff16815260200190815260200160002060008282546105fb9190610e53565b9250508190555080600360008282546106149190610e53565b925050819055503373ffffffffffffffffffffffffffffffffffffffff16600073ffffffffffffffffffffffffffffffffffffffff167fddf252ad1be2c89b69c2b068fc378daa952ba7f163c4a11628f55a4df523b3ef836040516106799190610eb8565b60405180910390a350565b6000805461069190611210565b80601f01602080910402602001604051908101604052809291908181526020018280546106bd90611210565b801561070a5780601f106106df5761010080835404028352916020019161070a565b820191906000526020600020905b8154815290600101906020018083116106ed57829003601f168201915b505050505081565b600081600560003373ffffffffffffffffffffffffffffffffffffffff1673ffffffffffffffffffffffffffffffffffffffff16815260200190815260200160002060008573ffffffffffffffffffffffffffffffffffffffff1673ffffffffffffffffffffffffffffffffffffffff168152602001908152602001600020819055508273ffffffffffffffffffffffffffffffffffffffff163373ffffffffffffffffffffffffffffffffffffffff167f8c5be1e5ebec7d5bd14f71427d1e84f3dd0314c0f7b2291e5b200ac8c7c3b925846040516107f29190610eb8565b60405180910390a36001905092915050565b60035481565b600081600560008673ffffffffffffffffffffffffffffffffffffffff1673ffffffffffffffffffffffffffffffffffffffff16815260200190815260200160002060003373ffffffffffffffffffffffffffffffffffffffff1673ffffffffffffffffffffffffffffffffffffffff16815260200190815260200160002054101561089557600080fd5b81600560008673ffffffffffffffffffffffffffffffffffffffff1673ffffffffffffffffffffffffffffffffffffffff16815260200190815260200160002060003373ffffffffffffffffffffffffffffffffffffffff1673ffffffffffffffffffffffffffffffffffffffff16815260200190815260200160002060008282546109219190610e1f565b9250508190555081600460008673ffffffffffffffffffffffffffffffffffffffff1673ffffffffffffffffffffffffffffffffffffffff16815260200190815260200160002060008282546109779190610e1f565b9250508190555081600460008573ffffffffffffffffffffffffffffffffffffffff1673ffffffffffffffffffffffffffffffffffffffff16815260200190815260200160002060008282546109cd9190610e53565b925050819055508273ffffffffffffffffffffffffffffffffffffffff168473ffffffffffffffffffffffffffffffffffffffff167fddf252ad1be2c89b69c2b068fc378daa952ba7f163c4a11628f55a4df523b3ef84604051610a319190610eb8565b60405180910390a3600190509392505050565b60046020528060005260406000206000915090505481565b600260009054906101000a900460ff1681565b60075481565b80600460003373ffffffffffffffffffffffffffffffffffffffff1673ffffffffffffffffffffffffffffffffffffffff1681526020019081526020016000206000828254610ac49190610e1f565b925050819055508060036000828254610add9190610e1f565b92505081905550600073ffffffffffffffffffffffffffffffffffffffff163373ffffffffffffffffffffffffffffffffffffffff167fddf252ad1be2c89b69c2b068fc378daa952ba7f163c4a11628f55a4df523b3ef83604051610b429190610eb8565b60405180910390a350565b6000600460008373ffffffffffffffffffffffffffffffffffffffff1673ffffffffffffffffffffffffffffffffffffffff168152602001908152602001600020549050919050565b600660009054906101000a900473ffffffffffffffffffffffffffffffffffffffff1681565b60018054610bc990611210565b80601f0160208091040260200160405190810160405280929190818152602001828054610bf590611210565b8015610c425780601f10610c1757610100808354040283529160200191610c42565b820191906000526020600020905b815481529060010190602001808311610c2557829003601f168201915b505050505081565b600081600460003373ffffffffffffffffffffffffffffffffffffffff1673ffffffffffffffffffffffffffffffffffffffff1681526020019081526020016000206000828254610c9b9190610e1f565b9250508190555081600460008573ffffffffffffffffffffffffffffffffffffffff1673ffffffffffffffffffffffffffffffffffffffff1681526020019081526020016000206000828254610cf19190610e53565b925050819055508273ffffffffffffffffffffffffffffffffffffffff163373ffffffffffffffffffffffffffffffffffffffff167fddf252ad1be2c89b69c2b068fc378daa952ba7f163c4a11628f55a4df523b3ef84604051610d559190610eb8565b60405180910390a36001905092915050565b6005602052816000526040600020602052806000526040600020600091509150505481565b6000819050919050565b7f4e487b7100000000000000000000000000000000000000000000000000000000600052601160045260246000fd5b6000610dd082610d8c565b9150610ddb83610d8c565b9250817fffffffffffffffffffffffffffffffffffffffffffffffffffffffffffffffff0483118215151615610e1457610e13610d96565b5b828202905092915050565b6000610e2a82610d8c565b9150610e3583610d8c565b925082821015610e4857610e47610d96565b5b828203905092915050565b6000610e5e82610d8c565b9150610e6983610d8c565b9250827fffffffffffffffffffffffffffffffffffffffffffffffffffffffffffffffff03821115610e9e57610e9d610d96565b5b828201905092915050565b610eb281610d8c565b82525050565b6000602082019050610ecd6000830184610ea9565b92915050565b600081519050919050565b600082825260208201905092915050565b60005b83811015610f0d578082015181840152602081019050610ef2565b83811115610f1c576000848401525b50505050565b6000601f19601f8301169050919050565b6000610f3e82610ed3565b610f488185610ede565b9350610f58818560208601610eef565b610f6181610f22565b840191505092915050565b60006020820190508181036000830152610f868184610f33565b905092915050565b600080fd5b600073ffffffffffffffffffffffffffffffffffffffff82169050919050565b6000610fbe82610f93565b9050919050565b610fce81610fb3565b8114610fd957600080fd5b50565b600081359050610feb81610fc5565b92915050565b610ffa81610d8c565b811461100557600080fd5b50565b60008135905061101781610ff1565b92915050565b6000806040838503121561103457611033610f8e565b5b600061104285828601610fdc565b925050602061105385828601611008565b9150509250929050565b60008115159050919050565b6110728161105d565b82525050565b600060208201905061108d6000830184611069565b92915050565b6000806000606084860312156110ac576110ab610f8e565b5b60006110ba86828701610fdc565b93505060206110cb86828701610fdc565b92505060406110dc86828701611008565b9150509250925092565b6000602082840312156110fc576110fb610f8e565b5b600061110a84828501610fdc565b91505092915050565b600060ff82169050919050565b61112981611113565b82525050565b60006020820190506111446000830184611120565b92915050565b6000602082840312156111605761115f610f8e565b5b600061116e84828501611008565b91505092915050565b61118081610fb3565b82525050565b600060208201905061119b6000830184611177565b92915050565b600080604083850312156111b8576111b7610f8e565b5b60006111c685828601610fdc565b92505060206111d785828601610fdc565b9150509250929050565b7f4e487b7100000000000000000000000000000000000000000000000000000000600052602260045260246000fd5b6000600282049050600182168061122857607f821691505b60208210810361123b5761123a6111e1565b5b5091905056fea2646970667358221220e417480fa47b36ae08bba7661e186088b02fd76c29d9ab50291a20b8b536a69864736f6c634300080f0033",
  "immutableReferences": {},
  "source": "// SPDX-License-Identifier: MIT\npragma solidity ^0.8.15;\n\nimport './ERC20.sol';\n\ncontract JwToken is ERC20 {\n    \n    address public owner;\n    uint256 public ethCanBuy = 200; // 1 ETH  200 .\n\n    constructor(string memory _name, string memory _symbol, uint256 _amount) {\n        owner = msg.sender;\n        name = _name;\n        symbol = _symbol;\n\n        mint(_amount * (10 ** uint256(decimals)));\n    }\n\n    // \n    //     \n    /*\n        {\n            from:  ,\n            to: CA,\n            data: 0x...,\n            value: 10000000000\n        }\n\n        data      -> \n        (ETH  ,    X)\n               .\n\n\n        fallback  receive  \n\n        //          => fallback()  .\n        // try catch  catch  \n\n        fallback() :     \n            // fallback       .\n            // fallback payable :     . (payable   )\n            // payable  \n            // value   .\n\n        receive() :   \n            //      .  value   .\n            // payable  \n            // payable      .\n\n        //    receive  \n        //      fallback\n    */\n\n    // CA     payable \n    // receive payable   . \n    // receive   \n    receive() external payable {\n        \n        require(msg.value != 0);\n        uint amount = msg.value * ethCanBuy; //   value   . (wei )\n\n        require(balances[owner] >= amount);\n        balances[owner] -= amount;\n        balances[msg.sender] += amount;\n\n        if(msg.sender == owner) {\n            mint(amount);\n        }\n\n        emit Transfer(owner, msg.sender, amount);\n    }\n\n    // fallback()     \n\n}",
  "sourcePath": "/home/bitkunst/Ethereum/220720/truffle/contracts/JwToken.sol",
  "compiler": {
    "name": "solc",
    "version": "0.8.15+commit.e14f2714.Emscripten.clang"
  },
  "schemaVersion": "3.4.8",
  "updatedAt": "2022-07-22T15:37:10.732Z",
  "networkType": "ethereum",
  "devdoc": {
    "kind": "dev",
    "methods": {},
    "version": 1
  },
  "userdoc": {
    "kind": "user",
    "methods": {},
    "version": 1
  }
}