{
  "contractName": "EthSwap",
  "abi": [
    {
      "inputs": [
        {
          "internalType": "contract ERC20",
          "name": "_token",
          "type": "address"
        }
      ],
      "stateMutability": "nonpayable",
      "type": "constructor"
    },
    {
      "inputs": [],
      "name": "rate",
      "outputs": [
        {
          "internalType": "uint256",
          "name": "",
          "type": "uint256"
        }
      ],
      "stateMutability": "view",
      "type": "function",
      "constant": true
    },
    {
      "inputs": [],
      "name": "token",
      "outputs": [
        {
          "internalType": "contract ERC20",
          "name": "",
          "type": "address"
        }
      ],
      "stateMutability": "view",
      "type": "function",
      "constant": true
    },
    {
      "inputs": [],
      "name": "getToken",
      "outputs": [
        {
          "internalType": "address",
          "name": "",
          "type": "address"
        }
      ],
      "stateMutability": "view",
      "type": "function",
      "constant": true
    },
    {
      "inputs": [],
      "name": "getSwapBalance",
      "outputs": [
        {
          "internalType": "uint256",
          "name": "",
          "type": "uint256"
        }
      ],
      "stateMutability": "view",
      "type": "function",
      "constant": true
    },
    {
      "inputs": [],
      "name": "getThisAddress",
      "outputs": [
        {
          "internalType": "address",
          "name": "",
          "type": "address"
        }
      ],
      "stateMutability": "view",
      "type": "function",
      "constant": true
    },
    {
      "inputs": [],
      "name": "getMsgSender",
      "outputs": [
        {
          "internalType": "address",
          "name": "",
          "type": "address"
        }
      ],
      "stateMutability": "view",
      "type": "function",
      "constant": true
    },
    {
      "inputs": [],
      "name": "buyToken",
      "outputs": [],
      "stateMutability": "payable",
      "type": "function",
      "payable": true
    },
    {
      "inputs": [
        {
          "internalType": "uint256",
          "name": "_amount",
          "type": "uint256"
        }
      ],
      "name": "sellToken",
      "outputs": [],
      "stateMutability": "payable",
      "type": "function",
      "payable": true
    }
  ],
  "bytecode": "0x6080604052606460015534801561001557600080fd5b50604051610a5c380380610a5c833981810160405281019061003791906100f2565b806000806101000a81548173ffffffffffffffffffffffffffffffffffffffff021916908373ffffffffffffffffffffffffffffffffffffffff1602179055505061011f565b600080fd5b600073ffffffffffffffffffffffffffffffffffffffff82169050919050565b60006100ad82610082565b9050919050565b60006100bf826100a2565b9050919050565b6100cf816100b4565b81146100da57600080fd5b50565b6000815190506100ec816100c6565b92915050565b6000602082840312156101085761010761007d565b5b6000610116848285016100dd565b91505092915050565b61092e8061012e6000396000f3fe60806040526004361061007b5760003560e01c8063a48217191161004e578063a48217191461011d578063c7b00aad14610127578063d395382214610152578063fc0c546a1461017d5761007b565b806321df0da7146100805780632397e4d7146100ab5780632c4e722e146100c75780637a6ce2e1146100f2575b600080fd5b34801561008c57600080fd5b506100956101a8565b6040516100a291906105f9565b60405180910390f35b6100c560048036038101906100c0919061064f565b6101d1565b005b3480156100d357600080fd5b506100dc610382565b6040516100e9919061068b565b60405180910390f35b3480156100fe57600080fd5b50610107610388565b60405161011491906105f9565b60405180910390f35b610125610390565b005b34801561013357600080fd5b5061013c6104ea565b604051610149919061068b565b60405180910390f35b34801561015e57600080fd5b5061016761058c565b60405161017491906105f9565b60405180910390f35b34801561018957600080fd5b50610192610594565b60405161019f9190610705565b60405180910390f35b60008060009054906101000a900473ffffffffffffffffffffffffffffffffffffffff16905090565b8060008054906101000a900473ffffffffffffffffffffffffffffffffffffffff1673ffffffffffffffffffffffffffffffffffffffff166370a08231336040518263ffffffff1660e01b815260040161022b91906105f9565b602060405180830381865afa158015610248573d6000803e3d6000fd5b505050506040513d601f19601f8201168201806040525081019061026c9190610735565b101561027757600080fd5b60006001548261028791906107c0565b90508047101561029657600080fd5b60008054906101000a900473ffffffffffffffffffffffffffffffffffffffff1673ffffffffffffffffffffffffffffffffffffffff166323b872dd3330856040518463ffffffff1660e01b81526004016102f3939291906107f1565b6020604051808303816000875af1158015610312573d6000803e3d6000fd5b505050506040513d601f19601f820116820180604052508101906103369190610860565b503373ffffffffffffffffffffffffffffffffffffffff166108fc829081150290604051600060405180830381858888f1935050505015801561037d573d6000803e3d6000fd5b505050565b60015481565b600033905090565b6000600154346103a0919061088d565b90508060008054906101000a900473ffffffffffffffffffffffffffffffffffffffff1673ffffffffffffffffffffffffffffffffffffffff166370a08231306040518263ffffffff1660e01b81526004016103fc91906105f9565b602060405180830381865afa158015610419573d6000803e3d6000fd5b505050506040513d601f19601f8201168201806040525081019061043d9190610735565b101561044857600080fd5b60008054906101000a900473ffffffffffffffffffffffffffffffffffffffff1673ffffffffffffffffffffffffffffffffffffffff1663a9059cbb33836040518363ffffffff1660e01b81526004016104a39291906108cf565b6020604051808303816000875af11580156104c2573d6000803e3d6000fd5b505050506040513d601f19601f820116820180604052508101906104e69190610860565b5050565b60008060009054906101000a900473ffffffffffffffffffffffffffffffffffffffff1673ffffffffffffffffffffffffffffffffffffffff166370a08231336040518263ffffffff1660e01b815260040161054691906105f9565b602060405180830381865afa158015610563573d6000803e3d6000fd5b505050506040513d601f19601f820116820180604052508101906105879190610735565b905090565b600030905090565b60008054906101000a900473ffffffffffffffffffffffffffffffffffffffff1681565b600073ffffffffffffffffffffffffffffffffffffffff82169050919050565b60006105e3826105b8565b9050919050565b6105f3816105d8565b82525050565b600060208201905061060e60008301846105ea565b92915050565b600080fd5b6000819050919050565b61062c81610619565b811461063757600080fd5b50565b60008135905061064981610623565b92915050565b60006020828403121561066557610664610614565b5b60006106738482850161063a565b91505092915050565b61068581610619565b82525050565b60006020820190506106a0600083018461067c565b92915050565b6000819050919050565b60006106cb6106c66106c1846105b8565b6106a6565b6105b8565b9050919050565b60006106dd826106b0565b9050919050565b60006106ef826106d2565b9050919050565b6106ff816106e4565b82525050565b600060208201905061071a60008301846106f6565b92915050565b60008151905061072f81610623565b92915050565b60006020828403121561074b5761074a610614565b5b600061075984828501610720565b91505092915050565b7f4e487b7100000000000000000000000000000000000000000000000000000000600052601260045260246000fd5b7f4e487b7100000000000000000000000000000000000000000000000000000000600052601160045260246000fd5b60006107cb82610619565b91506107d683610619565b9250826107e6576107e5610762565b5b828204905092915050565b600060608201905061080660008301866105ea565b61081360208301856105ea565b610820604083018461067c565b949350505050565b60008115159050919050565b61083d81610828565b811461084857600080fd5b50565b60008151905061085a81610834565b92915050565b60006020828403121561087657610875610614565b5b60006108848482850161084b565b91505092915050565b600061089882610619565b91506108a383610619565b92508282026108b181610619565b915082820484148315176108c8576108c7610791565b5b5092915050565b60006040820190506108e460008301856105ea565b6108f1602083018461067c565b939250505056fea2646970667358221220471fccd82a7413a3ccb67f8fdf72c7b5492864ad6c60fcd864db6c8dd63811af64736f6c63430008130033",
  "immutableReferences": {},
  "source": "// SPDX-License-Identifier: MIT\r\npragma solidity ^0.8.19;\r\n\r\nimport \"../node_modules/@openzeppelin/contracts/token/ERC20/ERC20.sol\";\r\n\r\ncontract EthSwap {\r\n  ERC20 public token;\r\n  //   ()  \r\n  uint public rate = 100;\r\n\r\n  // 1 Ether = 100 token\r\n\r\n  constructor(ERC20 _token) {\r\n    // ERC20    CA   .\r\n    token = _token;\r\n    // deployer.deploy('token','CA ')\r\n  }\r\n\r\n  function getToken() public view returns (address) {\r\n    //  .\r\n    return address(token);\r\n    //  CA .\r\n  }\r\n\r\n  function getSwapBalance() public view returns (uint) {\r\n    //     .\r\n    return token.balanceOf(msg.sender);\r\n  }\r\n\r\n  function getThisAddress() public view returns (address) {\r\n    //   (EthSwap) CA .\r\n    return address(this);\r\n  }\r\n\r\n  function getMsgSender() public view returns (address) {\r\n    //  \r\n    return msg.sender;\r\n  }\r\n\r\n  // function getTokenOwner() public view returns (address) {\r\n  //   //   .  ,     \r\n  //   return token._owner();\r\n  // }\r\n\r\n  function buyToken() public payable {\r\n    // Ether  .\r\n    uint256 tokenAmount = msg.value * rate;\r\n    //  Ether => \r\n    require(token.balanceOf(address(this)) >= tokenAmount);\r\n    //         \r\n    token.transfer(msg.sender, tokenAmount);\r\n    //  \r\n  }\r\n\r\n  function sellToken(uint256 _amount) public payable {\r\n    //  Ether \r\n    require(token.balanceOf(msg.sender) >= _amount);\r\n    //      \r\n    uint256 etherAmount = _amount / rate;\r\n    //   Ether \r\n\r\n    require(address(this).balance >= etherAmount);\r\n    //    Ether  \r\n    token.transferFrom(msg.sender, address(this), _amount);\r\n    //     \r\n    payable(msg.sender).transfer(etherAmount);\r\n    // Ether    \r\n  }\r\n}\r\n",
  "sourcePath": "C:\\Users\\KGA_18\\Documents\\GitHub\\blockchain2208\\blockchain2208\\230313test\\230313\\swap\\contracts\\EthSwap.sol",
  "compiler": {
    "name": "solc",
    "version": "0.8.19+commit.7dd6d404.Emscripten.clang"
  },
  "schemaVersion": "3.4.13",
  "updatedAt": "2023-03-13T07:11:07.052Z",
  "networkType": "ethereum",
  "devdoc": {
    "kind": "dev",
    "methods": {},
    "version": 1
  },
  "userdoc": {
    "kind": "user",
    "methods": {},
    "version": 1
  }
}