{
  "contractName": "EthSwap",
  "abi": [
    {
      "inputs": [
        {
          "internalType": "contract ERC20",
          "name": "_token",
          "type": "address"
        }
      ],
      "stateMutability": "nonpayable",
      "type": "constructor"
    },
    {
      "inputs": [],
      "name": "token",
      "outputs": [
        {
          "internalType": "contract ERC20",
          "name": "",
          "type": "address"
        }
      ],
      "stateMutability": "view",
      "type": "function",
      "constant": true
    },
    {
      "inputs": [],
      "name": "getToken",
      "outputs": [
        {
          "internalType": "address",
          "name": "",
          "type": "address"
        }
      ],
      "stateMutability": "view",
      "type": "function",
      "constant": true
    },
    {
      "inputs": [],
      "name": "getSwapBalance",
      "outputs": [
        {
          "internalType": "uint256",
          "name": "",
          "type": "uint256"
        }
      ],
      "stateMutability": "view",
      "type": "function",
      "constant": true
    },
    {
      "inputs": [],
      "name": "getThis",
      "outputs": [
        {
          "internalType": "address",
          "name": "",
          "type": "address"
        }
      ],
      "stateMutability": "view",
      "type": "function",
      "constant": true
    },
    {
      "inputs": [],
      "name": "getMsgSender",
      "outputs": [
        {
          "internalType": "address",
          "name": "",
          "type": "address"
        }
      ],
      "stateMutability": "view",
      "type": "function",
      "constant": true
    }
  ],
  "bytecode": "0x608060405234801561001057600080fd5b506040516104b83803806104b8833981810160405281019061003291906100ed565b806000806101000a81548173ffffffffffffffffffffffffffffffffffffffff021916908373ffffffffffffffffffffffffffffffffffffffff1602179055505061011a565b600080fd5b600073ffffffffffffffffffffffffffffffffffffffff82169050919050565b60006100a88261007d565b9050919050565b60006100ba8261009d565b9050919050565b6100ca816100af565b81146100d557600080fd5b50565b6000815190506100e7816100c1565b92915050565b60006020828403121561010357610102610078565b5b6000610111848285016100d8565b91505092915050565b61038f806101296000396000f3fe608060405234801561001057600080fd5b50600436106100575760003560e01c806321df0da71461005c5780637a6ce2e11461007a578063b836861514610098578063c7b00aad146100b6578063fc0c546a146100d4575b600080fd5b6100646100f2565b6040516100719190610232565b60405180910390f35b61008261011b565b60405161008f9190610232565b60405180910390f35b6100a0610123565b6040516100ad9190610232565b60405180910390f35b6100be61012b565b6040516100cb9190610266565b60405180910390f35b6100dc6101cd565b6040516100e991906102e0565b60405180910390f35b60008060009054906101000a900473ffffffffffffffffffffffffffffffffffffffff16905090565b600033905090565b600030905090565b60008060009054906101000a900473ffffffffffffffffffffffffffffffffffffffff1673ffffffffffffffffffffffffffffffffffffffff166370a08231336040518263ffffffff1660e01b81526004016101879190610232565b602060405180830381865afa1580156101a4573d6000803e3d6000fd5b505050506040513d601f19601f820116820180604052508101906101c8919061032c565b905090565b60008054906101000a900473ffffffffffffffffffffffffffffffffffffffff1681565b600073ffffffffffffffffffffffffffffffffffffffff82169050919050565b600061021c826101f1565b9050919050565b61022c81610211565b82525050565b60006020820190506102476000830184610223565b92915050565b6000819050919050565b6102608161024d565b82525050565b600060208201905061027b6000830184610257565b92915050565b6000819050919050565b60006102a66102a161029c846101f1565b610281565b6101f1565b9050919050565b60006102b88261028b565b9050919050565b60006102ca826102ad565b9050919050565b6102da816102bf565b82525050565b60006020820190506102f560008301846102d1565b92915050565b600080fd5b6103098161024d565b811461031457600080fd5b50565b60008151905061032681610300565b92915050565b600060208284031215610342576103416102fb565b5b600061035084828501610317565b9150509291505056fea2646970667358221220f8d79a033c3c8284613fb32d815c38aa375649ac129f8b0836c756c7bc28fb6964736f6c634300080f0033",
  "immutableReferences": {},
  "source": "// SPDX-License-Identifier: MIT\npragma solidity ^0.8.15;\n\nimport \"../node_modules/openzeppelin-solidity/contracts/token/ERC20/ERC20.sol\";\n\n// IngToken  -> Tx , CA\n// IngToken   IngToken CA  EthSwap \n// EthSwap  -> Tx\n    // IngToken CA    \n    // EthSwap   IngToken  \n    // CA.balanceOf() : call \n    // CA.transfer() : send \n//      CA \n\ncontract EthSwap {\n\n    // CA    \n    ERC20 public token;  // ERC20     : import   + ERC20.sol   ERC20    \n    //   \n\n    // ERC20  CA  .\n    constructor(ERC20 _token) {\n        token = _token;\n    }\n\n    // EOA -> EthSwap (Contract) -> getToken() -> IngToken CA \n    function getToken() public view returns (address) {\n        // token ERC20   address  \n        return address(token); // IngToken CA\n    }\n\n    // EOA -> EthSwap -> balanceOf()\n    // balanceOf() IngToken   \n    // EthSwap  IngToken       \n    function getSwapBalance() public view returns (uint) {\n        return token.balanceOf(msg.sender);\n    }\n\n    function getThis() public view returns (address) {\n        return address(this); \n        //  this    (this == EthSwap)\n        // address(this) == EthSwap CA\n    }\n\n    function getMsgSender() public view returns (address) {\n        return msg.sender;\n        // msg.sender == EthSwap  \n        /*\n            txObject = {\n                from: from   msg.sender \n                to:\n                value:\n                data:\n            }\n        */\n    }\n\n    // IngToken owner\n    // IngToken CA\n    // IngToken msg.sender\n\n    // EthSwap CA\n    // EthSwap msg.sender\n\n    // EthSwap        .\n\n}",
  "sourcePath": "/home/bitkunst/Ethereum/220721/truffle/contracts/EthSwap.sol",
  "compiler": {
    "name": "solc",
    "version": "0.8.15+commit.e14f2714.Emscripten.clang"
  },
  "schemaVersion": "3.4.8",
  "updatedAt": "2022-07-21T02:02:18.103Z",
  "networkType": "ethereum",
  "devdoc": {
    "kind": "dev",
    "methods": {},
    "version": 1
  },
  "userdoc": {
    "kind": "user",
    "methods": {},
    "version": 1
  }
}