{
  "contractName": "SimpleStore",
  "abi": [
    {
      "inputs": [
        {
          "internalType": "uint256",
          "name": "_value",
          "type": "uint256"
        }
      ],
      "stateMutability": "nonpayable",
      "type": "constructor"
    },
    {
      "inputs": [],
      "name": "owner",
      "outputs": [
        {
          "internalType": "address",
          "name": "",
          "type": "address"
        }
      ],
      "stateMutability": "view",
      "type": "function",
      "constant": true
    },
    {
      "inputs": [],
      "name": "value",
      "outputs": [
        {
          "internalType": "uint256",
          "name": "",
          "type": "uint256"
        }
      ],
      "stateMutability": "view",
      "type": "function",
      "constant": true
    },
    {
      "inputs": [],
      "name": "getAddress",
      "outputs": [
        {
          "internalType": "address",
          "name": "",
          "type": "address"
        }
      ],
      "stateMutability": "view",
      "type": "function",
      "constant": true
    }
  ],
  "bytecode": "0x608060405234801561001057600080fd5b50604051610291380380610291833981810160405281019061003291906100bb565b8060008190555033600160006101000a81548173ffffffffffffffffffffffffffffffffffffffff021916908373ffffffffffffffffffffffffffffffffffffffff160217905550506100e8565b600080fd5b6000819050919050565b61009881610085565b81146100a357600080fd5b50565b6000815190506100b58161008f565b92915050565b6000602082840312156100d1576100d0610080565b5b60006100df848285016100a6565b91505092915050565b61019a806100f76000396000f3fe608060405234801561001057600080fd5b50600436106100415760003560e01c806338cc4831146100465780633fa4f245146100645780638da5cb5b14610082575b600080fd5b61004e6100a0565b60405161005b9190610115565b60405180910390f35b61006c6100a8565b6040516100799190610149565b60405180910390f35b61008a6100ae565b6040516100979190610115565b60405180910390f35b600033905090565b60005481565b600160009054906101000a900473ffffffffffffffffffffffffffffffffffffffff1681565b600073ffffffffffffffffffffffffffffffffffffffff82169050919050565b60006100ff826100d4565b9050919050565b61010f816100f4565b82525050565b600060208201905061012a6000830184610106565b92915050565b6000819050919050565b61014381610130565b82525050565b600060208201905061015e600083018461013a565b9291505056fea26469706673582212204de9f1ffd458a6a67279fcbd2036d672768002e2eb8e99c5bfd3c94d2167293964736f6c634300080f0033",
  "immutableReferences": {},
  "source": "// SPDX-License-Identifier: MIT\npragma solidity ^0.8.15;\n\ncontract SimpleStore {\n    uint256 public value;\n    address public owner;\n    \n    constructor(uint256 _value) { // 생성자\n        value = _value;\n        owner = msg.sender;  // 배포시에는 배포를 실행한 사람의 EOA. \n    }\n    // 이후에는 컨트랙트를 실행시킨 사람의 계정\n\n    function getAddress() public view returns (address) {\n        return msg.sender;\n    }\n\n    // 배포한 사람이 실행했는지 다른 사람이 실행했는지 구분 가능\n    // function check() public view returns (uint256) {\n    //     if (owner === msg.sender) {\n\n    //     }\n\n    //     return 1;\n    // }\n}\n\n// constructor는 생성자 함수로써 인스턴스를 생성할 때 인자값을 넣어줄 수 있다.\n/**\n    인스턴스는 딱 한번만 생성 된다. 언제? 배포할 때(블록에 담길 때)\n    그렇다면 생성자 함수의 인자값은 언제 넣어줘야 하는가?\n    배포하기 전에, 즉 블록에 담기기 전에 인자값을 넣어줘야 한다.\n*/\n\n// Solidity에는 이더리움 네트워크 안에서만 사용할 수 있는 변수가 있다.\n// 스마트 컨트랙트를 실행한 사람의 account를 가져오는 예약어 존재",
  "sourcePath": "/home/bitkunst/Ethereum/220715/truffle/contracts/SimpleStore.sol",
  "compiler": {
    "name": "solc",
    "version": "0.8.15+commit.e14f2714.Emscripten.clang"
  },
  "schemaVersion": "3.4.8",
  "updatedAt": "2022-07-17T11:48:10.319Z",
  "networkType": "ethereum",
  "devdoc": {
    "kind": "dev",
    "methods": {},
    "version": 1
  },
  "userdoc": {
    "kind": "user",
    "methods": {},
    "version": 1
  }
}