{
  "contractName": "HelloWorld",
  "abi": [
    {
      "inputs": [],
      "stateMutability": "nonpayable",
      "type": "constructor"
    },
    {
      "inputs": [],
      "name": "value",
      "outputs": [
        {
          "internalType": "string",
          "name": "",
          "type": "string"
        }
      ],
      "stateMutability": "view",
      "type": "function",
      "constant": true
    },
    {
      "inputs": [
        {
          "internalType": "string",
          "name": "_v",
          "type": "string"
        }
      ],
      "name": "setValue",
      "outputs": [],
      "stateMutability": "nonpayable",
      "type": "function"
    }
  ],
  "bytecode": "0x60806040523480156200001157600080fd5b506040518060400160405280600c81526020017f48656c6c6f20576f726c6421000000000000000000000000000000000000000081525060009081620000589190620002d9565b50620003c0565b600081519050919050565b7f4e487b7100000000000000000000000000000000000000000000000000000000600052604160045260246000fd5b7f4e487b7100000000000000000000000000000000000000000000000000000000600052602260045260246000fd5b60006002820490506001821680620000e157607f821691505b602082108103620000f757620000f662000099565b5b50919050565b60008190508160005260206000209050919050565b60006020601f8301049050919050565b600082821b905092915050565b600060088302620001617fffffffffffffffffffffffffffffffffffffffffffffffffffffffffffffffff8262000122565b6200016d868362000122565b95508019841693508086168417925050509392505050565b6000819050919050565b6000819050919050565b6000620001ba620001b4620001ae8462000185565b6200018f565b62000185565b9050919050565b6000819050919050565b620001d68362000199565b620001ee620001e582620001c1565b8484546200012f565b825550505050565b600090565b62000205620001f6565b62000212818484620001cb565b505050565b5b818110156200023a576200022e600082620001fb565b60018101905062000218565b5050565b601f82111562000289576200025381620000fd565b6200025e8462000112565b810160208510156200026e578190505b620002866200027d8562000112565b83018262000217565b50505b505050565b600082821c905092915050565b6000620002ae600019846008026200028e565b1980831691505092915050565b6000620002c983836200029b565b9150826002028217905092915050565b620002e4826200005f565b67ffffffffffffffff8111156200030057620002ff6200006a565b5b6200030c8254620000c8565b620003198282856200023e565b600060209050601f8311600181146200035157600084156200033c578287015190505b620003488582620002bb565b865550620003b8565b601f1984166200036186620000fd565b60005b828110156200038b5784890151825560018201915060208501945060208101905062000364565b86831015620003ab5784890151620003a7601f8916826200029b565b8355505b6001600288020188555050505b505050505050565b61068180620003d06000396000f3fe608060405234801561001057600080fd5b50600436106100365760003560e01c80633fa4f2451461003b57806393a0935214610059575b600080fd5b610043610075565b60405161005091906101af565b60405180910390f35b610073600480360381019061006e919061031a565b610103565b005b6000805461008290610392565b80601f01602080910402602001604051908101604052809291908181526020018280546100ae90610392565b80156100fb5780601f106100d0576101008083540402835291602001916100fb565b820191906000526020600020905b8154815290600101906020018083116100de57829003601f168201915b505050505081565b80600090816101129190610579565b5050565b600081519050919050565b600082825260208201905092915050565b60005b83811015610150578082015181840152602081019050610135565b8381111561015f576000848401525b50505050565b6000601f19601f8301169050919050565b600061018182610116565b61018b8185610121565b935061019b818560208601610132565b6101a481610165565b840191505092915050565b600060208201905081810360008301526101c98184610176565b905092915050565b6000604051905090565b600080fd5b600080fd5b600080fd5b600080fd5b7f4e487b7100000000000000000000000000000000000000000000000000000000600052604160045260246000fd5b61022782610165565b810181811067ffffffffffffffff82111715610246576102456101ef565b5b80604052505050565b60006102596101d1565b9050610265828261021e565b919050565b600067ffffffffffffffff821115610285576102846101ef565b5b61028e82610165565b9050602081019050919050565b82818337600083830152505050565b60006102bd6102b88461026a565b61024f565b9050828152602081018484840111156102d9576102d86101ea565b5b6102e484828561029b565b509392505050565b600082601f830112610301576103006101e5565b5b81356103118482602086016102aa565b91505092915050565b6000602082840312156103305761032f6101db565b5b600082013567ffffffffffffffff81111561034e5761034d6101e0565b5b61035a848285016102ec565b91505092915050565b7f4e487b7100000000000000000000000000000000000000000000000000000000600052602260045260246000fd5b600060028204905060018216806103aa57607f821691505b6020821081036103bd576103bc610363565b5b50919050565b60008190508160005260206000209050919050565b60006020601f8301049050919050565b600082821b905092915050565b6000600883026104257fffffffffffffffffffffffffffffffffffffffffffffffffffffffffffffffff826103e8565b61042f86836103e8565b95508019841693508086168417925050509392505050565b6000819050919050565b6000819050919050565b600061047661047161046c84610447565b610451565b610447565b9050919050565b6000819050919050565b6104908361045b565b6104a461049c8261047d565b8484546103f5565b825550505050565b600090565b6104b96104ac565b6104c4818484610487565b505050565b5b818110156104e8576104dd6000826104b1565b6001810190506104ca565b5050565b601f82111561052d576104fe816103c3565b610507846103d8565b81016020851015610516578190505b61052a610522856103d8565b8301826104c9565b50505b505050565b600082821c905092915050565b600061055060001984600802610532565b1980831691505092915050565b6000610569838361053f565b9150826002028217905092915050565b61058282610116565b67ffffffffffffffff81111561059b5761059a6101ef565b5b6105a58254610392565b6105b08282856104ec565b600060209050601f8311600181146105e357600084156105d1578287015190505b6105db858261055d565b865550610643565b601f1984166105f1866103c3565b60005b82811015610619578489015182556001820191506020850194506020810190506105f4565b868310156106365784890151610632601f89168261053f565b8355505b6001600288020188555050505b50505050505056fea2646970667358221220c8d7fc059e6368d9ea762abe4af71b6aca664ad94b7fcd5e3d1268fd2113fc6564736f6c634300080f0033",
  "immutableReferences": {},
  "source": "// SPDX-License-Identifier: MIT\npragma solidity ^0.8.15; // \n\n// HelloWorld   \ncontract HelloWorld {\n    // public   getter  .\n    string public value; //  \n\n    constructor() {\n        value = 'Hello World!';\n    }\n\n    //    function  \n    //  public (  )\n    // view \n    //    \n    // function getValue() public view returns(string memory) {\n    //     return value;\n    // }\n\n    //     \n    function setValue(string memory _v) public {\n        value = _v;\n    }\n\n    // abi         .\n    // private   abi    . \n}",
  "sourcePath": "/home/bitkunst/Ethereum/220712/truffle/contracts/HelloWorld.sol",
  "compiler": {
    "name": "solc",
    "version": "0.8.15+commit.e14f2714.Emscripten.clang"
  },
  "schemaVersion": "3.4.8",
  "updatedAt": "2022-07-13T01:24:23.155Z",
  "networkType": "ethereum",
  "devdoc": {
    "kind": "dev",
    "methods": {},
    "version": 1
  },
  "userdoc": {
    "kind": "user",
    "methods": {},
    "version": 1
  }
}