{
	"contracts/Fundraising.sol": {
		"Fundraising": {
			"abi": [
				{
					"inputs": [
						{
							"internalType": "uint256",
							"name": "_targetAmount",
							"type": "uint256"
						},
						{
							"internalType": "uint256",
							"name": "_weeks",
							"type": "uint256"
						},
						{
							"internalType": "uint256",
							"name": "_days",
							"type": "uint256"
						},
						{
							"internalType": "uint256",
							"name": "_hours",
							"type": "uint256"
						},
						{
							"internalType": "uint256",
							"name": "_minutes",
							"type": "uint256"
						},
						{
							"internalType": "uint256",
							"name": "_seconds",
							"type": "uint256"
						}
					],
					"stateMutability": "nonpayable",
					"type": "constructor"
				},
				{
					"inputs": [],
					"name": "cancelFund",
					"outputs": [],
					"stateMutability": "payable",
					"type": "function"
				},
				{
					"inputs": [
						{
							"internalType": "address",
							"name": "",
							"type": "address"
						}
					],
					"name": "donations",
					"outputs": [
						{
							"internalType": "uint256",
							"name": "",
							"type": "uint256"
						}
					],
					"stateMutability": "view",
					"type": "function"
				},
				{
					"inputs": [],
					"name": "finishTime",
					"outputs": [
						{
							"internalType": "uint256",
							"name": "",
							"type": "uint256"
						}
					],
					"stateMutability": "view",
					"type": "function"
				},
				{
					"inputs": [],
					"name": "getDonation",
					"outputs": [
						{
							"internalType": "uint256",
							"name": "",
							"type": "uint256"
						}
					],
					"stateMutability": "view",
					"type": "function"
				},
				{
					"inputs": [],
					"name": "owner",
					"outputs": [
						{
							"internalType": "address",
							"name": "",
							"type": "address"
						}
					],
					"stateMutability": "view",
					"type": "function"
				},
				{
					"inputs": [],
					"name": "refund",
					"outputs": [],
					"stateMutability": "payable",
					"type": "function"
				},
				{
					"inputs": [],
					"name": "targetAmount",
					"outputs": [
						{
							"internalType": "uint256",
							"name": "",
							"type": "uint256"
						}
					],
					"stateMutability": "view",
					"type": "function"
				},
				{
					"inputs": [],
					"name": "withdrawDonations",
					"outputs": [],
					"stateMutability": "payable",
					"type": "function"
				},
				{
					"stateMutability": "payable",
					"type": "receive"
				}
			],
			"devdoc": {
				"kind": "dev",
				"methods": {},
				"version": 1
			},
			"evm": {
				"assembly": "    /* \"contracts/Fundraising.sol\":60:3915  contract Fundraising {... */\n  mstore(0x40, 0x80)\n    /* \"contracts/Fundraising.sol\":443:1079  constructor(... */\n  callvalue\n  dup1\n  iszero\n  tag_1\n  jumpi\n  0x00\n  dup1\n  revert\ntag_1:\n  pop\n  mload(0x40)\n  sub(codesize, bytecodeSize)\n  dup1\n  bytecodeSize\n  dup4\n  codecopy\n  dup2\n  dup2\n  add\n  0x40\n  mstore\n  dup2\n  add\n  swap1\n  tag_2\n  swap2\n  swap1\n  tag_3\n  jump\t// in\ntag_2:\n    /* \"contracts/Fundraising.sol\":603:616  _targetAmount */\n  dup6\n    /* \"contracts/Fundraising.sol\":588:600  targetAmount */\n  0x00\n    /* \"contracts/Fundraising.sol\":588:616  targetAmount = _targetAmount */\n  dup2\n  swap1\n  sstore\n  pop\n    /* \"contracts/Fundraising.sol\":631:641  msg.sender */\n  caller\n    /* \"contracts/Fundraising.sol\":623:628  owner */\n  0x01\n  0x00\n    /* \"contracts/Fundraising.sol\":623:641  owner = msg.sender */\n  0x0100\n  exp\n  dup2\n  sload\n  dup2\n  0xffffffffffffffffffffffffffffffffffffffff\n  mul\n  not\n  and\n  swap1\n  dup4\n  0xffffffffffffffffffffffffffffffffffffffff\n  and\n  mul\n  or\n  swap1\n  sstore\n  pop\n    /* \"contracts/Fundraising.sol\":663:664  0 */\n  0x00\n    /* \"contracts/Fundraising.sol\":648:660  raisedAmount */\n  0x03\n    /* \"contracts/Fundraising.sol\":648:664  raisedAmount = 0 */\n  dup2\n  swap1\n  sstore\n  pop\n    /* \"contracts/Fundraising.sol\":868:877  1 seconds */\n  0x01\n    /* \"contracts/Fundraising.sol\":850:858  _seconds */\n  dup2\n    /* \"contracts/Fundraising.sol\":850:877  _seconds *... */\n  tag_6\n  swap2\n  swap1\n  tag_7\n  jump\t// in\ntag_6:\n    /* \"contracts/Fundraising.sol\":831:840  1 minutes */\n  0x3c\n    /* \"contracts/Fundraising.sol\":813:821  _minutes */\n  dup4\n    /* \"contracts/Fundraising.sol\":813:840  _minutes *... */\n  tag_8\n  swap2\n  swap1\n  tag_7\n  jump\t// in\ntag_8:\n    /* \"contracts/Fundraising.sol\":796:803  1 hours */\n  0x0e10\n    /* \"contracts/Fundraising.sol\":780:786  _hours */\n  dup6\n    /* \"contracts/Fundraising.sol\":780:803  _hours *... */\n  tag_9\n  swap2\n  swap1\n  tag_7\n  jump\t// in\ntag_9:\n    /* \"contracts/Fundraising.sol\":764:770  1 days */\n  0x015180\n    /* \"contracts/Fundraising.sol\":749:754  _days */\n  dup8\n    /* \"contracts/Fundraising.sol\":749:770  _days *... */\n  tag_10\n  swap2\n  swap1\n  tag_7\n  jump\t// in\ntag_10:\n    /* \"contracts/Fundraising.sol\":732:739  1 weeks */\n  0x093a80\n    /* \"contracts/Fundraising.sol\":716:722  _weeks */\n  dup10\n    /* \"contracts/Fundraising.sol\":716:739  _weeks *... */\n  tag_11\n  swap2\n  swap1\n  tag_7\n  jump\t// in\ntag_11:\n    /* \"contracts/Fundraising.sol\":691:706  block.timestamp */\n  timestamp\n    /* \"contracts/Fundraising.sol\":691:739  block.timestamp +... */\n  tag_12\n  swap2\n  swap1\n  tag_13\n  jump\t// in\ntag_12:\n    /* \"contracts/Fundraising.sol\":691:770  block.timestamp +... */\n  tag_14\n  swap2\n  swap1\n  tag_13\n  jump\t// in\ntag_14:\n    /* \"contracts/Fundraising.sol\":691:803  block.timestamp +... */\n  tag_15\n  swap2\n  swap1\n  tag_13\n  jump\t// in\ntag_15:\n    /* \"contracts/Fundraising.sol\":691:840  block.timestamp +... */\n  tag_16\n  swap2\n  swap1\n  tag_13\n  jump\t// in\ntag_16:\n    /* \"contracts/Fundraising.sol\":691:877  block.timestamp +... */\n  tag_17\n  swap2\n  swap1\n  tag_13\n  jump\t// in\ntag_17:\n    /* \"contracts/Fundraising.sol\":671:681  finishTime */\n  0x04\n    /* \"contracts/Fundraising.sol\":671:877  finishTime =... */\n  dup2\n  swap1\n  sstore\n  pop\n    /* \"contracts/Fundraising.sol\":443:1079  constructor(... */\n  pop\n  pop\n  pop\n  pop\n  pop\n  pop\n    /* \"contracts/Fundraising.sol\":60:3915  contract Fundraising {... */\n  jump(tag_18)\n    /* \"#utility.yul\":88:205   */\ntag_20:\n    /* \"#utility.yul\":197:198   */\n  0x00\n    /* \"#utility.yul\":194:195   */\n  dup1\n    /* \"#utility.yul\":187:199   */\n  revert\n    /* \"#utility.yul\":334:411   */\ntag_22:\n    /* \"#utility.yul\":371:378   */\n  0x00\n    /* \"#utility.yul\":400:405   */\n  dup2\n    /* \"#utility.yul\":389:405   */\n  swap1\n  pop\n    /* \"#utility.yul\":334:411   */\n  swap2\n  swap1\n  pop\n  jump\t// out\n    /* \"#utility.yul\":417:539   */\ntag_23:\n    /* \"#utility.yul\":490:514   */\n  tag_32\n    /* \"#utility.yul\":508:513   */\n  dup2\n    /* \"#utility.yul\":490:514   */\n  tag_22\n  jump\t// in\ntag_32:\n    /* \"#utility.yul\":483:488   */\n  dup2\n    /* \"#utility.yul\":480:515   */\n  eq\n    /* \"#utility.yul\":470:533   */\n  tag_33\n  jumpi\n    /* \"#utility.yul\":529:530   */\n  0x00\n    /* \"#utility.yul\":526:527   */\n  dup1\n    /* \"#utility.yul\":519:531   */\n  revert\n    /* \"#utility.yul\":470:533   */\ntag_33:\n    /* \"#utility.yul\":417:539   */\n  pop\n  jump\t// out\n    /* \"#utility.yul\":545:688   */\ntag_24:\n    /* \"#utility.yul\":602:607   */\n  0x00\n    /* \"#utility.yul\":633:639   */\n  dup2\n    /* \"#utility.yul\":627:640   */\n  mload\n    /* \"#utility.yul\":618:640   */\n  swap1\n  pop\n    /* \"#utility.yul\":649:682   */\n  tag_35\n    /* \"#utility.yul\":676:681   */\n  dup2\n    /* \"#utility.yul\":649:682   */\n  tag_23\n  jump\t// in\ntag_35:\n    /* \"#utility.yul\":545:688   */\n  swap3\n  swap2\n  pop\n  pop\n  jump\t// out\n    /* \"#utility.yul\":694:1828   */\ntag_3:\n    /* \"#utility.yul\":809:815   */\n  0x00\n    /* \"#utility.yul\":817:823   */\n  dup1\n    /* \"#utility.yul\":825:831   */\n  0x00\n    /* \"#utility.yul\":833:839   */\n  dup1\n    /* \"#utility.yul\":841:847   */\n  0x00\n    /* \"#utility.yul\":849:855   */\n  dup1\n    /* \"#utility.yul\":898:901   */\n  0xc0\n    /* \"#utility.yul\":886:895   */\n  dup8\n    /* \"#utility.yul\":877:884   */\n  dup10\n    /* \"#utility.yul\":873:896   */\n  sub\n    /* \"#utility.yul\":869:902   */\n  slt\n    /* \"#utility.yul\":866:986   */\n  iszero\n  tag_37\n  jumpi\n    /* \"#utility.yul\":905:984   */\n  tag_38\n  tag_20\n  jump\t// in\ntag_38:\n    /* \"#utility.yul\":866:986   */\ntag_37:\n    /* \"#utility.yul\":1025:1026   */\n  0x00\n    /* \"#utility.yul\":1050:1114   */\n  tag_39\n    /* \"#utility.yul\":1106:1113   */\n  dup10\n    /* \"#utility.yul\":1097:1103   */\n  dup3\n    /* \"#utility.yul\":1086:1095   */\n  dup11\n    /* \"#utility.yul\":1082:1104   */\n  add\n    /* \"#utility.yul\":1050:1114   */\n  tag_24\n  jump\t// in\ntag_39:\n    /* \"#utility.yul\":1040:1114   */\n  swap7\n  pop\n    /* \"#utility.yul\":996:1124   */\n  pop\n    /* \"#utility.yul\":1163:1165   */\n  0x20\n    /* \"#utility.yul\":1189:1253   */\n  tag_40\n    /* \"#utility.yul\":1245:1252   */\n  dup10\n    /* \"#utility.yul\":1236:1242   */\n  dup3\n    /* \"#utility.yul\":1225:1234   */\n  dup11\n    /* \"#utility.yul\":1221:1243   */\n  add\n    /* \"#utility.yul\":1189:1253   */\n  tag_24\n  jump\t// in\ntag_40:\n    /* \"#utility.yul\":1179:1253   */\n  swap6\n  pop\n    /* \"#utility.yul\":1134:1263   */\n  pop\n    /* \"#utility.yul\":1302:1304   */\n  0x40\n    /* \"#utility.yul\":1328:1392   */\n  tag_41\n    /* \"#utility.yul\":1384:1391   */\n  dup10\n    /* \"#utility.yul\":1375:1381   */\n  dup3\n    /* \"#utility.yul\":1364:1373   */\n  dup11\n    /* \"#utility.yul\":1360:1382   */\n  add\n    /* \"#utility.yul\":1328:1392   */\n  tag_24\n  jump\t// in\ntag_41:\n    /* \"#utility.yul\":1318:1392   */\n  swap5\n  pop\n    /* \"#utility.yul\":1273:1402   */\n  pop\n    /* \"#utility.yul\":1441:1443   */\n  0x60\n    /* \"#utility.yul\":1467:1531   */\n  tag_42\n    /* \"#utility.yul\":1523:1530   */\n  dup10\n    /* \"#utility.yul\":1514:1520   */\n  dup3\n    /* \"#utility.yul\":1503:1512   */\n  dup11\n    /* \"#utility.yul\":1499:1521   */\n  add\n    /* \"#utility.yul\":1467:1531   */\n  tag_24\n  jump\t// in\ntag_42:\n    /* \"#utility.yul\":1457:1531   */\n  swap4\n  pop\n    /* \"#utility.yul\":1412:1541   */\n  pop\n    /* \"#utility.yul\":1580:1583   */\n  0x80\n    /* \"#utility.yul\":1607:1671   */\n  tag_43\n    /* \"#utility.yul\":1663:1670   */\n  dup10\n    /* \"#utility.yul\":1654:1660   */\n  dup3\n    /* \"#utility.yul\":1643:1652   */\n  dup11\n    /* \"#utility.yul\":1639:1661   */\n  add\n    /* \"#utility.yul\":1607:1671   */\n  tag_24\n  jump\t// in\ntag_43:\n    /* \"#utility.yul\":1597:1671   */\n  swap3\n  pop\n    /* \"#utility.yul\":1551:1681   */\n  pop\n    /* \"#utility.yul\":1720:1723   */\n  0xa0\n    /* \"#utility.yul\":1747:1811   */\n  tag_44\n    /* \"#utility.yul\":1803:1810   */\n  dup10\n    /* \"#utility.yul\":1794:1800   */\n  dup3\n    /* \"#utility.yul\":1783:1792   */\n  dup11\n    /* \"#utility.yul\":1779:1801   */\n  add\n    /* \"#utility.yul\":1747:1811   */\n  tag_24\n  jump\t// in\ntag_44:\n    /* \"#utility.yul\":1737:1811   */\n  swap2\n  pop\n    /* \"#utility.yul\":1691:1821   */\n  pop\n    /* \"#utility.yul\":694:1828   */\n  swap3\n  swap6\n  pop\n  swap3\n  swap6\n  pop\n  swap3\n  swap6\n  jump\t// out\n    /* \"#utility.yul\":1834:2014   */\ntag_25:\n    /* \"#utility.yul\":1882:1959   */\n  0x4e487b7100000000000000000000000000000000000000000000000000000000\n    /* \"#utility.yul\":1879:1880   */\n  0x00\n    /* \"#utility.yul\":1872:1960   */\n  mstore\n    /* \"#utility.yul\":1979:1983   */\n  0x11\n    /* \"#utility.yul\":1976:1977   */\n  0x04\n    /* \"#utility.yul\":1969:1984   */\n  mstore\n    /* \"#utility.yul\":2003:2007   */\n  0x24\n    /* \"#utility.yul\":2000:2001   */\n  0x00\n    /* \"#utility.yul\":1993:2008   */\n  revert\n    /* \"#utility.yul\":2020:2430   */\ntag_7:\n    /* \"#utility.yul\":2060:2067   */\n  0x00\n    /* \"#utility.yul\":2083:2103   */\n  tag_47\n    /* \"#utility.yul\":2101:2102   */\n  dup3\n    /* \"#utility.yul\":2083:2103   */\n  tag_22\n  jump\t// in\ntag_47:\n    /* \"#utility.yul\":2078:2103   */\n  swap2\n  pop\n    /* \"#utility.yul\":2117:2137   */\n  tag_48\n    /* \"#utility.yul\":2135:2136   */\n  dup4\n    /* \"#utility.yul\":2117:2137   */\n  tag_22\n  jump\t// in\ntag_48:\n    /* \"#utility.yul\":2112:2137   */\n  swap3\n  pop\n    /* \"#utility.yul\":2172:2173   */\n  dup3\n    /* \"#utility.yul\":2169:2170   */\n  dup3\n    /* \"#utility.yul\":2165:2174   */\n  mul\n    /* \"#utility.yul\":2194:2224   */\n  tag_49\n    /* \"#utility.yul\":2212:2223   */\n  dup2\n    /* \"#utility.yul\":2194:2224   */\n  tag_22\n  jump\t// in\ntag_49:\n    /* \"#utility.yul\":2183:2224   */\n  swap2\n  pop\n    /* \"#utility.yul\":2373:2374   */\n  dup3\n    /* \"#utility.yul\":2364:2371   */\n  dup3\n    /* \"#utility.yul\":2360:2375   */\n  div\n    /* \"#utility.yul\":2357:2358   */\n  dup5\n    /* \"#utility.yul\":2354:2376   */\n  eq\n    /* \"#utility.yul\":2334:2335   */\n  dup4\n    /* \"#utility.yul\":2327:2336   */\n  iszero\n    /* \"#utility.yul\":2307:2390   */\n  or\n    /* \"#utility.yul\":2284:2423   */\n  tag_50\n  jumpi\n    /* \"#utility.yul\":2403:2421   */\n  tag_51\n  tag_25\n  jump\t// in\ntag_51:\n    /* \"#utility.yul\":2284:2423   */\ntag_50:\n    /* \"#utility.yul\":2068:2430   */\n  pop\n    /* \"#utility.yul\":2020:2430   */\n  swap3\n  swap2\n  pop\n  pop\n  jump\t// out\n    /* \"#utility.yul\":2436:2627   */\ntag_13:\n    /* \"#utility.yul\":2476:2479   */\n  0x00\n    /* \"#utility.yul\":2495:2515   */\n  tag_53\n    /* \"#utility.yul\":2513:2514   */\n  dup3\n    /* \"#utility.yul\":2495:2515   */\n  tag_22\n  jump\t// in\ntag_53:\n    /* \"#utility.yul\":2490:2515   */\n  swap2\n  pop\n    /* \"#utility.yul\":2529:2549   */\n  tag_54\n    /* \"#utility.yul\":2547:2548   */\n  dup4\n    /* \"#utility.yul\":2529:2549   */\n  tag_22\n  jump\t// in\ntag_54:\n    /* \"#utility.yul\":2524:2549   */\n  swap3\n  pop\n    /* \"#utility.yul\":2572:2573   */\n  dup3\n    /* \"#utility.yul\":2569:2570   */\n  dup3\n    /* \"#utility.yul\":2565:2574   */\n  add\n    /* \"#utility.yul\":2558:2574   */\n  swap1\n  pop\n    /* \"#utility.yul\":2593:2596   */\n  dup1\n    /* \"#utility.yul\":2590:2591   */\n  dup3\n    /* \"#utility.yul\":2587:2597   */\n  gt\n    /* \"#utility.yul\":2584:2620   */\n  iszero\n  tag_55\n  jumpi\n    /* \"#utility.yul\":2600:2618   */\n  tag_56\n  tag_25\n  jump\t// in\ntag_56:\n    /* \"#utility.yul\":2584:2620   */\ntag_55:\n    /* \"#utility.yul\":2436:2627   */\n  swap3\n  swap2\n  pop\n  pop\n  jump\t// out\n    /* \"contracts/Fundraising.sol\":60:3915  contract Fundraising {... */\ntag_18:\n  dataSize(sub_0)\n  dup1\n  dataOffset(sub_0)\n  0x00\n  codecopy\n  0x00\n  return\nstop\n\nsub_0: assembly {\n        /* \"contracts/Fundraising.sol\":60:3915  contract Fundraising {... */\n      mstore(0x40, 0x80)\n      jumpi(tag_1, lt(calldatasize, 0x04))\n      shr(0xe0, calldataload(0x00))\n      dup1\n      0x953b8fb8\n      gt\n      tag_11\n      jumpi\n      dup1\n      0x953b8fb8\n      eq\n      tag_7\n      jumpi\n      dup1\n      0xcc6cb19a\n      eq\n      tag_8\n      jumpi\n      dup1\n      0xce1b088a\n      eq\n      tag_9\n      jumpi\n      dup1\n      0xe914fa12\n      eq\n      tag_10\n      jumpi\n      jump(tag_2)\n    tag_11:\n      dup1\n      0x4bf71729\n      eq\n      tag_3\n      jumpi\n      dup1\n      0x590e1ae3\n      eq\n      tag_4\n      jumpi\n      dup1\n      0x5958611e\n      eq\n      tag_5\n      jumpi\n      dup1\n      0x8da5cb5b\n      eq\n      tag_6\n      jumpi\n      jump(tag_2)\n    tag_1:\n      jumpi(tag_2, calldatasize)\n        /* \"contracts/Fundraising.sol\":1814:1824  finishTime */\n      sload(0x04)\n        /* \"contracts/Fundraising.sol\":1796:1811  block.timestamp */\n      timestamp\n        /* \"contracts/Fundraising.sol\":1796:1824  block.timestamp < finishTime */\n      lt\n        /* \"contracts/Fundraising.sol\":1788:1849  require(block.timestamp < finishTime, \"This funding is over\") */\n      tag_14\n      jumpi\n      mload(0x40)\n      0x08c379a000000000000000000000000000000000000000000000000000000000\n      dup2\n      mstore\n      0x04\n      add\n      tag_15\n      swap1\n      tag_16\n      jump\t// in\n    tag_15:\n      mload(0x40)\n      dup1\n      swap2\n      sub\n      swap1\n      revert\n    tag_14:\n        /* \"contracts/Fundraising.sol\":1883:1892  msg.value */\n      callvalue\n        /* \"contracts/Fundraising.sol\":1858:1867  donations */\n      0x02\n        /* \"contracts/Fundraising.sol\":1858:1879  donations[msg.sender] */\n      0x00\n        /* \"contracts/Fundraising.sol\":1868:1878  msg.sender */\n      caller\n        /* \"contracts/Fundraising.sol\":1858:1879  donations[msg.sender] */\n      0xffffffffffffffffffffffffffffffffffffffff\n      and\n      0xffffffffffffffffffffffffffffffffffffffff\n      and\n      dup2\n      mstore\n      0x20\n      add\n      swap1\n      dup2\n      mstore\n      0x20\n      add\n      0x00\n      keccak256\n      0x00\n        /* \"contracts/Fundraising.sol\":1858:1892  donations[msg.sender] += msg.value */\n      dup3\n      dup3\n      sload\n      tag_17\n      swap2\n      swap1\n      tag_18\n      jump\t// in\n    tag_17:\n      swap3\n      pop\n      pop\n      dup2\n      swap1\n      sstore\n      pop\n        /* \"contracts/Fundraising.sol\":1960:1969  msg.value */\n      callvalue\n        /* \"contracts/Fundraising.sol\":1944:1956  raisedAmount */\n      0x03\n      0x00\n        /* \"contracts/Fundraising.sol\":1944:1969  raisedAmount += msg.value */\n      dup3\n      dup3\n      sload\n      tag_19\n      swap2\n      swap1\n      tag_18\n      jump\t// in\n    tag_19:\n      swap3\n      pop\n      pop\n      dup2\n      swap1\n      sstore\n      stop\n        /* \"contracts/Fundraising.sol\":60:3915  contract Fundraising {... */\n    tag_2:\n      0x00\n      dup1\n      revert\n        /* \"contracts/Fundraising.sol\":3816:3912  function getDonation() external view returns (uint256) {... */\n    tag_3:\n      callvalue\n      dup1\n      iszero\n      tag_20\n      jumpi\n      0x00\n      dup1\n      revert\n    tag_20:\n      pop\n      tag_21\n      tag_22\n      jump\t// in\n    tag_21:\n      mload(0x40)\n      tag_23\n      swap2\n      swap1\n      tag_24\n      jump\t// in\n    tag_23:\n      mload(0x40)\n      dup1\n      swap2\n      sub\n      swap1\n      return\n        /* \"contracts/Fundraising.sol\":2662:3486  function refund() external payable {... */\n    tag_4:\n      tag_25\n      tag_26\n      jump\t// in\n    tag_25:\n      stop\n        /* \"contracts/Fundraising.sol\":367:392  uint256 public finishTime */\n    tag_5:\n      callvalue\n      dup1\n      iszero\n      tag_27\n      jumpi\n      0x00\n      dup1\n      revert\n    tag_27:\n      pop\n      tag_28\n      tag_29\n      jump\t// in\n    tag_28:\n      mload(0x40)\n      tag_30\n      swap2\n      swap1\n      tag_24\n      jump\t// in\n    tag_30:\n      mload(0x40)\n      dup1\n      swap2\n      sub\n      swap1\n      return\n        /* \"contracts/Fundraising.sol\":138:158  address public owner */\n    tag_6:\n      callvalue\n      dup1\n      iszero\n      tag_31\n      jumpi\n      0x00\n      dup1\n      revert\n    tag_31:\n      pop\n      tag_32\n      tag_33\n      jump\t// in\n    tag_32:\n      mload(0x40)\n      tag_34\n      swap2\n      swap1\n      tag_35\n      jump\t// in\n    tag_34:\n      mload(0x40)\n      dup1\n      swap2\n      sub\n      swap1\n      return\n        /* \"contracts/Fundraising.sol\":86:113  uint256 public targetAmount */\n    tag_7:\n      callvalue\n      dup1\n      iszero\n      tag_36\n      jumpi\n      0x00\n      dup1\n      revert\n    tag_36:\n      pop\n      tag_37\n      tag_38\n      jump\t// in\n    tag_37:\n      mload(0x40)\n      tag_39\n      swap2\n      swap1\n      tag_24\n      jump\t// in\n    tag_39:\n      mload(0x40)\n      dup1\n      swap2\n      sub\n      swap1\n      return\n        /* \"contracts/Fundraising.sol\":219:263  mapping(address => uint256) public donations */\n    tag_8:\n      callvalue\n      dup1\n      iszero\n      tag_40\n      jumpi\n      0x00\n      dup1\n      revert\n    tag_40:\n      pop\n      tag_41\n      0x04\n      dup1\n      calldatasize\n      sub\n      dup2\n      add\n      swap1\n      tag_42\n      swap2\n      swap1\n      tag_43\n      jump\t// in\n    tag_42:\n      tag_44\n      jump\t// in\n    tag_41:\n      mload(0x40)\n      tag_45\n      swap2\n      swap1\n      tag_24\n      jump\t// in\n    tag_45:\n      mload(0x40)\n      dup1\n      swap2\n      sub\n      swap1\n      return\n        /* \"contracts/Fundraising.sol\":2020:2656  function withdrawDonations() external payable {... */\n    tag_9:\n      tag_46\n      tag_47\n      jump\t// in\n    tag_46:\n      stop\n        /* \"contracts/Fundraising.sol\":3492:3810  function cancelFund() external payable {... */\n    tag_10:\n      tag_48\n      tag_49\n      jump\t// in\n    tag_48:\n      stop\n        /* \"contracts/Fundraising.sol\":3816:3912  function getDonation() external view returns (uint256) {... */\n    tag_22:\n        /* \"contracts/Fundraising.sol\":3862:3869  uint256 */\n      0x00\n        /* \"contracts/Fundraising.sol\":3885:3894  donations */\n      0x02\n        /* \"contracts/Fundraising.sol\":3885:3906  donations[msg.sender] */\n      0x00\n        /* \"contracts/Fundraising.sol\":3895:3905  msg.sender */\n      caller\n        /* \"contracts/Fundraising.sol\":3885:3906  donations[msg.sender] */\n      0xffffffffffffffffffffffffffffffffffffffff\n      and\n      0xffffffffffffffffffffffffffffffffffffffff\n      and\n      dup2\n      mstore\n      0x20\n      add\n      swap1\n      dup2\n      mstore\n      0x20\n      add\n      0x00\n      keccak256\n      sload\n        /* \"contracts/Fundraising.sol\":3878:3906  return donations[msg.sender] */\n      swap1\n      pop\n        /* \"contracts/Fundraising.sol\":3816:3912  function getDonation() external view returns (uint256) {... */\n      swap1\n      jump\t// out\n        /* \"contracts/Fundraising.sol\":2662:3486  function refund() external payable {... */\n    tag_26:\n        /* \"contracts/Fundraising.sol\":2870:2880  finishTime */\n      sload(0x04)\n        /* \"contracts/Fundraising.sol\":2852:2867  block.timestamp */\n      timestamp\n        /* \"contracts/Fundraising.sol\":2852:2880  block.timestamp > finishTime */\n      gt\n        /* \"contracts/Fundraising.sol\":2844:2913  require(block.timestamp > finishTime, \"This funding is not over yet\") */\n      tag_52\n      jumpi\n      mload(0x40)\n      0x08c379a000000000000000000000000000000000000000000000000000000000\n      dup2\n      mstore\n      0x04\n      add\n      tag_53\n      swap1\n      tag_54\n      jump\t// in\n    tag_53:\n      mload(0x40)\n      dup1\n      swap2\n      sub\n      swap1\n      revert\n    tag_52:\n        /* \"contracts/Fundraising.sol\":2982:2994  targetAmount */\n      sload(0x00)\n        /* \"contracts/Fundraising.sol\":2967:2979  raisedAmount */\n      sload(0x03)\n        /* \"contracts/Fundraising.sol\":2967:2994  raisedAmount < targetAmount */\n      lt\n        /* \"contracts/Fundraising.sol\":2959:3030  require(raisedAmount < targetAmount, \"The Funding did reaced the goal\") */\n      tag_55\n      jumpi\n      mload(0x40)\n      0x08c379a000000000000000000000000000000000000000000000000000000000\n      dup2\n      mstore\n      0x04\n      add\n      tag_56\n      swap1\n      tag_57\n      jump\t// in\n    tag_56:\n      mload(0x40)\n      dup1\n      swap2\n      sub\n      swap1\n      revert\n    tag_55:\n        /* \"contracts/Fundraising.sol\":3124:3125  0 */\n      0x00\n        /* \"contracts/Fundraising.sol\":3100:3109  donations */\n      0x02\n        /* \"contracts/Fundraising.sol\":3100:3121  donations[msg.sender] */\n      0x00\n        /* \"contracts/Fundraising.sol\":3110:3120  msg.sender */\n      caller\n        /* \"contracts/Fundraising.sol\":3100:3121  donations[msg.sender] */\n      0xffffffffffffffffffffffffffffffffffffffff\n      and\n      0xffffffffffffffffffffffffffffffffffffffff\n      and\n      dup2\n      mstore\n      0x20\n      add\n      swap1\n      dup2\n      mstore\n      0x20\n      add\n      0x00\n      keccak256\n      sload\n        /* \"contracts/Fundraising.sol\":3100:3125  donations[msg.sender] > 0 */\n      gt\n        /* \"contracts/Fundraising.sol\":3092:3164  require(donations[msg.sender] > 0, \"You did not donate to this funding\") */\n      tag_58\n      jumpi\n      mload(0x40)\n      0x08c379a000000000000000000000000000000000000000000000000000000000\n      dup2\n      mstore\n      0x04\n      add\n      tag_59\n      swap1\n      tag_60\n      jump\t// in\n    tag_59:\n      mload(0x40)\n      dup1\n      swap2\n      sub\n      swap1\n      revert\n    tag_58:\n        /* \"contracts/Fundraising.sol\":3208:3224  uint256 toRefund */\n      0x00\n        /* \"contracts/Fundraising.sol\":3227:3236  donations */\n      0x02\n        /* \"contracts/Fundraising.sol\":3227:3248  donations[msg.sender] */\n      0x00\n        /* \"contracts/Fundraising.sol\":3237:3247  msg.sender */\n      caller\n        /* \"contracts/Fundraising.sol\":3227:3248  donations[msg.sender] */\n      0xffffffffffffffffffffffffffffffffffffffff\n      and\n      0xffffffffffffffffffffffffffffffffffffffff\n      and\n      dup2\n      mstore\n      0x20\n      add\n      swap1\n      dup2\n      mstore\n      0x20\n      add\n      0x00\n      keccak256\n      sload\n        /* \"contracts/Fundraising.sol\":3208:3248  uint256 toRefund = donations[msg.sender] */\n      swap1\n      pop\n        /* \"contracts/Fundraising.sol\":3279:3280  0 */\n      0x00\n        /* \"contracts/Fundraising.sol\":3255:3264  donations */\n      0x02\n        /* \"contracts/Fundraising.sol\":3255:3276  donations[msg.sender] */\n      0x00\n        /* \"contracts/Fundraising.sol\":3265:3275  msg.sender */\n      caller\n        /* \"contracts/Fundraising.sol\":3255:3276  donations[msg.sender] */\n      0xffffffffffffffffffffffffffffffffffffffff\n      and\n      0xffffffffffffffffffffffffffffffffffffffff\n      and\n      dup2\n      mstore\n      0x20\n      add\n      swap1\n      dup2\n      mstore\n      0x20\n      add\n      0x00\n      keccak256\n        /* \"contracts/Fundraising.sol\":3255:3280  donations[msg.sender] = 0 */\n      dup2\n      swap1\n      sstore\n      pop\n        /* \"contracts/Fundraising.sol\":3450:3460  msg.sender */\n      caller\n        /* \"contracts/Fundraising.sol\":3442:3470  payable(msg.sender).transfer */\n      0xffffffffffffffffffffffffffffffffffffffff\n      and\n        /* \"contracts/Fundraising.sol\":3442:3480  payable(msg.sender).transfer(toRefund) */\n      0x08fc\n        /* \"contracts/Fundraising.sol\":3471:3479  toRefund */\n      dup3\n        /* \"contracts/Fundraising.sol\":3442:3480  payable(msg.sender).transfer(toRefund) */\n      swap1\n      dup2\n      iszero\n      mul\n      swap1\n      mload(0x40)\n      0x00\n      mload(0x40)\n      dup1\n      dup4\n      sub\n      dup2\n      dup6\n      dup9\n      dup9\n      call\n      swap4\n      pop\n      pop\n      pop\n      pop\n      iszero\n      dup1\n      iszero\n      tag_62\n      jumpi\n      returndatasize\n      0x00\n      dup1\n      returndatacopy\n      revert(0x00, returndatasize)\n    tag_62:\n      pop\n        /* \"contracts/Fundraising.sol\":2697:3486  {... */\n      pop\n        /* \"contracts/Fundraising.sol\":2662:3486  function refund() external payable {... */\n      jump\t// out\n        /* \"contracts/Fundraising.sol\":367:392  uint256 public finishTime */\n    tag_29:\n      sload(0x04)\n      dup2\n      jump\t// out\n        /* \"contracts/Fundraising.sol\":138:158  address public owner */\n    tag_33:\n      0x01\n      0x00\n      swap1\n      sload\n      swap1\n      0x0100\n      exp\n      swap1\n      div\n      0xffffffffffffffffffffffffffffffffffffffff\n      and\n      dup2\n      jump\t// out\n        /* \"contracts/Fundraising.sol\":86:113  uint256 public targetAmount */\n    tag_38:\n      sload(0x00)\n      dup2\n      jump\t// out\n        /* \"contracts/Fundraising.sol\":219:263  mapping(address => uint256) public donations */\n    tag_44:\n      mstore(0x20, 0x02)\n      dup1\n      0x00\n      mstore\n      keccak256(0x00, 0x40)\n      0x00\n      swap2\n      pop\n      swap1\n      pop\n      sload\n      dup2\n      jump\t// out\n        /* \"contracts/Fundraising.sol\":2020:2656  function withdrawDonations() external payable {... */\n    tag_47:\n        /* \"contracts/Fundraising.sol\":2165:2170  owner */\n      0x01\n      0x00\n      swap1\n      sload\n      swap1\n      0x0100\n      exp\n      swap1\n      div\n      0xffffffffffffffffffffffffffffffffffffffff\n      and\n        /* \"contracts/Fundraising.sol\":2151:2170  msg.sender == owner */\n      0xffffffffffffffffffffffffffffffffffffffff\n      and\n        /* \"contracts/Fundraising.sol\":2151:2161  msg.sender */\n      caller\n        /* \"contracts/Fundraising.sol\":2151:2170  msg.sender == owner */\n      0xffffffffffffffffffffffffffffffffffffffff\n      and\n      eq\n        /* \"contracts/Fundraising.sol\":2143:2215  require(msg.sender == owner, \"Funds will only be released to the owner\") */\n      tag_64\n      jumpi\n      mload(0x40)\n      0x08c379a000000000000000000000000000000000000000000000000000000000\n      dup2\n      mstore\n      0x04\n      add\n      tag_65\n      swap1\n      tag_66\n      jump\t// in\n    tag_65:\n      mload(0x40)\n      dup1\n      swap2\n      sub\n      swap1\n      revert\n    tag_64:\n        /* \"contracts/Fundraising.sol\":2308:2320  targetAmount */\n      sload(0x00)\n        /* \"contracts/Fundraising.sol\":2292:2304  raisedAmount */\n      sload(0x03)\n        /* \"contracts/Fundraising.sol\":2292:2320  raisedAmount >= targetAmount */\n      lt\n      iszero\n        /* \"contracts/Fundraising.sol\":2284:2359  require(raisedAmount >= targetAmount, \"The funding did not reach the goal\") */\n      tag_67\n      jumpi\n      mload(0x40)\n      0x08c379a000000000000000000000000000000000000000000000000000000000\n      dup2\n      mstore\n      0x04\n      add\n      tag_68\n      swap1\n      tag_69\n      jump\t// in\n    tag_68:\n      mload(0x40)\n      dup1\n      swap2\n      sub\n      swap1\n      revert\n    tag_67:\n        /* \"contracts/Fundraising.sol\":2431:2441  finishTime */\n      sload(0x04)\n        /* \"contracts/Fundraising.sol\":2413:2428  block.timestamp */\n      timestamp\n        /* \"contracts/Fundraising.sol\":2413:2441  block.timestamp > finishTime */\n      gt\n        /* \"contracts/Fundraising.sol\":2405:2474  require(block.timestamp > finishTime, \"This funding is not over yet\") */\n      tag_70\n      jumpi\n      mload(0x40)\n      0x08c379a000000000000000000000000000000000000000000000000000000000\n      dup2\n      mstore\n      0x04\n      add\n      tag_71\n      swap1\n      tag_54\n      jump\t// in\n    tag_71:\n      mload(0x40)\n      dup1\n      swap2\n      sub\n      swap1\n      revert\n    tag_70:\n        /* \"contracts/Fundraising.sol\":2532:2537  owner */\n      0x01\n      0x00\n      swap1\n      sload\n      swap1\n      0x0100\n      exp\n      swap1\n      div\n      0xffffffffffffffffffffffffffffffffffffffff\n      and\n        /* \"contracts/Fundraising.sol\":2524:2547  payable(owner).transfer */\n      0xffffffffffffffffffffffffffffffffffffffff\n      and\n        /* \"contracts/Fundraising.sol\":2524:2561  payable(owner).transfer(raisedAmount) */\n      0x08fc\n        /* \"contracts/Fundraising.sol\":2548:2560  raisedAmount */\n      sload(0x03)\n        /* \"contracts/Fundraising.sol\":2524:2561  payable(owner).transfer(raisedAmount) */\n      swap1\n      dup2\n      iszero\n      mul\n      swap1\n      mload(0x40)\n      0x00\n      mload(0x40)\n      dup1\n      dup4\n      sub\n      dup2\n      dup6\n      dup9\n      dup9\n      call\n      swap4\n      pop\n      pop\n      pop\n      pop\n      iszero\n      dup1\n      iszero\n      tag_73\n      jumpi\n      returndatasize\n      0x00\n      dup1\n      returndatacopy\n      revert(0x00, returndatasize)\n    tag_73:\n      pop\n        /* \"contracts/Fundraising.sol\":2020:2656  function withdrawDonations() external payable {... */\n      jump\t// out\n        /* \"contracts/Fundraising.sol\":3492:3810  function cancelFund() external payable {... */\n    tag_49:\n        /* \"contracts/Fundraising.sol\":3564:3574  finishTime */\n      sload(0x04)\n        /* \"contracts/Fundraising.sol\":3546:3561  block.timestamp */\n      timestamp\n        /* \"contracts/Fundraising.sol\":3546:3574  block.timestamp < finishTime */\n      lt\n        /* \"contracts/Fundraising.sol\":3538:3599  require(block.timestamp < finishTime, \"This funding is over\") */\n      tag_75\n      jumpi\n      mload(0x40)\n      0x08c379a000000000000000000000000000000000000000000000000000000000\n      dup2\n      mstore\n      0x04\n      add\n      tag_76\n      swap1\n      tag_16\n      jump\t// in\n    tag_76:\n      mload(0x40)\n      dup1\n      swap2\n      sub\n      swap1\n      revert\n    tag_75:\n        /* \"contracts/Fundraising.sol\":3638:3639  0 */\n      0x00\n        /* \"contracts/Fundraising.sol\":3614:3623  donations */\n      0x02\n        /* \"contracts/Fundraising.sol\":3614:3635  donations[msg.sender] */\n      0x00\n        /* \"contracts/Fundraising.sol\":3624:3634  msg.sender */\n      caller\n        /* \"contracts/Fundraising.sol\":3614:3635  donations[msg.sender] */\n      0xffffffffffffffffffffffffffffffffffffffff\n      and\n      0xffffffffffffffffffffffffffffffffffffffff\n      and\n      dup2\n      mstore\n      0x20\n      add\n      swap1\n      dup2\n      mstore\n      0x20\n      add\n      0x00\n      keccak256\n      sload\n        /* \"contracts/Fundraising.sol\":3614:3639  donations[msg.sender] > 0 */\n      gt\n        /* \"contracts/Fundraising.sol\":3606:3678  require(donations[msg.sender] > 0, \"You did not donate to this funding\") */\n      tag_77\n      jumpi\n      mload(0x40)\n      0x08c379a000000000000000000000000000000000000000000000000000000000\n      dup2\n      mstore\n      0x04\n      add\n      tag_78\n      swap1\n      tag_60\n      jump\t// in\n    tag_78:\n      mload(0x40)\n      dup1\n      swap2\n      sub\n      swap1\n      revert\n    tag_77:\n        /* \"contracts/Fundraising.sol\":3687:3703  uint256 toRefund */\n      0x00\n        /* \"contracts/Fundraising.sol\":3706:3715  donations */\n      0x02\n        /* \"contracts/Fundraising.sol\":3706:3727  donations[msg.sender] */\n      0x00\n        /* \"contracts/Fundraising.sol\":3716:3726  msg.sender */\n      caller\n        /* \"contracts/Fundraising.sol\":3706:3727  donations[msg.sender] */\n      0xffffffffffffffffffffffffffffffffffffffff\n      and\n      0xffffffffffffffffffffffffffffffffffffffff\n      and\n      dup2\n      mstore\n      0x20\n      add\n      swap1\n      dup2\n      mstore\n      0x20\n      add\n      0x00\n      keccak256\n      sload\n        /* \"contracts/Fundraising.sol\":3687:3727  uint256 toRefund = donations[msg.sender] */\n      swap1\n      pop\n        /* \"contracts/Fundraising.sol\":3758:3759  0 */\n      0x00\n        /* \"contracts/Fundraising.sol\":3734:3743  donations */\n      0x02\n        /* \"contracts/Fundraising.sol\":3734:3755  donations[msg.sender] */\n      0x00\n        /* \"contracts/Fundraising.sol\":3744:3754  msg.sender */\n      caller\n        /* \"contracts/Fundraising.sol\":3734:3755  donations[msg.sender] */\n      0xffffffffffffffffffffffffffffffffffffffff\n      and\n      0xffffffffffffffffffffffffffffffffffffffff\n      and\n      dup2\n      mstore\n      0x20\n      add\n      swap1\n      dup2\n      mstore\n      0x20\n      add\n      0x00\n      keccak256\n        /* \"contracts/Fundraising.sol\":3734:3759  donations[msg.sender] = 0 */\n      dup2\n      swap1\n      sstore\n      pop\n        /* \"contracts/Fundraising.sol\":3774:3784  msg.sender */\n      caller\n        /* \"contracts/Fundraising.sol\":3766:3794  payable(msg.sender).transfer */\n      0xffffffffffffffffffffffffffffffffffffffff\n      and\n        /* \"contracts/Fundraising.sol\":3766:3804  payable(msg.sender).transfer(toRefund) */\n      0x08fc\n        /* \"contracts/Fundraising.sol\":3795:3803  toRefund */\n      dup3\n        /* \"contracts/Fundraising.sol\":3766:3804  payable(msg.sender).transfer(toRefund) */\n      swap1\n      dup2\n      iszero\n      mul\n      swap1\n      mload(0x40)\n      0x00\n      mload(0x40)\n      dup1\n      dup4\n      sub\n      dup2\n      dup6\n      dup9\n      dup9\n      call\n      swap4\n      pop\n      pop\n      pop\n      pop\n      iszero\n      dup1\n      iszero\n      tag_80\n      jumpi\n      returndatasize\n      0x00\n      dup1\n      returndatacopy\n      revert(0x00, returndatasize)\n    tag_80:\n      pop\n        /* \"contracts/Fundraising.sol\":3531:3810  {... */\n      pop\n        /* \"contracts/Fundraising.sol\":3492:3810  function cancelFund() external payable {... */\n      jump\t// out\n        /* \"#utility.yul\":7:176   */\n    tag_81:\n        /* \"#utility.yul\":91:102   */\n      0x00\n        /* \"#utility.yul\":125:131   */\n      dup3\n        /* \"#utility.yul\":120:123   */\n      dup3\n        /* \"#utility.yul\":113:132   */\n      mstore\n        /* \"#utility.yul\":165:169   */\n      0x20\n        /* \"#utility.yul\":160:163   */\n      dup3\n        /* \"#utility.yul\":156:170   */\n      add\n        /* \"#utility.yul\":141:170   */\n      swap1\n      pop\n        /* \"#utility.yul\":7:176   */\n      swap3\n      swap2\n      pop\n      pop\n      jump\t// out\n        /* \"#utility.yul\":182:352   */\n    tag_82:\n        /* \"#utility.yul\":322:344   */\n      0x546869732066756e64696e67206973206f766572000000000000000000000000\n        /* \"#utility.yul\":318:319   */\n      0x00\n        /* \"#utility.yul\":310:316   */\n      dup3\n        /* \"#utility.yul\":306:320   */\n      add\n        /* \"#utility.yul\":299:345   */\n      mstore\n        /* \"#utility.yul\":182:352   */\n      pop\n      jump\t// out\n        /* \"#utility.yul\":358:724   */\n    tag_83:\n        /* \"#utility.yul\":500:503   */\n      0x00\n        /* \"#utility.yul\":521:588   */\n      tag_109\n        /* \"#utility.yul\":585:587   */\n      0x14\n        /* \"#utility.yul\":580:583   */\n      dup4\n        /* \"#utility.yul\":521:588   */\n      tag_81\n      jump\t// in\n    tag_109:\n        /* \"#utility.yul\":514:588   */\n      swap2\n      pop\n        /* \"#utility.yul\":597:690   */\n      tag_110\n        /* \"#utility.yul\":686:689   */\n      dup3\n        /* \"#utility.yul\":597:690   */\n      tag_82\n      jump\t// in\n    tag_110:\n        /* \"#utility.yul\":715:717   */\n      0x20\n        /* \"#utility.yul\":710:713   */\n      dup3\n        /* \"#utility.yul\":706:718   */\n      add\n        /* \"#utility.yul\":699:718   */\n      swap1\n      pop\n        /* \"#utility.yul\":358:724   */\n      swap2\n      swap1\n      pop\n      jump\t// out\n        /* \"#utility.yul\":730:1149   */\n    tag_16:\n        /* \"#utility.yul\":896:900   */\n      0x00\n        /* \"#utility.yul\":934:936   */\n      0x20\n        /* \"#utility.yul\":923:932   */\n      dup3\n        /* \"#utility.yul\":919:937   */\n      add\n        /* \"#utility.yul\":911:937   */\n      swap1\n      pop\n        /* \"#utility.yul\":983:992   */\n      dup2\n        /* \"#utility.yul\":977:981   */\n      dup2\n        /* \"#utility.yul\":973:993   */\n      sub\n        /* \"#utility.yul\":969:970   */\n      0x00\n        /* \"#utility.yul\":958:967   */\n      dup4\n        /* \"#utility.yul\":954:971   */\n      add\n        /* \"#utility.yul\":947:994   */\n      mstore\n        /* \"#utility.yul\":1011:1142   */\n      tag_112\n        /* \"#utility.yul\":1137:1141   */\n      dup2\n        /* \"#utility.yul\":1011:1142   */\n      tag_83\n      jump\t// in\n    tag_112:\n        /* \"#utility.yul\":1003:1142   */\n      swap1\n      pop\n        /* \"#utility.yul\":730:1149   */\n      swap2\n      swap1\n      pop\n      jump\t// out\n        /* \"#utility.yul\":1155:1232   */\n    tag_84:\n        /* \"#utility.yul\":1192:1199   */\n      0x00\n        /* \"#utility.yul\":1221:1226   */\n      dup2\n        /* \"#utility.yul\":1210:1226   */\n      swap1\n      pop\n        /* \"#utility.yul\":1155:1232   */\n      swap2\n      swap1\n      pop\n      jump\t// out\n        /* \"#utility.yul\":1238:1418   */\n    tag_85:\n        /* \"#utility.yul\":1286:1363   */\n      0x4e487b7100000000000000000000000000000000000000000000000000000000\n        /* \"#utility.yul\":1283:1284   */\n      0x00\n        /* \"#utility.yul\":1276:1364   */\n      mstore\n        /* \"#utility.yul\":1383:1387   */\n      0x11\n        /* \"#utility.yul\":1380:1381   */\n      0x04\n        /* \"#utility.yul\":1373:1388   */\n      mstore\n        /* \"#utility.yul\":1407:1411   */\n      0x24\n        /* \"#utility.yul\":1404:1405   */\n      0x00\n        /* \"#utility.yul\":1397:1412   */\n      revert\n        /* \"#utility.yul\":1424:1615   */\n    tag_18:\n        /* \"#utility.yul\":1464:1467   */\n      0x00\n        /* \"#utility.yul\":1483:1503   */\n      tag_116\n        /* \"#utility.yul\":1501:1502   */\n      dup3\n        /* \"#utility.yul\":1483:1503   */\n      tag_84\n      jump\t// in\n    tag_116:\n        /* \"#utility.yul\":1478:1503   */\n      swap2\n      pop\n        /* \"#utility.yul\":1517:1537   */\n      tag_117\n        /* \"#utility.yul\":1535:1536   */\n      dup4\n        /* \"#utility.yul\":1517:1537   */\n      tag_84\n      jump\t// in\n    tag_117:\n        /* \"#utility.yul\":1512:1537   */\n      swap3\n      pop\n        /* \"#utility.yul\":1560:1561   */\n      dup3\n        /* \"#utility.yul\":1557:1558   */\n      dup3\n        /* \"#utility.yul\":1553:1562   */\n      add\n        /* \"#utility.yul\":1546:1562   */\n      swap1\n      pop\n        /* \"#utility.yul\":1581:1584   */\n      dup1\n        /* \"#utility.yul\":1578:1579   */\n      dup3\n        /* \"#utility.yul\":1575:1585   */\n      gt\n        /* \"#utility.yul\":1572:1608   */\n      iszero\n      tag_118\n      jumpi\n        /* \"#utility.yul\":1588:1606   */\n      tag_119\n      tag_85\n      jump\t// in\n    tag_119:\n        /* \"#utility.yul\":1572:1608   */\n    tag_118:\n        /* \"#utility.yul\":1424:1615   */\n      swap3\n      swap2\n      pop\n      pop\n      jump\t// out\n        /* \"#utility.yul\":1621:1739   */\n    tag_86:\n        /* \"#utility.yul\":1708:1732   */\n      tag_121\n        /* \"#utility.yul\":1726:1731   */\n      dup2\n        /* \"#utility.yul\":1708:1732   */\n      tag_84\n      jump\t// in\n    tag_121:\n        /* \"#utility.yul\":1703:1706   */\n      dup3\n        /* \"#utility.yul\":1696:1733   */\n      mstore\n        /* \"#utility.yul\":1621:1739   */\n      pop\n      pop\n      jump\t// out\n        /* \"#utility.yul\":1745:1967   */\n    tag_24:\n        /* \"#utility.yul\":1838:1842   */\n      0x00\n        /* \"#utility.yul\":1876:1878   */\n      0x20\n        /* \"#utility.yul\":1865:1874   */\n      dup3\n        /* \"#utility.yul\":1861:1879   */\n      add\n        /* \"#utility.yul\":1853:1879   */\n      swap1\n      pop\n        /* \"#utility.yul\":1889:1960   */\n      tag_123\n        /* \"#utility.yul\":1957:1958   */\n      0x00\n        /* \"#utility.yul\":1946:1955   */\n      dup4\n        /* \"#utility.yul\":1942:1959   */\n      add\n        /* \"#utility.yul\":1933:1939   */\n      dup5\n        /* \"#utility.yul\":1889:1960   */\n      tag_86\n      jump\t// in\n    tag_123:\n        /* \"#utility.yul\":1745:1967   */\n      swap3\n      swap2\n      pop\n      pop\n      jump\t// out\n        /* \"#utility.yul\":1973:2099   */\n    tag_87:\n        /* \"#utility.yul\":2010:2017   */\n      0x00\n        /* \"#utility.yul\":2050:2092   */\n      0xffffffffffffffffffffffffffffffffffffffff\n        /* \"#utility.yul\":2043:2048   */\n      dup3\n        /* \"#utility.yul\":2039:2093   */\n      and\n        /* \"#utility.yul\":2028:2093   */\n      swap1\n      pop\n        /* \"#utility.yul\":1973:2099   */\n      swap2\n      swap1\n      pop\n      jump\t// out\n        /* \"#utility.yul\":2105:2201   */\n    tag_88:\n        /* \"#utility.yul\":2142:2149   */\n      0x00\n        /* \"#utility.yul\":2171:2195   */\n      tag_126\n        /* \"#utility.yul\":2189:2194   */\n      dup3\n        /* \"#utility.yul\":2171:2195   */\n      tag_87\n      jump\t// in\n    tag_126:\n        /* \"#utility.yul\":2160:2195   */\n      swap1\n      pop\n        /* \"#utility.yul\":2105:2201   */\n      swap2\n      swap1\n      pop\n      jump\t// out\n        /* \"#utility.yul\":2207:2325   */\n    tag_89:\n        /* \"#utility.yul\":2294:2318   */\n      tag_128\n        /* \"#utility.yul\":2312:2317   */\n      dup2\n        /* \"#utility.yul\":2294:2318   */\n      tag_88\n      jump\t// in\n    tag_128:\n        /* \"#utility.yul\":2289:2292   */\n      dup3\n        /* \"#utility.yul\":2282:2319   */\n      mstore\n        /* \"#utility.yul\":2207:2325   */\n      pop\n      pop\n      jump\t// out\n        /* \"#utility.yul\":2331:2553   */\n    tag_35:\n        /* \"#utility.yul\":2424:2428   */\n      0x00\n        /* \"#utility.yul\":2462:2464   */\n      0x20\n        /* \"#utility.yul\":2451:2460   */\n      dup3\n        /* \"#utility.yul\":2447:2465   */\n      add\n        /* \"#utility.yul\":2439:2465   */\n      swap1\n      pop\n        /* \"#utility.yul\":2475:2546   */\n      tag_130\n        /* \"#utility.yul\":2543:2544   */\n      0x00\n        /* \"#utility.yul\":2532:2541   */\n      dup4\n        /* \"#utility.yul\":2528:2545   */\n      add\n        /* \"#utility.yul\":2519:2525   */\n      dup5\n        /* \"#utility.yul\":2475:2546   */\n      tag_89\n      jump\t// in\n    tag_130:\n        /* \"#utility.yul\":2331:2553   */\n      swap3\n      swap2\n      pop\n      pop\n      jump\t// out\n        /* \"#utility.yul\":2640:2757   */\n    tag_91:\n        /* \"#utility.yul\":2749:2750   */\n      0x00\n        /* \"#utility.yul\":2746:2747   */\n      dup1\n        /* \"#utility.yul\":2739:2751   */\n      revert\n        /* \"#utility.yul\":2886:3008   */\n    tag_93:\n        /* \"#utility.yul\":2959:2983   */\n      tag_135\n        /* \"#utility.yul\":2977:2982   */\n      dup2\n        /* \"#utility.yul\":2959:2983   */\n      tag_88\n      jump\t// in\n    tag_135:\n        /* \"#utility.yul\":2952:2957   */\n      dup2\n        /* \"#utility.yul\":2949:2984   */\n      eq\n        /* \"#utility.yul\":2939:3002   */\n      tag_136\n      jumpi\n        /* \"#utility.yul\":2998:2999   */\n      0x00\n        /* \"#utility.yul\":2995:2996   */\n      dup1\n        /* \"#utility.yul\":2988:3000   */\n      revert\n        /* \"#utility.yul\":2939:3002   */\n    tag_136:\n        /* \"#utility.yul\":2886:3008   */\n      pop\n      jump\t// out\n        /* \"#utility.yul\":3014:3153   */\n    tag_94:\n        /* \"#utility.yul\":3060:3065   */\n      0x00\n        /* \"#utility.yul\":3098:3104   */\n      dup2\n        /* \"#utility.yul\":3085:3105   */\n      calldataload\n        /* \"#utility.yul\":3076:3105   */\n      swap1\n      pop\n        /* \"#utility.yul\":3114:3147   */\n      tag_138\n        /* \"#utility.yul\":3141:3146   */\n      dup2\n        /* \"#utility.yul\":3114:3147   */\n      tag_93\n      jump\t// in\n    tag_138:\n        /* \"#utility.yul\":3014:3153   */\n      swap3\n      swap2\n      pop\n      pop\n      jump\t// out\n        /* \"#utility.yul\":3159:3488   */\n    tag_43:\n        /* \"#utility.yul\":3218:3224   */\n      0x00\n        /* \"#utility.yul\":3267:3269   */\n      0x20\n        /* \"#utility.yul\":3255:3264   */\n      dup3\n        /* \"#utility.yul\":3246:3253   */\n      dup5\n        /* \"#utility.yul\":3242:3265   */\n      sub\n        /* \"#utility.yul\":3238:3270   */\n      slt\n        /* \"#utility.yul\":3235:3354   */\n      iszero\n      tag_140\n      jumpi\n        /* \"#utility.yul\":3273:3352   */\n      tag_141\n      tag_91\n      jump\t// in\n    tag_141:\n        /* \"#utility.yul\":3235:3354   */\n    tag_140:\n        /* \"#utility.yul\":3393:3394   */\n      0x00\n        /* \"#utility.yul\":3418:3471   */\n      tag_142\n        /* \"#utility.yul\":3463:3470   */\n      dup5\n        /* \"#utility.yul\":3454:3460   */\n      dup3\n        /* \"#utility.yul\":3443:3452   */\n      dup6\n        /* \"#utility.yul\":3439:3461   */\n      add\n        /* \"#utility.yul\":3418:3471   */\n      tag_94\n      jump\t// in\n    tag_142:\n        /* \"#utility.yul\":3408:3471   */\n      swap2\n      pop\n        /* \"#utility.yul\":3364:3481   */\n      pop\n        /* \"#utility.yul\":3159:3488   */\n      swap3\n      swap2\n      pop\n      pop\n      jump\t// out\n        /* \"#utility.yul\":3494:3672   */\n    tag_95:\n        /* \"#utility.yul\":3634:3664   */\n      0x546869732066756e64696e67206973206e6f74206f7665722079657400000000\n        /* \"#utility.yul\":3630:3631   */\n      0x00\n        /* \"#utility.yul\":3622:3628   */\n      dup3\n        /* \"#utility.yul\":3618:3632   */\n      add\n        /* \"#utility.yul\":3611:3665   */\n      mstore\n        /* \"#utility.yul\":3494:3672   */\n      pop\n      jump\t// out\n        /* \"#utility.yul\":3678:4044   */\n    tag_96:\n        /* \"#utility.yul\":3820:3823   */\n      0x00\n        /* \"#utility.yul\":3841:3908   */\n      tag_145\n        /* \"#utility.yul\":3905:3907   */\n      0x1c\n        /* \"#utility.yul\":3900:3903   */\n      dup4\n        /* \"#utility.yul\":3841:3908   */\n      tag_81\n      jump\t// in\n    tag_145:\n        /* \"#utility.yul\":3834:3908   */\n      swap2\n      pop\n        /* \"#utility.yul\":3917:4010   */\n      tag_146\n        /* \"#utility.yul\":4006:4009   */\n      dup3\n        /* \"#utility.yul\":3917:4010   */\n      tag_95\n      jump\t// in\n    tag_146:\n        /* \"#utility.yul\":4035:4037   */\n      0x20\n        /* \"#utility.yul\":4030:4033   */\n      dup3\n        /* \"#utility.yul\":4026:4038   */\n      add\n        /* \"#utility.yul\":4019:4038   */\n      swap1\n      pop\n        /* \"#utility.yul\":3678:4044   */\n      swap2\n      swap1\n      pop\n      jump\t// out\n        /* \"#utility.yul\":4050:4469   */\n    tag_54:\n        /* \"#utility.yul\":4216:4220   */\n      0x00\n        /* \"#utility.yul\":4254:4256   */\n      0x20\n        /* \"#utility.yul\":4243:4252   */\n      dup3\n        /* \"#utility.yul\":4239:4257   */\n      add\n        /* \"#utility.yul\":4231:4257   */\n      swap1\n      pop\n        /* \"#utility.yul\":4303:4312   */\n      dup2\n        /* \"#utility.yul\":4297:4301   */\n      dup2\n        /* \"#utility.yul\":4293:4313   */\n      sub\n        /* \"#utility.yul\":4289:4290   */\n      0x00\n        /* \"#utility.yul\":4278:4287   */\n      dup4\n        /* \"#utility.yul\":4274:4291   */\n      add\n        /* \"#utility.yul\":4267:4314   */\n      mstore\n        /* \"#utility.yul\":4331:4462   */\n      tag_148\n        /* \"#utility.yul\":4457:4461   */\n      dup2\n        /* \"#utility.yul\":4331:4462   */\n      tag_96\n      jump\t// in\n    tag_148:\n        /* \"#utility.yul\":4323:4462   */\n      swap1\n      pop\n        /* \"#utility.yul\":4050:4469   */\n      swap2\n      swap1\n      pop\n      jump\t// out\n        /* \"#utility.yul\":4475:4656   */\n    tag_97:\n        /* \"#utility.yul\":4615:4648   */\n      0x5468652046756e64696e6720646964207265616365642074686520676f616c00\n        /* \"#utility.yul\":4611:4612   */\n      0x00\n        /* \"#utility.yul\":4603:4609   */\n      dup3\n        /* \"#utility.yul\":4599:4613   */\n      add\n        /* \"#utility.yul\":4592:4649   */\n      mstore\n        /* \"#utility.yul\":4475:4656   */\n      pop\n      jump\t// out\n        /* \"#utility.yul\":4662:5028   */\n    tag_98:\n        /* \"#utility.yul\":4804:4807   */\n      0x00\n        /* \"#utility.yul\":4825:4892   */\n      tag_151\n        /* \"#utility.yul\":4889:4891   */\n      0x1f\n        /* \"#utility.yul\":4884:4887   */\n      dup4\n        /* \"#utility.yul\":4825:4892   */\n      tag_81\n      jump\t// in\n    tag_151:\n        /* \"#utility.yul\":4818:4892   */\n      swap2\n      pop\n        /* \"#utility.yul\":4901:4994   */\n      tag_152\n        /* \"#utility.yul\":4990:4993   */\n      dup3\n        /* \"#utility.yul\":4901:4994   */\n      tag_97\n      jump\t// in\n    tag_152:\n        /* \"#utility.yul\":5019:5021   */\n      0x20\n        /* \"#utility.yul\":5014:5017   */\n      dup3\n        /* \"#utility.yul\":5010:5022   */\n      add\n        /* \"#utility.yul\":5003:5022   */\n      swap1\n      pop\n        /* \"#utility.yul\":4662:5028   */\n      swap2\n      swap1\n      pop\n      jump\t// out\n        /* \"#utility.yul\":5034:5453   */\n    tag_57:\n        /* \"#utility.yul\":5200:5204   */\n      0x00\n        /* \"#utility.yul\":5238:5240   */\n      0x20\n        /* \"#utility.yul\":5227:5236   */\n      dup3\n        /* \"#utility.yul\":5223:5241   */\n      add\n        /* \"#utility.yul\":5215:5241   */\n      swap1\n      pop\n        /* \"#utility.yul\":5287:5296   */\n      dup2\n        /* \"#utility.yul\":5281:5285   */\n      dup2\n        /* \"#utility.yul\":5277:5297   */\n      sub\n        /* \"#utility.yul\":5273:5274   */\n      0x00\n        /* \"#utility.yul\":5262:5271   */\n      dup4\n        /* \"#utility.yul\":5258:5275   */\n      add\n        /* \"#utility.yul\":5251:5298   */\n      mstore\n        /* \"#utility.yul\":5315:5446   */\n      tag_154\n        /* \"#utility.yul\":5441:5445   */\n      dup2\n        /* \"#utility.yul\":5315:5446   */\n      tag_98\n      jump\t// in\n    tag_154:\n        /* \"#utility.yul\":5307:5446   */\n      swap1\n      pop\n        /* \"#utility.yul\":5034:5453   */\n      swap2\n      swap1\n      pop\n      jump\t// out\n        /* \"#utility.yul\":5459:5680   */\n    tag_99:\n        /* \"#utility.yul\":5599:5633   */\n      0x596f7520646964206e6f7420646f6e61746520746f20746869732066756e6469\n        /* \"#utility.yul\":5595:5596   */\n      0x00\n        /* \"#utility.yul\":5587:5593   */\n      dup3\n        /* \"#utility.yul\":5583:5597   */\n      add\n        /* \"#utility.yul\":5576:5634   */\n      mstore\n        /* \"#utility.yul\":5668:5672   */\n      0x6e67000000000000000000000000000000000000000000000000000000000000\n        /* \"#utility.yul\":5663:5665   */\n      0x20\n        /* \"#utility.yul\":5655:5661   */\n      dup3\n        /* \"#utility.yul\":5651:5666   */\n      add\n        /* \"#utility.yul\":5644:5673   */\n      mstore\n        /* \"#utility.yul\":5459:5680   */\n      pop\n      jump\t// out\n        /* \"#utility.yul\":5686:6052   */\n    tag_100:\n        /* \"#utility.yul\":5828:5831   */\n      0x00\n        /* \"#utility.yul\":5849:5916   */\n      tag_157\n        /* \"#utility.yul\":5913:5915   */\n      0x22\n        /* \"#utility.yul\":5908:5911   */\n      dup4\n        /* \"#utility.yul\":5849:5916   */\n      tag_81\n      jump\t// in\n    tag_157:\n        /* \"#utility.yul\":5842:5916   */\n      swap2\n      pop\n        /* \"#utility.yul\":5925:6018   */\n      tag_158\n        /* \"#utility.yul\":6014:6017   */\n      dup3\n        /* \"#utility.yul\":5925:6018   */\n      tag_99\n      jump\t// in\n    tag_158:\n        /* \"#utility.yul\":6043:6045   */\n      0x40\n        /* \"#utility.yul\":6038:6041   */\n      dup3\n        /* \"#utility.yul\":6034:6046   */\n      add\n        /* \"#utility.yul\":6027:6046   */\n      swap1\n      pop\n        /* \"#utility.yul\":5686:6052   */\n      swap2\n      swap1\n      pop\n      jump\t// out\n        /* \"#utility.yul\":6058:6477   */\n    tag_60:\n        /* \"#utility.yul\":6224:6228   */\n      0x00\n        /* \"#utility.yul\":6262:6264   */\n      0x20\n        /* \"#utility.yul\":6251:6260   */\n      dup3\n        /* \"#utility.yul\":6247:6265   */\n      add\n        /* \"#utility.yul\":6239:6265   */\n      swap1\n      pop\n        /* \"#utility.yul\":6311:6320   */\n      dup2\n        /* \"#utility.yul\":6305:6309   */\n      dup2\n        /* \"#utility.yul\":6301:6321   */\n      sub\n        /* \"#utility.yul\":6297:6298   */\n      0x00\n        /* \"#utility.yul\":6286:6295   */\n      dup4\n        /* \"#utility.yul\":6282:6299   */\n      add\n        /* \"#utility.yul\":6275:6322   */\n      mstore\n        /* \"#utility.yul\":6339:6470   */\n      tag_160\n        /* \"#utility.yul\":6465:6469   */\n      dup2\n        /* \"#utility.yul\":6339:6470   */\n      tag_100\n      jump\t// in\n    tag_160:\n        /* \"#utility.yul\":6331:6470   */\n      swap1\n      pop\n        /* \"#utility.yul\":6058:6477   */\n      swap2\n      swap1\n      pop\n      jump\t// out\n        /* \"#utility.yul\":6483:6710   */\n    tag_101:\n        /* \"#utility.yul\":6623:6657   */\n      0x46756e64732077696c6c206f6e6c792062652072656c656173656420746f2074\n        /* \"#utility.yul\":6619:6620   */\n      0x00\n        /* \"#utility.yul\":6611:6617   */\n      dup3\n        /* \"#utility.yul\":6607:6621   */\n      add\n        /* \"#utility.yul\":6600:6658   */\n      mstore\n        /* \"#utility.yul\":6692:6702   */\n      0x6865206f776e6572000000000000000000000000000000000000000000000000\n        /* \"#utility.yul\":6687:6689   */\n      0x20\n        /* \"#utility.yul\":6679:6685   */\n      dup3\n        /* \"#utility.yul\":6675:6690   */\n      add\n        /* \"#utility.yul\":6668:6703   */\n      mstore\n        /* \"#utility.yul\":6483:6710   */\n      pop\n      jump\t// out\n        /* \"#utility.yul\":6716:7082   */\n    tag_102:\n        /* \"#utility.yul\":6858:6861   */\n      0x00\n        /* \"#utility.yul\":6879:6946   */\n      tag_163\n        /* \"#utility.yul\":6943:6945   */\n      0x28\n        /* \"#utility.yul\":6938:6941   */\n      dup4\n        /* \"#utility.yul\":6879:6946   */\n      tag_81\n      jump\t// in\n    tag_163:\n        /* \"#utility.yul\":6872:6946   */\n      swap2\n      pop\n        /* \"#utility.yul\":6955:7048   */\n      tag_164\n        /* \"#utility.yul\":7044:7047   */\n      dup3\n        /* \"#utility.yul\":6955:7048   */\n      tag_101\n      jump\t// in\n    tag_164:\n        /* \"#utility.yul\":7073:7075   */\n      0x40\n        /* \"#utility.yul\":7068:7071   */\n      dup3\n        /* \"#utility.yul\":7064:7076   */\n      add\n        /* \"#utility.yul\":7057:7076   */\n      swap1\n      pop\n        /* \"#utility.yul\":6716:7082   */\n      swap2\n      swap1\n      pop\n      jump\t// out\n        /* \"#utility.yul\":7088:7507   */\n    tag_66:\n        /* \"#utility.yul\":7254:7258   */\n      0x00\n        /* \"#utility.yul\":7292:7294   */\n      0x20\n        /* \"#utility.yul\":7281:7290   */\n      dup3\n        /* \"#utility.yul\":7277:7295   */\n      add\n        /* \"#utility.yul\":7269:7295   */\n      swap1\n      pop\n        /* \"#utility.yul\":7341:7350   */\n      dup2\n        /* \"#utility.yul\":7335:7339   */\n      dup2\n        /* \"#utility.yul\":7331:7351   */\n      sub\n        /* \"#utility.yul\":7327:7328   */\n      0x00\n        /* \"#utility.yul\":7316:7325   */\n      dup4\n        /* \"#utility.yul\":7312:7329   */\n      add\n        /* \"#utility.yul\":7305:7352   */\n      mstore\n        /* \"#utility.yul\":7369:7500   */\n      tag_166\n        /* \"#utility.yul\":7495:7499   */\n      dup2\n        /* \"#utility.yul\":7369:7500   */\n      tag_102\n      jump\t// in\n    tag_166:\n        /* \"#utility.yul\":7361:7500   */\n      swap1\n      pop\n        /* \"#utility.yul\":7088:7507   */\n      swap2\n      swap1\n      pop\n      jump\t// out\n        /* \"#utility.yul\":7513:7734   */\n    tag_103:\n        /* \"#utility.yul\":7653:7687   */\n      0x5468652066756e64696e6720646964206e6f742072656163682074686520676f\n        /* \"#utility.yul\":7649:7650   */\n      0x00\n        /* \"#utility.yul\":7641:7647   */\n      dup3\n        /* \"#utility.yul\":7637:7651   */\n      add\n        /* \"#utility.yul\":7630:7688   */\n      mstore\n        /* \"#utility.yul\":7722:7726   */\n      0x616c000000000000000000000000000000000000000000000000000000000000\n        /* \"#utility.yul\":7717:7719   */\n      0x20\n        /* \"#utility.yul\":7709:7715   */\n      dup3\n        /* \"#utility.yul\":7705:7720   */\n      add\n        /* \"#utility.yul\":7698:7727   */\n      mstore\n        /* \"#utility.yul\":7513:7734   */\n      pop\n      jump\t// out\n        /* \"#utility.yul\":7740:8106   */\n    tag_104:\n        /* \"#utility.yul\":7882:7885   */\n      0x00\n        /* \"#utility.yul\":7903:7970   */\n      tag_169\n        /* \"#utility.yul\":7967:7969   */\n      0x22\n        /* \"#utility.yul\":7962:7965   */\n      dup4\n        /* \"#utility.yul\":7903:7970   */\n      tag_81\n      jump\t// in\n    tag_169:\n        /* \"#utility.yul\":7896:7970   */\n      swap2\n      pop\n        /* \"#utility.yul\":7979:8072   */\n      tag_170\n        /* \"#utility.yul\":8068:8071   */\n      dup3\n        /* \"#utility.yul\":7979:8072   */\n      tag_103\n      jump\t// in\n    tag_170:\n        /* \"#utility.yul\":8097:8099   */\n      0x40\n        /* \"#utility.yul\":8092:8095   */\n      dup3\n        /* \"#utility.yul\":8088:8100   */\n      add\n        /* \"#utility.yul\":8081:8100   */\n      swap1\n      pop\n        /* \"#utility.yul\":7740:8106   */\n      swap2\n      swap1\n      pop\n      jump\t// out\n        /* \"#utility.yul\":8112:8531   */\n    tag_69:\n        /* \"#utility.yul\":8278:8282   */\n      0x00\n        /* \"#utility.yul\":8316:8318   */\n      0x20\n        /* \"#utility.yul\":8305:8314   */\n      dup3\n        /* \"#utility.yul\":8301:8319   */\n      add\n        /* \"#utility.yul\":8293:8319   */\n      swap1\n      pop\n        /* \"#utility.yul\":8365:8374   */\n      dup2\n        /* \"#utility.yul\":8359:8363   */\n      dup2\n        /* \"#utility.yul\":8355:8375   */\n      sub\n        /* \"#utility.yul\":8351:8352   */\n      0x00\n        /* \"#utility.yul\":8340:8349   */\n      dup4\n        /* \"#utility.yul\":8336:8353   */\n      add\n        /* \"#utility.yul\":8329:8376   */\n      mstore\n        /* \"#utility.yul\":8393:8524   */\n      tag_172\n        /* \"#utility.yul\":8519:8523   */\n      dup2\n        /* \"#utility.yul\":8393:8524   */\n      tag_104\n      jump\t// in\n    tag_172:\n        /* \"#utility.yul\":8385:8524   */\n      swap1\n      pop\n        /* \"#utility.yul\":8112:8531   */\n      swap2\n      swap1\n      pop\n      jump\t// out\n\n    auxdata: 0xa264697066735822122044475f1e874c9b76c4affc9f0fc3510a2b8baf993fb0c1b4679e5b6f5ecec44f64736f6c63430008130033\n}\n",
				"bytecode": {
					"linkReferences": {},
					"object": "60806040523480156200001157600080fd5b5060405162000f2e38038062000f2e833981810160405281019062000037919062000166565b8560008190555033600160006101000a81548173ffffffffffffffffffffffffffffffffffffffff021916908373ffffffffffffffffffffffffffffffffffffffff160217905550600060038190555060018162000096919062000231565b603c83620000a5919062000231565b610e1085620000b5919062000231565b6201518087620000c6919062000231565b62093a8089620000d7919062000231565b42620000e491906200027c565b620000f091906200027c565b620000fc91906200027c565b6200010891906200027c565b6200011491906200027c565b600481905550505050505050620002b7565b600080fd5b6000819050919050565b62000140816200012b565b81146200014c57600080fd5b50565b600081519050620001608162000135565b92915050565b60008060008060008060c0878903121562000186576200018562000126565b5b60006200019689828a016200014f565b9650506020620001a989828a016200014f565b9550506040620001bc89828a016200014f565b9450506060620001cf89828a016200014f565b9350506080620001e289828a016200014f565b92505060a0620001f589828a016200014f565b9150509295509295509295565b7f4e487b7100000000000000000000000000000000000000000000000000000000600052601160045260246000fd5b60006200023e826200012b565b91506200024b836200012b565b92508282026200025b816200012b565b9150828204841483151762000275576200027462000202565b5b5092915050565b600062000289826200012b565b915062000296836200012b565b9250828201905080821115620002b157620002b062000202565b5b92915050565b610c6780620002c76000396000f3fe60806040526004361061007f5760003560e01c8063953b8fb81161004e578063953b8fb8146101c8578063cc6cb19a146101f3578063ce1b088a14610230578063e914fa121461023a57610138565b80634bf717291461013d578063590e1ae3146101685780635958611e146101725780638da5cb5b1461019d57610138565b366101385760045442106100c8576040517f08c379a00000000000000000000000000000000000000000000000000000000081526004016100bf90610832565b60405180910390fd5b34600260003373ffffffffffffffffffffffffffffffffffffffff1673ffffffffffffffffffffffffffffffffffffffff1681526020019081526020016000206000828254610117919061088b565b925050819055503460036000828254610130919061088b565b925050819055005b600080fd5b34801561014957600080fd5b50610152610244565b60405161015f91906108ce565b60405180910390f35b61017061028b565b005b34801561017e57600080fd5b5061018761046a565b60405161019491906108ce565b60405180910390f35b3480156101a957600080fd5b506101b2610470565b6040516101bf919061092a565b60405180910390f35b3480156101d457600080fd5b506101dd610496565b6040516101ea91906108ce565b60405180910390f35b3480156101ff57600080fd5b5061021a60048036038101906102159190610976565b61049c565b60405161022791906108ce565b60405180910390f35b6102386104b4565b005b61024261063c565b005b6000600260003373ffffffffffffffffffffffffffffffffffffffff1673ffffffffffffffffffffffffffffffffffffffff16815260200190815260200160002054905090565b60045442116102cf576040517f08c379a00000000000000000000000000000000000000000000000000000000081526004016102c6906109ef565b60405180910390fd5b60005460035410610315576040517f08c379a000000000000000000000000000000000000000000000000000000000815260040161030c90610a5b565b60405180910390fd5b6000600260003373ffffffffffffffffffffffffffffffffffffffff1673ffffffffffffffffffffffffffffffffffffffff1681526020019081526020016000205411610397576040517f08c379a000000000000000000000000000000000000000000000000000000000815260040161038e90610aed565b60405180910390fd5b6000600260003373ffffffffffffffffffffffffffffffffffffffff1673ffffffffffffffffffffffffffffffffffffffff1681526020019081526020016000205490506000600260003373ffffffffffffffffffffffffffffffffffffffff1673ffffffffffffffffffffffffffffffffffffffff168152602001908152602001600020819055503373ffffffffffffffffffffffffffffffffffffffff166108fc829081150290604051600060405180830381858888f19350505050158015610466573d6000803e3d6000fd5b5050565b60045481565b600160009054906101000a900473ffffffffffffffffffffffffffffffffffffffff1681565b60005481565b60026020528060005260406000206000915090505481565b600160009054906101000a900473ffffffffffffffffffffffffffffffffffffffff1673ffffffffffffffffffffffffffffffffffffffff163373ffffffffffffffffffffffffffffffffffffffff1614610544576040517f08c379a000000000000000000000000000000000000000000000000000000000815260040161053b90610b7f565b60405180910390fd5b600054600354101561058b576040517f08c379a000000000000000000000000000000000000000000000000000000000815260040161058290610c11565b60405180910390fd5b60045442116105cf576040517f08c379a00000000000000000000000000000000000000000000000000000000081526004016105c6906109ef565b60405180910390fd5b600160009054906101000a900473ffffffffffffffffffffffffffffffffffffffff1673ffffffffffffffffffffffffffffffffffffffff166108fc6003549081150290604051600060405180830381858888f19350505050158015610639573d6000803e3d6000fd5b50565b6004544210610680576040517f08c379a000000000000000000000000000000000000000000000000000000000815260040161067790610832565b60405180910390fd5b6000600260003373ffffffffffffffffffffffffffffffffffffffff1673ffffffffffffffffffffffffffffffffffffffff1681526020019081526020016000205411610702576040517f08c379a00000000000000000000000000000000000000000000000000000000081526004016106f990610aed565b60405180910390fd5b6000600260003373ffffffffffffffffffffffffffffffffffffffff1673ffffffffffffffffffffffffffffffffffffffff1681526020019081526020016000205490506000600260003373ffffffffffffffffffffffffffffffffffffffff1673ffffffffffffffffffffffffffffffffffffffff168152602001908152602001600020819055503373ffffffffffffffffffffffffffffffffffffffff166108fc829081150290604051600060405180830381858888f193505050501580156107d1573d6000803e3d6000fd5b5050565b600082825260208201905092915050565b7f546869732066756e64696e67206973206f766572000000000000000000000000600082015250565b600061081c6014836107d5565b9150610827826107e6565b602082019050919050565b6000602082019050818103600083015261084b8161080f565b9050919050565b6000819050919050565b7f4e487b7100000000000000000000000000000000000000000000000000000000600052601160045260246000fd5b600061089682610852565b91506108a183610852565b92508282019050808211156108b9576108b861085c565b5b92915050565b6108c881610852565b82525050565b60006020820190506108e360008301846108bf565b92915050565b600073ffffffffffffffffffffffffffffffffffffffff82169050919050565b6000610914826108e9565b9050919050565b61092481610909565b82525050565b600060208201905061093f600083018461091b565b92915050565b600080fd5b61095381610909565b811461095e57600080fd5b50565b6000813590506109708161094a565b92915050565b60006020828403121561098c5761098b610945565b5b600061099a84828501610961565b91505092915050565b7f546869732066756e64696e67206973206e6f74206f7665722079657400000000600082015250565b60006109d9601c836107d5565b91506109e4826109a3565b602082019050919050565b60006020820190508181036000830152610a08816109cc565b9050919050565b7f5468652046756e64696e6720646964207265616365642074686520676f616c00600082015250565b6000610a45601f836107d5565b9150610a5082610a0f565b602082019050919050565b60006020820190508181036000830152610a7481610a38565b9050919050565b7f596f7520646964206e6f7420646f6e61746520746f20746869732066756e646960008201527f6e67000000000000000000000000000000000000000000000000000000000000602082015250565b6000610ad76022836107d5565b9150610ae282610a7b565b604082019050919050565b60006020820190508181036000830152610b0681610aca565b9050919050565b7f46756e64732077696c6c206f6e6c792062652072656c656173656420746f207460008201527f6865206f776e6572000000000000000000000000000000000000000000000000602082015250565b6000610b696028836107d5565b9150610b7482610b0d565b604082019050919050565b60006020820190508181036000830152610b9881610b5c565b9050919050565b7f5468652066756e64696e6720646964206e6f742072656163682074686520676f60008201527f616c000000000000000000000000000000000000000000000000000000000000602082015250565b6000610bfb6022836107d5565b9150610c0682610b9f565b604082019050919050565b60006020820190508181036000830152610c2a81610bee565b905091905056fea264697066735822122044475f1e874c9b76c4affc9f0fc3510a2b8baf993fb0c1b4679e5b6f5ecec44f64736f6c63430008130033",
					"opcodes": "PUSH1 0x80 PUSH1 0x40 MSTORE CALLVALUE DUP1 ISZERO PUSH3 0x11 JUMPI PUSH1 0x0 DUP1 REVERT JUMPDEST POP PUSH1 0x40 MLOAD PUSH3 0xF2E CODESIZE SUB DUP1 PUSH3 0xF2E DUP4 CODECOPY DUP2 DUP2 ADD PUSH1 0x40 MSTORE DUP2 ADD SWAP1 PUSH3 0x37 SWAP2 SWAP1 PUSH3 0x166 JUMP JUMPDEST DUP6 PUSH1 0x0 DUP2 SWAP1 SSTORE POP CALLER PUSH1 0x1 PUSH1 0x0 PUSH2 0x100 EXP DUP2 SLOAD DUP2 PUSH20 0xFFFFFFFFFFFFFFFFFFFFFFFFFFFFFFFFFFFFFFFF MUL NOT AND SWAP1 DUP4 PUSH20 0xFFFFFFFFFFFFFFFFFFFFFFFFFFFFFFFFFFFFFFFF AND MUL OR SWAP1 SSTORE POP PUSH1 0x0 PUSH1 0x3 DUP2 SWAP1 SSTORE POP PUSH1 0x1 DUP2 PUSH3 0x96 SWAP2 SWAP1 PUSH3 0x231 JUMP JUMPDEST PUSH1 0x3C DUP4 PUSH3 0xA5 SWAP2 SWAP1 PUSH3 0x231 JUMP JUMPDEST PUSH2 0xE10 DUP6 PUSH3 0xB5 SWAP2 SWAP1 PUSH3 0x231 JUMP JUMPDEST PUSH3 0x15180 DUP8 PUSH3 0xC6 SWAP2 SWAP1 PUSH3 0x231 JUMP JUMPDEST PUSH3 0x93A80 DUP10 PUSH3 0xD7 SWAP2 SWAP1 PUSH3 0x231 JUMP JUMPDEST TIMESTAMP PUSH3 0xE4 SWAP2 SWAP1 PUSH3 0x27C JUMP JUMPDEST PUSH3 0xF0 SWAP2 SWAP1 PUSH3 0x27C JUMP JUMPDEST PUSH3 0xFC SWAP2 SWAP1 PUSH3 0x27C JUMP JUMPDEST PUSH3 0x108 SWAP2 SWAP1 PUSH3 0x27C JUMP JUMPDEST PUSH3 0x114 SWAP2 SWAP1 PUSH3 0x27C JUMP JUMPDEST PUSH1 0x4 DUP2 SWAP1 SSTORE POP POP POP POP POP POP POP PUSH3 0x2B7 JUMP JUMPDEST PUSH1 0x0 DUP1 REVERT JUMPDEST PUSH1 0x0 DUP2 SWAP1 POP SWAP2 SWAP1 POP JUMP JUMPDEST PUSH3 0x140 DUP2 PUSH3 0x12B JUMP JUMPDEST DUP2 EQ PUSH3 0x14C JUMPI PUSH1 0x0 DUP1 REVERT JUMPDEST POP JUMP JUMPDEST PUSH1 0x0 DUP2 MLOAD SWAP1 POP PUSH3 0x160 DUP2 PUSH3 0x135 JUMP JUMPDEST SWAP3 SWAP2 POP POP JUMP JUMPDEST PUSH1 0x0 DUP1 PUSH1 0x0 DUP1 PUSH1 0x0 DUP1 PUSH1 0xC0 DUP8 DUP10 SUB SLT ISZERO PUSH3 0x186 JUMPI PUSH3 0x185 PUSH3 0x126 JUMP JUMPDEST JUMPDEST PUSH1 0x0 PUSH3 0x196 DUP10 DUP3 DUP11 ADD PUSH3 0x14F JUMP JUMPDEST SWAP7 POP POP PUSH1 0x20 PUSH3 0x1A9 DUP10 DUP3 DUP11 ADD PUSH3 0x14F JUMP JUMPDEST SWAP6 POP POP PUSH1 0x40 PUSH3 0x1BC DUP10 DUP3 DUP11 ADD PUSH3 0x14F JUMP JUMPDEST SWAP5 POP POP PUSH1 0x60 PUSH3 0x1CF DUP10 DUP3 DUP11 ADD PUSH3 0x14F JUMP JUMPDEST SWAP4 POP POP PUSH1 0x80 PUSH3 0x1E2 DUP10 DUP3 DUP11 ADD PUSH3 0x14F JUMP JUMPDEST SWAP3 POP POP PUSH1 0xA0 PUSH3 0x1F5 DUP10 DUP3 DUP11 ADD PUSH3 0x14F JUMP JUMPDEST SWAP2 POP POP SWAP3 SWAP6 POP SWAP3 SWAP6 POP SWAP3 SWAP6 JUMP JUMPDEST PUSH32 0x4E487B7100000000000000000000000000000000000000000000000000000000 PUSH1 0x0 MSTORE PUSH1 0x11 PUSH1 0x4 MSTORE PUSH1 0x24 PUSH1 0x0 REVERT JUMPDEST PUSH1 0x0 PUSH3 0x23E DUP3 PUSH3 0x12B JUMP JUMPDEST SWAP2 POP PUSH3 0x24B DUP4 PUSH3 0x12B JUMP JUMPDEST SWAP3 POP DUP3 DUP3 MUL PUSH3 0x25B DUP2 PUSH3 0x12B JUMP JUMPDEST SWAP2 POP DUP3 DUP3 DIV DUP5 EQ DUP4 ISZERO OR PUSH3 0x275 JUMPI PUSH3 0x274 PUSH3 0x202 JUMP JUMPDEST JUMPDEST POP SWAP3 SWAP2 POP POP JUMP JUMPDEST PUSH1 0x0 PUSH3 0x289 DUP3 PUSH3 0x12B JUMP JUMPDEST SWAP2 POP PUSH3 0x296 DUP4 PUSH3 0x12B JUMP JUMPDEST SWAP3 POP DUP3 DUP3 ADD SWAP1 POP DUP1 DUP3 GT ISZERO PUSH3 0x2B1 JUMPI PUSH3 0x2B0 PUSH3 0x202 JUMP JUMPDEST JUMPDEST SWAP3 SWAP2 POP POP JUMP JUMPDEST PUSH2 0xC67 DUP1 PUSH3 0x2C7 PUSH1 0x0 CODECOPY PUSH1 0x0 RETURN INVALID PUSH1 0x80 PUSH1 0x40 MSTORE PUSH1 0x4 CALLDATASIZE LT PUSH2 0x7F JUMPI PUSH1 0x0 CALLDATALOAD PUSH1 0xE0 SHR DUP1 PUSH4 0x953B8FB8 GT PUSH2 0x4E JUMPI DUP1 PUSH4 0x953B8FB8 EQ PUSH2 0x1C8 JUMPI DUP1 PUSH4 0xCC6CB19A EQ PUSH2 0x1F3 JUMPI DUP1 PUSH4 0xCE1B088A EQ PUSH2 0x230 JUMPI DUP1 PUSH4 0xE914FA12 EQ PUSH2 0x23A JUMPI PUSH2 0x138 JUMP JUMPDEST DUP1 PUSH4 0x4BF71729 EQ PUSH2 0x13D JUMPI DUP1 PUSH4 0x590E1AE3 EQ PUSH2 0x168 JUMPI DUP1 PUSH4 0x5958611E EQ PUSH2 0x172 JUMPI DUP1 PUSH4 0x8DA5CB5B EQ PUSH2 0x19D JUMPI PUSH2 0x138 JUMP JUMPDEST CALLDATASIZE PUSH2 0x138 JUMPI PUSH1 0x4 SLOAD TIMESTAMP LT PUSH2 0xC8 JUMPI PUSH1 0x40 MLOAD PUSH32 0x8C379A000000000000000000000000000000000000000000000000000000000 DUP2 MSTORE PUSH1 0x4 ADD PUSH2 0xBF SWAP1 PUSH2 0x832 JUMP JUMPDEST PUSH1 0x40 MLOAD DUP1 SWAP2 SUB SWAP1 REVERT JUMPDEST CALLVALUE PUSH1 0x2 PUSH1 0x0 CALLER PUSH20 0xFFFFFFFFFFFFFFFFFFFFFFFFFFFFFFFFFFFFFFFF AND PUSH20 0xFFFFFFFFFFFFFFFFFFFFFFFFFFFFFFFFFFFFFFFF AND DUP2 MSTORE PUSH1 0x20 ADD SWAP1 DUP2 MSTORE PUSH1 0x20 ADD PUSH1 0x0 KECCAK256 PUSH1 0x0 DUP3 DUP3 SLOAD PUSH2 0x117 SWAP2 SWAP1 PUSH2 0x88B JUMP JUMPDEST SWAP3 POP POP DUP2 SWAP1 SSTORE POP CALLVALUE PUSH1 0x3 PUSH1 0x0 DUP3 DUP3 SLOAD PUSH2 0x130 SWAP2 SWAP1 PUSH2 0x88B JUMP JUMPDEST SWAP3 POP POP DUP2 SWAP1 SSTORE STOP JUMPDEST PUSH1 0x0 DUP1 REVERT JUMPDEST CALLVALUE DUP1 ISZERO PUSH2 0x149 JUMPI PUSH1 0x0 DUP1 REVERT JUMPDEST POP PUSH2 0x152 PUSH2 0x244 JUMP JUMPDEST PUSH1 0x40 MLOAD PUSH2 0x15F SWAP2 SWAP1 PUSH2 0x8CE JUMP JUMPDEST PUSH1 0x40 MLOAD DUP1 SWAP2 SUB SWAP1 RETURN JUMPDEST PUSH2 0x170 PUSH2 0x28B JUMP JUMPDEST STOP JUMPDEST CALLVALUE DUP1 ISZERO PUSH2 0x17E JUMPI PUSH1 0x0 DUP1 REVERT JUMPDEST POP PUSH2 0x187 PUSH2 0x46A JUMP JUMPDEST PUSH1 0x40 MLOAD PUSH2 0x194 SWAP2 SWAP1 PUSH2 0x8CE JUMP JUMPDEST PUSH1 0x40 MLOAD DUP1 SWAP2 SUB SWAP1 RETURN JUMPDEST CALLVALUE DUP1 ISZERO PUSH2 0x1A9 JUMPI PUSH1 0x0 DUP1 REVERT JUMPDEST POP PUSH2 0x1B2 PUSH2 0x470 JUMP JUMPDEST PUSH1 0x40 MLOAD PUSH2 0x1BF SWAP2 SWAP1 PUSH2 0x92A JUMP JUMPDEST PUSH1 0x40 MLOAD DUP1 SWAP2 SUB SWAP1 RETURN JUMPDEST CALLVALUE DUP1 ISZERO PUSH2 0x1D4 JUMPI PUSH1 0x0 DUP1 REVERT JUMPDEST POP PUSH2 0x1DD PUSH2 0x496 JUMP JUMPDEST PUSH1 0x40 MLOAD PUSH2 0x1EA SWAP2 SWAP1 PUSH2 0x8CE JUMP JUMPDEST PUSH1 0x40 MLOAD DUP1 SWAP2 SUB SWAP1 RETURN JUMPDEST CALLVALUE DUP1 ISZERO PUSH2 0x1FF JUMPI PUSH1 0x0 DUP1 REVERT JUMPDEST POP PUSH2 0x21A PUSH1 0x4 DUP1 CALLDATASIZE SUB DUP2 ADD SWAP1 PUSH2 0x215 SWAP2 SWAP1 PUSH2 0x976 JUMP JUMPDEST PUSH2 0x49C JUMP JUMPDEST PUSH1 0x40 MLOAD PUSH2 0x227 SWAP2 SWAP1 PUSH2 0x8CE JUMP JUMPDEST PUSH1 0x40 MLOAD DUP1 SWAP2 SUB SWAP1 RETURN JUMPDEST PUSH2 0x238 PUSH2 0x4B4 JUMP JUMPDEST STOP JUMPDEST PUSH2 0x242 PUSH2 0x63C JUMP JUMPDEST STOP JUMPDEST PUSH1 0x0 PUSH1 0x2 PUSH1 0x0 CALLER PUSH20 0xFFFFFFFFFFFFFFFFFFFFFFFFFFFFFFFFFFFFFFFF AND PUSH20 0xFFFFFFFFFFFFFFFFFFFFFFFFFFFFFFFFFFFFFFFF AND DUP2 MSTORE PUSH1 0x20 ADD SWAP1 DUP2 MSTORE PUSH1 0x20 ADD PUSH1 0x0 KECCAK256 SLOAD SWAP1 POP SWAP1 JUMP JUMPDEST PUSH1 0x4 SLOAD TIMESTAMP GT PUSH2 0x2CF JUMPI PUSH1 0x40 MLOAD PUSH32 0x8C379A000000000000000000000000000000000000000000000000000000000 DUP2 MSTORE PUSH1 0x4 ADD PUSH2 0x2C6 SWAP1 PUSH2 0x9EF JUMP JUMPDEST PUSH1 0x40 MLOAD DUP1 SWAP2 SUB SWAP1 REVERT JUMPDEST PUSH1 0x0 SLOAD PUSH1 0x3 SLOAD LT PUSH2 0x315 JUMPI PUSH1 0x40 MLOAD PUSH32 0x8C379A000000000000000000000000000000000000000000000000000000000 DUP2 MSTORE PUSH1 0x4 ADD PUSH2 0x30C SWAP1 PUSH2 0xA5B JUMP JUMPDEST PUSH1 0x40 MLOAD DUP1 SWAP2 SUB SWAP1 REVERT JUMPDEST PUSH1 0x0 PUSH1 0x2 PUSH1 0x0 CALLER PUSH20 0xFFFFFFFFFFFFFFFFFFFFFFFFFFFFFFFFFFFFFFFF AND PUSH20 0xFFFFFFFFFFFFFFFFFFFFFFFFFFFFFFFFFFFFFFFF AND DUP2 MSTORE PUSH1 0x20 ADD SWAP1 DUP2 MSTORE PUSH1 0x20 ADD PUSH1 0x0 KECCAK256 SLOAD GT PUSH2 0x397 JUMPI PUSH1 0x40 MLOAD PUSH32 0x8C379A000000000000000000000000000000000000000000000000000000000 DUP2 MSTORE PUSH1 0x4 ADD PUSH2 0x38E SWAP1 PUSH2 0xAED JUMP JUMPDEST PUSH1 0x40 MLOAD DUP1 SWAP2 SUB SWAP1 REVERT JUMPDEST PUSH1 0x0 PUSH1 0x2 PUSH1 0x0 CALLER PUSH20 0xFFFFFFFFFFFFFFFFFFFFFFFFFFFFFFFFFFFFFFFF AND PUSH20 0xFFFFFFFFFFFFFFFFFFFFFFFFFFFFFFFFFFFFFFFF AND DUP2 MSTORE PUSH1 0x20 ADD SWAP1 DUP2 MSTORE PUSH1 0x20 ADD PUSH1 0x0 KECCAK256 SLOAD SWAP1 POP PUSH1 0x0 PUSH1 0x2 PUSH1 0x0 CALLER PUSH20 0xFFFFFFFFFFFFFFFFFFFFFFFFFFFFFFFFFFFFFFFF AND PUSH20 0xFFFFFFFFFFFFFFFFFFFFFFFFFFFFFFFFFFFFFFFF AND DUP2 MSTORE PUSH1 0x20 ADD SWAP1 DUP2 MSTORE PUSH1 0x20 ADD PUSH1 0x0 KECCAK256 DUP2 SWAP1 SSTORE POP CALLER PUSH20 0xFFFFFFFFFFFFFFFFFFFFFFFFFFFFFFFFFFFFFFFF AND PUSH2 0x8FC DUP3 SWAP1 DUP2 ISZERO MUL SWAP1 PUSH1 0x40 MLOAD PUSH1 0x0 PUSH1 0x40 MLOAD DUP1 DUP4 SUB DUP2 DUP6 DUP9 DUP9 CALL SWAP4 POP POP POP POP ISZERO DUP1 ISZERO PUSH2 0x466 JUMPI RETURNDATASIZE PUSH1 0x0 DUP1 RETURNDATACOPY RETURNDATASIZE PUSH1 0x0 REVERT JUMPDEST POP POP JUMP JUMPDEST PUSH1 0x4 SLOAD DUP2 JUMP JUMPDEST PUSH1 0x1 PUSH1 0x0 SWAP1 SLOAD SWAP1 PUSH2 0x100 EXP SWAP1 DIV PUSH20 0xFFFFFFFFFFFFFFFFFFFFFFFFFFFFFFFFFFFFFFFF AND DUP2 JUMP JUMPDEST PUSH1 0x0 SLOAD DUP2 JUMP JUMPDEST PUSH1 0x2 PUSH1 0x20 MSTORE DUP1 PUSH1 0x0 MSTORE PUSH1 0x40 PUSH1 0x0 KECCAK256 PUSH1 0x0 SWAP2 POP SWAP1 POP SLOAD DUP2 JUMP JUMPDEST PUSH1 0x1 PUSH1 0x0 SWAP1 SLOAD SWAP1 PUSH2 0x100 EXP SWAP1 DIV PUSH20 0xFFFFFFFFFFFFFFFFFFFFFFFFFFFFFFFFFFFFFFFF AND PUSH20 0xFFFFFFFFFFFFFFFFFFFFFFFFFFFFFFFFFFFFFFFF AND CALLER PUSH20 0xFFFFFFFFFFFFFFFFFFFFFFFFFFFFFFFFFFFFFFFF AND EQ PUSH2 0x544 JUMPI PUSH1 0x40 MLOAD PUSH32 0x8C379A000000000000000000000000000000000000000000000000000000000 DUP2 MSTORE PUSH1 0x4 ADD PUSH2 0x53B SWAP1 PUSH2 0xB7F JUMP JUMPDEST PUSH1 0x40 MLOAD DUP1 SWAP2 SUB SWAP1 REVERT JUMPDEST PUSH1 0x0 SLOAD PUSH1 0x3 SLOAD LT ISZERO PUSH2 0x58B JUMPI PUSH1 0x40 MLOAD PUSH32 0x8C379A000000000000000000000000000000000000000000000000000000000 DUP2 MSTORE PUSH1 0x4 ADD PUSH2 0x582 SWAP1 PUSH2 0xC11 JUMP JUMPDEST PUSH1 0x40 MLOAD DUP1 SWAP2 SUB SWAP1 REVERT JUMPDEST PUSH1 0x4 SLOAD TIMESTAMP GT PUSH2 0x5CF JUMPI PUSH1 0x40 MLOAD PUSH32 0x8C379A000000000000000000000000000000000000000000000000000000000 DUP2 MSTORE PUSH1 0x4 ADD PUSH2 0x5C6 SWAP1 PUSH2 0x9EF JUMP JUMPDEST PUSH1 0x40 MLOAD DUP1 SWAP2 SUB SWAP1 REVERT JUMPDEST PUSH1 0x1 PUSH1 0x0 SWAP1 SLOAD SWAP1 PUSH2 0x100 EXP SWAP1 DIV PUSH20 0xFFFFFFFFFFFFFFFFFFFFFFFFFFFFFFFFFFFFFFFF AND PUSH20 0xFFFFFFFFFFFFFFFFFFFFFFFFFFFFFFFFFFFFFFFF AND PUSH2 0x8FC PUSH1 0x3 SLOAD SWAP1 DUP2 ISZERO MUL SWAP1 PUSH1 0x40 MLOAD PUSH1 0x0 PUSH1 0x40 MLOAD DUP1 DUP4 SUB DUP2 DUP6 DUP9 DUP9 CALL SWAP4 POP POP POP POP ISZERO DUP1 ISZERO PUSH2 0x639 JUMPI RETURNDATASIZE PUSH1 0x0 DUP1 RETURNDATACOPY RETURNDATASIZE PUSH1 0x0 REVERT JUMPDEST POP JUMP JUMPDEST PUSH1 0x4 SLOAD TIMESTAMP LT PUSH2 0x680 JUMPI PUSH1 0x40 MLOAD PUSH32 0x8C379A000000000000000000000000000000000000000000000000000000000 DUP2 MSTORE PUSH1 0x4 ADD PUSH2 0x677 SWAP1 PUSH2 0x832 JUMP JUMPDEST PUSH1 0x40 MLOAD DUP1 SWAP2 SUB SWAP1 REVERT JUMPDEST PUSH1 0x0 PUSH1 0x2 PUSH1 0x0 CALLER PUSH20 0xFFFFFFFFFFFFFFFFFFFFFFFFFFFFFFFFFFFFFFFF AND PUSH20 0xFFFFFFFFFFFFFFFFFFFFFFFFFFFFFFFFFFFFFFFF AND DUP2 MSTORE PUSH1 0x20 ADD SWAP1 DUP2 MSTORE PUSH1 0x20 ADD PUSH1 0x0 KECCAK256 SLOAD GT PUSH2 0x702 JUMPI PUSH1 0x40 MLOAD PUSH32 0x8C379A000000000000000000000000000000000000000000000000000000000 DUP2 MSTORE PUSH1 0x4 ADD PUSH2 0x6F9 SWAP1 PUSH2 0xAED JUMP JUMPDEST PUSH1 0x40 MLOAD DUP1 SWAP2 SUB SWAP1 REVERT JUMPDEST PUSH1 0x0 PUSH1 0x2 PUSH1 0x0 CALLER PUSH20 0xFFFFFFFFFFFFFFFFFFFFFFFFFFFFFFFFFFFFFFFF AND PUSH20 0xFFFFFFFFFFFFFFFFFFFFFFFFFFFFFFFFFFFFFFFF AND DUP2 MSTORE PUSH1 0x20 ADD SWAP1 DUP2 MSTORE PUSH1 0x20 ADD PUSH1 0x0 KECCAK256 SLOAD SWAP1 POP PUSH1 0x0 PUSH1 0x2 PUSH1 0x0 CALLER PUSH20 0xFFFFFFFFFFFFFFFFFFFFFFFFFFFFFFFFFFFFFFFF AND PUSH20 0xFFFFFFFFFFFFFFFFFFFFFFFFFFFFFFFFFFFFFFFF AND DUP2 MSTORE PUSH1 0x20 ADD SWAP1 DUP2 MSTORE PUSH1 0x20 ADD PUSH1 0x0 KECCAK256 DUP2 SWAP1 SSTORE POP CALLER PUSH20 0xFFFFFFFFFFFFFFFFFFFFFFFFFFFFFFFFFFFFFFFF AND PUSH2 0x8FC DUP3 SWAP1 DUP2 ISZERO MUL SWAP1 PUSH1 0x40 MLOAD PUSH1 0x0 PUSH1 0x40 MLOAD DUP1 DUP4 SUB DUP2 DUP6 DUP9 DUP9 CALL SWAP4 POP POP POP POP ISZERO DUP1 ISZERO PUSH2 0x7D1 JUMPI RETURNDATASIZE PUSH1 0x0 DUP1 RETURNDATACOPY RETURNDATASIZE PUSH1 0x0 REVERT JUMPDEST POP POP JUMP JUMPDEST PUSH1 0x0 DUP3 DUP3 MSTORE PUSH1 0x20 DUP3 ADD SWAP1 POP SWAP3 SWAP2 POP POP JUMP JUMPDEST PUSH32 0x546869732066756E64696E67206973206F766572000000000000000000000000 PUSH1 0x0 DUP3 ADD MSTORE POP JUMP JUMPDEST PUSH1 0x0 PUSH2 0x81C PUSH1 0x14 DUP4 PUSH2 0x7D5 JUMP JUMPDEST SWAP2 POP PUSH2 0x827 DUP3 PUSH2 0x7E6 JUMP JUMPDEST PUSH1 0x20 DUP3 ADD SWAP1 POP SWAP2 SWAP1 POP JUMP JUMPDEST PUSH1 0x0 PUSH1 0x20 DUP3 ADD SWAP1 POP DUP2 DUP2 SUB PUSH1 0x0 DUP4 ADD MSTORE PUSH2 0x84B DUP2 PUSH2 0x80F JUMP JUMPDEST SWAP1 POP SWAP2 SWAP1 POP JUMP JUMPDEST PUSH1 0x0 DUP2 SWAP1 POP SWAP2 SWAP1 POP JUMP JUMPDEST PUSH32 0x4E487B7100000000000000000000000000000000000000000000000000000000 PUSH1 0x0 MSTORE PUSH1 0x11 PUSH1 0x4 MSTORE PUSH1 0x24 PUSH1 0x0 REVERT JUMPDEST PUSH1 0x0 PUSH2 0x896 DUP3 PUSH2 0x852 JUMP JUMPDEST SWAP2 POP PUSH2 0x8A1 DUP4 PUSH2 0x852 JUMP JUMPDEST SWAP3 POP DUP3 DUP3 ADD SWAP1 POP DUP1 DUP3 GT ISZERO PUSH2 0x8B9 JUMPI PUSH2 0x8B8 PUSH2 0x85C JUMP JUMPDEST JUMPDEST SWAP3 SWAP2 POP POP JUMP JUMPDEST PUSH2 0x8C8 DUP2 PUSH2 0x852 JUMP JUMPDEST DUP3 MSTORE POP POP JUMP JUMPDEST PUSH1 0x0 PUSH1 0x20 DUP3 ADD SWAP1 POP PUSH2 0x8E3 PUSH1 0x0 DUP4 ADD DUP5 PUSH2 0x8BF JUMP JUMPDEST SWAP3 SWAP2 POP POP JUMP JUMPDEST PUSH1 0x0 PUSH20 0xFFFFFFFFFFFFFFFFFFFFFFFFFFFFFFFFFFFFFFFF DUP3 AND SWAP1 POP SWAP2 SWAP1 POP JUMP JUMPDEST PUSH1 0x0 PUSH2 0x914 DUP3 PUSH2 0x8E9 JUMP JUMPDEST SWAP1 POP SWAP2 SWAP1 POP JUMP JUMPDEST PUSH2 0x924 DUP2 PUSH2 0x909 JUMP JUMPDEST DUP3 MSTORE POP POP JUMP JUMPDEST PUSH1 0x0 PUSH1 0x20 DUP3 ADD SWAP1 POP PUSH2 0x93F PUSH1 0x0 DUP4 ADD DUP5 PUSH2 0x91B JUMP JUMPDEST SWAP3 SWAP2 POP POP JUMP JUMPDEST PUSH1 0x0 DUP1 REVERT JUMPDEST PUSH2 0x953 DUP2 PUSH2 0x909 JUMP JUMPDEST DUP2 EQ PUSH2 0x95E JUMPI PUSH1 0x0 DUP1 REVERT JUMPDEST POP JUMP JUMPDEST PUSH1 0x0 DUP2 CALLDATALOAD SWAP1 POP PUSH2 0x970 DUP2 PUSH2 0x94A JUMP JUMPDEST SWAP3 SWAP2 POP POP JUMP JUMPDEST PUSH1 0x0 PUSH1 0x20 DUP3 DUP5 SUB SLT ISZERO PUSH2 0x98C JUMPI PUSH2 0x98B PUSH2 0x945 JUMP JUMPDEST JUMPDEST PUSH1 0x0 PUSH2 0x99A DUP5 DUP3 DUP6 ADD PUSH2 0x961 JUMP JUMPDEST SWAP2 POP POP SWAP3 SWAP2 POP POP JUMP JUMPDEST PUSH32 0x546869732066756E64696E67206973206E6F74206F7665722079657400000000 PUSH1 0x0 DUP3 ADD MSTORE POP JUMP JUMPDEST PUSH1 0x0 PUSH2 0x9D9 PUSH1 0x1C DUP4 PUSH2 0x7D5 JUMP JUMPDEST SWAP2 POP PUSH2 0x9E4 DUP3 PUSH2 0x9A3 JUMP JUMPDEST PUSH1 0x20 DUP3 ADD SWAP1 POP SWAP2 SWAP1 POP JUMP JUMPDEST PUSH1 0x0 PUSH1 0x20 DUP3 ADD SWAP1 POP DUP2 DUP2 SUB PUSH1 0x0 DUP4 ADD MSTORE PUSH2 0xA08 DUP2 PUSH2 0x9CC JUMP JUMPDEST SWAP1 POP SWAP2 SWAP1 POP JUMP JUMPDEST PUSH32 0x5468652046756E64696E6720646964207265616365642074686520676F616C00 PUSH1 0x0 DUP3 ADD MSTORE POP JUMP JUMPDEST PUSH1 0x0 PUSH2 0xA45 PUSH1 0x1F DUP4 PUSH2 0x7D5 JUMP JUMPDEST SWAP2 POP PUSH2 0xA50 DUP3 PUSH2 0xA0F JUMP JUMPDEST PUSH1 0x20 DUP3 ADD SWAP1 POP SWAP2 SWAP1 POP JUMP JUMPDEST PUSH1 0x0 PUSH1 0x20 DUP3 ADD SWAP1 POP DUP2 DUP2 SUB PUSH1 0x0 DUP4 ADD MSTORE PUSH2 0xA74 DUP2 PUSH2 0xA38 JUMP JUMPDEST SWAP1 POP SWAP2 SWAP1 POP JUMP JUMPDEST PUSH32 0x596F7520646964206E6F7420646F6E61746520746F20746869732066756E6469 PUSH1 0x0 DUP3 ADD MSTORE PUSH32 0x6E67000000000000000000000000000000000000000000000000000000000000 PUSH1 0x20 DUP3 ADD MSTORE POP JUMP JUMPDEST PUSH1 0x0 PUSH2 0xAD7 PUSH1 0x22 DUP4 PUSH2 0x7D5 JUMP JUMPDEST SWAP2 POP PUSH2 0xAE2 DUP3 PUSH2 0xA7B JUMP JUMPDEST PUSH1 0x40 DUP3 ADD SWAP1 POP SWAP2 SWAP1 POP JUMP JUMPDEST PUSH1 0x0 PUSH1 0x20 DUP3 ADD SWAP1 POP DUP2 DUP2 SUB PUSH1 0x0 DUP4 ADD MSTORE PUSH2 0xB06 DUP2 PUSH2 0xACA JUMP JUMPDEST SWAP1 POP SWAP2 SWAP1 POP JUMP JUMPDEST PUSH32 0x46756E64732077696C6C206F6E6C792062652072656C656173656420746F2074 PUSH1 0x0 DUP3 ADD MSTORE PUSH32 0x6865206F776E6572000000000000000000000000000000000000000000000000 PUSH1 0x20 DUP3 ADD MSTORE POP JUMP JUMPDEST PUSH1 0x0 PUSH2 0xB69 PUSH1 0x28 DUP4 PUSH2 0x7D5 JUMP JUMPDEST SWAP2 POP PUSH2 0xB74 DUP3 PUSH2 0xB0D JUMP JUMPDEST PUSH1 0x40 DUP3 ADD SWAP1 POP SWAP2 SWAP1 POP JUMP JUMPDEST PUSH1 0x0 PUSH1 0x20 DUP3 ADD SWAP1 POP DUP2 DUP2 SUB PUSH1 0x0 DUP4 ADD MSTORE PUSH2 0xB98 DUP2 PUSH2 0xB5C JUMP JUMPDEST SWAP1 POP SWAP2 SWAP1 POP JUMP JUMPDEST PUSH32 0x5468652066756E64696E6720646964206E6F742072656163682074686520676F PUSH1 0x0 DUP3 ADD MSTORE PUSH32 0x616C000000000000000000000000000000000000000000000000000000000000 PUSH1 0x20 DUP3 ADD MSTORE POP JUMP JUMPDEST PUSH1 0x0 PUSH2 0xBFB PUSH1 0x22 DUP4 PUSH2 0x7D5 JUMP JUMPDEST SWAP2 POP PUSH2 0xC06 DUP3 PUSH2 0xB9F JUMP JUMPDEST PUSH1 0x40 DUP3 ADD SWAP1 POP SWAP2 SWAP1 POP JUMP JUMPDEST PUSH1 0x0 PUSH1 0x20 DUP3 ADD SWAP1 POP DUP2 DUP2 SUB PUSH1 0x0 DUP4 ADD MSTORE PUSH2 0xC2A DUP2 PUSH2 0xBEE JUMP JUMPDEST SWAP1 POP SWAP2 SWAP1 POP JUMP INVALID LOG2 PUSH5 0x6970667358 0x22 SLT KECCAK256 PREVRANDAO SELFBALANCE 0x5F 0x1E DUP8 0x4C SWAP12 PUSH23 0xC4AFFC9F0FC3510A2B8BAF993FB0C1B4679E5B6F5ECEC4 0x4F PUSH5 0x736F6C6343 STOP ADDMOD SGT STOP CALLER "
				},
				"gasEstimates": {
					"creation": {
						"codeDepositCost": "635000",
						"executionCost": "infinite",
						"totalCost": "infinite"
					},
					"external": {
						"cancelFund()": "infinite",
						"donations(address)": "2836",
						"finishTime()": "2474",
						"getDonation()": "2527",
						"owner()": "2581",
						"refund()": "infinite",
						"targetAmount()": "2429",
						"withdrawDonations()": "infinite"
					}
				},
				"methodIdentifiers": {
					"cancelFund()": "e914fa12",
					"donations(address)": "cc6cb19a",
					"finishTime()": "5958611e",
					"getDonation()": "4bf71729",
					"owner()": "8da5cb5b",
					"refund()": "590e1ae3",
					"targetAmount()": "953b8fb8",
					"withdrawDonations()": "ce1b088a"
				}
			},
			"storageLayout": {
				"storage": [
					{
						"astId": 3,
						"contract": "contracts/Fundraising.sol:Fundraising",
						"label": "targetAmount",
						"offset": 0,
						"slot": "0",
						"type": "t_uint256"
					},
					{
						"astId": 5,
						"contract": "contracts/Fundraising.sol:Fundraising",
						"label": "owner",
						"offset": 0,
						"slot": "1",
						"type": "t_address"
					},
					{
						"astId": 9,
						"contract": "contracts/Fundraising.sol:Fundraising",
						"label": "donations",
						"offset": 0,
						"slot": "2",
						"type": "t_mapping(t_address,t_uint256)"
					},
					{
						"astId": 11,
						"contract": "contracts/Fundraising.sol:Fundraising",
						"label": "raisedAmount",
						"offset": 0,
						"slot": "3",
						"type": "t_uint256"
					},
					{
						"astId": 13,
						"contract": "contracts/Fundraising.sol:Fundraising",
						"label": "finishTime",
						"offset": 0,
						"slot": "4",
						"type": "t_uint256"
					}
				],
				"types": {
					"t_address": {
						"encoding": "inplace",
						"label": "address",
						"numberOfBytes": "20"
					},
					"t_mapping(t_address,t_uint256)": {
						"encoding": "mapping",
						"key": "t_address",
						"label": "mapping(address => uint256)",
						"numberOfBytes": "32",
						"value": "t_uint256"
					},
					"t_uint256": {
						"encoding": "inplace",
						"label": "uint256",
						"numberOfBytes": "32"
					}
				}
			},
			"userdoc": {
				"kind": "user",
				"methods": {},
				"version": 1
			}
		}
	}
}